:020000040000FA
:0600000002011A0220D6E5
:03002B0002276F3A
:0300530002214C3B
:03006B0002273D2C
:10008300021F33E5C754F84401F5C7790122000084
:100093000080FB120086B90003020104E479217891
:1000A30008B800028004F709D8FCE479297802B87B
:1000B30000028004F709D8FCE490028178F37913F5
:1000C3008002F0A3D8FCD9FA781A90014A7A01BACF
:1000D30000028007E493A3F608DAF97A737B15909C
:1000E300014B78D379028015E493A3AD82AE838A62
:1000F300828B83F0A3AA82AB838D828E83D8E9D9C6
:10010300E77582A17583FF740212012C75829175C4
:100113008300740012012C75D00075813F7518811E
:10012300751902759F00020096C09FF59FE473D076
:100133009F22D083D082C09FE493C0E0740193C018
:10014300E0740293F59F2201FF0000B40000280031
:100153002800283075A000A000A000A0000008001F
:1001630008E001F000100010001000100010001053
:100173000050005000500010001000D00700000095
:100183000000000F0001000500307507001000019A
:100193000081FF00000000FFFFFF390557053F0501
:1001A3007B05FF02020208025000A0000000E803E2
:1001B30002C48F010000B58F02D08F010000CE155D
:1001C30002BC8F010000BF0202D08F010000CF15D7
:1001D30002BA8F010000D50202D08F010000D015B2
:1001E30002B88F010000D70202D08F010000D115A1
:1001F30002C08F080000D80202D08F010000D21580
:1002030002C68F010000D315FF0100FF2002C48F37
:10021300010000F58E02D08F010000371602CE8F49
:10022300000000000002BE8F030000060317000B4E
:100233000C0B0C0B0C0B0C0B0C0B0C0B0C0B0C0B03
:100243000C0B0C0B0C0B0C0B0CF30E050FED0E0132
:10025300E8030577100AFFFFFF0001307503020171
:100263000600000000000000000000000000000085
:1002730000000000000000000000000000FFFF0677
:1002830000800CE80309095645534320424C4505B9
:100293001206000C00020A0002010611079ECADCC6
:1002A300240EE5A9E093F3A3B50100406E56455330
:1002B3004320424C45000000000000000000000005
:1002C3000000FFFF431300001056455343205458CA
:1002D300000C564553432052580002C48F010000BE
:1002E300B28F02D08F010000F316107F8E00000042
:1002F300471502BE8F0300005D1502CC8F0100007D
:10030300F41602D08F010000FC16109F8E0200002D
:100313005F1502CC8F010000FD16120135599703BA
:100323001201356C97031201359B9703120135D3E4
:1003330097031201351C98031201355F98031201CC
:1003430035A59803120135D89803120135FF980398
:100353001201352E99031201356599031201357E79
:100363009903120135CD9903120135E69903120160
:10037300352E9A03120135629A03120135D3B60260
:10038300120135D1B70212013537B8021201355ABD
:10039300B8021201355CB8021201359AB802120193
:1003A300350BB902120135CBB902120135EDB90291
:1003B30012013589BA02120135C0BA02120135059C
:1003C300BB0212013512BB0212013582BB021201BC
:1003D30035CCBB02120135CFBB0212013515BC026D
:1003E30012013518BC0212013522BC0212013595E7
:1003F300BC02120135BDBC02120135F0BC02120170
:100403003514BD0212013511BE02120135B5BE020B
:1004130012013521BF021201355DBF021201350AF7
:1004230088031201353288031201355F88031201F4
:1004330035978803120135FD880312013547890377
:10044300120135AB8903120135F3890312013530EB
:100453008A031201355E8A03120135F38A031201FE
:1004630035FD8A031201350A8B031201353D8B03D7
:10047300120135498B03120135618B031201356B70
:100483008B0312013596B203120135A4B203120194
:1004930035BCB203120135D3B20312013589C7014A
:1004A3001201352CC80112013545C901120135BDB0
:1004B300C901120135E4CA011201351DCB01120134
:1004C30035B5CB01120135A2CC011201354BCD015B
:1004D300120135D3CE01120135BBCF01120135B262
:1004E300D001120135E8D0011201358AD101120180
:1004F30035B0D1011201357CD301120135C2D301CC
:10050300120135E4D30112013550D4011201351B18
:10051300D501120135D5D501120135E1D7011201FB
:10052300357BCF0212013557D00212013501D102BA
:1005330012013542D102120135C9D10212013544EB
:10054300D20212013517D30212013540D302120130
:100553003534D40212013571D40212013559D50252
:100563001201358AD502120135B0D50212013514B4
:10057300A20312013593A203120135BEA203120195
:1005830035CEA303120135F98B031201350F8C030A
:100593001201352D8C031201353D8D0312013547B0
:1005A3008D03120135718E031201355E8F03120123
:1005B30035CA8F0312013520D6021201354DD702F9
:1005C30012013584D702120135DBD702120135D36C
:1005D300D90212013567A301120135EEA3011201FD
:1005E3003542A5011201354EA501120135C6A501FB
:1005F3001201359FA6011201359FA7011201359BF8
:10060300A80112013567A901120135C1AA0112011E
:1006130035D7AA01120135F8AA011201358AAB01B7
:1006230012013500AC0112013526AC01120135D39C
:10063300AE01120135D8AE01120135FCB001120131
:100643003543B101120135A9B101120135EFB101F1
:10065300120135BFB20112013574B301120135D055
:10066300B301120135D3B3011201351FB4011201D5
:10067300355BB4011201359AB401120135BCB401E2
:10068300120135F0B4011201355EB5011201350ACC
:10069300E10212013518E10212013568E10212018B
:1006A3003587E102120135D1E10212013514E3026B
:1006B300120135ACE302120135F0E3021201351ADF
:1006C300E40212013585E402120135C9E402120184
:1006D300354CE502120135FBE5021201359C27007A
:1006E300120135AC2700120135462800120135A24C
:1006F3002800120135602900120135832A001201F6
:1007030035B32A00120135E22A00120135982C0074
:10071300120135EB2E001201354A31001201353337
:100723003200120135233300120135F63400120171
:1007330035EE37001201350B3900120135053B0048
:10074300120135143C00120135A33D001201358F0F
:100753003E00120135DE3E001201354E3F0012010C
:10076300356A3F00120135BB3F001201355B44007F
:10077300120135624500120135C44500120135EFFF
:100783004500120135A7460012013500800312010E
:10079300350A800312013552800312013566800346
:1007A300120135F780031201352E810312013569D9
:1007B3008103120135928103120135E6810312018F
:1007C30035FB81031201351D820312013532820389
:1007D3001201354682031201355B820312013595FE
:1007E3008203120135C182031201354C83031201C6
:1007F300358F8303120135B98303120135E4830373
:10080300120135D4AD031201350E9A02120135E7F8
:100813009A02120135569B02120135919B02120175
:1008230035CC9C021201357E9D021201352BA002AC
:10083300120135D6A002120135B7A1021201352DDE
:10084300A30212013595A30212013572EF021201C0
:1008530035B5EF0212013520F1021201355EF302C4
:100863001201351B9E03120135C89E03120135C1C7
:100873009F03120135FE9F03120135D7A503120111
:100883003536A603120135D3A60312013506A70395
:1008930012013534A7031201356FA7031201358FF7
:1008A300A703120135C9EA0212013552EB02120104
:1008B3003511EC021201351FED021201353FEF0233
:1008C30012013524F40112013539F4011201350402
:1008D300F501120135D1F5011201353EF601120180
:1008E3003579F6011201351AF70112013523F801A2
:1008F300120135FBF8011201357EF90112013507AA
:10090300FA0112013570FA01120135FAFA011201E6
:100913003547FB01120135B5FB0112013557FC01C7
:1009230012013505FD0112013525FD01120135695D
:10093300FD01120135B1FD01120135CDFD01120199
:1009430035ECFD0112013566FE0112013574FE011D
:1009530012013507FF0112013571FF01120135FB49
:10096300F30212013577F402120135B5F4021201D4
:100973003599F50212013508F6021201354CF602DB
:100983001201358FF602120135BCF602120135DA77
:10099300F60212013512F7021201354FF702120166
:1009A3003570F702120135E6F70212013530F8020D
:1009B30012013518B601120135B5B701120135E040
:1009C300B90112013528BA0112013553BA011201D6
:1009D300353FBB0112013583BB01120135EFBB016A
:1009E30012013502BC0112013543BC0112013570FD
:1009F300BC01120135B9BC01120135FCBC01120165
:100A03003532BD0112013583BD01120135E7BD0148
:100A1300120135BEC001120135B2C201120135ED1A
:100A2300C2011201356DC401120135B1C4011201B5
:100A33003521C50112013576C5011201353BC601C9
:100A430012013573C70112013584C7011201353A0A
:100A5300A402120135A3A40212013566AA021201EF
:100A6300355BAB02120135E5AC021201357DAD02F7
:100A73001201351047001201355847001201358520
:100A83004700120135B74700120135C44700120170
:100A930035D04700120135E24700120135A948005D
:100AA3001201350749001201353C4900120135781E
:100AB3004A00120135C54A00120135E04A0012010D
:100AC30035544B001201350B4C00120135EB4C0031
:100AD300120135514D00120135234E0012013545E7
:100AE3004E00120135B54E001201354C4F00120174
:100AF30035734F00120135EB4F001201357350006F
:100B0300120135A05000120135455100120135C5BF
:100B13005100120135645200120135DC52001201FA
:100B230035315300120135795300120135AE5300AC
:100B3300120135505400120135745500120135B4B9
:100B43005500120135D15500120135475C001201E1
:100B530035905C001201352C5D00120135515D00AA
:100B6300120135665D00120135CD5D0012013514A9
:100B73005E00120135245F00120135D05F001201BF
:100B8300352A60001201358660001201359F60002E
:100B9300120135A6AD02120135F1AD02120135FD88
:100BA300AD02120135CDAE02120135F6AE021201CD
:100BB3003529AF0212013595AF02120135D3AF02C9
:100BC3001201350CB00212013524B0021201357D39
:100BD300B00212013596B002120135DBB0021201E8
:100BE30035EEB00212013508B1021201351EB10211
:100BF30012013525B20212013546B3021201352F17
:100C0300B4021201351EB502120135F3FF011201C0
:100C1300350D8D02120135408D02120135AA900265
:100C2300120135FF9102120135D2920212013514DD
:100C330094021201350C95021201355A95021201E4
:100C430035749502120135B69502120135C195022C
:100C53001201350A9602120135139602120135BFAD
:100C63009602120135999702120135E59702120196
:100C730035459802120135979802120135C598023D
:100C8300120135039902120135D38F01120135B4D4
:100C93009301120135BA93011201352A9A01120107
:100CA30035FD9E0112013517A301120135AF9303E0
:100CB3001201352594031201353B9403120135B813
:100CC3009403120135EF94031201352995031201A0
:100CD30035639503120135D6950312013511960339
:100CE3001201351A96031201352696031201353F78
:100CF30096031201356396031201357896031201A8
:100D030035A196031201350397031201352A970380
:100D13001201350DE60212013520E6021201353AC1
:100D2300E60212013567E602120135ADE602120151
:100D330035E0E6021201351DE70212013583E702B1
:100D430012013598E702120135A3E702120135B00B
:100D5300E702120135C7E702120135D5E702120196
:100D630035E0E702120135ECE702120135FFE70235
:100D73001201350AE80212013530E802120135D4B6
:100D8300E802120135E4E802120135FEE80212011D
:100D9300351BE90212013536E9021201355DE9021C
:100DA30012013568E9021201357DE902120135911C
:100DB300E902120135F2E902120135F8E9021201E2
:100DC30035FEE90212013504EA021201351CEA027A
:100DD3001201354FEA0212013505800212013593E3
:100DE30080021201352881021201350482021201A8
:100DF300353882021201354B8202120135C5820257
:100E03001201354D8402120135748402120135FB3F
:100E130084021201353A85021201354B8502120113
:100E230035C08502120135DF8502120135F78502CF
:100E33001201353B870212013545890212013577CC
:100E43008B021201357D8C02120135C08C02120116
:100E530035EED70112013501D901120135E9D90166
:100E6300120135F3D90112013515DA0112013521C9
:100E7300DA011201356EDB011201359BDB01120130
:100E830035BCDC01120135FEDC0112013533DE0114
:100E930012013503DF0112013552DF01120135B3AF
:100EA300DF01120135E8DF0112013521E0011201F2
:100EB30035CCE301120135E3E30112013561E401AD
:100EC3001201356FE401120135B8E401120135C690
:100ED300E40112013547E501120135B6E5011201BE
:100EE3003502E601120135E674001201350875007A
:100EF300120135E476001201355C7A00120135A641
:100F03007B00120135887C0012013555A9031201BB
:100F1300357AA903120135EBA903120135F8C7028B
:100F230012013501C8021201350AC8021201352E19
:100F3300C9021201351FCB021201354DCB0212013A
:100F43003578CB02120135A6CB02120135D1CB0283
:100F53001201350FCC021201353BCC021201357858
:100F6300CC02120135A3CC02120135EFCC021201DF
:100F73003546CD0212013586CD02120135D5CD029B
:100F830012013500CE0212013546CE02120135742C
:100F9300CE021201359FCE02120135CCCE021201D0
:100FA30035EFCE0212013563B3031201358FB3035C
:100FB300120135E8B303120135F2B303120135020E
:100FC300B403120135ABB403120135D16000120131
:100FD30035286300120135D86400120135356500E8
:100FE300120135356600120135B266001201353A39
:100FF30067001201355F67001201353A6A0012017A
:1010030035AE6A001201359D6B00120135D36B00BA
:10101300120135166C00120135976D00120135D996
:101023006D00120135226E001201358B6E00120124
:1010330035AD6E00120135C76E00120135E56F0044
:10104300120135F56F0012013578710012013598E0
:101053007100120135CE71001201354A730012017D
:1010630035877300120135C174001201359DA70342
:10107300120135F9A7031201359DA803120135BCEE
:10108300A8031201350AA9031201356FB503120132
:1010930035F5B40312013534B5031201355CB503DC
:1010A300120135E0B003120135F0B003120135052A
:1010B300B103120135B9B103120135E8AE031201D0
:1010C300356BAF03120135D1AF03120135A8AC0361
:1010D300120135CFAC0312013525AD0312013538AA
:1010E300AD0312013589AD03120135C8AD031201F9
:1010F30035CBAD031201350C840312013520840373
:101103001201359984031201356D85031201353FB0
:101113008703120135A48703120135F787031201F0
:1011230035F87F00120135FDA30312013573A503C2
:10113300120135D4A50312013580B503120135859B
:10114300B5031201358CB5031201358EB5031201B7
:1011530035BFB103120135E2B1031201350BB203FE
:101163001201354DB203120135C0DB02120135CA3B
:10117300DB021201350ADC0212013553DC021201D3
:10118300358BDC02120135E1DC02120135FEDC0293
:1011930012013507DD021201354CDD0212013575EE
:1011A300DD021201358ADD02120135FADD02120178
:1011B3003587DE02120135DBDE02120135FEDE0267
:1011C3001201357DDF02120135B8DF02120135ED60
:1011D300DF02120135FFDF021201351EE0021201A8
:1011E3003527E002120135DEE00212013506AB03BA
:1011F30012013557AB03120135E0AB031201354A37
:10120300AC03120135E6FC021201350EFD02120198
:101213003503FE0212013528FE02120135B7FE0224
:10122300120135EAAF0312013518A0031201354E3E
:10123300A00312013581A003120135DAA1031201C3
:10124300350CB40312013522B4031201352CB40357
:1012530012013580B40312013583BF021201353DFB
:10126300C00212013578C002120135A9C002120171
:101273003519C1021201356FC102120135C3C10212
:10128300120135B0C202120135A9C3021201352A77
:10129300C502120135DEC50212013547C60212012D
:1012A300355AC6021201353FC70212013598C702EB
:1012B30012013577F8021201358DF8021201352E2D
:1012C300F9021201356DF9021201358AF902120190
:1012D30035BBF90212013508FA021201353BFA0255
:1012E30012013576FA0212013571FC02120135D969
:1012F300FC0212013594FF0112013588E601120147
:101303003510EA011201359FEB01120135F6EB01AD
:1013130012013515EC0112013593EC011201351957
:10132300EE01120135ECEE01120135A6F2011201B4
:10133300358EF301120135D48F03120135989103D1
:10134300120135F792031201357093031201358FA1
:1013530093031201359F9303120135CA9A031201B5
:1013630035369B03120135499B03120135259C0336
:10137300120135C09C03120135E29D03120135CBE6
:101383007F001201353EB503E066701008A3E066E6
:10139300700A08A3E066700408A3E06622C3E79618
:1013A3000809E7960809E7960809E79622C3E09635
:1013B30008A3E09608A3E09608A3E09622C008C31A
:1013C300E096F50808A3E096420808A3E0964208D1
:1013D30008A3E09645087001D3D00822080808EA5C
:1013E300C0E0EBC0E086F0E7A4FA180986F0E7A4B2
:1013F3002AFA180986F0E7A42AFA180986F0E7A45E
:101403002AFA1986F0E7A4FBE5F02AFA190886F010
:10141300E7A42BFBE5F03AFA190886F0E7A42BFBC7
:10142300E5F03AFA18180986F0E7A4C5F02BFBE4B7
:101433003AFA1908E7C5F0C6A426F6E5F03BFBE443
:101443003AFA1886F0E7A4F6E5F00826F6E43B0836
:10145300F6E43A08F6D0E0FBD0E0FA22E4CFC0E0AD
:10146300E4CEC0E0E4CDC0E0E4CCC0E075F020E61B
:1014730026F608E633F608E633F608E633F61818D8
:1014830018EC33FCED33FDEE33FEEF33FFC3EC9783
:1014930009ED9709EE9709EF97191919400FFFEC1A
:1014A30097FC09ED97FD09EE97FE191906D5F0BFD4
:1014B300ECF709EDF709EEF709EFF7191919D0E081
:1014C300FCD0E0FDD0E0FED0E0FF22601608080863
:1014D300C6C313C618C613C618C613C618C613C682
:1014E300D5E0EA227009080808226016181818C601
:1014F300C333C608C633C608C633C608C633C6D503
:10150300E0EA22E627F60809E637F60809E637F6A1
:101513000809E637F622E026F608A3E036F608A324
:10152300E036F608A3E036F622E026F008A3E0361C
:10153300F008A3E036F008A3E036F022C3E697F6FE
:101543000809E697F60809E697F60809E697F622EA
:10155300C3E0C696F608A3E0C696F608A3E0C696CF
:10156300F608A3E0C696F622C3E096F008A3E09639
:10157300F008A3E096F008A3E096F022E056F60800
:10158300A3E056F608A3E056F608A3E056F622E0D9
:1015930056F008A3E056F008A3E056F008A3E0567F
:1015A300F022E0F608A3E0F608A3E0F608A3E0F6CD
:1015B30022E6F008A3E6F008A3E6F008A3E6F0228B
:1015C300E0FAA3E0FBA3E0FCA3E0FD22E0FCA3E040
:1015D300FDA3E0FEA3E0FF22ECF0A3EDF0A3EEF009
:1015E300A3EFF022E0F8A3E0F9A3E0FAA3E0FB22E3
:1015F300E8F0A3E9F0A3EAF0A3EBF022CAC0E0E627
:10160300F0A308DAFAD0E0FA22CAC0E0E0A3C58268
:10161300CCC582C583CDC583F0A3C582CCC582C5A5
:1016230083CDC583DAE6D0E0CA22C3E498F8E4990F
:10163300F912166E8026C3E49AFAE49BFBE920E7CD
:10164300E912166EE498F8E499F922C3E498F8E4F1
:1016530099F912166EE498F8E499F9C3E49AFAE456
:101663009BFB22EB20E7CFE920E7E0B90010BB00AA
:1016730008E88AF084F8AAF022E4FBC8FA22EB70A7
:10168300227B10C833C8C933C9335007C39AC3DB9D
:10169300F280069A50012ADBEAC833F4C8C933F44E
:1016A300C9FA2275F008E4C833C8C933C933C99AE3
:1016B300C99B5004C92AC93BD5F0ECFBC833F4C815
:1016C300E4C9FA22600D08C6A2E713C618C613C6FA
:1016D300D5E0F322600C08C6C313C618C613C6D5DB
:1016E300E0F422700422600D18C6C333C608C63363
:1016F300C6D5E0F41822251810AF08F518400C15CC
:10170300198008F51840021519D2AF2200C0D02560
:101713001810AF08F518500C05198008F518500279
:101723000519D2AFD0D0222518F58210AF08F518CD
:10173300400C15198008F51840021519D2AF851908
:1017430083222518F582E43519F583222518F8E458
:101753003519F9222518FAE43519FB222518FCE47A
:101763003519FD22E4732518C582C0E0E51934FF5D
:10177300C583C0E0E518C3958224F810AF088583BC
:10178300198582188008858319858218D2AFCEF017
:10179300A3E520F0A37808E608F0A3DEFAEFF0A3B0
:1017A300E58124FAF8E608F0A3E608F0A3E608F0DA
:1017B300A30808E608F0A3E608F0A315811581D075
:1017C300E0FED0E0F8158115811581E8C0E0EEC098
:1017D300E0222518C582C0E0E51934FFC583C0E0C7
:1017E300E518C3958224F910AF08858319858218FB
:1017F3008008858319858218D2AFCEF0A3E520F047
:10180300A37808E608F0A3DEFAEFF0A3E58124FB52
:10181300F8E608F0A3E608F0A30808E608F0A3E654
:1018230008F0A315811581D0E0FED0E0F8158115ED
:1018330081E8C0E0EEC0E022851983851882E0A329
:10184300FEE0A3F5207808E0A3F608DFFAE0A3FFA3
:10185300E0A3C0E0E0A3C0E0E0A3C0E0E0A3C0E0F9
:10186300E0A3C0E010AF088582188583198008853E
:101873008218858319D2AFD083D0820201328519B1
:1018830083851882E0A3FEE0A3F5207808E0A3F6A1
:1018930008DFFAE0A3FFE0A3C0E0E0A3C0E0E0A319
:1018A300C0E0E0A3C0E010AF0885821885831980EB
:1018B30008858218858319D2AFD083D08222C0D005
:1018C3002518C582C0E0E51934FFC583C0E0E518DB
:1018D300C3958224F310AF08858319858218800885
:1018E300858319858218D2AFC8F0A3E9F0A3EAF083
:1018F300A3EBF0A37908E709F0A3D8FAECF0A3ED82
:10190300F0A3EEF0A3EFF0A3D0E0F0A3D0E0F0A3B8
:10191300D0E0F0A3E520F0A3E5F0F0A3228519833E
:10192300851882E0C0E0A3E0F9A3E0FAA3E0FBA3FB
:101933007808E0F608A3DFFAE0FCA3E0FDA3E0FEED
:10194300A3E0FFA3E0C0E0A3E0C0E0A3E0F5D0A3E1
:10195300E0F520A3E0A3F5F010AF08858319858295
:10196300188008858319858218D2AFD082D083D09E
:10197300E0F8D0E03274048006740280027401C07F
:10198300E0F40412172AD0E01215FF227404800435
:1019930074028000CCC0E0EDC0E0E518C39CCCAD80
:1019A3001950011D10AF068C188D1980068C188DE7
:1019B30019D2AF12160CD0E0FDD0E0FC22D083D0B8
:1019C30082E9C0E0E493A3C386F0C5F095F0F9087B
:1019D300E493A386F0C5F095F0700BE493A3C39949
:1019E3004005E9048002A3E475F002A42582F58290
:1019F300E5F03583F583D0E0F9E493A3C0E0E49305
:101A0300C0E022D083D082ECC0E0EDC0E0E493A339
:101A1300FCE493A3FDED4C600D121A52EC24FFFC81
:101A2300ED34FFFD80EFE493A3FCE493A3FDED4CC1
:101A3300600D121A91EC24FFFCED34FFFD80EFD012
:101A4300E0FDD0E0FCE493A3C0E0E493C0E022C057
:101A5300E0C3E49396087401939618400FE49366E9
:101A6300700808740193661870007019A3A3C3E487
:101A73009396087401939618A3A3400DD0E0D0E089
:101A8300D0E0021A42A3A3A3A3A3A3D0E022C0E001
:101A9300C0F088F0E49366700808740193661870C8
:101AA30000A8F0A3A3700BD0F0D0E0D0E0D0E00208
:101AB3001A42A3A3D0F0D0E02274F61217D5EAFE9F
:101AC300EBFF8C088D09EA2434F8E43FF9E8FCE9DC
:101AD300FD121BEAE0FAEE2437F582E43FF583E0DA
:101AE300F88508F0A4C885F00A8509F0A4250AF949
:101AF300EA28F8E439F97A257B0012166EEA8C821B
:101B03008D83F0F9131313541FFAEE2AFAE43FFB03
:101B1300EA245DF582E43BF583E0C0E0740759F8FD
:101B2300D0E0B800028004C313D8FCA2E04021EE49
:101B33002436F582E43FF583E0F5F0E984A8F0EE7E
:101B430028F8E43FF9E82438F582E439F583E0F92D
:101B53007F0302188174F51217D5EAFEEBFFEA241E
:101B630034F582E43FF583E0C0E0121BEAD0E0F0F5
:101B73008A828B83A3A3A3A3A3E0FAA3E0FB8E82B1
:101B83008F83A3A3A3A3A3A3A3E0C39AF508A3E00E
:101B93009BF509EE2480F8E43F880AF50B8882F56B
:101BA30083E06401702CEE2481F582E43FF583EA3F
:101BB3002401F8E43BF9E0687003A3E06970137C47
:101BC300B67D04EEFAEFFB120B2D850A82850B839B
:101BD300E4F0AC08AD09EEFAEFFB121ABCE9F91216
:101BE300272F7F04021881EA2435F582E43FF58329
:101BF30022C082C083851882851983E0F8A3E0F9A7
:101C0300C3EA9CEB9D5010C3EC98ED99401BC3EACB
:101C130098EB995014800EC3EA98EB994007C3ECF4
:101C230098ED994004790180027900D083D0822213
:101C3300EAC39CFAEB9DFB2274ED1217D590037651
:101C4300E064086005E06407702C9061C8E06026DA
:101C53009003A4E0F874FF68601CE875F010A4C852
:101C6300AAF02AF974A628FE740339FF8E82F5833D
:101C7300A3A3A3E070057900021E17EE2468F50EF6
:101C8300E43FF50F906060E0850E82850F83F07569
:101C93001027751105750800750900E5D914F50AB3
:101CA300E5D95403F50B6044EE2484F50CE43FF5C9
:101CB3000D7403650B6025E50A600CEE2467F5825D
:101CC300E43FF583E06025900522E06401603E85F2
:101CD3000C82850D83E060207804801E850C82854C
:101CE3000D83E0603BE50AC394055034793DEEFA79
:101CF300EFFB120B57021C797800E50AC398FA959B
:101D0300E0FB1209C58A088B09EA4B7006120DBB6A
:101D1300021C79850C82850D83E070048A108B1177
:101D230078008014E5D9C0E0E8FAE5102AF582E4EA
:101D33003511F583D0E0F008E8C3950A40E6850C39
:101D430082850D83E0602874FC250AF50A78101259
:101D5300197CAC0AA90BEEFAEFFB120C0574021204
:101D6300170FE9700AAA08AB091211F3021CEF74EA
:101D730003650B6055E50AF50C750D00780C121917
:101D83007CAC10AD11AA08AB09120BC9740212176F
:101D93000F850E82850F83E0F87480687005750CDB
:101DA3007F8002880CE50CF50D780D121980780BF5
:101DB300121980A90AAC08AD099003A4E0FA7B00CC
:101DC300120803740212170F804585108285118350
:101DD300E0F8C3940E500F74DF28F582E4348EF5D7
:101DE30083E0650A6016EE24F7F582E43FF583E8A5
:101DF300F07907EEFAEFFB120B1B8013900376E0EA
:101E03006408600BAC10AD11EEFAEFFB120C9B12E1
:101E13000DC779017F0C02188174F11217D574FC78
:101E23001216F9EAFEEBFF8909750C00A2AFE43341
:101E3300F508C2AF9004BEE0FA9061D0E0F8748078
:101E430098F895E0F9C3EA98E499A2D265D03350A3
:101E530015750C018010AA0AAB0B120B811211F33A
:101E63009004BDE004F0EE2463F50AE43FF50B852E
:101E73000A82F583E0F8A3E0F9E849602DE824023B
:101E8300FAE439FBEA2402F50EE43BF50F780E126F
:101E9300197C8A828B83E0FCA3E0F9EEFAEFFB1254
:101EA3000B75740212170FE960AC9061D0E0F874FF
:101EB30080C3989004BEF0E50C60539004BDE060CD
:101EC3004D9004BFE0F89004BDE0C398500C740239
:101ED3006509703A9004C0E060348E828F83A3A3B7
:101EE300A3A3E0851882851983121F217402121798
:101EF30045E8121F219004BCE028F0740212175F1A
:101F0300AA18AB1979011208579004BDE4F0E5084B
:101F1300A2E092AF740412170F7F08021881F0A396
:101F2300E4F09004BDE0F822008521878522C622D3
:101F3300C0E074EB1218C1A2AFE433F508C2AF7569
:101F43009B00906182E0A2E0502DE591A2E0502732
:101F53007591FE74016521701E1220AA1220C11210
:101F6300198F1224DE740412170FE96401700579C6
:101F730001120D4F121C3B906182E0A2E5505AE51D
:101F830091A2E550547591DF900376E064076005F4
:101F9300E06408702C1220AA74016521703B1220A2
:101FA300C112198F1224DE740412170FE964017031
:101FB300057901120D4F7901EEFAEFFB121E1C8019
:101FC30018E0640D7013900398E004F06428700225
:101FD300E4F07A00E0F9120DCD906182E0A2E640D0
:101FE3000302207FE591A2E6400302207F7591BFA3
:101FF300900376E064057008120CDD120CE980038F
:10200300120CE3752100120D5BE9900377F0790060
:10201300120D4F120A977A017B00900375E0F912B3
:1020230011C3907803E064427052900526E014F0E7
:10203300704AC2AF12203A00782AD0E0F618D0E0F6
:10204300F6E59F540770047BFF80027B7FC4C0E0EA
:102053007829E6F50A08E65BF50B740B780A121685
:10206300D7D0E0250AF8906270E0A2E740F8E8C311
:1020730033906272F0906270E0D2E0F0906181E0A0
:10208300A2E35009E5E9A2E3500375E9F7A3E0A24F
:10209300E75009E591A2E7500375917FE508A2E0B7
:1020A30092AF7F080219209003A4E0F875F010A402
:1020B300C8AAF02AF974A628FE740339FF22120C69
:1020C300F58E828F83E0F8A3E0C82416F582E43806
:1020D300F58322C0E0C0D0C082C083906183E0A2B8
:1020E300E05009E5BFA2E0500375BFFEE0A2E15056
:1020F30009E5BFA2E1500375BFFDE0A2E25009E587
:10210300BFA2E2500375BFFBE0A2E35009E5BFA203
:10211300E3500375BFF7E0A2E45009E5BFA2E45022
:102123000375BFEFE0A2E55009E5BFA2E5500375D3
:10213300BFDFE0A2E65009E5BFA2E6500375BFBFCB
:10214300D083D082D0D0D0E032C0E074F21218C174
:10215300E5A7A2E4500FE5A1A2E4500953A7EF7548
:10216300A1EF1221A0E5A7A2E5500CE5A1A2E5503D
:102173000653A7DF75A1DFE5A7A2E15009E5A1A2F8
:10218300E1500375A1FDE5A7A2E2500CE5A1A2E28F
:10219300500653A7FB75A1FB7F0102192074F812A7
:1021A30017D5752101900376E0640670077A007BEA
:1021B30000120CC5A2AFE433FED2AF90037CE064FF
:1021C3000170187A207B00900375E0F91212D77A18
:1021D300207B00900375E0F91211C9906182E0D26F
:1021E300E6F0900523E0602185C622801690037BEC
:1021F300E064017008E5C654F84405F5C653BEFC17
:10220300121F2C7401652160E4EEA2E092AF7F01FE
:1022130002188100008E238F2485822885832785D9
:102223001882851983E0CEA3E0CF85288285278392
:10223300EBC9EAC8EDCBECCA75F010C3E833C8E9C3
:1022430033C9EA33CAEB33CBC3EA9EF526EB9FF5DA
:1022530025B35004AB25AA26EC33CCED33CDD5F012
:10226300DAAE23AF242274E91217D574FA1216F9E1
:10227300EAFEEBFF8C088D09120D07EAF8EBF9EC87
:10228300FAEDFB8E828F831215F3900376E024F729
:10229300C39405500675100102239F120C3B8A0A52
:1022A3008B0BEA4B700302239C120CFB8A0C8B0DE5
:1022B300120CFBEA650C7003EB650D60ECEEFCEFB2
:1022C300FDAA18AB19120D01850A82850B83A3A3FE
:1022D300780C1215A5908F62780C12157F851882E1
:1022E30085198378141215A5908F62781412157FBF
:1022F300780C79141213A0501F780C791412153F1F
:10230300908F4E780C1213C0405D850C10850D1113
:10231300850E12850F138037908F4E851410851507
:10232300118516128517137810790C12153F781042
:102333001213C05032751000751100751200751319
:10234300017810791412153F7810790C1215067460
:102353000978101214E7908FAA780C1215A578103B
:10236300790C12145F800C7510147511007512002E
:10237300751300900376E06408600AE06406600564
:10238300E064057020908F5278101213C05016909D
:102393008F567810121519800C7510007511007581
:1023A300120075130085088285098378101215B40D
:1023B300740612170F7F1002188174F71217D512C3
:1023C3000D19900521E064017010906245E4F0A3BB
:1023D300F053F4F343FE0C5390F3120CB3E5C654DD
:1023E300B84441F5C6E59E5447644170F890618551
:1023F300740FF090051FE0F47002A3E0602C7508E1
:102403000175090090051FE078081216E6E508F447
:10241300FAA3E0600814600A14600C800DEA52808D
:102423008008EA52908003EA52A079007F020218E2
:102433008174F71217D5E9FEEAFF74016E700C7A06
:10244300807B00900375E0F91211C3902794E49305
:10245300F46008E493F9120A79800953C6B8E59E3B
:10246300544770FA120CB9900521E064017003120D
:102473000AAF90051FE0F47002A3E0602B7508011A
:1024830075090090051FE078081216E6E508FAA31F
:10249300E0600814600A14600C800DEA4280800832
:1024A300EA42908003EA42A0120C3B8B09A909EA95
:1024B300496016E5E170FCEA2414F582E439F583FA
:1024C300E0F874FF68600288E174016F700A7A01B2
:1024D300900375E0F912124D02242F74F11217D5EF
:1024E3008A088B098C0A8D0B908F62780812157FEE
:1024F300740F121745780C1215A5908F62780C1281
:10250300157F7808790C1213A0908F4E501078081D
:10251300790C12153F78081213C04014800E780C02
:10252300790812153F780C1213C050047901800208
:1025330079007F0802188174ED1217D58A088B0978
:102543008C0A8D0B908F62780812157F7413121703
:1025530045780C1215A5908F62780C12157F780CB4
:1025630079081213A040117808790C12153FAA08B4
:10257300AB09AC0AAD0B8022751000751100751202
:10258300007513017810790C12153F781079081231
:102593001506AA10AB11AC12AD137F0C0218819073
:1025A3008F6278081215A58A828B83780812159298
:1025B3007F0402188174F51217D58C828D837808F5
:1025C3001215A58A828B83780812156B12260CC309
:1025D300E098F0A3E0991225FE401E908F867808BC
:1025E3001215A58A828B83780812152C8E828F830D
:1025F300E02420F0A3E0344EF080A4F08E828F8399
:10260300C3E09420A3E0944E22EA2404F8E43BF9C7
:10261300E8FEE9FF8C828D83A3A3A3A3E0F8A3E0E4
:10262300F98E828F832274F51217D59004D9E0FABC
:10263300A3E0FBE929F8E433F9748F28F582748E5B
:1026430039F583E02AF508A3E03BF5097808121968
:102653007C908F761215C3122218740212170F8AF8
:10266300088B098C0A8D0B741078081214CEAA08F3
:10267300AB097F0402188174F11217D58A0C8B0DF4
:102683008C0E8D0F741112174512199374111217B2
:1026930045E02401F508A3E03400F509E4F50AF563
:1026A3000B780C79081213DF908F8A78081215A51E
:1026B300780C79081213DFAA0CAB0DAC0EAD0F1218
:1026C3002218740212170FEA4B60047A0180027A0F
:1026D30000EC2AFCE43DFD7413121745E0F8A3E077
:1026E300F9E8FEE9FFECF8EDF97A717B0212166E58
:1026F30088088909E4F50AF50B8E828F837808121E
:1027030015B4ECF8EDF97A717B0212166E8A088B18
:1027130009740578081216E68E828F83A3A3A3A3F8
:10272300E508F0A3E509F07F08021881C082C083A1
:10273300E9906000F0D083D08222C0E074F21218D6
:10274300C1A2AFE433FED2AFE589A2E04006E5893A
:10275300A2E150031210E5758900758900C2C575A1
:102763001A00EEA2E092AF7F01021920C0E0C0D0B0
:10277300E8C0E0A8A8D2AFC2C7751A00E8A2E792E2
:0F278300AFD0E0F8D0D0D0E032C2AF02000022D9
:10279400FFFFFFFFFFFFFFFFC082C083E9901636F3
:1027A400F0D083D08202013274F6121769E99002E4
:1027B400E8F0900348E0F5087509007402780812FF
:1027C40016E6AA08AB091212359002E9122C8060B1
:1027D4006E900348E075F003A4FAABF01212359042
:1027E4000306122C80700B9002E91234C412123BBF
:1027F400804D90030612442D7AFF7BFF12106D7AF0
:1028040000801EEAF508750900740278081216E6BD
:10281400123EC974FFF0A3124441A3A3E4F0A3F051
:102824000A900348E0F8EAC39840D879051206F5FF
:102834009002E8E0F91205E17A7F7B07120965024C
:102844003F6574F41217698A088B09EB548060475A
:102854009002E8E0F91211AB8A0A8B0BAE0AAF0BB7
:10286400EA4F602A8A828B83E064B0701A120707E9
:10287400E960148E828F83A3A3A3A3E0F9EE240559
:10288400FAE43FFB1206D7EEFAEFFB121199AA08FD
:10289400E5096480FB80047A007B00022AAE74F2AE
:1028A40012176974FB1216F9EAFEEBFFEA4F604354
:1028B400740312174512312D851882851983ECF0A3
:1028C400A3EDF07402121745E9F0AA18AB1912052A
:1028D400DBE9F50870777413121745E0F50AA3E0F5
:1028E400F50BE50A450B60658E828F83122EC1EECF
:1028F4004F700575080280557A067B001212358ADE
:102904000C8B0DA80CA90DEA497005750813803DC0
:102914008A828B83E4F0122958A3EEF0A3EF1247C6
:1029240006E50AF0A3E50BF09002EC122A7290027D
:10293400EC6017E0FCA3E08003EAFCEBFD8C828DE5
:1029440083122A7270F38C828D83123AE9A9087477
:102954000502469FA3F08A828B83A32274F2121786
:10296400698908E9F50C750D007403780C1216E6F4
:10297400850C0A850D0B9002EBF09002E9124412CB
:10298400122A70602F12123B7900801EE9F50C7533
:102994000D007402780C1216E69002E9123D82884A
:1029A40082F583A3A3E4F0A3F009900348E0F8E9D7
:1029B400C39840D8900348E0FA850AF0A4CAA8F066
:1029C400850BF0A428FB1212358A0C8B0DAE0CAFCC
:1029D4000DEA4F7003022A66900348E0FC850AF072
:1029E400A4CCA8F0850BF0A428FD79001211877CF3
:1029F400008032EDF50C750D007403780C1216E6A8
:102A04008A828B83122A6B8882F583E4F0122A78F7
:102A1400A3A3F0A3F00DEDC3950840D7EE250AFE5D
:102A2400EF350BFF0C900348E0F8ECC3985029EC09
:102A3400F50C750D007402780C1216E69002E9127A
:102A44002A6BE82402500109FAE9FB8A82F583EE35
:102A5400F0A3EFF07D0080BEE5089002EBF0790072
:102A6400800279130246A2123D86F922A3A31231F1
:102A740045EA4B22A3F088828983A3A3A3A32274EB
:102A8400F41217697900EAA2E0501F750818750955
:102A94008F780812197C79107C047D007A387B16B3
:102AA4001206EF740212170FE9F97F0402183BC0F3
:102AB40082C0839002EC123E88601C88828983A3C2
:102AC400A3E06A7003A3E06B8882898370E8A3A300
:102AD400A3A31234C480047A007B000227A574F2F5
:102AE40012176974FD1216F9EAFEEBFF8518828548
:102AF4001983E4F0A3F074021217457401F09002F4
:102B0400EF123E88701112089F1212359002EF12D4
:102B14002C807003022C7412321AEE2404F50AE499
:102B24003FF50B850A82F583E024FE603C24FC60BB
:102B34007424FE607E24FE7003022BC424FE700302
:102B4400022BD124FE7003022BDE24FE7003022B21
:102B5400EB24FE7003022BF824FC7003022C1924CE
:102B6400FE7003022C31022C6D12089F9002F1EAD0
:102B7400F0A3EB122C89120329E96003022C6D9057
:102B840002F11219938E828F83A3A3A3A3A31244E9
:102B94002D8508828509831234C41206BF7402127B
:102BA400170F022C6DAC18AD19EEFAEFFB12070DDE
:102BB400022C3CAC18AD19EEFAEFFB120713807827
:102BC400AC18AD19EEFAEFFB120719806BAC18AD17
:102BD40019EEFAEFFB12071F805EAC18AD19EEFA7E
:102BE400EFFB1207258051AC18AD19EEFAEFFB127A
:102BF400072B8044740212174F880C890D780C122D
:102C0400197C740212175FEEFAEFFB12073174029B
:102C140012170F8023AC18AD19EEFAEFFB12073729
:102C2400E9F870167402121745E4F0803CAC18AD54
:102C340019EEFAEFFB12073DE9F8E8602C8E828F5B
:102C440083A3E064146022850A82850B83E09002EA
:102C5400F1F08518828519831234C49002F212317E
:102C64002DE8A3122C89120323EEFAEFFB1206952A
:102C74007402121745E0F9740302469FEAF0A3EBCD
:102C8400F0F9EA4922F07CF17D0285088285098306
:102C94001231452274E812176974FA1216F9740491
:102CA400121745ECF0A3EDF08A128B13EA2405F514
:102CB4000EE43513F50FEA2402F510E43513F5118B
:102CC40085108212376B7508007C037D0079007AC9
:102CD400F17B02121187E50E2402F516E4350FF597
:102CE40017740212174F880C890D780C12197C8501
:102CF4000E82850F83A3A3A3A3E0F50C750D0078C2
:102D04000C12197CE50E2405F50CE4350FF50D784D
:102D14000C12197C8516828517831237B312170F8C
:102D24008A0C8B0DE50C450D7003022E90802085D6
:102D34001882851983E088828983F00508851882C2
:102D4400851983A3E0C0E0122ECBD0E0F00508E59E
:102D54000A24FBF8E50B34FFF9C3E50898E499402D
:102D640003022E907E007F00851282851383A3A325
:102D7400A3A3E0F5097809121980E4F514F5157890
:102D84001412197C7514EE751502781412197C90BE
:102D940002EF1219937409121745121993E50A24C4
:102DA400F9F9AC0CAD0D1237C512170FE960030227
:102DB4002E37850E82850F83A3A3A3A3A3A3A3E029
:102DC400F89002EEE068706BE0F5148E157814123A
:102DD400197C12442A850E82850F83A3A3A3A3A37F
:102DE400A3A3A31234C4121181740212170FE96051
:102DF40042123E857034E4F514781412197C7CFF79
:102E04007DFF79071237D412170F8B15A915122ECF
:102E1400E07017850E82850F831245B9740412176A
:102E240045123E721237E6022EBE850C82850D8352
:102E3400122EC1A818A91988148915781412197C9E
:102E44007404121745121993851682851783123755
:102E54009512170F8A0C8B0DEE4F7003022D28125A
:102E64002ECBEE122ED612377CEF122ED6F8A3E01C
:102E74003400F9E50C4B6003022D33888289837496
:102E8400FFF00508122ECB74FFF00508E508601466
:102E94001313543F123133120335E96003123D9981
:102EA40079008016850E82850F831245B974041249
:102EB4001745123E72123AE9790A02374CA3A3A3CA
:102EC400A3E0FEA3E0FF22A8089002F2E028123754
:102ED4007C22F00508089002F2E028229002F2EA2F
:102EE400F0A3EBF0EA492274E812176974FA121697
:102EF400F9740212174512312D7404121745ECF0BF
:102F0400A3EDF07402121745E02405123756F58339
:102F1400E0F50CA3E0F50D7402121745E02402F568
:102F240010A3E03400F5118510821234C87508002E
:102F3400750900EA24FCFEEB34FFFF8008050CE56C
:102F44000C7002050DA808C3EE98EF94005003021C
:102F540030DEA818A919880E890F780E12197C85FD
:102F64001482851583A3A3A3A312440912197CE533
:102F7400142405F50EE43515F50F780E12197C8529
:102F84001482851583A3A312442DAA0CAB0D12053C
:102F9400F9740612170F8A0E8B0FEA4B7003023076
:102FA400DEEA2404F516E4350FF517851682F58359
:102FB400E0F50CA3E0F50D851882851983121993A9
:102FC400AC0EAD0F85108285118312376212170F74
:102FD400E9F50960030230DE740212174512378CDA
:102FE400F5097809121980E4F512F513781212190B
:102FF4007C7512EE751302781212197C9002EF128E
:1030040019937407121745121993EEF9AC0EAD0F0C
:103014001237C512170FE9F50960030230DEE5081F
:10302400703BE4F50EF50F780E12197C7CFF7DFFE2
:1030340079091237D412170F8B0FA90F9002F312CC
:103044002EE3700D740412174512312079110231E8
:103054000F9002EEE024029002F2F080149002F24B
:10306400E0FA9002EEE0790024025001096A497006
:103074006DA8089002EEE0FAE82AFAE43400FBEEC8
:103084009AEF9B4055851682851783E0C0E0900235
:10309400F3122ED0D0E0F00508851682851783A39D
:1030A400E0C0E0089002F3122ED0D0E0F0050890C2
:1030B40002EE12440912197C12442AA80812311291
:1030C40012170F9002EEE02508F50874FF650C70E6
:1030D4000474FF650D6003022F41E508601C900233
:1030E400F2E0F5F0E5088412313312033BE960069F
:1030F4009002F3123D9C79008011E5097003750973
:103104000A7404121745123120A90902374C90029F
:10311400F3E028FAA3E034001243E722124416E550
:103124000CF0A3E50DF022A3A3EAF0A3EBF02290A8
:1031340002F1F07CF17D0285108285118312314504
:1031440022123AD9FB2274EC12176974FC1216F994
:10315400123BF9740212175F850A82850B831233BE
:1031640019700302320A12321AA818A91988108990
:1031740011781012197C7CFF7DFF790B85088285FC
:1031840009831237DA12170F123224700B850A8260
:10319400850B831237E3807B8E828F83A3A3A3A343
:1031A400E0F5127812121980E4F512F51378121270
:1031B400197C7512F1751302781212197C781012A9
:1031C400197C7409121745121993740912174512C0
:1031D40033128508828509831237CB12170FE9FE53
:1031E40070157CF17D028508828509831234C4122E
:1031F4000341E97009801A74166E70027E00123D54
:1032040099EE7004800B7E01850A82850B83123A45
:10321400E6EEF9023AFBEE2402F508E43FF5092252
:103224008A108B119002F2EAF0A3EBF0EA4B2274BD
:10323400EC12176974FC1216F9EAFEEBFF8C0E8D82
:103244000FEA2405F508E43FF509740212175F85B7
:1032540008828509831233197003023302EE2402B3
:10326400F50AE43FF50BA818A919881089117810FC
:1032740012197C7CFF7DFF790D850A82850B8312F0
:1032840037DA12170F123224700B850882850983EE
:103294001237E380768E828F83A3A3A3A3E0F51273
:1032A4007812121980850882850983A3A3121993C1
:1032B4007512F1751302781212197C781012197CA8
:1032C400740912174512199374091217451233120F
:1032D400850A82850B831237CB12170FE9FE700F14
:1032E4007CF17D021234BE120347E97009801A741E
:1032F400166E70027E00123D99EE7004800B7E0102
:10330400850882850983123AE6EEF9023AFBE0F970
:10331400AC0CAD0D22123AD18A0C8B0DEA4B2274FF
:10332400E812176974FE1216F98A168B178C148D1D
:1033340015EA2405F50CE43517F50DEA2402F50E1B
:10334400E43517F50F850E821234C88A088B097587
:103354000B007C037D0079007AF17B0212118775E2
:103364000A00E50814F5100424FFF508E50934FF04
:10337400F509804C9002F1E0FA9002EEE0F8EA28B8
:10338400F8E43400F9E50898E50999500D9002F144
:10339400E0F8E510C3989002EEF0E0F51275130022
:1033A400781212197C12442A9002F2E02A12311780
:1033B40012170F9002EEE0F89002F1E028F0050AEF
:1033C400850C82850D83A3A3123D9240030234A38E
:1033D4009002F1E0C39508E4950940030234A3AEDA
:1033E4000AEE2EFEE433FF1234E5AC18AD19124494
:1033F40037E439FB1205FF8A128B13AC12AD13EAC2
:103404004D701B750B011234D6123AEA9002F21277
:103414002A7260031211F3A90B740202374E851647
:1034240082851783A3A3A3A3E0F50B780B1219805D
:10343400E4F512F513781212197C7512EE75130265
:10344400781212197C9002EF12199374071217451F
:10345400121993A910850E82850F831237CB121788
:103464000FE9F50B70A0123E856003023378E4F592
:1034740012F513781212197C7CFF7DFF790F850EEB
:1034840082850F831237DA12170F8B13A913122EAA
:10349400E060030233781234D61237E702341D7C1D
:1034A400F17D02850E82850F831234C412034DE927
:1034B4006003023410790002341D850A82850B836F
:1034C400123145221234CC22F583123AD9FB12046C
:1034D40019221234E5123AD9F9EA85148285158342
:1034E40022850C82850D83E02EF8A3E03F8882F5C7
:1034F400832274E812176974FA1216F97404121705
:103504004512312D8C168D177404121745E02405CD
:10351400F50EA3E03400F50F7404121745E02402FD
:1035240012375612376B7F007E00A818A919880835
:103534008909780812197C850E82850F83A3A3A3B9
:10354400A3E0F5088F09780812197CE50E2405F527
:1035540008E4350FF509780812197C850E82850F69
:1035640083A3A31237B312170F8A0C8B0D80241276
:103574003786F00F123786F00F9002EE123ABC1223
:10358400197C12442AEFF812311212170F9002EE2E
:10359400E02FFFE50C450D607A85188285198312AA
:1035A4001993AC0CAD0D8514828515831237621204
:1035B400170FE9FEE50C2404F510E4350DF511E9C7
:1035C400704B740412174512378CF50878081219D9
:1035D40080E4F508F509780812197C7508EE750978
:1035E40002780812197C9002EF12199374071217CB
:1035F40045121993E50A24FAF9AC0CAD0D85148231
:103604008515831237CB12170FE9FE60361237A2E5
:10361400123AE9EF70030237399002F2E0F5F0EF65
:10362400849002F1F07CF17D028514828515831269
:1036340034C4120353E960069002F3123D9C7900EE
:1036440002374CEFF508703DE4F512F513781212C9
:10365400197C7CFF7DFF79118514828515831237CF
:10366400DA12170F8B13A9139002F3122EE37009C9
:103674001237A21237E602374C9002EEE02404908F
:1036840002F2F080359002EEE0F89002F2E0FCE8FD
:103694002404FAE43400FBEA6C4B600302361DE5B3
:1036A4000A24FAFAE50B34FFFBE50828F8E43400B1
:1036B400F9EA98EB99500302361D8510828511832F
:1036C400E0C0E09002F3E02FF8A3E034008882F534
:1036D40083D0E0F00F851082851183A3E0C0E0124F
:1036E4003773D0E0F00F740212174F8808890978F5
:1036F4000812197C7402121745121993850E8285DB
:103704000F83A3A312379512170F8A0C8B0DEA4B64
:1037140070030235737402121745E0C0E012377368
:10372400D0E0F00F7402121745A3E0C0E012377323
:10373400D0E002357BEE70027E0A850E82850F830F
:103744001237A8123AE9EEF9740612170F7F100225
:10375400183BF514A3E03400F515851482221231C8
:10376400451205E77402221234CC8A0A8B0B22120A
:103774003777229002F3E02FFAA3E034008A82F52F
:10378400832212377774FF22124416A3A3A3A3E063
:1037940022124431AA0CAB0D1206057404228510C2
:1037A400828511831245BFF98516828517832212FB
:1037B4004431850E82850F831231451205F9740652
:1037C40022851082851183123145120767740922FC
:1037D4008510828511831231451206D1740222129A
:1037E4003AEFE8F0A3E9F079112274EA1217697448
:1037F400FE1216F98A088B098C128D13EA2405FE31
:10380400E43509FF123AC58A0C8B0DEE2406F50E39
:10381400E43FF50FEA4B70030238D4E5082402F5BF
:103824000AE43509F50B8A828B83A3A3A3E0A2E5FE
:1038340050221238FE8A108B11EA4B60247912ACA4
:103844000CAD0D1234BE851082851183121767E901
:10385400F50C707F850E82850F83E06009795280B4
:1038640011750C0E806D850882850983A3A3A3A31B
:10387400E0F9E4F508F509780812197C8E828F8343
:10388400A3A3E0F508780812197C8E828F83A3A382
:10389400A31219938E828F8312442D850A82850B7D
:1038A40083123C0B12170FE9F50C7011850E8285FB
:1038B4000F83E0702C1234BE1203598024741669ED
:1038C4007011750C007418121745124412E480101C
:1038D400750C011245B5851282851383E8F0A3E9BE
:1038E400F0850E82850F83E0600479008002A90CC4
:1038F400740212170F7F0E02183B851882851983F4
:1039040012314512075B2274EC12176974F7121610
:10391400F98A0A8B0B8C108D11EA2405FEE4350B11
:10392400FF750C00123AC58A088B09EA4B70030232
:103934003AA7E50A2402F50A5002050B8A828B8312
:10394400A3A3A3E0A2E550251238FE8A0C8B0DEA4E
:103954004B604F7912AC08AD091234BE850C8285D8
:103964000D83121767E9F50C6003023AAA850A82EF
:10397400850B83E0F508A3E0F509AA08FB12074FBD
:10398400EA4B70197AFF7BFF12074FEA4B70030270
:103994003A9D8A828B83E508F0A3E509F075080057
:1039A4008008750C0E023AAA05089002EBE0F8E5CF
:1039B40008C3984003023A9DE508F50E750F00749C
:1039C40003780E1216E68A828B83A3A3E0250EF8F1
:1039D400A3E0350F123E7A70CF8E828F83123ADEC7
:1039E40012312D8E828F83A3A3123ADE12312BEE75
:1039F4002404F508E43FF509850882F583E088820C
:103A04008983A3A3A3A3F0A3E4F0EE2405F50EE4B5
:103A14003FF50F850E82F583123ADEA3A3A3A3120A
:103A2400312B751207751300781212197CEEFCEF16
:103A3400FD74041217571243E812170FE4F51278B5
:103A44001212197C850882850983E0FC7D007917B0
:103A5400850A82850B831237DA12170F740712173F
:103A64004512322B6038850882850983123ABC12CC
:103A7400197C850E82850F8312442D1243E8121798
:103A84000F740212175F1234BE12035FE9602374CD
:103A940007121745123D9C8019750C098008750C96
:103AA400118003750C011245B585108285118312AE
:103AB4003AE9A90C74098041E0F508750900780811
:103AC40022AC18AD198E82F583123AD122123AD95A
:103AD400FB1205FF22E0FAA3E02212314588828915
:103AE4008322123AEFE8F0A3E9F022E0F8A3E0F928
:103AF400850E82850F8322740412170F7F0C02181F
:103B04003B74EC121769123BF9751000EA2402F5B4
:103B14000CE43FF50D850C82F5831234C412074F73
:103B24008A088B09EA4B7003023BDD850A82850B08
:103B340083E064016003023BD2AC08AD09AA0AAB7E
:103B44000B120743E9606F850882850983122EC32F
:103B5400EE2406F50AE43FF50B8E828F83A3A312AD
:103B640019938E828F83A3A3A3A3121993850A8228
:103B7400850B8312199379188E828F8312442D85B5
:103B84000C82850D83123C0B12170FE9F87416682A
:103B9400700B850A82850B83E4F0A38014E960121C
:103BA4008E828F831234C4850E82850F83EAF0A33C
:103BB400EBF089108018780E12197CAC08AD09EE70
:103BC400FAEFFB120749740212170FE9F510AA085D
:103BD400AB09120755E510700E850C82850D831212
:103BE40034C41203658009741665107003751000DF
:103BF400A910023B00EAFEEBFF8C0E8D0FEA2405B0
:103C0400F50AE43FF50B2212314512076D740622C2
:103C140074EA1217697508007509007E007F007543
:103C24000A00EC2402F510E43DF5118035EC65083A
:103C34007003ED65096003023CC988828983A3A3EC
:103C4400E06A7003A3E06B707C88828983A3A3A3DA
:103C5400A31245B9EE28FEEF39FFEA28FAEB39FB47
:103C6400050A123D8F503BE50AF50C750D007403EF
:103C7400780C1216E6851082851183123D82123E5D
:103C84007A601FE508450970A48C088D098882892B
:103C940083122EC188828983A3A3E02EFAA3E03F76
:103CA40080BDE50AC394025003023D7D750800758A
:103CB4000900EE4F600FEEFAEFFB1211ED8A0E8B46
:103CC4000FEA4B70057900023D7F750B00807FE59C
:103CD4000BF50C750D007403780C1216E685108232
:103CE400851183E0250CF50CA3E0350DF50DE50CED
:103CF4002406F514E4350DF515851482123E7D6015
:103D04003AE50C2404F512E4350DF513851282F519
:103D140083121993E50E2508FAE50F1243E11217F1
:103D24000F851282851383E02508F508A3E0350981
:103D3400F509851482851583123D9CE50B600D7C85
:103D4400087D007900AA0CAB0D121187050BE50B59
:103D5400C3950A5003023CD3851082851183124512
:103D6400B98882F583A3A3A3A3A3A3E50EF0A3E5D7
:103D74000F122A79EEF0A3EFF079010238F9123D1F
:103D84008622E0250CF8A3E0350D229002EBE0F842
:103D9400E50AC398229002F21231451211F32274FB
:103DA400F01217698A0E8B0F8C0A8D0B750D007536
:103DB4000C00804A7916EE2406F508E43FF5098ED6
:103DC400828F83A3A31219938E828F83A3A3A3A3A9
:103DD400121993850882850983121993850E8285A9
:103DE4000F83A3A3123C0B12170FE9F50D74166988
:103DF4007064850882850983E4F0A3F0050C9002C1
:103E0400EBE0F8E50CC398505EAA0C7B008A088BA3
:103E140009740378081216E6850A82850B83A3A326
:103E2400123ED4E8FEE9FF123E7B603BEA24010A1D
:103E340050010B9002EBE06A7001EB6014888289F8
:103E440083A3A3A3A3A3A3A3A3123E886003023D59
:103E5400B87918023DBAE960A31245B57410121777
:103E640045123E72123AE9A90D7F0802183B123A34
:103E7400D9F5838A8222F98882F583124431EC4D84
:103E8400229002F21245BFF9E8492274F61217692A
:103E94007C0080010C900348E0F8ECC398501FECC0
:103EA400F508750900740278081216E6123EC9E096
:103EB4006A7003A3E06B70DCE8FAE9FB80047A0023
:103EC4007B00023F659002E9123ED48882F583228A
:103ED400E02508F8A3E03509F92274F21217698A7B
:103EE400088B09750A0080278E828F83A3A3A3A35E
:103EF400122A7060031211F37C087D007900EEFA37
:103F0400EFFB1211878E828F83E4F0A3F0050A126F
:103F14003D8F5028E50AF50C750D007403780C12DA
:103F240016E6850882850983A3A3E0250CFEA3E099
:103F3400350DFF8E82F583123E8870AC850882852C
:103F4400098374FFF0A3F00246A274F612176912F3
:103F5400455670067A007B008007A3A3A3A31234FE
:103F6400C47F0202183B74F6121769E9FE8C828D35
:103F740083E06402703D124546F508A3E0F9A80801
:103F84007402687003742969702975080275090040
:103F9400780812197C740E121745121993740E12B4
:103FA4001745121993EEF9121073740612170FE9DC
:103FB400F98002790180AA74E812176974FB121659
:103FC400F9E9851882851983F08A168B17ECFEEDC2
:103FD400FF7510008C82F583A3A3A3E0A2E4502A0A
:103FE400741D1217451239048A828B83E582458336
:103FF40070030243D7790AEEFCEFFDAA16AB171241
:104004001767E9F51060030243DA741F121745E0DD
:10401400F508A3E0F5097421121745E0F50AA3E0B9
:10402400F50B7423121745E0F50EA3E0F50F8E820D
:104034008F83E064026003024383A31245B98508B9
:1040440082850983A3858212858313EE2406F50CE9
:10405400E43FF50D88828983124437F514E439F579
:10406400157814121A06010000280128924007004E
:1040740002285E410328C74000297F420129AA4241
:104084000229484203297F42042920438343E50E41
:10409400450F600302437E850C82850D831245B96A
:1040A400E8FAE98882F583E0850A82850B83124465
:1040B400411243EE12197C8A828983A3E0FCA3E0B7
:1040C40002430CE50E450F600302437E850A828598
:1040D4000B837401F012441F850882850983F07CE8
:1040E400007D008E828F83A3A3A3A3E02401FAA3FF
:1040F400E03400FB1205FFEA4B60458A828B83E0C3
:104104002402F8850A82850B83E028F0EA2404F867
:10411400E43BF98882F583E0851282851383124497
:1041240047F08A828B831243EE12197C8A828B8336
:10413400A312442DE5082403FAE43509FB024311D4
:10414400850A82850B83E02404F07C047D007900D9
:10415400AA12AB131211870243DAE50E450F60036E
:1041640002437E12441FFEA3E0FF850A82850B836F
:104174007404F0EE850882850983F0EF8512828548
:104184001383F0740312175F124538700302422937
:104194008A828B83A3A3122EC1740112174F880E37
:1041A400890F780E12197C74051217451219937C25
:1041B400FF7DFF120605740412170FEA4B70338556
:1041C4000C82850D8312440912197C850C82850D9D
:1041D40083A31219937C027D007AC27B8F12040799
:1041E400740412170FE9700A740112174574FFF072
:1041F400A3F08E828F83E064027034750C02750D17
:1042040000780C12197C8E828F83A312442DE5084A
:104214002404FAE41243E112170F850A82850B8302
:10422400E0240280097401121745EEF0A3EFF07444
:10423400011217451243FFF07401121745A31243EC
:10424400F7024378E50E450F600302437E850C8236
:10425400850D8312441212442DAA16AB171210793D
:10426400850A82850B837402F0850882850983EAB6
:10427400F0851282851383EB02437BE50E450F60C4
:104284000302437E12441FF8A3E0F9850A82850BDA
:10429400837402F0E8850882850983F0E985128237
:1042A40085138302437B850C82850D831234C412EB
:1042B4001169EAF8C3950EE4950F405AEA650E4574
:1042C4000F700478008021851882851983E0FCE54D
:1042D4000E2CFCE4350FFDC3EC9AED94005003E082
:1042E4008005E50EC8C398F8E8850A82850B83F03B
:1042F400F50A750B00780A12197C850C82850D83EA
:10430400E0250EFCA3E0350FFDAA08AB091243E833
:1043140012170F0243DA7510070243DAE50E450F50
:104324007058850C82850D831245B9850A82850BE8
:104334008374071244411243F7124441A3E08512E7
:1043440082851383F0E82402FAE439FB8A82F58338
:104354001243F7A31229581243FF122A7812440376
:10436400F0E82405F8500109F5828983124403A377
:10437400124447A3A3A3A3F0805C75100B80577469
:104384001D12174512454F604A1245BF880CF50DA2
:10439400E8450D603E7425121745E0F510781012BB
:1043A4001980780E12197C780A12197C780812196F
:1043B4007C7407121745E0F9EEFCEFFDAA16AB1763
:1043C400850C82850D83121767740712170FE9F5A0
:1043D40010800375100EA910740502374E350912AA
:1043E40043E722FB12116F740222E0F50A750B00F9
:1043F400780A22E085088285098322124451221218
:104404004451A3A322E0F50E750F00780E22124446
:104414001622E0F8A3E0F583888222850C82850DBC
:1044240083124416E0229002EF12443122E0FCA3EE
:10443400E0FD22123AD9F8E4C8F9EA2822F0888289
:10444400898322F088828983A312445122E085085B
:1044540082850983A3A32274EE12176974FE1216CF
:10446400F98A088B09ECFEEDFF890AAC18AD191224
:104474004538700302452985188285198312454FF2
:104484007003024524A31245BE880EF50FE8450FBC
:1044940070030245247414121745E0F510A3E0F5E7
:1044A40011E50AF50B780B121980741912174512CD
:1044B4001993781012197C741B121745123312AA1F
:1044C40008AB09850E82850F8312176774051217CE
:1044D4000FE9F50B705274FE650A604C850C8285F9
:1044E4000D83E064027041124546FAA3E0F9EAF84C
:1044F4007402687003742969702E85108285118393
:10450400124437F50CE439F50D780C12197CEEFCE5
:10451400EFFDAA08AB09120785740212170F800871
:10452400750B0E8003750B01A90B740212170F7F14
:104534000A02183BEEFAEFFB1205FF8A0C8B0DEA18
:104544004B221245BE8882F583E022123145124582
:1045540056221207018A828B83E58245832274F6F0
:1045640012176974FE1216F9740C1217451245B924
:10457400E8851882851983F07401121745E9F0E47F
:10458400F508F509780812197C75080278081219DB
:104594007C740412174F88088909780812197C79E9
:1045A400FE12076D740612170F740212170F023FE2
:1045B400658E828F831245BFF922A3E0F8A3E0221F
:1045C40074F7121769EAFEEBFF8908900306124498
:1045D4002D121079EA5402600BA908EEFAEFFB12CF
:1045E40005F3800279017F0102183B74F212176906
:1045F40074FE1216F9EAFEEBFF740169601374028B
:1046040069600302469D7901120983E96003024649
:104614009DEEFAEFFB12074FEA4B6003120755A811
:1046240018A91988088909780812197C750802756F
:104634000900780812197C7508BE75098F7808126C
:10464400197C7CFF7DFF7A017B001205F974061248
:10465400170F803B850882850983A3A3A3A3A3A383
:1046640012441212442DEEFAEFFB12106DE4F50C15
:10467400F50D780C12197C74021217451219937CEB
:10468400FF7DFFAA08AB09120605740412170F8AEE
:10469400088B09E508450970BB740212170F7F06E1
:1046A40002183B74F41217698A088B09ECFEEDFFBB
:1046B400901636E0F460487A097B00121193EA4BB5
:1046C400603D8A828B8374B1F0A3E41247061229F9
:1046D40059A3E508F0A3E509124706A3EEF0A3EFFA
:1046E400F0740C1217451245B98A828B83A3A3A3D5
:1046F400A3A3A3A3123AE9901636E0F912119F027C
:104704002AAEF08A828B83A3A3A3A322C082C08390
:104714009061907404F0A37448125D2790618074D2
:1047240040F09061BC7407F09061877469F0906107
:10473400B67416F07900120A9D7902120AA3902722
:1047440094E493F46006E493F9120A797905120D5E
:10475400AF024CE4C082C083E9540FF9906185E054
:10476400696012E5C654B84441F5C6E59E544764F1
:104774004170F8E9F053C6B8E59E544770FA024C0C
:10478400E474F7121769AEA853A87E120A85C2BA58
:10479400539AFEC289759B00C2C2120A8B75A91175
:1047A40075B905120A91D2BA439A0174805E42A87F
:1047B400024F47C082C083906181E4F0A3024CDBC6
:1047C40075E90075910075BF00020132C082C08393
:1047D400906181E4F0A374C0F0A3E4024CDDC082D4
:1047E400C08374F81216F99003781260697003029A
:1047F400488B900378E0544060177908AA18AB19E5
:10480400120B9FAA18AB191207EB900378E054BF60
:10481400F0E054806010790C7A477B05120B9F906E
:104824000378E0547FF0E0A2E05008790012489346
:1048340054FEF0E054026008790112489354FDF0EC
:10484400E054046008790012489E54FBF0E05408D8
:104854006008790112489E54F7F0E054106008791A
:104864000212489E54EFF0E0542060087903124885
:104874009E54DFF0A3E05401600D120AAF1207FD4D
:10488400900379E054FEF0740812170F024CE412FE
:104894000A9D1207F1900378E022120AA31207F787
:1048A400900378E022C082C083E9600514602A8006
:1048B4004F90619A7433F0A37455F09061A0743AE8
:1048C400F0900521E064017009C29190037A746745
:1048D400802D90037A7461802690619A743FF0A3CE
:1048E400745AF09061A0747FF0900521E064017027
:1048F40009D29190037A7471800590037A746AF0F6
:10490400024CE4C082C083E9600B14600D1460178C
:1049140014600C802090279880159027998010901F
:104924000521E06401700590279A800390279BE499
:1049340093906186F0024CE474EC12176974F412DB
:1049440016F9908F2EAC18AD19740412160C90271A
:104954009893F46003024A5F907808E0C39402508D
:1049640003024A43908EED740412175F7408121602
:104974000C7F00750CFF750DFF750EFF7E00EFFCBC
:1049840025E0F8E433F97404121745E58228F5822A
:10499400E58339F583E0F512A3E0F513800F74087D
:1049A4006E605B74096E6056740A6E6051EEF508B1
:1049B400750900740278081216E6124A691215A5E0
:1049C400A909E50AC9F510741878081214CEE5107F
:1049D4004508F8C3E51298E51399400AE512C3980F
:1049E400F8E513998008E8C39512F8E99513F9C31B
:1049F400E8950CE9950D5006880C890D8E0E0EEE87
:104A0400C39413409974FF650C700474FF650D60C2
:104A140024E50EF508740278081216E6124A6912A3
:104A240015A5851882851983E5822CF582E43583E2
:104A3400F583E508F00FEFC394045003024977753A
:104A44000801750900780812197C740212175F7A3C
:104A5400E67B091210C1740212170F740C12170F9F
:104A64007F0C02183B74482508F58274783509F5E3
:104A740083780822C082C083906186E0F890279BE7
:104A8400E49368700990279AE493906186F09061AA
:104A9400AE7468F0A3746AF090624574FBF0A304EA
:104AA400F053F4FD43FE029005217401F09061A0DF
:104AB400E0643A7004790080027901120A9D024C84
:104AC400E4C082C0839004D3E06401700A9004D8E7
:104AD400E06004790C80027900024CE4C082C08357
:104AE40075E1F19004D6E060541460091460581420
:104AF4006050147057120AC19004C5E0F97AC67B5D
:104B040004120D31908F1E1215C3120D67908F661B
:104B14001215C3120D3D9004D7E0F9120D49790125
:104B2400120DA39004C3124E3F241AF582E438F503
:104B34008374D9F0A3740AF07900024CE4120AC712
:104B440080B6120ACD80B1120AD380AC791280EA01
:104B540074F412176975D90D9004CCE0A2E0E43323
:104B64001313F8124BF9484401F5D97800124C6B31
:104B740040FB7800E8FA74CD1255573404124C7592
:104B840040F275E1959004CCE0F97ACD7B04120DE6
:104B94003790165A744FF0A3740A124C80124CCA00
:104BA400124CC1124E079004D6E064019004C37005
:104BB4000B124C031215A5908F228009124C03127C
:104BC40015A5908F267808121519908F627808120F
:104BD400157F9004C3124E3F124CB878081215B4D6
:104BE4009004C3124E3F124CAF7413F090037674CA
:104BF40002F0025C7F9004C5E0C4333354C0221237
:104C04005B9AA3A3780822C082C083124DC38AD9B9
:104C14007800E8FC74C62C124C7040F67800800DC5
:104C2400E8FC74DD2CF582E43404124E96E8C39952
:104C340040EE124DB5124C6B40FB780080081255C3
:104C4400533404124E96E8C39940F375E1959016D7
:104C54005A745BF0A3740A124C80124C8A7412F0DA
:104C640090037674018072E8FA74C62AF582E434FB
:104C740004F583E0F5D908E8C3940622124DF074D4
:104C840055F0A3740A22124CCA124CC1124E0B9056
:104C940004C3E0F8A3E0C8124CB874FF12554B905B
:104CA40004C3E0F8A3E0C8124CAF222414F582E454
:104CB40038F58322240EF582E438F58322F0A374B8
:104CC4006DF0A3740A22124CCE22124CD222F0A30D
:104CD400740BF0A3740C22F0A3F08004A2E092AF52
:104CE400D083D082020132C082C083124D30124B75
:104CF400F94402F5D97800124C6B40FB7800800C23
:104D0400E8FA74DD1255573404124E96E8C39940FC
:104D1400EF75E19590165A124D3BF0A3124D3B12DC
:104D24004C8D7414F0900376740480AD9004DCE030
:104D3400F9740729F5D9227467124D48124D48F0C9
:104D4400A3740A22F0A3740AF0A3746722C082C079
:104D540083124DC374064AF5D97800E8FC74C62C56
:104D6400124C7040F67800800DE8FC74DD2CF5825E
:104D7400E43404124E96E8C39940EE124DB5124C39
:104D84006B40FB780080081255533404124E96E8A9
:104D9400C39940F375E19590165A7461F0A3740AAF
:104DA400124DE6124C8A7415F09003767403024C8B
:104DB400DD9004FC124D3374044AF5D978002212B4
:104DC4004D309004C5E0C4333354C0FA22F582E474
:104DD40039F583E0F5D90AEAC322EE28F8E43FF96D
:104DE400E822124DF0740BF0A3740C22124DF4223D
:104DF400124E01740BF0A3740C124E0122124CD209
:104E0400F0A322124E0B22F0901668740BF0A374D8
:104E14000C124DF4740BF0A3740C124CCEF022C09F
:104E240082C0839004C3124E3F2406F582E438F511
:104E340083E4024CDB851882851983E0F8A3E0C87B
:104E44002274F71217699003A4125C8474A628F8DC
:104E5400740339F9E82405FAE439125F15A3A3A30E
:104E6400A3A3A3A3A3A3126013A3A3A3A3A3A3A372
:104E7400E024FFF8A3E034FFF98A828B83125C1DDF
:104E8400024F477F0602183BE8FA74272AF582E4AA
:104E94003405F583E0F5D90822EAFEEBFF12513B15
:104EA40022EAF8EE28F8E43BF9E822124DD1940402
:104EB4002274F7121769EAFEEBFF9061D0E0706488
:104EC40075D90E75D90375D9047A00124EA5248DAF
:104ED400124F3B40F67A00124EA52485124EAF4085
:104EE400F675E1957908EE248D124F342485124F1E
:104EF4002C7C00ECF8C3E498FA95E0FBEE2AFAEF78
:104F04003BFBEA248C125E0CC0E0124DDE24ACF5AF
:104F140082E439F583D0E0F00CECC3940840D41259
:104F2400505680027900801BFAE43FFB120B932257
:104F3400124F2C7904EE22124DD1940822A2E09251
:104F4400AF79007F0102183BC082C08375D9027516
:104F5400D90375D90575E195EA246FF582E43B120E
:104F64004FC6EA2471F582E43B125069024CE474A2
:104F7400F6121769EAFEEBFF9005277406124FE15B
:104F840012197C7C017903125FCA12170F75D906B6
:104F940075D9037800124FCC40FB75E195900376E8
:104FA400E064087016EE246FF582E43F124FC6EEFB
:104FB4002471F582E43FF583125C1D7901025244A9
:104FC4008882F583125BF422E8FA74272AF582E4D6
:104FD4003405F583E0F5D908E8C3940522F0750893
:104FE4002775090578082274F6121769EAFEEBFFA3
:104FF4009061D0E0704F7801900527740BF0900316
:1050040076E0640770177508277509057808121982
:105014007C7C017903125FCA12170F78057401288A
:10502400F5D975D9037900800FE9FA742712555719
:105034003405F583E0F5D909E9C39840EC75E195A9
:105044001250568002790002524475E19579041297
:105054000D6DEE246FF582E43FF583125BF4EE24CC
:1050640071F582E43FF583E8F0A3E9F07901227455
:10507400F7121769EAFEEBFF75D90375D90375D9E1
:105084000DEA24DF125093F5D912504E024F47F522
:1050940082E43FF583E0227F0302183B74F5121784
:1050A400691251236004780F8002780BEAC39812C6
:1050B40052D54041750A099005277409F079081200
:1050C40051096014750827750905780812197C12AE
:1050D4005FC212170F750A0D1250FD8003124E8C19
:1050E400E8C3950A40F775E1957904120D6D1252E3
:1050F40049790180027900809E7401250AF5D975E9
:10510400D903780022EE24E4FCE43FFD7A287B05F1
:1051140012511822120B8D850882850983E0221210
:105124005137FAEE2484F8E43F8808F5098882F5BB
:1051340083E022EAFEEBFF9061D0E0F87480C3982C
:105144002274F21217691251B160047A0C80027A47
:10515400081252D24052750A06900527740CF0903A
:105164000393E0900528F079027C947D037A297BEF
:1051740005120B8D79027C967D0312511860167509
:105184000827750905780812197C7C06125FC41279
:10519400170F750A0A1250FD8003124E8CE8C3954E
:1051A4000A40F712504E80027900024E871251379E
:1051B400F8EA2484F508E43FF509850882F583E0DC
:1051C4002274F6121769124E9DFAEE2484F8E43F15
:1051D400F98882F583E060047C0880027C04EAC3D9
:1051E4009C1252D540587A02900527EAF0EE24F634
:1051F400F582E43F1252576019750827750905783E
:105204000812197C7C027903EEFA125FCA12170F96
:105214007A0674012AF5D975D90378008008E8FC68
:1052240074272C124E91E8C39A40F375E1951252FB
:10523400497904120D6DEE240D1250598002790043
:105244007F0202183BEE241DF582E43FF583E4F06F
:10525400A3F022F583E0900528F088828983E02278
:1052640074F6121769124EA1FCEA2484F8E43BF99F
:105274008882F583E060047E0880027E04ECC39E8D
:105284001252D540447C029005277407F0EA24F7B3
:10529400F582E43B125257601575082775090578A5
:1052A4000812197C7903125FCA12170F7C06740165
:1052B4002CF5D975D90378008003124E8CE8C39C71
:1052C40040F875E195790180027900025244E8C3FF
:1052D4009A95E0C365D0332274F71217698908A23E
:1052E400AFE433FFC2AF7E00EA246EF8E43BF980FA
:1052F400010E88828983E0FCEEC39C5018EEFCEA20
:105304002CFCE43BFDEC246AF582E43DF583E06586
:105314000870DE8010EA2CFAE43BFB125397E50890
:1053240012525D04F0EFA2E092AF024F47C082C078
:1053340083A2AFE433FDC2AF125E0914F07C00EC2B
:10534400F8EA124EA8246BF582E439F583E0C0E054
:10535400E8246AF582E439F583D0E0F00CECC394D8
:105364000340DCEA246DF582E43BF58374FF1253B9
:10537400A1ED024CE0C082C083A2AFE433F8C2AF17
:10538400125397E91253A1125E0970037401F0E8F5
:10539400024CE0EA246AF582E43BF58322F0EA2435
:1053A40069F582E43BF583E4F02274F01217698C0A
:1053B400828D83A3A3A3A3E0541FF0EA2436125DD5
:1053C400AA8882F583E4F0750C00E50CF50AEC2557
:1053D4000AF8E43D8808F5098882F583E0C0E0EA2C
:1053E400250AF8E43BF9E8245DF582E439F583D035
:1053F400E0F0750A00850882850983E0F50E750FD3
:1054040000E50A780E1216C7E50EA2E05027E50C57
:1054140033333354F8250AC0E08E828F83E0F8EAF0
:10542400124EA82438F582E439F583D0E0F08E8258
:105434008F83E004F0050AE50AC3940840B7050C1D
:10544400E50CC3940540837F0802183BC082C083E7
:105454009003A2E06401700302554378009003A80E
:10546400E06003025543125D25A3F090040804F0A4
:1054740090040DF09003AB12554A9003B504F090DC
:1054840003DBE4F09003BE12555CA3F0900426F015
:1054940090041AF0900429F090040E7480125D2791
:1054A400900414F090049212556C90049BF09004B4
:1054B4002AF090047A12556CA3F0A3F0900486F0BD
:1054C400900488F0900484F090049E12556C90042B
:1054D400B1F09004AB12555C74FF9004107904F0A1
:1054E400A3D9FCE8FA74B61255573404F583E0C026
:1054F400E074031255573404F583D0E0F008E8C390
:10550400940540DF7800E8FA748A1255573403F59D
:1055140083E0C0E0748A1255573404F583D0E0F078
:1055240008E8C3940840DF9003A2E004F06401702B
:10553400089003AAE09003A4F07AA67B0380047A7F
:10554400007B00024CE4E4F0A3F0A3F0A3F022E813
:10555400FA74FD2AF582E42212556022F0A3F0A326
:10556400F0A3F0A3F0A3F022125560A3F0A3F0225D
:10557400C082C083EA2403125E0C6008E4F0900346
:10558400A3E014F09003A2E014F070069003A47456
:10559400FFF08A828B83A3A3E4F09004BBE0700D38
:1055A4009003A3E0640170057900120D4F024CE4EE
:1055B400C082C0839003A9E4F09003A8F09003A2F2
:1055C400F0A3F0A374FFF075E1F1024CE474E81267
:1055D400176974E41216F9851882851983125C27F9
:1055E400F5838882124FC88882F583A3A31215CF4E
:1055F40074121217451215DB88828983A3A3A3A30F
:10560400A3A3124FC87416121745125C32240B124E
:105614005F057410121745125C32240D125F057475
:105624000E121745125C322407125F057404121718
:1056340045125C1D743412174512198F7416121713
:10564400451215C31224DE740412170FE960030215
:105654005B28125BD112198F74381217451215C3C7
:1056640012253A740412170F8A088B098C0A8D0BC1
:10567400851882851983E02405125F05740A1217C0
:1056840045125C1D740A121745125C128518828536
:105694001983E02474125F057408121745125C1D07
:1056A4007408121745125BB6F8851882851983E0D1
:1056B400242EFCA3E03400FD7402121745ECF0A381
:1056C400EDF0E870030259DA851882851983E0F950
:1056D400A3E0C92475F582E439F583E0C39AF50C97
:1056E400A3E09BF50D851882851983E0240EFAA3A7
:1056F400E03401FB740C121745EAF0A3EBF07402DA
:10570400687004740C80027402121745125BC7851A
:105714000C14850D15751600751700E4F512F513B4
:10572400781479101213DF741812174578141215AF
:10573400B4125BD178101215A5741812174578109D
:10574400121519781012197874381217451215C3E6
:105754001224DE740412170FE970030259AC851881
:1057640082851983E0247A125F05740612174512A4
:105774005C1D7406121745125BC7E4F512F5137429
:10578400181217457808121553780879101215065F
:10579400908F8678081215198510148511158512B5
:1057A400168513177808791412145F85081485096F
:1057B40015850A16850B17781479101213DFE50C7A
:1057C4002508FEE50D3509FF740A121745125BBF63
:1057D4003FF97404121745125C1A7418121745C065
:1057E40082C083124E392478F582E438F583E0F5DB
:1057F4000CA3E0F50DE4F50EF50FD083D082780C00
:10580400121519780C79141215067408121745121A
:105814005BB664016003025A1C851882851983E013
:105824002477F510A3E03400F511AC10FD8518823F
:10583400851983125DB9120B63851882851983E07B
:10584400247CF508A3E03400F509850882F5831269
:105854005DB9124E392420F582E438F583125C27B1
:10586400C8241CF582E438F583E4125C23F8A3E031
:10587400C8241DF582E438F583E4F0A3F07404121F
:105884001745125C12740E121745125BB62AFAA35E
:10589400E03BFB7410121745125B96EAF0A3EB127F
:1058A4005C23247EF516A3E03400F517851682F5F3
:1058B40083E0F514A3E0F5157406121745125BB6E0
:1058C400FCA3E0FD851882851983E02430F512A33A
:1058D400E03400F513851882851983E02432F50A33
:1058E400A3E03400F50B7402121745125BB66C701A
:1058F40003A3E06D701D850A82850B83E065147037
:1059040004A3E06515700C125B86E0687003A3E0E5
:10591400696032740478141216D7781412197C85CD
:105924000882850983121993EDC313FDEC13FC74EB
:1059340004121745125BA7A3A3E0FA7B00120851D7
:10594400740412170F7402121745125C12740C12AD
:105954001745125BAD851082851183E0C0E0124EBD
:1059640039242BF582E438F583D0E0F0740612175D
:1059740045125C127402121745125BAD125B86125B
:105984005C1D851682851783124FC8850A82850B94
:1059940083125C32FAA3E0FB120B697408121745F8
:1059A400125B967402F080707402121745125BFA4F
:1059B400121506908F86780812151985120E851314
:1059C4000F7808790C12145FAE08AF09740A121725
:1059D40045125BBF80287402121745125BFA121538
:1059E40006908F86780812151985120E85130F7884
:1059F40008790C12145FAE08AF09EA2EF8EB3FF9F0
:105A04007404121745125C1A8E0C8F0DE4F50EF512
:105A14000F780C79101213DF125BE7E8FAE9888239
:105A2400F583A3A3A3A3A3A3A3A3850C08850D09AE
:105A3400850E0A850F0B7808121519741212174572
:105A440078081215B48A828983E064407070124E1B
:105A5400392418F582E438F583780C1215B48518C6
:105A640082851983E02412F508A3E03400F509784F
:105A74000812197C7402121745124E3F2410F58245
:105A8400E438F583121993EE24FFF50AEF34FFF599
:105A94000B780A12197C7408121745125BB6F50AC2
:105AA400A3E0AA0AFBE4FCFD12267A740612170F7F
:105AB400AC08AD0974121217571225B88009741670
:105AC400121745E4F0A3F0125BE78882F583A3A3E1
:105AD400E82408FCE439FD740612160C741212173B
:105AE40045C082C083851882851983125BB624025F
:105AF400FCA3E03400FDD083D082740612160C128D
:105B04004E392435F582E438F583E0C0E0124E398D
:105B14002434F582E438F583D0E0125C23FAA3E060
:105B2400FB121B587410121745125B96C082C08377
:105B34007404121745125BEDD083D082E0C398FA47
