:020000040000FA
:0600000002010702207658
:0300130002248242
:03002B0002246844
:03003B000224EAB2
:030053000220EC9C
:10008300021ED3E5C754F84401F5C77901220000E5
:100093000080FB120086B900030200F1E4792178A5
:1000A30008B800028004F709D8FCE479297802B87B
:1000B30000028004F709D8FCE490028178F37914F4
:1000C3008002F0A3D8FCD9FA7A737B1690013778B3
:1000D300C979028015E493A3AD82AE838A828B83B0
:1000E300F0A3AA82AB838D828E83D8E9D9E7758288
:1000F300A375837F7400120119758291758300744F
:100103000012011975D00075813F751881751902A8
:10011300759F00020096C09FF59FE473D09F22D085
:1001230083D082C09FE493C0E0740193C0E0740263
:1001330093F59F22FF0000B4000028002800283018
:1001430075A000A000A000A00000080008E001F0D6
:10015300001000100010001000100010005000509C
:1001630000500010001000D0070000000000000F36
:100173000001000500307507001000010081FF0039
:10018300000000FFFFFF1B05390521055D05FF0288
:10019300020208025000A0000000E80302AA8F0137
:1001A3000000968F02A88F010000CE1602A08F01D7
:1001B3000000BF0202A88F010000CF16029E8F012C
:1001C3000000D50202A88F010000D016029C8F0107
:1001D3000000D70202A88F010000D11602B28F08D7
:1001E3000000D80202A88F010000D21602B08F01CE
:1001F3000000D316FF0100FF2002AA8F010000991F
:100203008F02A88F010000371702A48F000000009F
:100213000002A28F03000006031700ED0BED0BEDA8
:100223000BED0BED0BED0BED0BED0BED0BED0BED0B
:100233000BED0BED0BC90EDB0EC30E01E8030577C7
:10024300100AFFFFFF0001307503020106000000E2
:10025300000000000000000000000000000000009B
:10026300000000000000000000FFFF0600800CE813
:100273000309095645534320424C450512180028EB
:1002830000020A0002010611079ECADC240EE5A93A
:10029300E093F3A3B50100406E5645534320424C0F
:1002A3004500000000000000000000000000FFFF08
:1002B300E3120000105458000C52580002AA8F0198
:1002C3000000F58E02A88F010000F317107F8E0047
:1002D3000000491602A28F0300005D1602A68F01DB
:1002E3000000F41702A88F010000F717108F8E0289
:1002F30000005F1602A68F010000F81712012266A4
:100303008F03120122798F03120122A88F03120196
:1003130022E08F031201222990031201226C900321
:10032300120122B29003120122E590031201220C62
:1003330091031201223B91031201227291031201D4
:10034300228B9103120122DA9103120122F391030A
:100353001201223B92031201226F9203120122AB7C
:10036300B402120122A9B5021201220FB602120130
:100373002232B60212012234B60212012272B602EE
:10038300120122E3B602120122A3B702120122C50F
:10039300B70212012261B80212012298B8021201B7
:1003A30022DDB802120122EAB8021201225AB9026E
:1003B300120122A4B902120122A7B902120122EDED
:1003C300B902120122F0B902120122FAB902120192
:1003D300226DBA0212012295BA02120122C8BA0290
:1003E300120122ECBA02120122E9BB021201228D90
:1003F300BC02120122F9BC0212012235BD02120114
:10040300220484031201222C84031201225984033F
:10041300120122918403120122F784031201224163
:100423008503120122A58503120122ED8503120122
:10043300222A8603120122588603120122ED860323
:10044300120122F7860312012204870312012237C5
:1004530087031201224387031201225B87031201E0
:1004630022658703120122FCAE031201220AAF03A5
:1004730012012222AF0312012239AF031201226DAE
:10048300C70112012210C80112012229C901120158
:1004930022A1C901120122C8CA0112012201CB0102
:1004A30012012299CB0112012286CC011201222FC3
:1004B300CD01120122B7CE011201229FCF011201F9
:1004C3002296D001120122CCD0011201226ED10159
:1004D30012012294D10112012260D301120122A63A
:1004E300D301120122C8D30112012234D401120113
:1004F30022FFD401120122B9D501120122C5D7016D
:1005030012012253CD021201222FCE02120122D94F
:10051300CE021201221ACF02120122A1CF0212012E
:10052300221CD002120122EFD00212012218D102A2
:100533001201220CD20212012249D20212012231EB
:10054300D30212012262D30212012288D3021201C2
:10055300225FA203120122DEA20312012209A303D6
:1005630012012219A403120122F3870312012209A3
:1005730088031201222788031201223789031201FB
:10058300224189031201226B8A03120122588B0331
:10059300120122C48B03120122F8D3021201222575
:1005A300D5021201225CD502120122B3D502120137
:1005B30022ABD7021201224BA301120122D2A301C3
:1005C30012012226A50112012232A501120122AA3B
:1005D300A50112012283A60112012283A7011201A0
:1005E300227FA8011201224BA901120122A5AA010F
:1005F300120122BBAA01120122DCAA011201226EFE
:10060300AB01120122E4AB011201220AAC01120177
:1006130022B7AE01120122BCAE01120122E0B001E9
:1006230012012227B1011201228DB101120122D33D
:10063300B101120122A3B20112012258B301120126
:1006430022B4B301120122B7B30112012203B40190
:100653001201223FB4011201227EB401120122A031
:10066300B401120122D4B40112012242B5011201D4
:100673002265E40212012273E402120122C3E4029E
:10068300120122E2E4021201222CE5021201226F7E
:10069300E60212012207E7021201224BE7021201CE
:1006A3002275E702120122E0E70212012224E80286
:1006B300120122A7E80212012256E9021201224C7A
:1006C30025001201225C2500120122F625001201E9
:1006D3002252260012012210270012012233280081
:1006E30012012263280012012292280012012248DB
:1006F3002A001201229B2C00120122FA2E00120161
:1007030022E32F00120122D33000120122A632006D
:100713001201229E3500120122BB3600120122B5BE
:100723003800120122C43900120122533B00120186
:10073300223F3C001201228E3C00120122FE3C00AB
:100743001201221A3D001201226B3D001201220BFD
:1007530042001201221243001201227443001201CB
:10076300229F4300120122574400120122D2FB02AE
:10077300120122DCFB0212012224FC0212012238A4
:10078300FC02120122C9FC0212012200FD02120125
:10079300223BFD0212012264FD02120122B8FD0276
:1007A300120122CDFD02120122EFFD0212012204E9
:1007B300FE0212012218FE021201222DFE02120174
:1007C3002267FE0212012293FE021201221EFF0281
:1007D30012012261FF021201228BFF02120122B6D3
:1007E300FF0212012219AB03120122E69702120142
:1007F30022BF98021201222E990212012269990244
:10080300120122A49A02120122569B021201220310
:100813009E02120122AE9E021201228F9F0212013A
:100823002205A1021201226DA102120122CDF202C0
:1008330012012210F3021201227BF402120122B9E7
:10084300F602120122669E03120122139F03120174
:10085300220CA00312012249A00312012248A4037F
:10086300120122A7A40312012244A5031201227735
:10087300A503120122A5A503120122E0A50312017B
:100883002200A60312012224EE02120122ADEE027F
:100893001201226CEF021201227AF0021201229A53
:1008A300F20212012208F4011201221DF4011201C5
:1008B30022E8F401120122B5F50112012222F60108
:1008C3001201225DF601120122FEF6011201220736
:1008D300F801120122DFF80112012262F90112016B
:1008E30022EBF90112012254FA01120122DEFA016C
:1008F3001201222BFB0112012299FB011201223B5F
:10090300FC01120122E9FC0112012209FD0112017D
:10091300224DFD0112012295FD01120122B1FD01BB
:10092300120122D0FD011201224AFE0112012258B6
:10093300FE01120122EBFE0112012255FF011201F9
:100943002256F702120122D2F70212012210F802F4
:10095300120122F4F80212012263F902120122A702
:10096300F902120122EAF90212012217FA02120114
:100973002235FA021201226DFA02120122AAFA02A8
:10098300120122CBFA0212012241FB021201228B35
:10099300FB02120122FCB50112012299B7011201D7
:1009A30022C4B9011201220CBA0112012237BA0181
:1009B30012012223BB0112012267BB01120122D3C0
:1009C300BB01120122E6BB0112012227BC01120165
:1009D3002254BC011201229DBC01120122E0BC0180
:1009E30012012216BD0112012267BD01120122CBA1
:1009F300BD01120122A2C00112012296C2011201FD
:100A030022D1C20112012251C40112012295C40153
:100A130012012205C5011201225AC5011201221F2A
:100A2300C60112012257C70112012268C701120130
:100A33002212A2021201227BA2021201223EA8026A
:100A430012012233A902120122BDAA021201225568
:100A5300AB02120122C04400120122084500120118
:100A63002235450012012267450012012274450018
:100A730012012280450012012292450012012259DF
:100A83004600120122B74600120122EC4600120171
:100A930022284800120122754800120122904800C2
:100AA300120122044900120122BB49001201229BB8
:100AB3004A00120122014B00120122D34B00120102
:100AC30022F54B00120122654C00120122FC4C005E
:100AD300120122234D001201229B4D0012012223F9
:100AE3004E00120122504E00120122F54E00120157
:100AF30022754F001201221450001201228C500063
:100B0300120122E150001201222951001201225E3A
:100B1300510012012200520012012224530012013B
:100B230022645300120122815300120122F759005B
:100B3300120122405A00120122DC5A001201220142
:100B43005B00120122165B001201227D5B00120181
:100B530022C45B00120122D45C00120122805D00DA
:100B6300120122DA5D00120122365E001201224FC9
:100B73005E001201227EAB02120122C9AB021201F6
:100B830022D5AB02120122A5AC02120122CEAC0285
:100B930012012201AD021201226DAD02120122AB3C
:100BA300AD02120122E4AD02120122FCAD021201D8
:100BB3002255AE021201226EAE02120122B3AE0220
:100BC300120122C6AE02120122E0AE02120122F687
:100BD300AE02120122FDAF021201221EB102120166
:100BE3002207B202120122F6B202120122F97F0099
:100BF3001201220080021201223380021201229D7F
:100C03008302120122F28402120122C5850212011B
:100C130022078702120122FF87021201224D880256
:100C2300120122678802120122A98802120122B44A
:100C33008802120122FD8802120122068902120192
:100C430022B289021201228C8A02120122D88A025C
:100C5300120122388B021201228A8B02120122B85E
:100C63008B02120122F68B02120122B78F011201AD
:100C7300229893011201229E93011201220E9A01DE
:100C8300120122E19E01120122FBA201120122D7CD
:100C930092031201224D9303120122639303120163
:100CA30022E09303120122179403120122519403A9
:100CB3001201228B9403120122FE940312012239A2
:100CC30095031201224295031201224E950312014C
:100CD300226795031201228B9503120122A095032B
:100CE300120122E4950312012268E9021201227B18
:100CF300E90212012295E902120122C2E90212015C
:100D03002208EA021201223BEA0212012278EA02D5
:100D1300120122DEEA02120122F3EA02120122FE8A
:100D2300EA021201220BEB0212012222EB02120150
:100D33002230EB021201223BEB0212012247EB02AB
:100D43001201225AEB0212012265EB021201228BDD
:100D5300EB021201222FEC021201223FEC021201DC
:100D63002259EC0212012276EC0212012291EC02CA
:100D7300120122B8EC02120122C3EC02120122D8A2
:100D8300EC02120122ECEC021201224DED021201DF
:100D93002253ED0212012259ED021201225FED02EC
:100DA30012012277ED02120122AAED021201229B07
:100DB3007200120122297300120122BE7300120174
:100DC300229A7400120122CE7400120122E17400EF
:100DD3001201225B7500120122E376001201220A3E
:100DE3007700120122917700120122D077001201BD
:100DF30022E1770012012256780012012275780051
:100E03001201228D7800120122D17900120122DB16
:100E13007B001201220D7E00120122137F001201BA
:100E230022567F00120122D2D701120122E5D801F6
:100E3300120122CDD901120122D7D901120122F9BF
:100E4300D90112012205DA0112012252DB0112013A
:100E5300227FDB01120122A0DC01120122E2DC016C
:100E630012012217DE01120122E7DE0112012236EE
:100E7300DF0112012297DF01120122CCDF011201EF
:100E83002205E001120122B0E301120122C7E301AE
:100E930012012245E40112012253E4011201229CB2
:100EA300E401120122AAE4011201222BE50112013D
:100EB300229AE501120122E6E501120122018D02C7
:100EC300120122238D02120122FF8E0212012277C8
:100ED3009202120122C19302120122A3940212016F
:100EE30022C6A703120122EBA7031201225CA80367
:100EF300120122D0C502120122D9C502120122E237
:100F0300C50212012206C702120122F7C80212010A
:100F13002225C90212012250C9021201227EC902EE
:100F2300120122A9C902120122E7C90212012213E6
:100F3300CA0212012250CA021201227BCA02120102
:100F430022C7CA021201221ECB021201225ECB0269
:100F5300120122ADCB02120122D8CB021201221EB2
:100F6300CC021201224CCC0212012277CC021201D4
:100F730022A4CC02120122C7CC02120122C9AF0360
:100F8300120122F5AF031201224EB00312012258BF
:100F9300B00312012268B00312012245B10312010A
:100FA30022815E00120122D86000120122886200B1
:100FB300120122E56200120122E56300120122629E
:100FC3006400120122EA64001201220F650012017B
:100FD30022EA67001201225E68001201224D6900B5
:100FE300120122836900120122C6690012012247FD
:100FF3006B00120122896B00120122D26B001201D5
:10100300223B6C001201225D6C00120122776C00FE
:10101300120122956D00120122A56D0012012228F2
:101023006F00120122486F001201227E6F0012012D
:1010330022FA70001201223771001201227172002C
:101043001201220EA6031201226AA6031201220E26
:10105300A7031201222DA7031201227BA70312016A
:1010630022EFFF011201228FB103120122CEB1033D
:1010730012012204B20312012278FF011201228815
:10108300FF011201229DFF01120122E6FF0112015D
:10109300222DAC03120122B0AC0312012216AD03C0
:1010A300120122F67F00120122CE8B03120122E2EB
:1010B3008B031201225B8C031201222F8D03120179
:1010C30022018F03120122EE9B03120122649C036F
:1010D300120122F89C031201228D9D03120122A505
:1010E3009D03120122B59D03120122119E031201D9
:1010F30022259E03120122339E0312012225AE03F1
:1011030012012248AE0312012271AE03120122B36F
:10111300AE0312012220DF021201222ADF02120192
:10112300226ADF02120122B3DF02120122EBDF0285
:1011330012012241E0021201225EE0021201226743
:10114300E002120122ACE002120122D5E0021201F8
:1011530022EAE0021201225AE102120122E7E1022D
:101163001201223BE2021201225EE202120122DD9F
:10117300E20212012218E3021201224DE3021201DC
:10118300225FE3021201227EE30212012287E302BD
:1011930012012239E40212012277A903120122C8A3
:1011A300A90312012251AA03120122BBAA031201AD
:1011B300223399031201225B9903120122509A03ED
:1011C300120122759A03120122049B031201222F9A
:1011D300AD0312012263A00312012299A00312019D
:1011E30022CCA00312012225A20312012272B00312
:1011F30012012288B00312012292B0031201225B72
:10120300BD0212012215BE0212012250BE021201BA
:101213002281BE02120122F1BE0212012247BF0245
:101223001201229BBF0212012288C00212012281F5
:10123300C10212012202C302120122B6C302120129
:10124300221FC40212012232C40212012217C50254
:1012530012012270C502120122008003120122161C
:101263008003120122BA8003120122F980031201C2
:101273002216810312012247810312012294810362
:10128300120122C78103120122028203120122F7F3
:101293008303120122E6B0031201226CE60112015C
:1012A30022F4E90112012283EB01120122DAEB019C
:1012B300120122F9EB0112012277EC01120122FD46
:1012C300ED01120122D0EE011201228AF201120174
:1012D3002272F30112012298D9021201228EDC023A
:1012E3001201225CDE02120122EFDE021201220051
:1012F300DF0212012210DF021201221396031201F0
:10130300226A96031201227D960312012257970344
:10131300120122E19703120122FA9803120122D843
:10132300B103120122DEFF02E066701008A3E0663B
:10133300700A08A3E066700408A3E06622C3E79678
:101343000809E7960809E7960809E79622C3E09695
:1013530008A3E09608A3E09608A3E09622C008C37A
:10136300E096F50808A3E096420808A3E096420831
:1013730008A3E09645087001D3D00822080808EABC
:10138300C0E0EBC0E086F0E7A4FA180986F0E7A412
:101393002AFA180986F0E7A42AFA180986F0E7A4BE
:1013A3002AFA1986F0E7A4FBE5F02AFA190886F071
:1013B300E7A42BFBE5F03AFA190886F0E7A42BFB28
:1013C300E5F03AFA18180986F0E7A4C5F02BFBE418
:1013D3003AFA1908E7C5F0C6A426F6E5F03BFBE4A4
:1013E3003AFA1886F0E7A4F6E5F00826F6E43B0897
:1013F300F6E43A08F6D0E0FBD0E0FA22E4CFC0E00E
:10140300E4CEC0E0E4CDC0E0E4CCC0E075F020E67B
:1014130026F608E633F608E633F608E633F6181838
:1014230018EC33FCED33FDEE33FEEF33FFC3EC97E3
:1014330009ED9709EE9709EF97191919400FFFEC7A
:1014430097FC09ED97FD09EE97FE191906D5F0BF34
:10145300ECF709EDF709EEF709EFF7191919D0E0E1
:10146300FCD0E0FDD0E0FED0E0FF226016080808C3
:10147300C6C313C618C613C618C613C618C613C6E2
:10148300D5E0EA227009080808226016181818C661
:10149300C333C608C633C608C633C608C633C6D563
:1014A300E0EA22E627F60809E637F60809E637F602
:1014B3000809E637F622E026F608A3E036F608A385
:1014C300E036F608A3E036F622E026F008A3E0367D
:1014D300F008A3E036F008A3E036F022C3E697F65F
:1014E3000809E697F60809E697F60809E697F6224B
:1014F300C3E0C696F608A3E0C696F608A3E0C69630
:10150300F608A3E0C696F622C3E096F008A3E09699
:10151300F008A3E096F008A3E096F022E056F60860
:10152300A3E056F608A3E056F608A3E056F622E039
:1015330056F008A3E056F008A3E056F008A3E056DF
:10154300F022E0F608A3E0F608A3E0F608A3E0F62D
:1015530022E6F008A3E6F008A3E6F008A3E6F022EB
:10156300E0FAA3E0FBA3E0FCA3E0FD22E0FCA3E0A0
:10157300FDA3E0FEA3E0FF22ECF0A3EDF0A3EEF069
:10158300A3EFF022E0F8A3E0F9A3E0FAA3E0FB2243
:10159300E8F0A3E9F0A3EAF0A3EBF022CAC0E0E687
:1015A300F0A308DAFAD0E0FA22CAC0E0E0A3C582C9
:1015B300CCC582C583CDC583F0A3C582CCC582C506
:1015C30083CDC583DAE6D0E0CA22C3E498F8E49970
:1015D300F912160E8026C3E49AFAE49BFBE920E78E
:1015E300E912160EE498F8E499F922C3E498F8E4B2
:1015F30099F912160EE498F8E499F9C3E49AFAE417
:101603009BFB22EB20E7CFE920E7E0B90010BB000A
:1016130008E88AF084F8AAF022E4FBC8FA22EB7007
:10162300227B10C833C8C933C9335007C39AC3DBFD
:10163300F280069A50012ADBEAC833F4C8C933F4AE
:10164300C9FA2275F008E4C833C8C933C933C99A43
:10165300C99B5004C92AC93BD5F0ECFBC833F4C875
:10166300E4C9FA22600D08C6A2E713C618C613C65A
:10167300D5E0F322600C08C6C313C618C613C6D53B
:10168300E0F422700422600D18C6C333C608C633C3
:10169300C6D5E0F41822251810AF08F518400C152C
:1016A300198008F51840021519D2AF2200C0D025C1
:1016B3001810AF08F518500C05198008F5185002DA
:1016C3000519D2AFD0D0222518F58210AF08F5182E
:1016D300400C15198008F51840021519D2AF851969
:1016E30083222518F582E43519F583222518F8E4B9
:1016F3003519F9222518FAE43519FB222518FCE4DB
:101703003519FD22E4732518C582C0E0E51934FFBD
:10171300C583C0E0E518C3958224F810AF0885831C
:10172300198582188008858319858218D2AFCEF077
:10173300A3E520F0A37808E608F0A3DEFAEFF0A310
:10174300E58124FAF8E608F0A3E608F0A3E608F03A
:10175300A30808E608F0A3E608F0A315811581D0D5
:10176300E0FED0E0F8158115811581E8C0E0EEC0F8
:10177300E0222518C582C0E0E51934FFC583C0E027
:10178300E518C3958224F910AF088583198582185B
:101793008008858319858218D2AFCEF0A3E520F0A7
:1017A300A37808E608F0A3DEFAEFF0A3E58124FBB3
:1017B300F8E608F0A3E608F0A30808E608F0A3E6B5
:1017C30008F0A315811581D0E0FED0E0F81581154E
:1017D30081E8C0E0EEC0E022851983851882E0A38A
:1017E300FEE0A3F5207808E0A3F608DFFAE0A3FF04
:1017F300E0A3C0E0E0A3C0E0E0A3C0E0E0A3C0E05A
:10180300E0A3C0E010AF088582188583198008859E
:101813008218858319D2AFD083D08202011F851924
:1018230083851882E0A3FEE0A3F5207808E0A3F601
:1018330008DFFAE0A3FFE0A3C0E0E0A3C0E0E0A379
:10184300C0E0E0A3C0E010AF08858218858319804B
:1018530008858218858319D2AFD083D08222C0D065
:101863002518C582C0E0E51934FFC583C0E0E5183B
:10187300C3958224F310AF088583198582188008E5
:10188300858319858218D2AFC8F0A3E9F0A3EAF0E3
:10189300A3EBF0A37908E709F0A3D8FAECF0A3EDE2
:1018A300F0A3EEF0A3EFF0A3D0E0F0A3D0E0F0A319
:1018B300D0E0F0A3E520F0A3E5F0F0A3228519839F
:1018C300851882E0C0E0A3E0F9A3E0FAA3E0FBA35C
:1018D3007808E0F608A3DFFAE0FCA3E0FDA3E0FE4E
:1018E300A3E0FFA3E0C0E0A3E0C0E0A3E0F5D0A342
:1018F300E0F520A3E0A3F5F010AF088583198582F6
:10190300188008858319858218D2AFD082D083D0FE
:10191300E0F8D0E03274048006740280027401C0DF
:10192300E0F4041216CAD0E012159F227404800456
:1019330074028000CCC0E0EDC0E0E518C39CCCADE0
:101943001950011D10AF068C188D1980068C188D47
:1019530019D2AF1215ACD0E0FDD0E0FC22D083D079
:1019630082E9C0E0E493A3C386F0C5F095F0F908DB
:10197300E493A386F0C5F095F0700BE493A3C399A9
:101983004005E9048002A3E475F002A42582F582F0
:10199300E5F03583F583D0E0F9E493A3C0E0E49365
:1019A300C0E022D083D082ECC0E0EDC0E0E493A39A
:1019B300FCE493A3FDED4C600D1219F2EC24FFFC43
:1019C300ED34FFFD80EFE493A3FCE493A3FDED4C22
:1019D300600D121A31EC24FFFCED34FFFD80EFD0D3
:1019E300E0FDD0E0FCE493A3C0E0E493C0E022C0B8
:1019F300E0C3E49396087401939618400FE493664A
:101A0300700808740193661870007019A3A3C3E4E7
:101A13009396087401939618A3A3400DD0E0D0E0E9
:101A2300D0E00219E2A3A3A3A3A3A3D0E022C0E0C2
:101A3300C0F088F0E4936670080874019366187028
:101A430000A8F0A3A3700BD0F0D0E0D0E0D0E00268
:101A530019E2A3A3D0F0D0E02274F6121775EAFEC0
:101A6300EBFF8C088D09EA2434F8E43FF9E8FCE93C
:101A7300FD121B8AE0FAEE2437F582E43FF583E09A
:101A8300F88508F0A4C885F00A8509F0A4250AF9A9
:101A9300EA28F8E439F97A257B0012160EEA8C82DB
:101AA3008D83F0F9131313541FFAEE2AFAE43FFB64
:101AB300EA245DF582E43BF583E0C0E0740759F85E
:101AC300D0E0B800028004C313D8FCA2E04021EEAA
:101AD3002436F582E43FF583E0F5F0E984A8F0EEDF
:101AE30028F8E43FF9E82438F582E439F583E0F98E
:101AF3007F0302182174F5121775EAFEEBFFEA243F
:101B030034F582E43FF583E0C0E0121B8AD0E0F0B5
:101B13008A828B83A3A3A3A3A3E0FAA3E0FB8E8211
:101B23008F83A3A3A3A3A3A3A3E0C39AF508A3E06E
:101B33009BF509EE2480F8E43F880AF50B8882F5CB
:101B430083E06401702CEE2481F582E43FF583EA9F
:101B53002401F8E43BF9E0687003A3E06970137CA7
:101B6300B67D04EEFAEFFB120B0F850A82850B8319
:101B7300E4F0AC08AD09EEFAEFFB121A5CE9F912D6
:101B8300245A7F04021821EA2435F582E43FF583C1
:101B930022C082C083851882851983E0F8A3E0F907
:101BA300C3EA9CEB9D5010C3EC98ED99401BC3EA2C
:101BB30098EB995014800EC3EA98EB994007C3EC55
:101BC30098ED994004790180027900D083D0822274
:101BD300EAC39CFAEB9DFB2274ED12177590037612
:101BE300E064086005E06407702C9061C8E060263B
:101BF3009003A4E0F874FF68601CE875F010A4C8B3
:101C0300AAF02AF974A628FE740339FF8E82F5839D
:101C1300A3A3A3E070057900021DB7EE2468F50EB7
:101C2300E43FF50F906060E0850E82850F83F075C9
:101C33001027751105750800750900E5D914F50A13
:101C4300E5D95403F50B6044EE2484F50CE43FF529
:101C53000D7403650B6025E50A600CEE2467F582BD
:101C6300E43FF583E06025900522E06401603E8552
:101C73000C82850D83E060207804801E850C8285AC
:101C83000D83E0603BE50AC394055034793DEEFAD9
:101C9300EFFB120B39021C197800E50AC398FA9579
:101CA300E0FB1209A78A088B09EA4B7006120D9113
:101CB300021C19850C82850D83E070048A108B1138
:101CC30078008014E5D9C0E0E8FAE5102AF582E44B
:101CD3003511F583D0E0F008E8C3950A40E6850C9A
:101CE30082850D83E0602874FC250AF50A781012BA
:101CF300191CAC0AA90BEEFAEFFB120BE7740212E4
:101D030016AFE9700AAA08AB0912119F021C8F745F
:101D130003650B6055E50AF50C750D00780C121977
:101D23001CAC10AD11AA08AB09120BAB740212164E
:101D3300AF850E82850F83E0F87480687005750C9B
:101D43007F8002880CE50CF50D780D121920780BB5
:101D5300121920A90AAC08AD099003A4E0FA7B008C
:101D63001207E574021216AF804585108285118330
:101D7300E0F8C3940E500F74DF28F582E4348EF537
:101D830083E0650A6016EE24F7F582E43FF583E805
:101D9300F07907EEFAEFFB120AFD8013900376E069
:101DA3006408600BAC10AD11EEFAEFFB120C7D1260
:101DB3000D9D79017F0C02182174F112177574FCC3
:101DC300121699EAFEEBFF8909750C00A2AFE43302
:101DD300F508C2AF9004BEE0FA9061D0E0F87480D9
:101DE30098F895E0F9C3EA98E499A2D265D0335004
:101DF30015750C018010AA0AAB0B120B6312119F0D
:101E03009004BDE004F0EE2463F50AE43FF50B858E
:101E13000A82F583E0F8A3E0F9E849602DE824029B
:101E2300FAE439FBEA2402F50EE43BF50F780E12CF
:101E3300191C8A828B83E0FCA3E0F9EEFAEFFB1214
:101E43000B5774021216AFE960AC9061D0E0F874DE
:101E530080C3989004BEF0E50C60539004BDE0602D
:101E63004D9004BFE0F89004BDE0C398500C740299
:101E73006509703A9004C0E060348E828F83A3A317
:101E8300A3A3E0851882851983121EC1740212165A
:101E9300E5E8121EC19004BCE028F074021216FF9C
:101EA300AA18AB1979011208399004BDE4F0E508CA
:101EB300A2E092AF74041216AF7F08021821F0A3B8
:101EC300E4F09004BDE0F822008521878522C62234
:101ED300C0E074EB121861A2AFE433F508C2AF752A
:101EE3009B00906182E0A2E0502DE591A2E0502793
:101EF3007591FE74016521701E12204A1220611231
:101F0300192F12220974041216AFE96401700579BE
:101F130001120D25121BDB906182E0A2E5505AE508
:101F230091A2E550547591DF900376E06407600554
:101F3300E06408702C12204A74016521703B122062
:101F43006112192F12220974041216AFE964017089
:101F5300057901120D257901EEFAEFFB121DBC8004
:101F630018E0640D7013900398E004F06428700285
:101F7300E4F07A00E0F9120DA3906182E0A2E6405A
:101F83000302201FE591A2E6400302201F7591BFC3
:101F9300900376E064057008120CBF120CCB80032B
:101FA300120CC5752100120D31E9900377F0790009
:101FB300120D25120A797A017B00900375E0F9125C
:101FC300116F907803E064427052900526E014F09C
:101FD300704AC2AF121FDA00782AD0E0F618D0E0B8
:101FE300F6E59F540770047BFF80027B7FC4C0E04B
:101FF3007829E6F50A08E65BF50B740B780A1216E6
:1020030077D0E0250AF8906270E0A2E740F8E8C3D1
:1020130033906272F0906270E0D2E0F0906181E000
:10202300A2E35009E5E9A2E3500375E9F7A3E0A2AF
:10203300E75009E591A2E7500375917FE508A2E017
:1020430092AF7F080218C09003A4E0F875F010A4C3
:10205300C8AAF02AF974A628FE740339FF22120CC9
:10206300D78E828F83E0F8A3E0C82416F582E43884
:10207300F58322C0E0C0D0C082C083906183E0A218
:10208300E05009E5BFA2E0500375BFFEE0A2E150B6
:1020930009E5BFA2E1500375BFFDE0A2E25009E5E7
:1020A300BFA2E2500375BFFBE0A2E35009E5BFA264
:1020B300E3500375BFF7E0A2E45009E5BFA2E45083
:1020C3000375BFEFE0A2E55009E5BFA2E550037534
:1020D300BFDFE0A2E65009E5BFA2E6500375BFBF2C
:1020E300D083D082D0D0D0E032C0E074F212186135
:1020F300E5A7A2E4500FE5A1A2E4500953A7EF75A9
:10210300A1EF122140E5A7A2E5500CE5A1A2E550FD
:102113000653A7DF75A1DFE5A7A2E15009E5A1A258
:10212300E1500375A1FDE5A7A2E2500CE5A1A2E2EF
:10213300500653A7FB75A1FB7F010218C074F81268
:102143001775752101900376E0640670077A007BAA
:1021530000120CA7A2AFE433FED2AF90037CE0647D
:102163000170187A207B00900375E0F912127D7AD2
:10217300207B00900375E0F9121175906182E0D223
:10218300E6F0900523E0602185C622801690037B4C
:10219300E064017008E5C654F84405F5C653BEFC77
:1021A300121ECC7401652160E4EEA2E092AF7F01C0
:1021B30002182100008E238F24858228858327859A
:1021C3001882851983E0CEA3E0CF852882852783F3
:1021D300EBC9EAC8EDCBECCA75F010C3E833C8E924
:1021E30033C9EA33CAEB33CBC3EA9EF526EB9FF53B
:1021F30025B35004AB25AA26EC33CCED33CDD5F073
:10220300DAAE23AF242274F11217758A088B098C76
:102213000A8D0B908F5A780812151F740F1216E54A
:10222300780C121545908F5A780C12151F7808797F
:102233000C121340908F4A50107808790C1214DF57
:1022430078081213604014800E780C79081214DF9A
:10225300780C12136050047901800279007F080220
:10226300182174ED1217758A088B098C0A8D0B904F
:102273008F5A780812151F74131216E5780C12156D
:1022830045908F5A780C12151F780C790812134059
:1022930040117808790C1214DFAA08AB09AC0AAD17
:1022A3000B802275100075110075120075130178EB
:1022B30010790C1214DF781079081214A6AA10AB47
:1022C30011AC12AD137F0C021821908F5A780812AB
:1022D30015458A828B8378081215327F04021821F0
:1022E30074F51217758C828D8378081215458A82CE
:1022F3008B83780812150B122337C3E098F0A3E001
:1023030099122329401E908F8A78081215458A82D4
:102313008B8378081214CC8E828F83E02420F0A361
:10232300E0344EF080A4F08E828F83C3E09420A328
:10233300E0944E22EA2404F8E43BF9E8FEE9FF8C3A
:10234300828D83A3A3A3A3E0F8A3E0F98E828F83F6
:102353002274F51217759004D9E0FAA3E0FBE9297A
:10236300F8E433F9749F28F582748E39F583E02AF3
:10237300F508A3E03BF509780812191C908F6A123F
:1023830015631221B874021216AF8A088B098C0ADE
:102393008D0B7410780812146EAA08AB097F04021F
:1023A300182174F11217758A0C8B0D8C0E8D0F7416
:1023B300111216E512193374111216E5E02401F512
:1023C30008A3E03400F509E4F50AF50B780C790865
:1023D30012137F908F7A7808121545780C790812BA
:1023E300137FAA0CAB0DAC0EAD0F1221B874021201
:1023F30016AFEA4B60047A0180027A00EC2AFCE40F
:102403003DFD74131216E5E0F8A3E0F9E8FEE9FFD9
:10241300ECF8EDF97A717B0212160E88088909E44B
:10242300F50AF50B8E828F837808121554ECF8EDBC
:10243300F97A717B0212160E8A088B0974057808E3
:102443001216868E828F83A3A3A3A3E508F0A3E5C8
:1024530009F07F08021821C082C083E9906000F070
:10246300D083D08222C0E0C0D0E8C0E0A8A8D2AF19
:10247300C2C7E8A2E792AFD0E0F8D0D0D0E032C034
:10248300E0C0D0E8C0E0E9C0E0EAC0E0EBC0E0C0F3
:1024930082C083A2AFE433F9D2AFA8C19008D2E0DF
:1024A300FA74512AF582E43408F583E8F09008D1F0
:1024B300E0F8A3E0687006E5959008D4F09008D2A0
:1024C300E004F0C394804002E4F0A3E4F0E9A2E066
:1024D30092AFD083D082D0E0FBD0E0FAD0E0F9D045
:1024E300E0F8D0D0D0E032C0E0C0D0E8C0E0E9C02E
:1024F300E0EAC0E0EBC0E0C082C083A2AFE433F9FE
:10250300D2AF900955E0F8A3E0687008539AFBA393
:1025130074018022C2E9900955E0F8740128F0742F
:10252300D528F582E43408F583E0F5C1900955E038
:0F253300C394804002E4F08094C2AF0200002203
:10254400FFFFFFFFFFFFFFFFC082C083E990173644
:10255400F0D083D08202011F74F6121709E99002A9
:10256400E8F0900348E0F508750900740278081251
:102574001686AA08AB091211E19002E9122A30600A
:102584006E900348E075F003A4FAABF01211E190E9
:102594000306122A30700B9002E91232741211E70A
:1025A400804D9003061241DD7AFF7BFF1210437ABF
:1025B40000801EEAF5087509007402780812168670
:1025C400123C7974FFF0A31241F1A3A3E4F0A3F049
:1025D4000A900348E0F8EAC39840D879051206D770
:1025E4009002E8E0F91205C37A617B0712094702F9
:1025F4003D1574F41217098A088B09EB548060475F
:102604009002E8E0F91211578A0A8B0BAE0AAF0B5D
:10261400EA4F602A8A828B83E064B0701A1206E95A
:10262400E960148E828F83A3A3A3A3E0F9EE2405AB
:10263400FAE43FFB1206B9EEFAEFFB121145AA08C1
:10264400E5096480FB80047A007B0002285E74F252
:1026540012170974FB121699EAFEEBFFEA4F604366
:1026640074031216E5122EDD851882851983ECF0A9
:10267400A3EDF074021216E5E9F0AA18AB191205DD
:10268400BDE9F508707774131216E5E0F50AA3E0C6
:10269400F50BE50A450B60658E828F83122C71EE73
:1026A4004F700575080280557A067B001211E18A85
:1026B4000C8B0DA80CA90DEA497005750813803D13
:1026C4008A828B83E4F0122708A3EEF0A3EF12446E
:1026D400B6E50AF0A3E50BF09002EC122822900272
:1026E400EC6017E0FCA3E08003EAFCEBFD8C828D38
:1026F4008312282270F38C828D83123899A908746E
:102704000502444FA3F08A828B83A32274F212172A
:10271400098908E9F50C750D007403780C12168606
:10272400850C0A850D0B9002EBF09002E91241C270
:10273400122820602F1211E77900801EE9F50C752C
:102744000D007402780C1216869002E9123B32884E
:1027540082F583A3A3E4F0A3F009900348E0F8E929
:10276400C39840D8900348E0FA850AF0A4CAA8F0B8
:10277400850BF0A428FB1211E18A0C8B0DAE0CAF73
:102784000DEA4F7003022816900348E0FC850AF016
:10279400A4CCA8F0850BF0A428FD79001211337C99
:1027A400008032EDF50C750D007403780C1216865A
:1027B4008A828B8312281B8882F583E4F0122828EE
:1027C400A3A3F0A3F00DEDC3950840D7EE250AFEB0
:1027D400EF350BFF0C900348E0F8ECC3985029EC5C
:1027E400F50C750D007402780C1216869002E9122D
:1027F400281BE82402500109FAE9FB8A82F583EEDA
:10280400F0A3EFF07D0080BEE5089002EBF07900C4
:1028140080027913024452123B36F922A3A3122EEA
:10282400F5EA4B22A3F088828983A3A3A3A322748D
:10283400F41217097900EAA2E0501F75081275090D
:102844008F780812191C79107C047D007A387B1764
:102854001206D174021216AFE9F97F040217DBC025
:1028640082C0839002EC123C38601C88828983A366
:10287400A3E06A7003A3E06B8882898370E8A3A352
:10288400A3A312327480047A007B0002255574F2EB
:1028940012170974FD121699EAFEEBFF851882855A
:1028A4001983E4F0A3F074021216E57401F09002A7
:1028B400EF123C3870111208811211E19002EF12EC
:1028C4002A307003022A24122FCAEE2404F50AE4E3
:1028D4003FF50B850A82F583E024FE603C24FC600E
:1028E4007424FE607E24FE700302297424FE7003A7
:1028F40002298124FE700302298E24FE700302291A
:102904009B24FE70030229A824FC70030229C92415
:10291400FE70030229E1022A1D1208819002F1EAE5
:10292400F0A3EB122A3912030BE96003022A1D906B
:1029340002F11219338E828F83A3A3A3A3A312419E
:10294400DD8508828509831232741206A17402128D
:1029540016AF022A1DAC18AD19EEFAEFFB1206EF02
:102964000229ECAC18AD19EEFAEFFB1206F58078EB
:10297400AC18AD19EEFAEFFB1206FB806BAC18AD88
:1029840019EEFAEFFB120701805EAC18AD19EEFAEE
:10299400EFFB1207078051AC18AD19EEFAEFFB12EA
:1029A400070D804474021216EF880C890D780C12FE
:1029B400191C74021216FFEEFAEFFB1207137402CD
:1029C4001216AF8023AC18AD19EEFAEFFB120719FB
:1029D400E9F8701674021216E5E4F0803CAC18AD08
:1029E40019EEFAEFFB12071FE9F8E8602C8E828FCC
:1029F40083A3E064146022850A82850B83E090023D
:102A0400F1F08518828519831232749002F2122E25
:102A1400DDE8A3122A39120305EEFAEFFB1206775A
:102A240074021216E5E0F9740302444FEAF0A3EBD2
:102A3400F0F9EA4922F07CF17D0285088285098358
:102A4400122EF52274E812170974FA1216997404F6
:102A54001216E5ECF0A3EDF08A128B13EA2405F5C7
:102A64000EE43513F50FEA2402F510E43513F511DD
:102A740085108212351B7508007C037D0079007A6D
:102A8400F17B02121133E50E2402F516E4350FF53D
:102A94001774021216EF880C890D780C12191C8514
:102AA4000E82850F83A3A3A3A3E0F50C750D007814
:102AB4000C12191CE50E2405F50CE4350FF50D7800
:102AC4000C12191C8516828517831235631216AFF2
:102AD4008A0C8B0DE50C450D7003022C408020857B
:102AE4001882851983E088828983F0050885188215
:102AF400851983A3E0C0E0122C7BD0E0F00508E543
:102B04000A24FBF8E50B34FFF9C3E50898E499407F
:102B140003022C407E007F00851282851383A3A3C9
:102B2400A3A3E0F5097809121920E4F514F5157842
:102B34001412191C7514EE751502781412191C90D0
:102B440002EF12193374091216E5121933E50A2437
:102B5400F9F9AC0CAD0D1235751216AFE96003022C
:102B64002BE7850E82850F83A3A3A3A3A3A3A3E0CE
:102B7400F89002EEE068706BE0F5148E157814128C
:102B8400191C1241DA850E82850F83A3A3A3A3A384
:102B9400A3A3A312327412112D74021216AFE960AA
:102BA40042123C357034E4F514781412191C7CFF7D
:102BB4007DFF79071235841216AF8B15A915122CD7
:102BC400907017850E82850F831243697404121660
:102BD400E5123C22123596022C6E850C82850D83FB
:102BE400122C71A818A91988148915781412191CA3
:102BF40074041216E512193385168285178312356B
:102C0400451216AF8A0C8B0DEE4F7003022AD812B0
:102C14002C7BEE122C8612352CEF122C86F8A3E0B6
:102C24003400F9E50C4B6003022AE388828983743B
:102C3400FFF00508122C7B74FFF00508E50860140A
:102C44001313543F122EE3120317E96003123B4996
:102C540079008016850E82850F83124369740412ED
:102C640016E5123C22123899790A0234FCA3A3A374
:102C7400A3E0FEA3E0FF22A8089002F2E0281235A8
:102C84002C22F00508089002F2E028229002F2EAD1
:102C9400F0A3EBF0EA492274E812170974FA121649
:102CA4009974021216E5122EDD74041216E5ECF086
:102CB400A3EDF074021216E5E02405123506F5833F
:102CC400E0F50CA3E0F50D74021216E5E02402F51C
:102CD40010A3E03400F511851082123278750800D3
:102CE400750900EA24FCFEEB34FFFF8008050CE5BF
:102CF4000C7002050DA808C3EE98EF94005003026F
:102D04002E8EA818A919880E890F780E12191C8501
:102D14001482851583A3A3A3A31241B912191CE538
:102D2400142405F50EE43515F50F780E12191C85DB
:102D34001482851583A3A31241DDAA0CAB0D1205E1
:102D4400DB74061216AF8A0E8B0FEA4B7003022E49
:102D54008EEA2404F516E4350FF517851682F583FB
:102D6400E0F50CA3E0F50D8518828519831219335B
:102D7400AC0EAD0F8510828511831235121216AF79
:102D8400E9F5096003022E8E74021216E512353C31
:102D9400F5097809121920E4F512F51378121219BD
:102DA4001C7512EE751302781212191C9002EF12A0
:102DB400193374071216E5121933EEF9AC0EAD0F80
:102DC4001235751216AFE9F5096003022E8EE50877
:102DD400703BE4F50EF50F780E12191C7CFF7DFF95
:102DE40079091235841216AF8B0FA90F9002F312D2
:102DF4002C93700D74041216E5122ED07911022E44
:102E0400BF9002EEE024029002F2F080149002F2ED
:102E1400E0FA9002EEE0790024025001096A497058
:102E24006DA8089002EEE0FAE82AFAE43400FBEE1A
:102E34009AEF9B4055851682851783E0C0E0900287
:102E4400F3122C80D0E0F00508851682851783A341
:102E5400E0C0E0089002F3122C80D0E0F005089066
:102E640002EE1241B912191C1241DAA808122EC23C
:102E74001216AF9002EEE02508F50874FF650C7099
:102E84000474FF650D6003022CF1E508601C9002D8
:102E9400F2E0F5F0E50884122EE312031DE9600662
:102EA4009002F3123B4C79008011E5097003750917
:102EB4000A74041216E5122ED0A9090234FC9002F9
:102EC400F3E028FAA3E03400124197221241C6E548
:102ED4000CF0A3E50DF022A3A3EAF0A3EBF02290FB
:102EE40002F1F07CF17D02851082851183122EF5AA
:102EF40022123889FB2274EC12170974FC121699F9
:102F04001239A974021216FF850A82850B831230C6
:102F1400C97003022FBA122FCAA818A919881089D8
:102F240011781012191C7CFF7DFF790B85088285AE
:102F3400098312358A1216AF122FD4700B850A82B8
:102F4400850B83123593807B8E828F83A3A3A3A3E7
:102F5400E0F5127812121920E4F512F51378121222
:102F6400191C7512F1751302781212191C781012BB
:102F7400191C74091216E512193374091216E51294
:102F840030C285088285098312357B1216AFE9FEAB
:102F940070157CF17D0285088285098312327412D2
:102FA4000323E97009801A74166E70027E00123BC6
:102FB40049EE7004800B7E01850A82850B831238EA
:102FC40096EEF90238ABEE2402F508E43FF5092247
:102FD4008A108B119002F2EAF0A3EBF0EA4B227410
:102FE400EC12170974FC121699EAFEEBFF8C0E8D95
:102FF4000FEA2405F508E43FF50974021216FF856B
:1030040008828509831230C970030230B2EE2402AB
:10301400F50AE43FF50BA818A9198810891178104E
:1030240012191C7CFF7DFF790D850A82850B8312A2
:10303400358A1216AF122FD4700B85088285098346
:1030440012359380768E828F83A3A3A3A3E0F51217
:103054007812121920850882850983A3A3121933D3
:103064007512F1751302781212191C781012191CBA
:1030740074091216E512193374091216E51230C2D6
:10308400850A82850B8312357B1216AFE9FE700F19
:103094007CF17D0212326E120329E97009801A74E0
:1030A400166E70027E00123B49EE7004800B7E01A6
:1030B400850882850983123896EEF90238ABE0F967
:1030C400AC0CAD0D221238818A0C8B0DEA4B2274A4
:1030D400E812170974FE1216998A168B178C148D30
:1030E40015EA2405F50CE43517F50DEA2402F50E6E
:1030F400E43517F50F850E821232788A088B09752C
:103104000B007C037D0079007AF17B021211337588
:103114000A00E50814F5100424FFF508E50934FF56
:10312400F509804C9002F1E0FA9002EEE0F8EA280A
:10313400F8E43400F9E50898E50999500D9002F196
:10314400E0F8E510C3989002EEF0E0F51275130074
:10315400781212191C1241DA9002F2E02A122EC7D8
:103164001216AF9002EEE0F89002F1E028F0050AA2
:10317400850C82850D83A3A3123B42400302325384
:103184009002F1E0C39508E495094003023253AE7E
:103194000AEE2EFEE433FF123295AC18AD1912413B
:1031A400E7E439FB1205E18A128B13AC12AD13EA82
:1031B4004D701B750B0112328612389A9002F2126E
:1031C4002822600312119FA90B74020234FE851693
:1031D40082851783A3A3A3A3E0F50B780B12192010
:1031E400E4F512F513781212191C7512EE75130218
:1031F400781212191C9002EF12193374071216E593
:10320400121933A910850E82850F8312357B12168D
:10321400AFE9F50B70A0123C356003023128E4F5E8
:1032240012F513781212191C7CFF7DFF790F850E9D
:1032340082850F8312358A1216AF8B13A913122CB1
:103244009060030231281232861235970231CD7C08
:10325400F17D02850E82850F8312327412032FE9E9
:1032640060030231C079000231CD850A82850B8367
:10327400122EF52212327C22F583123889FB1203B6
:10328400FB22123295123889F9EA85148285158356
:1032940022850C82850D83E02EF8A3E03F8882F519
:1032A400832274E812170974FA1216997404121618
:1032B400E5122EDD8C168D1774041216E5E0240534
:1032C400F50EA3E03400F50F74041216E5E02402B1
:1032D40012350612351B7F007E00A818A91988082C
:1032E4008909780812191C850E82850F83A3A3A36C
:1032F400A3E0F5088F09780812191CE50E2405F5DA
:1033040008E4350FF509780812191C850E82850F1B
:1033140083A3A31235631216AF8A0C8B0D8024127B
:103324003536F00F123536F00F9002EE12386C126B
:10333400191C1241DAEFF8122EC21216AF9002EEE7
:10334400E02FFFE50C450D607A85188285198312FC
:103354001933AC0CAD0D8514828515831235121208
:1033640016AFE9FEE50C2404F510E4350DF511E97A
:10337400704B74041216E512353CF50878081219DE
:1033840020E4F508F509780812191C7508EE75098A
:1033940002780812191C9002EF12193374071216DE
:1033A400E5121933E50A24FAF9AC0CAD0D85148243
:1033B40085158312357B1216AFE9FE60361235523D
:1033C400123899EF70030234E99002F2E0F5F0EF5D
:1033D400849002F1F07CF17D0285148285158312BC
:1033E4003274120335E960069002F3123B4C790003
:1033F4000234FCEFF508703DE4F512F5137812126F
:10340400191C7CFF7DFF7911851482851583123583
:103414008A1216AF8B13A9139002F3122C9370091E
:103424001235521235960234FC9002EEE0240490D8
:1034340002F2F080359002EEE0F89002F2E0FCE84F
:103444002404FAE43400FBEA6C4B60030233CDE558
:103454000A24FAFAE50B34FFFBE50828F8E4340003
:10346400F9EA98EB9950030233CD851082851183D4
:10347400E0C0E09002F3E02FF8A3E034008882F586
:1034840083D0E0F00F851082851183A3E0C0E012A1
:103494003523D0E0F00F74021216EF8808890978FA
:1034A4000812191C74021216E5121933850E82854E
:1034B4000F83A3A31235451216AF8A0C8B0DEA4B6A
:1034C400700302332374021216E5E0C0E0123523C0
:1034D400D0E0F00F74021216E5A3E0C0E012352329
:1034E400D0E002332BEE70027E0A850E82850F83B4
:1034F400123558123899EEF974061216AF7F10027D
:1035040017DBF514A3E03400F51585148222122E7E
:10351400F51205C974022212327C8A0A8B0B22121C
:103524003527229002F3E02FFAA3E034008A82F5D3
:10353400832212352774FF221241C6A3A3A3A3E05A
:10354400221241E1AA0CAB0D1205E7740422851086
:103554008285118312436FF985168285178322129F
:1035640041E1850E82850F83122EF51205DB740668
:1035740022851082851183122EF5120749740922BF
:10358400851082851183122EF51206B3740222125D
:10359400389FE8F0A3E9F079112274EA121709744C
:1035A400FE1216998A088B098C128D13EA2405FEE3
:1035B400E43509FF1238758A0C8B0DEE2406F50EDE
:1035C400E43FF50FEA4B7003023684E5082402F564
:1035D4000AE43509F50B8A828B83A3A3A3E0A2E551
:1035E40050221236AE8A108B11EA4B60247912AC49
:1035F4000CAD0D12326E851082851183121707E906
:10360400F50C707F850E82850F83E0600979528006
:1036140011750C0E806D850882850983A3A3A3A36D
:10362400E0F9E4F508F509780812191C8E828F83F5
:10363400A3A3E0F508780812191C8E828F83A3A334
:10364400A31219338E828F831241DD850A82850B82
:10365400831239BB1216AFE9F50C7011850E828501
:103664000F83E0702C12326E12033B8024741669AF
:103674007011750C0074181216E51241C2E4801022
:10368400750C01124365851282851383E8F0A3E962
:10369400F0850E82850F83E0600479008002A90C16
:1036A40074021216AF7F0E0217DB85188285198308
:1036B400122EF512073D2274EC12170974F7121634
:1036C400998A0A8B0B8C108D11EA2405FEE4350BC4
:1036D400FF750C001238758A088B09EA4B700302D7
:1036E4003857E50A2402F50A5002050B8A828B83B7
:1036F400A3A3A3E0A2E550251236AE8A0C8B0DEAF3
:103704004B604F7912AC08AD0912326E850C82857C
:103714000D83121707E9F50C600302385A850A82F3
:10372400850B83E0F508A3E0F509AA08FB1207312D
:10373400EA4B70197AFF7BFF120731EA4B700302E0
:10374400384D8A828B83E508F0A3E509F0750800FB
:103754008008750C0E02385A05089002EBE0F8E573
:1037640008C398400302384DE508F50E750F007440
:1037740003780E1216868A828B83A3A3E0250EF8A3
:10378400A3E0350F123C2A70CF8E828F8312388EBD
:10379400122EDD8E828F83A3A312388E122EDBEEBF
:1037A4002404F508E43FF509850882F583E088825E
:1037B4008983A3A3A3A3F0A3E4F0EE2405F50EE408
:1037C4003FF50F850E82F58312388EA3A3A3A312AF
:1037D4002EDB751207751300781212191CEEFCEF1C
:1037E400FD74041216F71241981216AFE4F512781C
:1037F4001212191C850882850983E0FC7D00791763
:10380400850A82850B8312358A1216AF7407121645
:10381400E5122FDB603885088285098312386C1223
:10382400191C850E82850F831241DD1241981216F0
:10383400AF74021216FF12326E120341E960237450
:10384400071216E5123B4C8019750C098008750C9B
:10385400118003750C011243658510828511831252
:103864003899A90C74098041E0F5087509007808B5
:1038740022AC18AD198E82F5831238812212388950
:10388400FB1205E122E0FAA3E022122EF5888289D8
:10389400832212389FE8F0A3E9F022E0F8A3E0F9CC
:1038A400850E82850F832274041216AF7F0C0217D3
:1038B400DB74EC1217091239A9751000EA2402F519
:1038C4000CE43FF50D850C82F58312327412073136
:1038D4008A088B09EA4B700302398D850A82850BAD
:1038E40083E064016003023982AC08AD09AA0AAB23
:1038F4000B120725E9606F850882850983122C73F2
:10390400EE2406F50AE43FF50B8E828F83A3A312FF
:1039140019338E828F83A3A3A3A3121933850A823A
:10392400850B8312193379188E828F831241DD85BA
:103934000C82850D831239BB1216AFE9F874166830
:10394400700B850A82850B83E4F0A38014E960126E
:103954008E828F83123274850E82850F83EAF0A3E0
:10396400EBF089108018780E12191CAC08AD09EE22
:10397400FAEFFB12072B74021216AFE9F510AA082E
:10398400AB09120737E510700E850C82850D831282
:1039940032741203478009741665107003751000A1
:1039A400A9100238B0EAFEEBFF8C0E8D0FEA240555
:1039B400F50AE43FF50B22122EF512074F74062286
:1039C40074EA1217097508007509007E007F0075F6
:1039D4000A00EC2402F510E43DF5118035EC65088D
:1039E4007003ED65096003023A7988828983A3A391
:1039F400E06A7003A3E06B707C88828983A3A3A32D
:103A0400A3124369EE28FEEF39FFEA28FAEB39FBEB
:103A1400050A123B3F503BE50AF50C750D00740393
:103A2400780C121686851082851183123B32123C63
:103A34002A601FE508450970A48C088D09888289CD
:103A440083122C7188828983A3A3E02EFAA3E03F1A
:103A540080BDE50AC394025003023B2D750800752E
:103A64000900EE4F600FEEFAEFFB1211998A0E8BEC
:103A74000FEA4B70057900023B2F750B00807FE540
:103A84000BF50C750D007403780C121686851082E4
:103A9400851183E0250CF50CA3E0350DF50DE50C3F
:103AA4002406F514E4350DF515851482123C2D60B9
:103AB4003AE50C2404F512E4350DF513851282F56C
:103AC40083121933E50E2508FAE50F1241911216F7
:103AD400AF851282851383E02508F508A3E0350934
:103AE400F509851482851583123B4CE50B600D7C2A
:103AF400087D007900AA0CAB0D121133050BE50B00
:103B0400C3950A5003023A838510828511831243B8
:103B1400698882F583A3A3A3A3A3A3E50EF0A3E579
:103B24000F122829EEF0A3EFF079010236A9123B17
:103B34003622E0250CF8A3E0350D229002EBE0F8E4
:103B4400E50AC398229002F2122EF512119F2274F4
:103B5400F01217098A0E8B0F8C0A8D0B750D0075E8
:103B64000C00804A7916EE2406F508E43FF5098E28
:103B7400828F83A3A31219338E828F83A3A3A3A35B
:103B8400121933850882850983121933850E8285BB
:103B94000F83A3A31239BB1216AFE9F50D7416698E
:103BA4007064850882850983E4F0A3F0050C900213
:103BB400EBE0F8E50CC398505EAA0C7B008A088BF6
:103BC4000974037808121686850A82850B83A3A3D9
:103BD400123C84E8FEE9FF123C2B603BEA24010A14
:103BE40050010B9002EBE06A7001EB60148882894B
:103BF40083A3A3A3A3A3A3A3A3123C386003023B00
:103C0400687918023B6AE960A312436574101216BE
:103C1400E5123C22123899A90D7F080217DB1238ED
:103C240089F5838A8222F98882F5831241E1EC4D79
:103C3400229002F212436FF9E8492274F61217092E
:103C44007C0080010C900348E0F8ECC398501FEC12
:103C5400F50875090074027808121686123C79E09A
:103C64006A7003A3E06B70DCE8FAE9FB80047A0075
:103C74007B00023D159002E9123C848882F5832280
:103C8400E02508F8A3E03509F92274F21217098A2D
:103C9400088B09750A0080278E828F83A3A3A3A3B0
:103CA400122820600312119F7C087D007900EEFA2F
:103CB400EFFB1211338E828F83E4F0A3F0050A1216
:103CC4003B3F5028E50AF50C750D007403780C127F
:103CD4001686850882850983A3A3E0250CFEA3E04C
:103CE400350DFF8E82F583123C3870AC85088285D1
:103CF400098374FFF0A3F002445274F612170912F8
:103D0400430670067A007B008007A3A3A3A31232A4
:103D1400747F020217DB74F6121709E9FE8C828D98
:103D240083E06402703D1242F6F508A3E0F9A808A6
:103D34007402687003742969702975080275090092
:103D4400780812191C740E1216E5121933740E1227
:103D540016E5121933EEF912104974061216AFE97A
:103D6400F98002790180AA74E812170974FB12160B
:103D740099E9851882851983F08A168B17ECFEED74
:103D8400FF7510008C82F583A3A3A3E0A2E4502A5C
:103D9400741D1216E51236B48A828B83E58245833C
:103DA4007003024187790AEEFCEFFDAA16AB1712E5
:103DB4001707E9F510600302418A741F1216E5E043
:103DC400F508A3E0F50974211216E5E0F50AA3E06D
:103DD400F50B74231216E5E0F50EA3E0F50F8E82C1
:103DE4008F83E064026003024133A31243698508B0
:103DF40082850983A3858212858313EE2406F50C3C
:103E0400E43FF50D888289831241E7F514E439F51E
:103E14001578141219A6010000280128423E070053
:103E240002280E3F0328773E00292F4001295A40DB
:103E34000229F83F03292F400429D0403341E50EDD
:103E4400450F600302412E850C82850D8312436960
:103E5400E8FAE98882F583E0850A82850B831241BA
:103E6400F112419E12191C8A828983A3E0FCA3E00B
:103E74000240BCE50E450F600302412E850A82858F
:103E84000B837401F01241CF850882850983F07C8D
:103E9400007D008E828F83A3A3A3A3E02401FAA351
:103EA400E03400FB1205E1EA4B60458A828B83E033
:103EB4002402F8850A82850B83E028F0EA2404F8BA
:103EC400E43BF98882F583E08512828513831241ED
:103ED400F7F08A828B8312419E12191C8A828B838B
:103EE400A31241DDE5082403FAE43509FB0240C1CD
:103EF400850A82850B83E02404F07C047D0079002C
:103F0400AA12AB1312113302418AE50E450F600366
:103F140002412E1241CFFEA3E0FF850A82850B8366
:103F24007404F0EE850882850983F0EF851282859A
:103F34001383F074031216FF1242E87003023FD990
:103F44008A828B83A3A3122C7174011216EF880E3C
:103F5400890F780E12191C74051216E51219337C98
:103F6400FF7DFF1205E774041216AFEA4B70338528
:103F74000C82850D831241B912191C850C82850DA2
:103F840083A31219337C027D007AB47B8F1203E978
:103F940074041216AFE9700A74011216E574FFF086
:103FA400A3F08E828F83E064027034750C02750D69
:103FB40000780C12191C8E828F83A31241DDE50850
:103FC4002404FAE41241911216AF850A82850B8308
:103FD400E02402800974011216E5EEF0A3EFF074F8
:103FE400011216E51241AFF074011216E5A3124155
:103FF400A7024128E50E450F600302412E850C827D
:10400400850D831241C21241DDAA16AB1712104F5F
:10401400850A82850B837402F0850882850983EA08
:10402400F0851282851383EB02412BE50E450F6068
:104034000302412E1241CFF8A3E0F9850A82850BD1
:10404400837402F0E8850882850983F0E985128289
:1040540085138302412B850C82850D8312327412E1
:104064001115EAF8C3950EE4950F405AEA650E451A
:104074000F700478008021851882851983E0FCE59F
:104084000E2CFCE4350FFDC3EC9AED94005003E0D4
:104094008005E50EC8C398F8E8850A82850B83F08D
:1040A400F50A750B00780A12191C850C82850D839C
:1040B400E0250EFCA3E0350FFDAA08AB09124198D8
:1040C4001216AF02418A75100702418AE50E450FA8
:1040D4007058850C82850D83124369850A82850B8D
:1040E4008374071241F11241A71241F1A3E0851232
:1040F40082851383F0E82402FAE439FB8A82F5838B
:104104001241A7A31227081241AF1228281241B363
:10411400F0E82405F8500109F58289831241B3A31C
:104124001241F7A3A3A3A3F0805C75100B8057740E
:104134001D1216E51242FF604A12436F880CF50DFA
:10414400E8450D603E74251216E5E0F5107810126E
:104154001920780E12191C780A12191C78081219E1
:104164001C74071216E5E0F9EEFCEFFDAA16AB1776
:10417400850C82850D8312170774071216AFE9F5B3
:1041840010800375100EA91074050234FE3509124F
:10419400419722FB12111B740222E0F50A750B00F1
:1041A400780A22E0850882850983221242012212BC
:1041B4004201A3A322E0F50E750F00780E221241EE
:1041C400C622E0F8A3E0F583888222850C82850D5F
:1041D400831241C6E0229002EF1241E122E0FCA3E7
:1041E400E0FD22123889F8E4C8F9EA2822F088822E
:1041F400898322F088828983A312420122E0850800
:1042040082850983A3A32274EE12170974FE121681
:10421400998A088B09ECFEEDFF890AAC18AD1912D6
:1042240042E870030242D98518828519831242FF3D
:1042340070030242D4A312436E880EF50FE8450FB3
:1042440070030242D474141216E5E0F510A3E0F5ED
:1042540011E50AF50B780B12192074191216E512E0
:104264001933781012191C741B1216E51230C2AAE5
:1042740008AB09850E82850F831217077405121681
:10428400AFE9F50B705274FE650A604C850C8285AB
:104294000D83E0640270411242F6FAA3E0F9EAF8F1
:1042A4007402687003742969702E851082851183E5
:1042B4001241E7F50CE439F50D780C12191CEEFCEB
:1042C400EFFDAA08AB0912076774021216AF800843
:1042D400750B0E8003750B01A90B74021216AF7FC8
:1042E4000A0217DBEEFAEFFB1205E18A0C8B0DEAEA
:1042F4004B2212436E8882F583E022122EF512437C
:1043040006221206E38A828B83E58245832274F6B1
:1043140012170974FE121699740C1216E5124369E9
:10432400E8851882851983F074011216E5E9F0E432
:10433400F508F509780812191C750802780812198D
:104344001C74041216EF88088909780812191C795C
:10435400FE12074F74061216AF74021216AF023D16
:10436400158E828F8312436FF922A3E0F8A3E02213
:1043740074F7121709EAFEEBFF890890030612414D
:10438400DD12104FEA5402600BA908EEFAEFFB129B
:1043940005D5800279017F010217DB74F212170937
:1043A40074FE121699EAFEEBFF740169601374023D
:1043B40069600302444D7901120965E9600302440E
:1043C4004DEEFAEFFB120731EA4B6003120737A8F0
:1043D40018A91988088909780812191C7508027522
:1043E4000900780812191C7508A275098F7808123B
:1043F400191C7CFF7DFF7A017B001205DB74061219
:1044040016AF803B850882850983A3A3A3A3A3A336
:104414001241C21241DDEEFAEFFB121043E4F50C37
:10442400F50D780C12191C74021216E51219337C5E
:10443400FF7DFFAA08AB091205E774041216AF8AC0
:10444400088B09E508450970BB74021216AF7F0694
:104454000217DB74F41217098A088B09ECFEEDFFCE
:10446400901736E0F460487A097B0012113FEA4B5A
:10447400603D8A828B8374B1F0A3E41244B61227A0
:1044840009A3E508F0A3E5091244B6A3EEF0A3EFEF
:10449400F0740C1216E51243698A828B83A3A3A3DA
:1044A400A3A3A3A3123899901736E0F912114B0273
:1044B400285EF08A828B83A3A3A3A322C082C08335
:1044C4009061907404F0A37448125AD79061807478
:1044D40040F09061BC7407F09061877469F090615A
:1044E400B67416F07900120A7F7902120A859025B3
:1044F40044E493F46006E493F9120A5B7905120D1F
:1045040085024A94C082C083E9540FF9906185E022
:10451400696012E5C654B84441F5C6E59E54476443
:104524004170F8E9F053C6B8E59E544770FA024A60
:104534009474F7121709AEA853A87E120A67C2BA78
:10454400539AFEC289759B00C2C2120A6D75A911E5
:1045540075B905120A73D2BA439A0174805E42A8EF
:10456400024CF7C082C083906181E4F0A3024A8BBD
:1045740075E90075910075BF0002011FC082C083F8
:10458400906181E4F0A374C0F0A3E4024A8DC08278
:10459400C08374F8121699900378125E197003029E
:1045A400463B900378E0544060177908AA18AB1989
:1045B400120B81AA18AB191207CD900378E054BFEF
:1045C400F0E054806010790C7A477B05120B8190DF
:1045D4000378E0547FF0E0A2E050087900124643EB
:1045E40054FEF0E054026008790112464354FDF091
:1045F400E054046008790012464E54FBF0E054087D
:104604006008790112464E54F7F0E05410600879BE
:104614000212464E54EFF0E054206008790312462B
:104624004E54DFF0A3E05401600D120A911207DF2B
:10463400900379E054FEF074081216AF024A941203
:104644000A7F1207D3900378E022120A851207D951
:10465400900378E022C082C083E9600514602A8058
:104664004F90619A7433F0A37455F09061A0743A3A
:10467400F0900521E064017009C29190037A746797
:10468400802D90037A7461802690619A743FF0A320
:10469400745AF09061A0747FF0900521E064017079
:1046A40009D29190037A7471800590037A746AF048
:1046B400024A94C082C083E9600B14600D14601731
:1046C40014600C8020902548801590254980109016
:1046D4000521E06401700590254A800390254BE490
:1046E40093906186F0024A9474EC12170974F412E0
:1046F4001699908F4EAC18AD1974041215AC902510
:104704004893F4600302480F907808E0C394025081
:10471400030247F3908EED74041216FF7408121509
:10472400AC7F00750CFF750DFF750EFF7E00EFFC6E
:1047340025E0F8E433F974041216E5E58228F582DD
:10474400E58339F583E0F512A3E0F513800F7408CF
:104754006E605B74096E6056740A6E6051EEF50803
:104764007509007402780812168612481912154544
:10477400A909E50AC9F5107418780812146EE51031
:104784004508F8C3E51298E51399400AE512C39861
:10479400F8E513998008E8C39512F8E99513F9C36D
:1047A400E8950CE9950D5006880C890D8E0E0EEED9
:1047B400C39413409974FF650C700474FF650D6015
:1047C40024E50EF5087402780812168612481912A8
:1047D4001545851882851983E5822CF582E4358395
:1047E400F583E508F00FEFC39404500302472775DF
:1047F4000801750900780812191C74021216FF7A50
:10480400527B0912109774021216AF740C1216AF71
:104814007F0C0217DB74482508F58274783509F596
:1048240083780822C082C083906186E0F890254B8B
:10483400E49368700990254AE493906186F090614E
:10484400AE7468F0A3746AF090624574FBF0A3043C
:10485400F053F4FD43FE029005217401F09061A031
:10486400E0643A7004790080027901120A7F024AF6
:1048740094C082C0839004D3E06401700A9004D889
:10488400E06004790C80027900024A94C082C083FB
:1048940075E1F19004D6E060541460091460581472
:1048A4006050147057120AA39004C5E0F97AC67BCD
:1048B40004120D07908F2A121563120D3D908F5E1E
:1048C400121563120D139004D7E0F9120D1F79012C
:1048D400120D799004C3124BEF241AF582E438F5D3
:1048E4008374BBF0A3740AF07900024A94120AA9F3
:1048F40080B6120AAF80B1120AB580AC791280EA90
:1049040074F412170975D90D9004CCE0A2E0E433D5
:104914001313F81249A9484401F5D97800124A1B27
:1049240040FB7800E8FA74CD1253073404124A2588
:1049340040F275E1959004CCE0F97ACD7B04120D38
:104944000D90175A7431F0A3740A124A30124A7A3D
:10495400124A71124BB79004D6E064019004C370FC
:104964000B1249B3121545908F1E80091249B312D8
:104974001545908F2278081214B9908F5A7808122E
:10498400151F9004C3124BEF124A6878081215548D
:104994009004C3124BEF124A5F7413F090037674C1
:1049A40002F0025A2F9004C5E0C4333354C02212DB
:1049B400594AA3A3780822C082C083124B738AD9B0
:1049C4007800E8FC74C62C124A2040F67800800D6A
:1049D400E8FC74DD2CF582E43404124C46E8C399F7
:1049E40040EE124B65124A1B40FB780080081253BC
:1049F400033404124C46E8C39940F375E1959017CB
:104A04005A743DF0A3740A124A30124A3A7412F0EE
:104A140090037674018072E8FA74C62AF582E4344D
:104A240004F583E0F5D908E8C3940622124BA07478
:104A340037F0A3740A22124A7A124A71124BBB90BD
:104A440004C3E0F8A3E0C8124A6874FF1252FB9052
:104A540004C3E0F8A3E0C8124A5F222414F582E4F8
:104A640038F58322240EF582E438F58322F0A3740A
:104A74004FF0A3740A22124A7E22124A8222F0A321
:104A840074EDF0A3740B22F0A3F08004A2E092AFC3
:104A9400D083D08202011FC082C083124AE012492F
:104AA400A94402F5D97800124A1B40FB7800800C17
:104AB400E8FA74DD1253073404124C46E8C39940F3
:104AC400EF75E19590175A124AEBF0A3124AEB12D4
:104AD4004A3D7414F0900376740480AD9004DCE0D5
:104AE400F9740729F5D9227449124AF8124AF8F0E0
:104AF400A3740A22F0A3740AF0A3744922C082C0EA
:104B040083124B7374064AF5D97800E8FC74C62CFA
:104B1400124A2040F67800800DE8FC74DD2CF58202
:104B2400E43404124C46E8C39940EE124B65124A31
:104B34001B40FB780080081253033404124C46E8EF
:104B4400C39940F375E19590175A7443F0A3740A1E
:104B5400124B96124A3A7415F09003767403024A83
:104B64008D9004FC124AE374044AF5D978002212A9
:104B74004AE09004C5E0C4333354C0FA22F582E419
:104B840039F583E0F5D90AEAC322EE28F8E43FF9BF
:104B9400E822124BA074EDF0A3740B22124BA42252
:104BA400124BB174EDF0A3740B124BB122124A8272
:104BB400F0A322124BBB22F090176874EDF0A3749B
:104BC4000B124BA474EDF0A3740B124A7EF022C0B6
:104BD40082C0839004C3124BEF2406F582E438F5B7
:104BE40083E4024A8B851882851983E0F8A3E0C820
:104BF4002274F71217099003A4125A3474A628F8E1
:104C0400740339F9E82405FAE439125CC5A3A3A3B3
:104C1400A3A3A3A3A3A3125DC3A3A3A3A3A3A3A317
:104C2400E024FFF8A3E034FFF98A828B831259CD84
:104C3400024CF77F060217DBE8FA74272AF582E4B0
:104C44003405F583E0F5D90822EAFEEBFF124EEBBA
:104C540022EAF8EE28F8E43BF9E822124B819404A6
:104C64002274F7121709EAFEEBFF9061D0E070643A
:104C740075D90E75D90375D9047A00124C55248D53
:104C8400124CEB40F67A00124C552485124C5F40CE
:104C9400F675E1957908EE248D124CE42485124CC6
:104CA400DC7C00ECF8C3E498FA95E0FBEE2AFAEF1A
:104CB4003BFBEA248C125BBCC0E0124B8E24ACF5A7
:104CC40082E439F583D0E0F00CECC3940840D412AC
:104CD4004E0680027900801BFAE43FFB120B75221A
:104CE400124CDC7904EE22124B81940822A2E09249
:104CF400AF79007F010217DBC082C08375D90275CA
:104D0400D90375D90575E195EA246FF582E43B1260
:104D14004D76EA2471F582E43B124E19024A9474EA
:104D2400F6121709EAFEEBFF9005277406124D915F
:104D340012191C7C017903125D7A1216AF75D9061B
:104D440075D9037800124D7C40FB75E1959003768C
:104D5400E064087016EE246FF582E43F124D76EE9F
:104D64002471F582E43FF5831259CD7901024FF4A1
:104D74008882F5831259A422E8FA74272AF582E47A
:104D84003405F583E0F5D908E8C3940522F07508E5
:104D94002775090578082274F6121709EAFEEBFF55
:104DA4009061D0E0704F7801900527740BF0900368
:104DB40076E06407701775082775090578081219D5
:104DC4001C7C017903125D7A1216AF7805740128F0
:104DD400F5D975D9037900800FE9FA7427125307BE
:104DE4003405F583E0F5D909E9C39840EC75E195FC
:104DF400124E0680027900024FF475E1957904128F
:104E04000D43EE246FF582E43FF5831259A4EE249A
:104E140071F582E43FF583E8F0A3E9F079012274A7
:104E2400F7121709EAFEEBFF75D90375D90375D993
:104E34000DEA24DF124E43F5D9124DFE024CF7F56C
:104E440082E43FF583E0227F030217DB74F5121737
:104E540009124ED36004780F8002780BEAC39812CB
:104E640050854041750A099005277409F0790812A4
:104E74004EB96014750827750905780812191C12B3
:104E84005D721216AF750A0D124EAD8003124C3CC2
:104E9400E8C3950A40F775E1957904120D43124F62
:104EA400F9790180027900809E7401250AF5D9758B
:104EB400D903780022EE24E4FCE43FFD7A287B0544
:104EC400124EC822120B6F850882850983E02212D4
:104ED4004EE7FAEE2484F8E43F8808F5098882F561
:104EE40083E022EAFEEBFF9061D0E0F87480C3987F
:104EF4002274F2121709124F6160047A0C80027A4C
:104F0400081250824052750A06900527740CF090DE
:104F14000393E0900528F079027C947D037A297B41
:104F240005120B6F79027C967D03124EC8601675CC
:104F34000827750905780812191C7C06125D74127D
:104F440016AF750A0A124EAD8003124C3CE8C395A5
:104F54000A40F7124DFE80027900024C37124EE7E8
:104F6400F8EA2484F508E43FF509850882F583E02E
:104F74002274F6121709124C4DFAEE2484F8E43F19
:104F8400F98882F583E060047C0880027C04EAC32B
:104F94009C12508540587A02900527EAF0EE24F6D8
:104FA400F582E43F125007601975082775090578E2
:104FB4000812191C7C027903EEFA125D7A1216AFFC
:104FC4007A0674012AF5D975D90378008008E8FCBB
:104FD40074272C124C41E8C39A40F375E195124FA3
:104FE400F97904120D43EE240D124E098002790062
:104FF4007F020217DBEE241DF582E43FF583E4F023
:10500400A3F022F583E0900528F088828983E022CA
:1050140074F6121709124C51FCEA2484F8E43BF9A3
:105024008882F583E060047E0880027E04ECC39EDF
:1050340012508540447C029005277407F0EA24F757
:10504400F582E43B12500760157508277509057849
:105054000812191C7903125D7A1216AF7C067401CA
:105064002CF5D975D90378008003124C3CE8C39C15
:1050740040F875E195790180027900024FF4E8C3A4
:105084009A95E0C365D0332274F71217098908A2F0
:10509400AFE433FFC2AF7E00EA246EF8E43BF9804C
:1050A400010E88828983E0FCEEC39C5018EEFCEA72
:1050B4002CFCE43BFDEC246AF582E43DF583E065D9
:1050C4000870DE8010EA2CFAE43BFB125147E50835
:1050D40012500D04F0EFA2E092AF024CF7C082C070
:1050E40083A2AFE433FDC2AF125BB914F07C00ECD1
:1050F400F8EA124C58246BF582E439F583E0C0E0F9
:10510400E8246AF582E439F583D0E0F00CECC3942A
:105114000340DCEA246DF582E43BF58374FF12510D
:1051240051ED024A90C082C083A2AFE433F8C2AF0B
:10513400125147E9125151125BB970037401F0E83E
:10514400024A90EA246AF582E43BF58322F0EA24D9
:1051540069F582E43BF583E4F02274F01217098CBC
:10516400828D83A3A3A3A3E0541FF0EA2436125B29
:105174005A8882F583E4F0750C00E50CF50AEC25F9
:105184000AF8E43D8808F5098882F583E0C0E0EA7E
:10519400250AF8E43BF9E8245DF582E439F583D087
:1051A400E0F0750A00850882850983E0F50E750F25
:1051B40000E50A780E121667E50EA2E05027E50C0A
:1051C40033333354F8250AC0E08E828F83E0F8EA43
:1051D400124C582438F582E439F583D0E0F08E82FD
:1051E4008F83E004F0050AE50AC3940840B7050C70
:1051F400E50CC3940540837F080217DBC082C0839B
:105204009003A2E0640170030252F378009003A8B3
:10521400E060030252F3125AD5A3F090040804F09C
:1052240090040DF09003AB1252FA9003B504F09081
:1052340003DBE4F09003BE12530CA3F0900426F0B9
:1052440090041AF0900429F090040E7480125AD736
:10525400900414F090049212531C90049BF0900458
:105264002AF090047A12531CA3F0A3F0900486F061
:10527400900488F0900484F090049E12531C9004CF
:10528400B1F09004AB12530C74FF9004107904F045
:10529400A3D9FCE8FA74B61253073404F583E0C0CA
:1052A400E074031253073404F583D0E0F008E8C334
:1052B400940540DF7800E8FA748A1253073403F542
:1052C40083E0C0E0748A1253073404F583D0E0F01D
:1052D40008E8C3940840DF9003A2E004F06401707E
:1052E400089003AAE09003A4F07AA67B0380047AD2
:1052F400007B00024A94E4F0A3F0A3F0A3F022E8B8
:10530400FA74FD2AF582E42212531022F0A3F0A3CA
:10531400F0A3F0A3F0A3F022125310A3F0A3F02201
:10532400C082C083EA2403125BBC6008E4F09003EB
:10533400A3E014F09003A2E014F070069003A474A8
:10534400FFF08A828B83A3A3E4F09004BBE0700D8A
:105354009003A3E0640170057900120D25024A94BC
:10536400C082C0839003A9E4F09003A8F09003A244
:10537400F0A3F0A374FFF075E1F1024A9474E8120B
:10538400170974E41216998518828519831259D75E
:10539400F5838882124D788882F583A3A312156F52
:1053A40074121216E512157B88828983A3A3A3A322
:1053B400A3A3124D7874161216E51259E2240B12A7
:1053C4005CB574101216E51259E2240D125CB57422
:1053D4000E1216E51259E22407125CB57404121673
:1053E400E51259CD74341216E512192F74161216DB
:1053F400E512156312220974041216AFE960030260
:1054040058D812598112192F74381216E5121563DF
:1054140012226574041216AF8A088B098C0A8D0B4C
:10542400851882851983E02405125CB5740A121666
:10543400E51259CD740A1216E51259C285188285EF
:105444001983E02474125CB574081216E51259CD60
:1054540074081216E5125966F8851882851983E0D6
:10546400242EFCA3E03400FD74021216E5ECF0A334
:10547400EDF0E8700302578A851882851983E0F9F4
:10548400A3E0C92475F582E439F583E0C39AF50CE9
:10549400A3E09BF50D851882851983E0240EFAA3F9
:1054A400E03401FB740C1216E5EAF0A3EBF074028D
:1054B400687004740C800274021216E51259778520
:1054C4000C14850D15751600751700E4F512F51307
:1054D4007814791012137F74181216E578141215C3
:1054E40054125981781012154574181216E5781063
:1054F4001214B9781012191874381216E5121563BB
:1055040012220974041216AFE9700302575C85185D
:1055140082851983E0247A125CB574061216E512AA
:1055240059CD74061216E5125977E4F512F5137481
:10553400181216E578081214F3780879101214A6D4
:10554400908F8A78081214B9851014851115851264
:1055540016851317780879141213FF850814850922
:1055640015850A16850B177814791012137FE50C2C
:105574002508FEE50D3509FF740A1216E512596F68
:105584003FF974041216E51259CA74181216E5C0CC
:1055940082C083124BE92478F582E438F583E0F580
:1055A4000CA3E0F50DE4F50EF50FD083D082780C52
:1055B4001214B9780C79141214A674081216E51290
:1055C4005966640160030257CC851882851983E00B
:1055D4002477F510A3E03400F511AC10FD85188292
:1055E400851983125B69120B45851882851983E03E
:1055F400247CF508A3E03400F509850882F58312BC
:105604005B69124BE92420F582E438F5831259D7FB
:10561400C8241CF582E438F583E41259D3F8A3E0D6
:10562400C8241DF582E438F583E4F0A3F074041271
:1056340016E51259C2740E1216E51259662AFAA317
:10564400E03BFB74101216E5125946EAF0A3EB1284
:1056540059D3247EF516A3E03400F517851682F598
:1056640083E0F514A3E0F51574061216E5125966E5
:10567400FCA3E0FD851882851983E02430F512A38C
:10568400E03400F513851882851983E02432F50A85
:10569400A3E03400F50B74021216E51259666C701F
:1056A40003A3E06D701D850A82850B83E065147089
:1056B40004A3E06515700C125936E0687003A3E08A
:1056C40069603274047814121677781412191C85E0
:1056D4000882850983121933EDC313FDEC13FC749E
:1056E400041216E5125957A3A3E0FA7B00120833FB
:1056F40074041216AF74021216E51259C2740C1215
:1057040016E512595D851082851183E0C0E0124BC5
:10571400E9242BF582E438F583D0E0F07406121600
:10572400E51259C274021216E512595D1259361265
:1057340059CD851682851783124D78850A82850B8B
:10574400831259E2FAA3E0FB120B4B74081216E51C
:105754001259467402F0807074021216E51259AAA6
:105764001214A6908F8A78081214B985120E851324
:105774000F7808790C1213FFAE08AF09740A1216D9
:10578400E512596F802874021216E51259AA1214F0
:10579400A6908F8A78081214B985120E85130F7893
:1057A40008790C1213FFAE08AF09EA2EF8EB3FF9A3
:1057B40074041216E51259CA8E0C8F0DE4F50EF519
:1057C4000F780C791012137F125997E8FAE988823E
:1057D400F583A3A3A3A3A3A3A3A3850C08850D0901
:1057E400850E0A850F0B78081214B974121216E587
:1057F40078081215548A828983E064407070124BD1
:10580400E92418F582E438F583780C1215548518C8
:1058140082851983E02412F508A3E03400F50978A1
:105824000812191C74021216E5124BEF2410F582AB
:10583400E438F583121933EE24FFF50AEF34FFF54B
:105844000B780A12191C74081216E5125966F50A27
:10585400A3E0AA0AFBE4FCFD1223A574061216AF0A
:10586400AC08AD0974121216F71222E380097416FB
:105874001216E5E4F0A3F01259978882F583A3A3E6
:10588400E82408FCE439FD74061215AC74121216EF
:10589400E5C082C083851882851983125966240263
:1058A400FCA3E03400FDD083D08274061215AC1240
:1058B4004BE92435F582E438F583E0C0E0124BE986
:1058C4002434F582E438F583D0E01259D3FAA3E006
:1058D400FB121AF874101216E5125946C082C083DE
:1058E40074041216E512599DD083D082E0C398FA4D
:1058F400A3E099FB851882851983E0240CF8A3E0C2
:105904003401F98882F583EAF0A3EBF0740E1216E1
:10591400E5E0FCA3E0F5838C82C3E09AA3E09B500E
:105924000788828983125AD5741C1216AF7F10021D
:1059340017DB8508828509831259A4851282851391
:10594400832212594A2212594E22E0F8A3E0F58329
:1059540088822212594AA3A32212594AEAF0A3EBDD
:10596400F02212596A2212594EE02212596A2EF874
:10597400A3E02212596AF510A3E0F51122851882DA
:1059840085198312596AF8A3E0C82408F582E4381B
:10599400F5832285188285198312594A1259A42243
:1059A400E0F8A3E0F92212596AF50CA3E0F50D859D
:1059B4000C10F511E4F512F5137808791022125938
:1059C4006AFAA3E0FB22125DBAE8F0A3E9F022121E
:1059D40059EA22EAF0A3EB1259EAF8A3E022E8F02C
:1059E400A3E91259EA221259EFE022F085188285C0
:1059F40019832274F4121709780079009003A9E03E
:105A04006018125CA978081219187AA67B03120B85
:105A14002774041216AF78A6790388828983A3A316
:105A2400A3A3E0F9800574041216AF7F040217DB08
:105A3400E0F875F010A4C8AAF02AF92274F4121739
:105A44000974FC121699EAFEEBFF9004BDE0F8908D
:105A540004BCE028F0EA2463F508E43FF509801665
:105A6400AA08AB09120B6312119F9004BCE004F066
:105A74009004BDE004F0850882850983125E1970E4
:105A8400DF9004BDE060338E828F83A3A3A3A3E0E1
:105A9400851882851983125AD79004BDE0F87402E0
:105AA4001216E5E8125AD774021216FFAA18AB1997
:105AB40079011208399004BDE4F09004BE7480F0BA
:105AC400EEFAEFFB120B1BEEFAEFFB120C17025A65
:105AD4002A7401F0A3E4F02274F7121709EAFEEB2A
:105AE400FF8A82F583A3A3A3A3E0FA7B0012080F25
:105AF400EEFAEFFB120B33120BF9024CF7C082C023
:105B040083E490038A7808F0A3D8FC90038A040203
:105B14004A8D74F6121709EA240D125B5AEC240319
:105B2400F8E43D8808F509EC2407F8E43DF9E8FCBD
:105B3400E9FD124D74125B6312160E8E828F83E898
