:020000040000FA
:0600000002011A0220C6F5
:03002B0002275F4A
:0300530002213C4B
:03006B0002272D3C
:10008300021F23E5C754F84401F5C7790122000094
:100093000080FB120086B90003020104E479217891
:1000A30008B800028004F709D8FCE479297802B87B
:1000B30000028004F709D8FCE490028178E4791304
:1000C3008002F0A3D8FCD9FA781A90014A7A01BACF
:1000D30000028007E493A3F608DAF97A647B1590AB
:1000E300014B78C679028015E493A3AD82AE838A6F
:1000F300828B83F0A3AA82AB838D828E83D8E9D9C6
:10010300E77582207583B3740312012C7582917590
:100113008300740012012C75D00075813F7518811E
:10012300751902759F00020096C09FF59FE473D076
:100133009F22D083D082C09FE493C0E0740193C018
:10014300E0740293F59F2201FF0000B40000280031
:100153002800283075A000A000A000A0000008001F
:1001630008E001F000100010001000100010001053
:100173000050005000500010001000D00700000095
:100183000000000F0001000500307507001000019A
:100193000081FF00000000FFFFFF2C054A05320528
:1001A3006E05FF02020208025000A0000000E803EF
:1001B30002A28F0100007E8F028E8F010000BF1507
:1001C30002888F010000BF02028E8F010000C0155C
:1001D30002868F010000D502028E8F010000C11537
:1001E30002848F010000D702028E8F010000C21526
:1001F300029A8F080000D802028E8F010000C315F7
:1002030002968F010000C415FF0100FF2002A28F98
:10021300010000818F028E8F0100002816028C8F4F
:100223000000000000028A8F03000006031700FE8F
:100233000BFE0BFE0BFE0BFE0BFE0BFE0BFE0BFE73
:100243000BFE0BFE0BFE0BFE0BE60EF80EE00E0193
:10025300E8030577100AFFFFFF0001307503020171
:100263000600000000000000000000000000000085
:1002730000000000000000000000000000FFFF0677
:1002830000800CE8030B095645534320424C45209C
:10029300051208001000020A000201060302E0FF33
:1002A3005645534320424C45000000000000000027
:1002B3000000000000FFFF301300001056455343B9
:1002C300205458000C564553432052580002A28F25
:1002D300010000CD8E028E8F010000D716029E8F83
:1002E3000000003015028A8F030000441502988F26
:1002F300010000D816028E8F010000E01602A08FC5
:10030300020000501502988F010000E1161201351A
:100313007E9303120135919303120135C0930312A7
:100323000135F89303120135419403120135849486
:1003330003120135CA9403120135FD9403120135EA
:100343002495031201355395031201358A9503123F
:100353000135A39503120135F295031201350B966E
:1003630003120135539603120135879603120135A3
:10037300D3B602120135D1B70212013537B80212D2
:1003830001355AB8021201355CB8021201359AB828
:10039300021201350BB902120135CBB90212013534
:1003A300EDB90212013589BA02120135C0BA02123F
:1003B300013505BB0212013512BB0212013582BBA6
:1003C30002120135CCBB02120135CFBB021201353B
:1003D30015BC0212013518BC0212013522BC0212EF
:1003E300013595BC02120135BDBC02120135F0BCCA
:1003F3000212013514BD0212013511BE021201357C
:10040300B5BE0212013521BF021201355DBF0212D2
:1004130001350A88031201353288031201355F88DA
:1004230003120135978803120135FD880312013544
:10043300478903120135AB8903120135F38903128E
:100443000135308A031201355E8A03120135F38ABE
:1004530003120135FD8A031201350A8B031201359C
:100463003D8B03120135498B03120135618B031256
:1004730001356B8B031201350BB10312013519B131
:100483000312013531B10312013548B103120135AD
:100493005BC701120135FEC70112013517C90112ED
:1004A30001358FC901120135B6CA01120135EFCAF0
:1004B3000112013587CB0112013574CC01120135CC
:1004C3001DCD01120135A5CE011201358DCF0112CB
:1004D300013584D001120135BAD0011201355CD146
:1004E3000112013582D1011201354ED301120135BA
:1004F30094D301120135B6D30112013522D401126E
:100503000135EDD401120135A7D501120135B3D759
:10051300011201357BCF0212013557D0021201358A
:1005230001D10212013542D102120135C9D10212A1
:10053300013544D20212013517D30212013540D3DB
:100543000212013534D40212013571D4021201357D
:1005530059D5021201358AD502120135B0D50212DE
:10056300013589A00312013508A10312013533A116
:100573000312013543A203120135F98B031201352E
:100583000F8C031201352D8C031201353D8D03129F
:100593000135478D03120135718E031201355E8FCC
:1005A30003120135CA8F0312013520D60212013519
:1005B3004DD70212013584D702120135DBD702125F
:1005C3000135D3D90212013539A301120135C0A374
:1005D3000112013514A50112013520A501120135BF
:1005E30098A50112013571A60112013571A70112F7
:1005F30001356DA80112013539A90112013593AAFC
:1006030001120135A9AA01120135CAAA0112013545
:100613005CAB01120135D2AB01120135F8AB01120B
:100623000135A5AE01120135AAAE01120135CEB0D6
:100633000112013515B1011201357BB101120135EA
:10064300C1B10112013591B20112013546B3011254
:100653000135A2B301120135A5B301120135F1B37E
:10066300011201352DB4011201356CB401120135AB
:100673008EB401120135C2B40112013530B5011235
:1006830001350AE10212013518E10212013568E170
:100693000212013587E102120135D1E1021201355F
:1006A30014E302120135ACE302120135F0E3021246
:1006B30001351AE40212013585E402120135C9E459
:1006C300021201354CE502120135FBE50212013538
:1006D3008C27001201359C270012013536280012A1
:1006E3000135922800120135502900120135732A71
:1006F30000120135A32A00120135D22A0012013556
:10070300882C00120135DB2E001201353A3100121C
:100713000135233200120135133300120135E6345B
:1007230000120135DE3700120135FB3800120135A6
:10073300F53A00120135043C00120135933D0012D5
:1007430001357F3E00120135CE3E001201353E3F9A
:10075300001201355A3F00120135AB3F001201353B
:100763004B4400120135524500120135B4450012C5
:100773000135DF450012013597460012013500802F
:10078300031201350A800312013552800312013529
:10079300668003120135F780031201352E8103129F
:1007A3000135698103120135928103120135E68116
:1007B30003120135FB81031201351D82031201353A
:1007C3003282031201354682031201355B82031222
:1007D3000135958203120135C182031201354C8321
:1007E300031201358F8303120135B98303120135D7
:1007F300E4830312013549AC031201350E9A021248
:100803000135E79A02120135569B02120135919B7D
:1008130002120135CC9C021201357E9D0212013574
:100823002BA002120135D6A002120135B7A1021284
:1008330001352DA30212013595A30212013572EF82
:1008430002120135B5EF0212013520F10212013512
:100853005EF302120135909C031201353D9D031294
:100863000135369E03120135739E031201354CA4E4
:1008730003120135ABA40312013548A50312013558
:100883007BA503120135A9A503120135E4A50312C3
:10089300013504A603120135C9EA0212013552EBF0
:1008A3000212013511EC021201351FED021201355E
:1008B3003FEF02120135F6F3011201350BF4011279
:1008C3000135D6F401120135A3F50112013510F6F5
:1008D300011201354BF601120135ECF60112013517
:1008E300F5F701120135CDF80112013550F9011266
:1008F3000135D9F90112013542FA01120135CCFA59
:100903000112013519FB0112013587FB0112013573
:1009130029FC01120135D7FC01120135F7FC011244
:1009230001353BFD0112013583FD011201359FFDA8
:1009330001120135BEFD0112013538FE01120135E8
:1009430046FE01120135D9FE0112013543FF0112A2
:100953000135FBF30212013577F402120135B5F4C8
:100963000212013599F50212013508F6021201351A
:100973004CF6021201358FF602120135BCF6021253
:100983000135DAF60212013512F7021201354FF77B
:100993000212013570F702120135E6F70212013532
:1009A30030F802120135EAB50112013587B7011299
:1009B3000135B2B901120135FAB90112013525BA6F
:1009C3000112013511BB0112013555BB011201356D
:1009D300C1BB01120135D4BB0112013515BC011293
:1009E300013542BC011201358BBC01120135CEBC6D
:1009F3000112013504BD0112013555BD0112013546
:100A0300B9BD0112013590C00112013584C2011232
:100A13000135BFC2011201353FC40112013583C440
:100A230001120135F3C40112013548C50112013524
:100A33000DC60112013545C70112013556C7011212
:100A430001353AA402120135A3A40212013566AAA4
:100A5300021201355BAB02120135E5AC021201351E
:100A63007DAD0212013500470012013548470012DF
:100A73000135754700120135A74700120135B44708
:100A830000120135C04700120135D247001201356B
:100A9300994800120135F748001201352C4900121C
:100AA3000135684A00120135B54A00120135D04AB2
:100AB30000120135444B00120135FB4B0012013586
:100AC300DB4C00120135414D00120135134E00126B
:100AD3000135354E00120135A54E001201353C4F4C
:100AE30000120135634F00120135DB4F001201354F
:100AF3006350001201359050001201353551001238
:100B03000135B55100120135545200120135CC5252
:100B130000120135215300120135695300120135CA
:100B23009E530012013540540012013564550012E2
:100B33000135A45500120135C15500120135375C4A
:100B430000120135805C001201351C5D0012013575
:100B5300415D00120135565D00120135BD5D001285
:100B63000135045E00120135145F00120135C05FC8
:100B7300001201351A60001201357660001201354A
:100B83008F6000120135A6AD02120135F1AD0212DC
:100B93000135FDAD02120135CDAE02120135F6AEBF
:100BA3000212013529AF0212013595AF0212013548
:100BB300D3AF021201350CB00212013524B0021278
:100BC30001357DB00212013596B002120135DBB05A
:100BD30002120135EEB00212013508B102120135DD
:100BE3001EB10212013525B20212013546B30212BB
:100BF30001352FB4021201351EB502120135F6FF7D
:100C0300011201350D8D02120135408D021201359D
:100C1300AA9002120135FF9102120135D2920212FB
:100C230001351494021201350C95021201355A95BF
:100C330002120135749502120135B695021201357F
:100C4300C195021201350A9602120135139602125A
:100C53000135BF9602120135999702120135E597C6
:100C63000212013545980212013597980212013597
:100C7300C59802120135039902120135A58F01129D
:100C830001358693011201358C9301120135FC99CC
:100C930001120135CF9E01120135E9A2011201357E
:100CA300D48F031201354A90031201356090031269
:100CB3000135DD90031201351491031201354E9174
:100CC30003120135889103120135FB91031201359B
:100CD3003692031201353F92031201354B920312F0
:100CE30001356492031201358892031201359D92F6
:100CF30003120135C69203120135289303120135FD
:100D03004F93031201350DE60212013520E602125C
:100D130001353AE60212013567E602120135ADE606
:100D230002120135E0E6021201351DE70212013518
:100D330083E70212013598E702120135A3E7021295
:100D43000135B0E702120135C7E702120135D5E7D5
:100D530002120135E0E702120135ECE70212013518
:100D6300FFE7021201350AE80212013530E80212E8
:100D73000135D4E802120135E4E802120135FEE838
:100D8300021201351BE90212013536E9021201355F
:100D93005DE90212013568E9021201357DE90212AB
:100DA300013591E902120135F2E902120135F8E940
:100DB30002120135FEE90212013504EA021201357D
:100DC3001CEA021201354FEA0212013505800212B4
:100DD3000135938002120135288102120135048204
:100DE300021201353882021201354B82021201359B
:100DF300C582021201354D84021201357484021238
:100E03000135FB84021201353A85021201354B8507
:100E130002120135C08502120135DF850212013548
:100E2300F785021201353B8702120135458902120B
:100E33000135778B021201357D8C02120135C08C8E
:100E430002120135C0D701120135D3D80112013581
:100E5300BBD901120135C5D901120135E7D90112F8
:100E63000135F3D90112013540DB011201356DDB88
:100E7300011201358EDC01120135D0DC011201357E
:100E830005DE01120135D5DE0112013524DF011221
:100E9300013585DF01120135BADF01120135F3DFB8
:100EA300011201359EE301120135B5E3011201354B
:100EB30033E40112013541E4011201358AE40112E0
:100EC300013598E40112013519E50112013588E570
:100ED30001120135D4E501120135D6740012013532
:100EE300F87400120135D476001201354C7A0012E1
:100EF3000135967B00120135787C00120135CAA7B3
:100F030003120135EFA70312013560A8031201355F
:100F1300F8C70212013501C8021201350AC80212CC
:100F230001352EC9021201351FCB021201354DCBFB
:100F33000212013578CB02120135A6CB021201351C
:100F4300D1CB021201350FCC021201353BCC021278
:100F5300013578CC02120135A3CC02120135EFCC56
:100F63000212013546CD0212013586CD021201353A
:100F7300D5CD0212013500CE0212013546CE021242
:100F8300013574CE021201359FCE02120135CCCE4B
:100F930002120135EFCE02120135D8B10312013529
:100FA30004B2031201355DB20312013567B20312B5
:100FB300013577B20312013578B303120135C160ED
:100FC30000120135186300120135C864001201359F
:100FD300256500120135256600120135A26600124F
:100FE30001352A67001201354F67001201352A6A5D
:100FF300001201359E6A001201358D6B0012013516
:10100300C36B00120135066C00120135876D0012A7
:101013000135C96D00120135126E001201357B6E68
:10102300001201359D6E00120135B76E00120135B5
:10103300D56F00120135E56F00120135687100129A
:101043000135887100120135BE71001201353A7302
:1010530000120135777300120135B17400120135A6
:1010630012A6031201356EA60312013512A703124D
:10107300013531A7031201357FA703120135E77F3D
:1010830000120135C2B30312013501B40312013555
:10109300E3FF0112013555AF0312013565AF0312AA
:1010A30001357AAF031201352EB0031201355DAD60
:1010B30003120135E0AD0312013546AE03120135CB
:1010C3001DAB0312013544AB031201359AAB031276
:1010D3000135ADAB03120135FEAB031201353DAC57
:1010E3000312013540AC031201350C8403120135A0
:1010F3002084031201359984031201356D8503128F
:1011030001353F8703120135A48703120135F787A1
:1011130003120135F87F0012013572A20312013563
:10112300E8A30312013549A403120135EAFF0212B1
:101133000135EFFF02120135F6FF0212013534B01B
:101143000312013557B00312013580B00312013584
:10115300C2B003120135C0DB02120135CADB021231
:1011630001350ADC0212013553DC021201358BDC36
:1011730002120135E1DC02120135FEDC02120135F7
:1011830007DD021201354CDD0212013575DD021255
:1011930001358ADD02120135FADD0212013587DEDF
:1011A30002120135DBDE02120135FEDE02120135C9
:1011B3007DDF02120135B8DF02120135EDDF0212C5
:1011C3000135FFDF021201351EE00212013527E06F
:1011D30002120135DEE0021201357BA9031201354B
:1011E300CCA90312013555AA03120135BFAA031274
:1011F3000135D59903120135FD9903120135F29A90
:1012030003120135179B03120135A69B0312013507
:101213005FAE031201358D9E03120135C39E031287
:101223000135F69E031201354FA00312013581B239
:101233000312013597B203120135A1B2031201352E
:10124300F5B20312013583BF021201353DC002120C
:10125300013578C002120135A9C00212013519C146
:10126300021201356FC102120135C3C102120135E9
:10127300B0C202120135A9C3021201352AC50212F6
:101283000135DEC50212013547C6021201355AC6C1
:10129300021201353FC70212013598C70212013508
:1012A30077F8021201358DF8021201352EF9021278
:1012B30001356DF9021201358AF902120135BBF9C4
:1012C3000212013508FA021201353BFA0212013506
:1012D30076FA0212013571FC02120135D9FC0212B1
:1012E300013566FF011201355AE601120135E2E9C3
:1012F3000112013571EB01120135C8EB0112013501
:10130300E7EB0112013565EC01120135EBED01123A
:101313000135BEEE0112013578F20112013560F399
:1013230001120135EF9603120135A8980312013516
:101333004799031201359F9903120135BA99031294
:101343000135CA9903120135E6FC021201351FFD6E
:101353000212013532FD021201353AFE0212013545
:10136300ADFE02120135B5FF02120135BB7F00123B
:101373000135C5FF01E066701008A3E066700A0836
:10138300A3E066700408A3E06622C3E7960809E7B2
:10139300960809E7960809E79622C3E09608A3E0B2
:1013A3009608A3E09608A3E09622C008C3E096F54A
:1013B3000808A3E096420808A3E096420808A3E0C1
:1013C3009645087001D3D00822080808EAC0E0EB6C
:1013D300C0E086F0E7A4FA180986F0E7A42AFA1811
:1013E3000986F0E7A42AFA180986F0E7A42AFA196D
:1013F30086F0E7A4FBE5F02AFA190886F0E7A42BA8
:10140300FBE5F03AFA190886F0E7A42BFBE5F03A7E
:10141300FA18180986F0E7A4C5F02BFBE43AFA1989
:1014230008E7C5F0C6A426F6E5F03BFBE43AFA1854
:1014330086F0E7A4F6E5F00826F6E43B08F6E43A7E
:1014430008F6D0E0FBD0E0FA22E4CFC0E0E4CEC05F
:10145300E0E4CDC0E0E4CCC0E075F020E626F60879
:10146300E633F608E633F608E633F6181818EC33D5
:10147300FCED33FDEE33FEEF33FFC3EC9709ED973D
:1014830009EE9709EF97191919400FFFEC97FC091B
:10149300ED97FD09EE97FE191906D5F0BFECF70994
:1014A300EDF709EEF709EFF7191919D0E0FCD0E0D1
:1014B300FDD0E0FED0E0FF226016080808C6C31383
:1014C300C618C613C618C613C618C613C6D5E0EA8F
:1014D300227009080808226016181818C6C333C6F4
:1014E30008C633C608C633C608C633C6D5E0EA22E3
:1014F300E627F60809E637F60809E637F60809E6A7
:1015030037F622E026F608A3E036F608A3E036F61F
:1015130008A3E036F622E026F008A3E036F008A39D
:10152300E036F008A3E036F022C3E697F60809E6B2
:1015330097F60809E697F60809E697F622C3E0C688
:1015430096F608A3E0C696F608A3E0C696F608A3A7
:10155300E0C696F622C3E096F008A3E096F008A34F
:10156300E096F008A3E096F022E056F608A3E056D2
:10157300F608A3E056F608A3E056F622E056F00874
:10158300A3E056F008A3E056F008A3E056F022E0EB
:10159300F608A3E0F608A3E0F608A3E0F622E6F0D7
:1015A30008A3E6F008A3E6F008A3E6F022E0FAA316
:1015B300E0FBA3E0FCA3E0FD22E0FCA3E0FDA3E04D
:1015C300FEA3E0FF22ECF0A3EDF0A3EEF0A3EFF017
:1015D30022E0F8A3E0F9A3E0FAA3E0FB22E8F0A3FA
:1015E300E9F0A3EAF0A3EBF022CAC0E0E6F0A30817
:1015F300DAFAD0E0FA22CAC0E0E0A3C582CCC58201
:10160300C583CDC583F0A3C582CCC582C583CDC5B3
:1016130083DAE6D0E0CA22C3E498F8E499F9121613
:101623005B8026C3E49AFAE49BFBE920E7E9121600
:101633005BE498F8E499F922C3E498F8E499F91281
:10164300165BE498F8E499F9C3E49AFAE49BFB2265
:10165300EB20E7CFE920E7E0B90010BB0008E88AF8
:10166300F084F8AAF022E4FBC8FA22EB70227B1084
:10167300C833C8C933C9335007C39AC3DBF28006E2
:101683009A50012ADBEAC833F4C8C933F4C9FA22F1
:1016930075F008E4C833C8C933C933C99AC99B5024
:1016A30004C92AC93BD5F0ECFBC833F4C8E4C9FA32
:1016B30022600D08C6A2E713C618C613C6D5E0F309
:1016C30022600C08C6C313C618C613C6D5E0F4229D
:1016D300700422600D18C6C333C608C633C6D5E0EE
:1016E300F41822251810AF08F518400C15198008B6
:1016F300F51840021519D2AF2200C0D0251810AF3B
:1017030008F518500C05198008F51850020519D270
:10171300AFD0D0222518F58210AF08F518400C156C
:10172300198008F51840021519D2AF8519832225AF
:1017330018F582E43519F583222518F8E43519F9EB
:10174300222518FAE43519FB222518FCE43519FD86
:1017530022E4732518C582C0E0E51934FFC583C0B0
:10176300E0E518C3958224F810AF088583198582B4
:10177300188008858319858218D2AFCEF0A3E5209F
:10178300F0A37808E608F0A3DEFAEFF0A3E58124DE
:10179300FAF8E608F0A3E608F0A3E608F0A30808C1
:1017A300E608F0A3E608F0A315811581D0E0FED08A
:1017B300E0F8158115811581E8C0E0EEC0E022252F
:1017C30018C582C0E0E51934FFC583C0E0E518C33E
:1017D300958224F910AF08858319858218800885BE
:1017E3008319858218D2AFCEF0A3E520F0A3780841
:1017F300E608F0A3DEFAEFF0A3E58124FBF8E608A0
:10180300F0A3E608F0A30808E608F0A3E608F0A3AF
:1018130015811581D0E0FED0E0F815811581E8C06F
:10182300E0EEC0E022851983851882E0A3FEE0A3E1
:10183300F5207808E0A3F608DFFAE0A3FFE0A3C0F1
:10184300E0E0A3C0E0E0A3C0E0E0A3C0E0E0A3C009
:10185300E010AF0885821885831980088582188572
:101863008319D2AFD083D0820201328519838518C0
:1018730082E0A3FEE0A3F5207808E0A3F608DFFAF0
:10188300E0A3FFE0A3C0E0E0A3C0E0E0A3C0E0E08A
:10189300A3C0E010AF08858218858319800885826C
:1018A30018858319D2AFD083D08222C0D02518C522
:1018B30082C0E0E51934FFC583C0E0E518C3958213
:1018C30024F310AF0885831985821880088583194E
:1018D300858218D2AFC8F0A3E9F0A3EAF0A3EBF036
:1018E300A37908E709F0A3D8FAECF0A3EDF0A3EE8F
:1018F300F0A3EFF0A3D0E0F0A3D0E0F0A3D0E0F0AA
:10190300A3E520F0A3E5F0F0A322851983851882CF
:10191300E0C0E0A3E0F9A3E0FAA3E0FBA37808E0CA
:10192300F608A3DFFAE0FCA3E0FDA3E0FEA3E0FFDB
:10193300A3E0C0E0A3E0C0E0A3E0F5D0A3E0F5207E
:10194300A3E0A3F5F010AF088583198582188008FA
:10195300858319858218D2AFD082D083D0E0F8D0A6
:10196300E03274048006740280027401C0E0F4045F
:10197300121717D0E01215EC22740480047402804D
:1019830000CCC0E0EDC0E0E518C39CCCAD1950011C
:101993001D10AF068C188D1980068C188D19D2AFC7
:1019A3001215F9D0E0FDD0E0FC22D083D082E9C04B
:1019B300E0E493A3C386F0C5F095F0F908E493A39C
:1019C30086F0C5F095F0700BE493A3C3994005E945
:1019D300048002A3E475F002A42582F582E5F035C4
:1019E30083F583D0E0F9E493A3C0E0E493C0E0225D
:1019F300D083D082ECC0E0EDC0E0E493A3FCE49399
:101A0300A3FDED4C600D121A3FEC24FFFCED34FFF7
:101A1300FD80EFE493A3FCE493A3FDED4C600D1272
:101A23001A7EEC24FFFCED34FFFD80EFD0E0FDD007
:101A3300E0FCE493A3C0E0E493C0E022C0E0C3E48D
:101A43009396087401939618400FE4936670080800
:101A5300740193661870007019A3A3C3E4939608E6
:101A63007401939618A3A3400DD0E0D0E0D0E00218
:101A73001A2FA3A3A3A3A3A3D0E022C0E0C0F0889E
:101A8300F0E4936670080874019366187000A8F078
:101A9300A3A3700BD0F0D0E0D0E0D0E0021A2FA3C4
:061AA300A3D0F0D0E02208
:101AAC0074F61217C2EAFEEBFF8C088D09EA243497
:101ABC00F8E43FF9E8FCE9FD121BDAE0FAEE243712
:101ACC00F582E43FF583E0F88508F0A4C885F00AB8
:101ADC008509F0A4250AF9EA28F8E439F97A257B76
:101AEC000012165BEA8C828D83F0F9131313541FCA
:101AFC00FAEE2AFAE43FFBEA245DF582E43BF58337
:101B0C00E0C0E0740759F8D0E0B800028004C313B9
:101B1C00D8FCA2E04021EE2436F582E43FF583E0C8
:101B2C00F5F0E984A8F0EE28F8E43FF9E82438F55C
:101B3C0082E439F583E0F97F0302186E74F512170D
:101B4C00C2EAFEEBFFEA2434F582E43FF583E0C001
:101B5C00E0121BDAD0E0F08A828B83A3A3A3A3A3A9
:101B6C00E0FAA3E0FB8E828F83A3A3A3A3A3A3A37A
:101B7C00E0C39AF508A3E09BF509EE2480F8E43F56
:101B8C00880AF50B8882F583E06401702CEE2481C1
:101B9C00F582E43FF583EA2401F8E43BF9E0687050
:101BAC0003A3E06970137CB67D04EEFAEFFB120B15
:101BBC0020850A82850B83E4F0AC08AD09EEFAEFC0
:101BCC00FB121AACE9F912271F7F0402186EEA24E3
:101BDC0035F582E43FF58322C082C0838518828567
:101BEC001983E0F8A3E0F9C3EA9CEB9D5010C3EC19
:101BFC0098ED99401BC3EA98EB995014800EC3EAF8
:101C0C0098EB994007C3EC98ED9940047901800258
:101C1C007900D083D08222EAC39CFAEB9DFB22741C
:101C2C00ED1217C2900376E064086005E06407705B
:101C3C002C9061C8E060269003A4E0F874FF686003
:101C4C001CE875F010A4C8AAF02AF974A628FE7432
:101C5C000339FF8E82F583A3A3A3E07005790002FC
:101C6C001E07EE2468F50EE43FF50F906060E085EA
:101C7C000E82850F83F07510277511057508007598
:101C8C000900E5D914F50AE5D95403F50B6044EEC7
:101C9C002484F50CE43FF50D7403650B6025E50A0F
:101CAC00600CEE2467F582E43FF583E06025900537
:101CBC0022E06401603E850C82850D83E060207813
:101CCC0004801E850C82850D83E0603BE50AC3947D
:101CDC00055034793DEEFAEFFB120B4A021C697881
:101CEC0000E50AC398FA95E0FB1209B88A088B093B
:101CFC00EA4B7006120DAE021C69850C82850D83B1
:101D0C00E070048A108B1178008014E5D9C0E0E8EB
:101D1C00FAE5102AF582E43511F583D0E0F008E8F5
:101D2C00C3950A40E6850C82850D83E0602874FC1F
:101D3C00250AF50A7810121969AC0AA90BEEFAEF0C
:101D4C00FB120BF874021216FCE9700AAA08AB0914
:101D5C001211E0021CDF7403650B6055E50AF50CEB
:101D6C00750D00780C121969AC10AD11AA08AB09ED
:101D7C00120BBC74021216FC850E82850F83E0F8E0
:101D8C007480687005750C7F8002880CE50CF50D6D
:101D9C00780D12196D780B12196DA90AAC08AD09E2
:101DAC009003A4E0FA7B001207F674021216FC8072
:101DBC0045851082851183E0F8C3940E500F74AFE3
:101DCC0028F582E4348EF583E0650A6016EE24F77C
:101DDC00F582E43FF583E8F07907EEFAEFFB120B9E
:101DEC000E8013900376E06408600BAC10AD11EE1E
:101DFC00FAEFFB120C8E120DBA79017F0C02186EE1
:101E0C0074F11217C274FC1216E6EAFEEBFF890994
:101E1C00750C00A2AFE433F508C2AF9004BEE0FA33
:101E2C009061D0E0F8748098F895E0F9C3EA98E4F2
:101E3C0099A2D265D0335015750C018010AA0AAB4B
:101E4C000B120B741211E09004BDE004F0EE24634D
:101E5C00F50AE43FF50B850A82F583E0F8A3E0F977
:101E6C00E849602DE82402FAE439FBEA2402F50E75
:101E7C00E43BF50F780E1219698A828B83E0FCA380
:101E8C00E0F9EEFAEFFB120B6874021216FCE96033
:101E9C00AC9061D0E0F87480C3989004BEF0E50C6F
:101EAC0060539004BDE0604D9004BFE0F89004BD19
:101EBC00E0C398500C74026509703A9004C0E0605D
:101ECC00348E828F83A3A3A3A3E085188285198304
:101EDC00121F117402121732E8121F119004BCE089
:101EEC0028F0740212174CAA18AB19790112084A7F
:101EFC009004BDE4F0E508A2E092AF74041216FC65
:101F0C007F0802186EF0A3E4F09004BDE0F8220004
:101F1C008521878522C622C0E074EB1218AEA2AFD1
:101F2C00E433F508C2AF759B00906182E0A2E050EB
:101F3C002DE591A2E050277591FE74016521701E6C
:101F4C0012209A1220B112197C1224CE740412168B
:101F5C00FCE9640170057901120D42121C2B906191
:101F6C0082E0A2E5505AE591A2E550547591DF90BC
:101F7C000376E064076005E06408702C12209A7404
:101F8C00016521703B1220B112197C1224CE74040D
:101F9C001216FCE9640170057901120D427901EE0B
:101FAC00FAEFFB121E0C8018E0640D70139003986E
:101FBC00E004F064287002E4F07A00E0F9120DC03D
:101FCC00906182E0A2E6400302206FE591A2E64018
:101FDC000302206F7591BF900376E06405700812C0
:101FEC000CD0120CDC8003120CD6752100120D4E95
:101FFC00E9900377F07900120D42120A8A7A017B7C
:10200C0000900375E0F91211B0907803E06442700F
:10201C0052900526E014F0704AC2AF12202A0078C4
:10202C002AD0E0F618D0E0F6E59F540770047BFF49
:10203C0080027B7FC4C0E07829E6F50A08E65BF5F0
:10204C000B740B780A1216C4D0E0250AF890627053
:10205C00E0A2E740F8E8C333906272F0906270E05F
:10206C00D2E0F0906181E0A2E35009E5E9A2E350EF
:10207C000375E9F7A3E0A2E75009E591A2E7500345
:10208C0075917FE508A2E092AF7F0802190D9003CD
:10209C00A4E0F875F010A4C8AAF02AF974A628FEDA
:1020AC00740339FF22120CE88E828F83E0F8A3E0D0
:1020BC00C82416F582E438F58322C0E0C0D0C08273
:1020CC00C083906183E0A2E05009E5BFA2E0500319
:1020DC0075BFFEE0A2E15009E5BFA2E1500375BF58
:1020EC00FDE0A2E25009E5BFA2E2500375BFFBE0A0
:1020FC00A2E35009E5BFA2E3500375BFF7E0A2E4E9
:10210C005009E5BFA2E4500375BFEFE0A2E550090A
:10211C00E5BFA2E5500375BFDFE0A2E65009E5BFBD
:10212C00A2E6500375BFBFD083D082D0D0D0E032AE
:10213C00C0E074F21218AEE5A7A2E4500FE5A1A21C
:10214C00E4500953A7EF75A1EF122190E5A7A2E582
:10215C00500CE5A1A2E5500653A7DF75A1DFE5A75A
:10216C00A2E15009E5A1A2E1500375A1FDE5A7A2EA
:10217C00E2500CE5A1A2E2500653A7FB75A1FB7F30
:10218C000102190D74F81217C2752101900376E043
:10219C00640670077A007B00120CB8A2AFE433FE21
:1021AC00D2AF90037CE0640170187A207B0090031E
:1021BC0075E0F91212C47A207B00900375E0F912D5
:1021CC0011B6906182E0D2E6F0900523E0602185A3
:1021DC00C622801690037BE064017008E5C654F8B3
:1021EC004405F5C653BEFC121F1C7401652160E446
:1021FC00EEA2E092AF7F0102186E00008E238F24B6
:10220C00858228858327851882851983E0CEA3E0F3
:10221C00CF852882852783EBC9EAC8EDCBECCA753C
:10222C00F010C3E833C8E933C9EA33CAEB33CBC384
:10223C00EA9EF526EB9FF525B35004AB25AA26ECB8
:10224C0033CCED33CDD5F0DAAE23AF242274E912C2
:10225C0017C274FA1216E6EAFEEBFF8C088D09120F
:10226C000CFAEAF8EBF9ECFAEDFB8E828F8312157F
:10227C00E0900376E024F7C3940550067510010234
:10228C00238F120C2E8A0A8B0BEA4B700302238CC1
:10229C00120CEE8A0C8B0D120CEEEA650C7003EB33
:1022AC00650D60ECEEFCEFFDAA18AB19120CF48571
:1022BC000A82850B83A3A3780C121592908F0A784F
:1022CC000C12156C8518828519837814121592904E
:1022DC008F0A781412156C780C791412138D501F08
:1022EC00780C791412152C908F2A780C1213AD409F
:1022FC005D850C10850D11850E12850F138037909E
:10230C008F2A8514108515118516128517137810D0
:10231C00790C12152C78101213AD50327510007503
:10232C0011007512007513017810791412152C78A0
:10233C0010790C1214F3740978101214D4908F764F
:10234C00780C1215927810790C12144C800C7510B4
:10235C0014751100751200751300900376E0640873
:10236C00600AE064066005E064057020908F2E78AA
:10237C00101213AD5016908F327810121506800C77
:10238C007510007511007512007513008508828593
:10239C00098378101215A174061216FC7F1002180E
:1023AC006E74F71217C2120D0C900521E0640170C7
:1023BC0010906245E4F0A3F053F4F343FE0C5390F9
:1023CC00F3120CA6E5C654B84441F5C6E59E544735
:1023DC00644170F8906185740FF090051FE0F47003
:1023EC0002A3E0602C75080175090090051FE078C8
:1023FC00081216D3E508F4FAA3E0600814600A1476
:10240C00600C800DEA52808008EA52908003EA52F8
:10241C00A079007F0202186E74F71217C2E9FEEA67
:10242C00FF74016E700C7A807B00900375E0F912DA
:10243C0011B0902784E493F46008E493F9120A6CC9
:10244C00800953C6B8E59E544770FA120CAC90053F
:10245C0021E064017003120AA290051FE0F47002DF
:10246C00A3E0602B75080175090090051FE0780842
:10247C001216D3E508FAA3E0600814600A14600C85
:10248C00800DEA42808008EA42908003EA42A01262
:10249C000C2E8B09A909EA496016E5E170FCEA24C7
:1024AC0014F582E439F583E0F874FF68600288E182
:1024BC0074016F700A7A01900375E0F912123A02F6
:1024CC00241F74F11217C28A088B098C0A8D0B9089
:1024DC008F0A780812156C740F121732780C1215BB
:1024EC0092908F0A780C12156C7808790C12138D57
:1024FC00908F2A50107808790C12152C780812132A
:10250C00AD4014800E780C790812152C780C12132F
:10251C00AD50047901800279007F0802186E74EDC9
:10252C001217C28A088B098C0A8D0B908F0A7808B7
:10253C0012156C7413121732780C121592908F0AB4
:10254C00780C12156C780C790812138D40117808E0
:10255C00790C12152CAA08AB09AC0AAD0B802275AC
:10256C0010007511007512007513017810790C129A
:10257C00152C781079081214F3AA10AB11AC12AD0B
:10258C00137F0C02186E908F0A78081215928A82AB
:10259C008B83780812157F7F0402186E74F512175E
:1025AC00C28C828D8378081215928A828B8378086C
:1025BC001215581225FCC3E098F0A3E0991225EEF1
:1025CC00401E908F3E78081215928A828B83780871
:1025DC001215198E828F83E02420F0A3E0344EF084
:1025EC0080A4F08E828F83C3E09420A3E0944E22CB
:1025FC00EA2404F8E43BF9E8FEE9FF8C828D83A31E
:10260C00A3A3A3E0F8A3E0F98E828F832274F512C2
:10261C0017C29004D9E0FAA3E0FBE929F8E433F9F6
:10262C00748F28F582748E39F583E02AF508A3E0BF
:10263C003BF5097808121969908F521215B01222C5
:10264C000874021216FC8A088B098C0A8D0B741004
:10265C0078081214BBAA08AB097F0402186E74F137
:10266C001217C28A0C8B0D8C0E8D0F74111217322F
:10267C001219807411121732E02401F508A3E0340A
:10268C0000F509E4F50AF50B780C79081213CC90D7
:10269C008F5E7808121592780C79081213CCAA0C5C
:1026AC00AB0DAC0EAD0F12220874021216FCEA4BE5
:1026BC0060047A0180027A00EC2AFCE43DFD74137C
:1026CC00121732E0F8A3E0F9E8FEE9FFECF8EDF9B7
:1026DC007A717B0212165B88088909E4F50AF50BFE
:1026EC008E828F8378081215A1ECF8EDF97A717B44
:1026FC000212165B8A088B09740578081216D38EA1
:10270C00828F83A3A3A3A3E508F0A3E509F07F08B8
:10271C0002186EC082C083E9906000F0D083D08232
:10272C0022C0E074F21218AEA2AFE433FED2AFE5D1
:10273C0089A2E04006E589A2E150031210D8758900
:10274C0000758900C2C5751A00EEA2E092AF7F0138
:10275C0002190DC0E0C0D0E8C0E0A8A8D2AFC2C733
:10276C00751A00E8A2E792AFD0E0F8D0D0D0E032F2
:06277C00C2AF02000022C2
:10278400FFFFFFFFFFFFFFFFC082C083E990162712
:10279400F0D083D08202013274F6121756E9900207
:1027A400E8F0900348E0F50875090074027808120F
:1027B40016D3AA08AB091212229002E9122C7060F7
:1027C4006E900348E075F003A4FAABF01212229065
:1027D4000306122C70700B9002E91234B412122802
:1027E400804D90030612441D7AFF7BFF1210607A1D
:1027F40000801EEAF508750900740278081216D3E1
:10280400123EB974FFF0A3124431A3A3E4F0A3F081
:102814000A900348E0F8EAC39840D879051206E81C
:102824009002E8E0F91205D47A727B071209580283
:102834003F5574F41217568A088B09EB548060478D
:102844009002E8E0F91211988A0A8B0BAE0AAF0BDA
:10285400EA4F602A8A828B83E064B0701A1206FA07
:10286400E960148E828F83A3A3A3A3E0F9EE240569
:10287400FAE43FFB1206CAEEFAEFFB121186AA082D
:10288400E5096480FB80047A007B00022A9E74F2CE
:1028940012175674FB1216E6EAFEEBFFEA4F60438A
:1028A400740312173212311D851882851983ECF0D6
:1028B400A3EDF07402121732E9F0AA18AB1912054D
:1028C400CEE9F50870777413121732E0F50AA3E025
:1028D400F50BE50A450B60658E828F83122EB1EEEF
:1028E4004F700575080280557A067B001212228A01
:1028F4000C8B0DA80CA90DEA497005750813803DD1
:102904008A828B83E4F0122948A3EEF0A3EF1246E7
:10291400F6E50AF0A3E50BF09002EC122A629002AD
:10292400EC6017E0FCA3E08003EAFCEBFD8C828DF5
:1029340083122A6270F38C828D83123AD9A90874A7
:102944000502468FA3F08A828B83A32274F21217A6
:10295400568908E9F50C750D007403780C1216D32A
:10296400850C0A850D0B9002EBF09002E9124402EB
:10297400122A60602F1212287900801EE9F50C7566
:102984000D007402780C1216D39002E9123D72887D
:1029940082F583A3A3E4F0A3F009900348E0F8E9E7
:1029A400C39840D8900348E0FA850AF0A4CAA8F076
:1029B400850BF0A428FB1212228A0C8B0DAE0CAFEF
:1029C4000DEA4F7003022A56900348E0FC850AF092
:1029D400A4CCA8F0850BF0A428FD79001211747C16
:1029E400008032EDF50C750D007403780C1216D3CB
:1029F4008A828B83122A5B8882F583E4F0122A6828
:102A0400A3A3F0A3F00DEDC3950840D7EE250AFE6D
:102A1400EF350BFF0C900348E0F8ECC3985029EC19
:102A2400F50C750D007402780C1216D39002E9129D
:102A34002A5BE82402500109FAE9FB8A82F583EE55
:102A4400F0A3EFF07D0080BEE5089002EBF0790082
:102A540080027913024692123D76F922A3A3123121
:102A640035EA4B22A3F088828983A3A3A3A322740B
:102A7400F41217567900EAA2E0501F7508E27509AE
:102A84008E780812196979107C047D007A297B16E6
:102A94001206E274021216FCE9F97F04021828C037
:102AA40082C0839002EC123E78601C88828983A3E2
:102AB400A3E06A7003A3E06B8882898370E8A3A310
:102AC400A3A31234B480047A007B0002279574F225
:102AD40012175674FD1216E6EAFEEBFF851882857E
:102AE4001983E4F0A3F074021217327401F0900217
:102AF400EF123E7870111208921212229002EF1215
:102B04002C707003022C6412320AEE2404F50AE4D9
:102B14003FF50B850A82F583E024FE603C24FC60CB
:102B24007424FE607E24FE7003022BB424FE700322
:102B3400022BC124FE7003022BCE24FE7003022B51
:102B4400DB24FE7003022BE824FC7003022C09240E
:102B5400FE7003022C21022C5D1208929002F1EA0D
:102B6400F0A3EB122C7912031CE96003022C5D9094
:102B740002F11219808E828F83A3A3A3A3A312440C
:102B84001D8508828509831234B41206B2740212B8
:102B940016FC022C5DAC18AD19EEFAEFFB1207001F
:102BA400022C2CAC18AD19EEFAEFFB120706807854
:102BB400AC18AD19EEFAEFFB12070C806BAC18AD34
:102BC40019EEFAEFFB120712805EAC18AD19EEFA9B
:102BD400EFFB1207188051AC18AD19EEFAEFFB1297
:102BE400071E8044740212173C880C890D780C125D
:102BF4001969740212174CEEFAEFFB1207247402DF
:102C04001216FC8023AC18AD19EEFAEFFB12072A5A
:102C1400E9F870167402121732E4F0803CAC18AD77
:102C240019EEFAEFFB120730E9F8E8602C8E828F78
:102C340083A3E064146022850A82850B83E09002FA
:102C4400F1F08518828519831234B49002F212319E
:102C54001DE8A3122C79120316EEFAEFFB12068874
:102C64007402121732E0F9740302468FEAF0A3EB00
:102C7400F0F9EA4922F07CF17D0285088285098316
:102C84001231352274E812175674FA1216E67404D7
:102C9400121732ECF0A3EDF08A128B13EA2405F537
:102CA4000EE43513F50FEA2402F510E43513F5119B
:102CB40085108212375B7508007C037D0079007AE9
:102CC400F17B02121174E50E2402F516E4350FF5BA
:102CD40017740212173C880C890D780C1219698537
:102CE4000E82850F83A3A3A3A3E0F50C750D0078D2
:102CF4000C121969E50E2405F50CE4350FF50D7871
:102D04000C1219698516828517831237A31216FCD3
:102D14008A0C8B0DE50C450D7003022E80802085F6
:102D24001882851983E088828983F00508851882D2
:102D3400851983A3E0C0E0122EBBD0E0F00508E5BE
:102D44000A24FBF8E50B34FFF9C3E50898E499403D
:102D540003022E807E007F00851282851383A3A345
:102D6400A3A3E0F509780912196DE4F514F51578B3
:102D7400141219697514EE751502781412196990F4
:102D840002EF1219807409121732121980E50A240D
:102D9400F9F9AC0CAD0D1237B51216FCE96003025B
:102DA4002E27850E82850F83A3A3A3A3A3A3A3E049
:102DB400F89002EEE068706BE0F5148E157814124A
:102DC400196912441A850E82850F83A3A3A3A3A3B2
:102DD400A3A3A31234B412116E74021216FCE96098
:102DE40042123E757034E4F51478141219697CFFAC
:102DF4007DFF79071237C41216FC8B15A915122E04
:102E0400D07017850E82850F831245A9740412179A
:102E140032123E621237D6022EAE850C82850D83A5
:102E2400122EB1A818A919881489157814121969D1
:102E3400740412173212198085168285178312378B
:102E4400851216FC8A0C8B0DEE4F7003022D18129E
:102E54002EBBEE122EC612376CEF122EC6F8A3E06C
:102E64003400F9E50C4B6003022D238882898374B6
:102E7400FFF00508122EBB74FFF00508E508601486
:102E84001313543F123123120328E96003123D89BE
:102E940079008016850E82850F831245A974041269
:102EA4001732123E62123AD9790A02373CA3A3A31D
:102EB400A3E0FEA3E0FF22A8089002F2E028123764
:102EC4006C22F00508089002F2E028229002F2EA4F
:102ED400F0A3EBF0EA492274E812175674FA1216BA
:102EE400E6740212173212311D7404121732ECF018
:102EF400A3EDF07402121732E02405123746F5836D
:102F0400E0F50CA3E0F50D7402121732E02402F58B
:102F140010A3E03400F5118510821234B87508004E
:102F2400750900EA24FCFEEB34FFFF8008050CE57C
:102F34000C7002050DA808C3EE98EF94005003022C
:102F440030CEA818A919880E890F780E1219698530
:102F54001482851583A3A3A3A31243F9121969E567
:102F6400142405F50EE43515F50F780E121969854C
:102F74001482851583A3A312441DAA0CAB0D12055C
:102F8400EC74061216FC8A0E8B0FEA4B70030230A7
:102F9400CEEA2404F516E4350FF517851682F58379
:102FA400E0F50CA3E0F50D851882851983121980CC
:102FB400AC0EAD0F8510828511831237521216FCA8
:102FC400E9F50960030230CE740212173212377C1D
:102FD400F509780912196DE4F512F513781212192E
:102FE400697512EE75130278121219699002EF12C4
:102FF40019807407121732121980EEF9AC0EAD0F56
:103004001237B51216FCE9F50960030230CEE50863
:10301400703BE4F50EF50F780E1219697CFF7DFF05
:1030240079091237C41216FC8B0FA90F9002F31200
:103034002ED3700D7404121732123110791102302C
:10304400FF9002EEE024029002F2F080149002F26B
:10305400E0FA9002EEE0790024025001096A497016
:103064006DA8089002EEE0FAE82AFAE43400FBEED8
:103074009AEF9B4055851682851783E0C0E0900245
:10308400F3122EC0D0E0F00508851682851783A3BD
:10309400E0C0E0089002F3122EC0D0E0F0050890E2
:1030A40002EE1243F912196912441AA808123102E5
:1030B4001216FC9002EEE02508F50874FF650C700A
:1030C4000474FF650D6003022F31E508601C900253
:1030D400F2E0F5F0E5088412312312032EE96006CC
:1030E4009002F3123D8C79008011E5097003750993
:1030F4000A7404121732123110A90902373C9002E3
:10310400F3E028FAA3E034001243D722124406E580
:103114000CF0A3E50DF022A3A3EAF0A3EBF02290B8
:1031240002F1F07CF17D0285108285118312313524
:1031340022123AC9FB2274EC12175674FC1216E6DA
:10314400123BE9740212174C850A82850B831233F1
:103154000970030231FA12320AA818A919881089D1
:103164001178101219697CFF7DFF790B850882851F
:1031740009831237CA1216FC123214700B850A82A4
:10318400850B831237D3807B8E828F83A3A3A3A363
:10319400E0F512781212196DE4F512F51378121293
:1031A40019697512F17513027812121969781012DF
:1031B400196974091217321219807409121732121C
:1031C40033028508828509831237BB1216FCE9FE97
:1031D40070157CF17D028508828509831234B4124E
:1031E4000334E97009801A74166E70027E00123D71
:1031F40089EE7004800B7E01850A82850B83123A66
:10320400D6EEF9023AEBEE2402F508E43FF5092282
:103214008A108B119002F2EAF0A3EBF0EA4B2274CD
:10322400EC12175674FC1216E6EAFEEBFF8C0E8DB8
:103234000FEA2405F508E43FF509740212174C85DA
:10324400088285098312330970030232F2EE2402E4
:10325400F50AE43FF50BA818A9198810891178100C
:103264001219697CFF7DFF790D850A82850B831213
:1032740037CA1216FC123214700B85088285098332
:103284001237D380768E828F83A3A3A3A3E0F51293
:10329400781212196D850882850983A3A3121980F7
:1032A4007512F175130278121219697810121969DE
:1032B4007409121732121980740912173212330268
:1032C400850A82850B831237BB1216FCE9FE700F48
:1032D4007CF17D021234AE12033AE97009801A744B
:1032E400166E70027E00123D89EE7004800B7E0122
:1032F400850882850983123AD6EEF9023AEBE0F9A1
:10330400AC0CAD0D22123AC18A0C8B0DEA4B22741F
:10331400E812175674FE1216E68A168B178C148D53
:1033240015EA2405F50CE43517F50DEA2402F50E2B
:10333400E43517F50F850E821234B88A088B0975A7
:103344000B007C037D0079007AF17B021211747505
:103354000A00E50814F5100424FFF508E50934FF14
:10336400F509804C9002F1E0FA9002EEE0F8EA28C8
:10337400F8E43400F9E50898E50999500D9002F154
:10338400E0F8E510C3989002EEF0E0F51275130032
:10339400781212196912441A9002F2E02A123107C3
:1033A4001216FC9002EEE0F89002F1E028F0050A13
:1033B400850C82850D83A3A3123D824003023493BE
:1033C4009002F1E0C39508E495094003023493AEFA
:1033D4000AEE2EFEE433FF1234D5AC18AD191244B4
:1033E40027E439FB1205F28A128B13AC12AD13EAEF
:1033F4004D701B750B011234C6123ADA9002F212A8
:103404002A6260031211E0A90B740202373E85168A
:1034140082851783A3A3A3A3E0F50B780B12196D80
:10342400E4F512F51378121219697512EE75130288
:1034340078121219699002EF121980740712173268
:10344400121980A910850E82850F831237BB1216BC
:10345400FCE9F50B70A0123E756003023368E4F5D5
:1034640012F51378121219697CFF7DFF790F850E0E
:1034740082850F831237CA1216FC8B13A913122EDE
:10348400D060030233681234C61237D702340D7C7D
:10349400F17D02850E82850F831234B4120340E954
:1034A4006003023400790002340D850A82850B839F
:1034B400123135221234BC22F583123AC9FB1204AC
:1034C4000C221234D5123AC9F9EA8514828515837F
:1034D40022850C82850D83E02EF8A3E03F8882F5D7
:1034E400832274E812175674FA1216E6740412173B
:1034F4003212311D8C168D177404121732E0240514
:10350400F50EA3E03400F50F7404121732E0240220
:1035140012374612375B7F007E00A818A919880865
:1035240089097808121969850E82850F83A3A3A3DC
:10353400A3E0F5088F097808121969E50E2405F54A
:1035440008E4350FF5097808121969850E82850F8C
:1035540083A3A31237A31216FC8A0C8B0D802412AA
:103564003776F00F123776F00F9002EE123AAC1263
:10357400196912441AEFF81231021216FC9002EE85
:10358400E02FFFE50C450D607A85188285198312BA
:103594001980AC0CAD0D8514828515831237521237
:1035A40016FCE9FEE50C2404F510E4350DF511E9EB
:1035B400704B740412173212377CF508780812190C
:1035C4006DE4F508F50978081219697508EE7509AE
:1035D4000278081219699002EF1219807407121701
:1035E40032121980E50A24FAF9AC0CAD0D85148267
:1035F4008515831237BB1216FCE9FE60361237922A
:10360400123AD9EF70030237299002F2E0F5F0EF95
:10361400849002F1F07CF17D028514828515831279
:1036240034B4120346E960069002F3123D8C79002B
:1036340002373CEFF508703DE4F512F513781212E9
:1036440019697CFF7DFF79118514828515831237F2
:10365400CA1216FC8B13A9139002F3122ED370090D
:103664001237921237D602373C9002EEE0240490CF
:1036740002F2F080359002EEE0F89002F2E0FCE80D
:103684002404FAE43400FBEA6C4B600302360DE5D3
:103694000A24FAFAE50B34FFFBE50828F8E43400C1
:1036A400F9EA98EB99500302360D8510828511834F
:1036B400E0C0E09002F3E02FF8A3E034008882F544
:1036C40083D0E0F00F851082851183A3E0C0E0125F
:1036D4003763D0E0F00F740212173C880889097828
:1036E400081219697402121732121980850E828524
:1036F4000F83A3A31237851216FC8A0C8B0DEA4B99
:1037040070030235637402121732E0C0E0123763AB
:10371400D0E0F00F7402121732A3E0C0E012376356
:10372400D0E002356BEE70027E0A850E82850F832F
:10373400123798123AD9EEF974061216FC7F100269
:103744001828F514A3E03400F515851482221231EB
:10375400351205DA7402221234BC8A0A8B0B221247
:103764003767229002F3E02FFAA3E034008A82F54F
:10377400832212376774FF22124406A3A3A3A3E093
:1037840022124421AA0CAB0D1205F87404228510F0
:10379400828511831245AFF985168285178322121B
:1037A4004421850E82850F831231351205EC74068F
:1037B4002285108285118312313512075A74092229
:1037C4008510828511831231351206C474022212C7
:1037D4003ADFE8F0A3E9F079112274EA121756747B
:1037E400FE1216E68A088B098C128D13EA2405FE54
:1037F400E43509FF123AB58A0C8B0DEE2406F50E5A
:10380400E43FF50FEA4B70030238C4E5082402F5DF
:103814000AE43509F50B8A828B83A3A3A3E0A2E50E
:1038240050221238EE8A108B11EA4B60247912ACC4
:103834000CAD0D1234AE851082851183121754E934
:10384400F50C707F850E82850F83E06009795280C4
:1038540011750C0E806D850882850983A3A3A3A32B
:10386400E0F9E4F508F50978081219698E828F8366
:10387400A3A3E0F50878081219698E828F83A3A3A5
:10388400A31219808E828F8312441D850A82850BB0
:1038940083123BFB1216FCE9F50C7011850E828530
:1038A4000F83E0702C1234AE12034C80247416691A
:1038B4007011750C007418121732124402E480104F
:1038C400750C011245A5851282851383E8F0A3E9DE
:1038D400F0850E82850F83E0600479008002A90CD4
:1038E40074021216FC7F0E0218288518828519832B
:1038F40012313512074E2274EC12175674F7121651
:10390400E68A0A8B0B8C108D11EA2405FEE4350B34
:10391400FF750C00123AB58A088B09EA4B70030252
:103924003A97E50A2402F50A5002050B8A828B8332
:10393400A3A3A3E0A2E550251238EE8A0C8B0DEA6E
:103944004B604F7912AC08AD091234AE850C8285F8
:103954000D83121754E9F50C6003023A9A850A8222
:10396400850B83E0F508A3E0F509AA08FB120742DA
:10397400EA4B70197AFF7BFF120742EA4B7003028D
:103984003A8D8A828B83E508F0A3E509F075080077
:103994008008750C0E023A9A05089002EBE0F8E5EF
:1039A40008C3984003023A8DE508F50E750F0074BC
:1039B40003780E1216D38A828B83A3A3E0250EF814
:1039C400A3E0350F123E6A70CF8E828F83123ACEF7
:1039D40012311D8E828F83A3A3123ACE12311BEEB5
:1039E4002404F508E43FF509850882F583E088821C
:1039F4008983A3A3A3A3F0A3E4F0EE2405F50EE4C6
:103A04003FF50F850E82F583123ACEA3A3A3A3122A
:103A1400311B7512077513007812121969EEFCEF49
:103A2400FD74041217441243D81216FCE4F51278FC
:103A340012121969850882850983E0FC7D007917D3
:103A4400850A82850B831237CA1216FC7407121773
:103A54003212321B6038850882850983123AAC120F
:103A64001969850E82850F8312441D1243D81216DC
:103A7400FC740212174C1234AE120352E960237420
:103A840007121732123D8C8019750C098008750CC9
:103A9400118003750C011245A585108285118312CE
:103AA4003AD9A90C74098041E0F508750900780831
:103AB40022AC18AD198E82F583123AC122123AC98A
:103AC400FB1205F222E0FAA3E02212313588828942
:103AD4008322123ADFE8F0A3E9F022E0F8A3E0F948
:103AE400850E82850F832274041216FC7F0C021843
:103AF4002874EC121756123BE9751000EA2402F5FB
:103B04000CE43FF50D850C82F5831234B4120742A0
:103B14008A088B09EA4B7003023BCD850A82850B28
:103B240083E064016003023BC2AC08AD09AA0AAB9E
:103B34000B120736E9606F850882850983122EB35C
:103B4400EE2406F50AE43FF50B8E828F83A3A312BD
:103B540019808E828F83A3A3A3A3121980850A825E
:103B6400850B8312198079188E828F8312441D85E8
:103B74000C82850D83123BFB1216FCE9F87416685F
:103B8400700B850A82850B83E4F0A38014E960122C
:103B94008E828F831234B4850E82850F83EAF0A35C
:103BA400EBF089108018780E121969AC08AD09EE93
:103BB400FAEFFB12073C74021216FCE9F510AA088E
:103BC400AB09120748E510700E850C82850D83122F
:103BD40034B412035880097416651070037510000C
:103BE400A910023AF0EAFEEBFF8C0E8D0FEA2405D1
:103BF400F50AE43FF50B22123135120760740622F0
:103C040074EA1217567508007509007E007F007566
:103C14000A00EC2402F510E43DF5118035EC65084A
:103C24007003ED65096003023CB988828983A3A30C
:103C3400E06A7003A3E06B707C88828983A3A3A3EA
:103C4400A31245A9EE28FEEF39FFEA28FAEB39FB67
:103C5400050A123D7F503BE50AF50C750D0074030F
:103C6400780C1216D3851082851183123D72123E90
:103C74006A601FE508450970A48C088D098882894B
:103C840083122EB188828983A3A3E02EFAA3E03F96
:103C940080BDE50AC394025003023D6D75080075AA
:103CA4000900EE4F600FEEFAEFFB1211DA8A0E8B69
:103CB4000FEA4B70057900023D6F750B00807FE5BC
:103CC4000BF50C750D007403780C1216D385108255
:103CD400851183E0250CF50CA3E0350DF50DE50CFD
:103CE4002406F514E4350DF515851482123E6D6035
:103CF4003AE50C2404F512E4350DF513851282F52A
:103D040083121980E50E2508FAE50F1243D1121625
:103D1400FC851282851383E02508F508A3E03509A4
:103D2400F509851482851583123D8CE50B600D7CA5
:103D3400087D007900AA0CAB0D121174050BE50B7C
:103D4400C3950A5003023CC3851082851183124532
:103D5400A98882F583A3A3A3A3A3A3E50EF0A3E5F7
:103D64000F122A69EEF0A3EFF079010238E9123D4F
:103D74007622E0250CF8A3E0350D229002EBE0F862
:103D8400E50AC398229002F21231351211E022742E
:103D9400F01217568A0E8B0F8C0A8D0B750D007559
:103DA4000C00804A7916EE2406F508E43FF5098EE6
:103DB400828F83A3A31219808E828F83A3A3A3A3CC
:103DC400121980850882850983121980850E8285DF
:103DD4000F83A3A3123BFB1216FCE9F50D741669BD
:103DE4007064850882850983E4F0A3F0050C9002D1
:103DF400EBE0F8E50CC398505EAA0C7B008A088BB4
:103E040009740378081216D3850A82850B83A3A349
:103E1400123EC4E8FEE9FF123E6B603BEA24010A4D
:103E240050010B9002EBE06A7001EB601488828908
:103E340083A3A3A3A3A3A3A3A3123E786003023D79
:103E4400A87918023DAAE960A31245A574101217B7
:103E540032123E62123AD9A90D7F08021828123A8A
:103E6400C9F5838A8222F98882F583124421EC4DB4
:103E7400229002F21245AFF9E8492274F61217565D
:103E84007C0080010C900348E0F8ECC398501FECD0
:103E9400F508750900740278081216D3123EB9E0C9
:103EA4006A7003A3E06B70DCE8FAE9FB80047A0033
:103EB4007B00023F559002E9123EC48882F58322BA
:103EC400E02508F8A3E03509F92274F21217568A9E
:103ED400088B09750A0080278E828F83A3A3A3A36E
:103EE400122A6060031211E07C087D007900EEFA6A
:103EF400EFFB1211748E828F83E4F0A3F0050A1293
:103F04003D7F5028E50AF50C750D007403780C12FA
:103F140016D3850882850983A3A3E0250CFEA3E0BC
:103F2400350DFF8E82F583123E7870AC850882854C
:103F3400098374FFF0A3F002469274F61217561226
:103F4400454670067A007B008007A3A3A3A312341E
:103F5400B47F0202182874F6121756E9FE8C828D7B
:103F640083E06402703D124536F508A3E0F9A80821
:103F74007402687003742969702975080275090050
:103F84007808121969740E121732121980740E12FD
:103F94001732121980EEF912106674061216FCE933
:103FA400F98002790180AA74E812175674FB12167C
:103FB400E6E9851882851983F08A168B17ECFEEDE5
:103FC400FF7510008C82F583A3A3A3E0A2E4502A1A
:103FD400741D1217321238F48A828B83E58245836A
:103FE40070030243C7790AEEFCEFFDAA16AB171261
:103FF4001754E9F51060030243CA741F121732E024
:10400400F508A3E0F5097421121732E0F50AA3E0DC
:10401400F50B7423121732E0F50EA3E0F50F8E8230
:104024008F83E064026003024373A31245A98508E9
:1040340082850983A3858212858313EE2406F50CF9
:10404400E43FF50D88828983124427F514E439F599
:104054001578141219F30100002801288240070082
:1040640002284E410328B74000296F4201299A4291
:104074000229384203296F42042910437343E50E91
:10408400450F600302436E850C82850D831245A99A
:10409400E8FAE98882F583E0850A82850B83124475
:1040A400311243DE1219698A828983A3E0FCA3E0FA
:1040B4000242FCE50E450F600302436E850A8285C9
:1040C4000B837401F012440F850882850983F07C08
:1040D400007D008E828F83A3A3A3A3E02401FAA30F
:1040E400E03400FB1205F2EA4B60458A828B83E0E0
:1040F4002402F8850A82850B83E028F0EA2404F878
:10410400E43BF98882F583E08512828513831244A7
:1041140037F08A828B831243DE1219698A828B8379
:10412400A312441DE5082403FAE43509FB02430104
:10413400850A82850B83E02404F07C047D007900E9
:10414400AA12AB131211740243CAE50E450F6003A1
:1041540002436E12440FFEA3E0FF850A82850B839F
:104164007404F0EE850882850983F0EF8512828558
:104174001383F0740312174C12452870030242197A
:104184008A828B83A3A3122EB1740112173C880E6A
:10419400890F780E12196974051217321219807C6E
:1041A400FF7DFF1205F874041216FCEA4B70338588
:1041B4000C82850D831243F9121969850C82850DD1
:1041C40083A31219807C027D007A907B8F1203FAFC
:1041D40074041216FCE9700A740112173274FFF0A9
:1041E400A3F08E828F83E064027034750C02750D27
:1041F40000780C1219698E828F83A312441DE5087E
:104204002404FAE41243D11216FC850A82850B8336
:10421400E0240280097401121732EEF0A3EFF07467
:10422400011217321243EFF07401121732A3124332
:10423400E7024368E50E450F600302436E850C8276
:10424400850D8312440212441DAA16AB1712106C7A
:10425400850A82850B837402F0850882850983EAC6
:10426400F0851282851383EB02436BE50E450F60E4
:104274000302436E12440FF8A3E0F9850A82850B0A
:10428400837402F0E8850882850983F0E985128247
:1042940085138302436B850C82850D831234B4121B
:1042A4001156EAF8C3950EE4950F405AEA650E4597
:1042B4000F700478008021851882851983E0FCE55D
:1042C4000E2CFCE4350FFDC3EC9AED94005003E092
:1042D4008005E50EC8C398F8E8850A82850B83F04B
:1042E400F50A750B00780A121969850C82850D830D
:1042F400E0250EFCA3E0350FFDAA08AB091243D854
:104304001216FC0243CA7510070243CAE50E450F94
:104314007058850C82850D831245A9850A82850B08
:104324008374071244311243E7124431A3E0851227
:1043340082851383F0E82402FAE439FB8A82F58348
:104344001243E7A31229481243EF122A681243F3D7
:10435400F0E82405F8500109F58289831243F3A398
:10436400124437A3A3A3A3F0805C75100B80577489
:104374001D12173212453F604A1245AF880CF50DE5
:10438400E8450D603E7425121732E0F510781012DE
:10439400196D780E121969780A12196978081219B8
:1043A400697407121732E0F9EEFCEFFDAA16AB1799
:1043B400850C82850D8312175474071216FCE9F5D7
:1043C40010800375100EA910740502373E350912CA
:1043D40043D722FB12115C740222E0F50A750B002C
:1043E400780A22E085088285098322124441221238
:1043F4004441A3A322E0F50E750F00780E22124467
:104404000622E0F8A3E0F583888222850C82850DDC
:1044140083124406E0229002EF12442122E0FCA31E
:10442400E0FD22123AC9F8E4C8F9EA2822F08882A9
:10443400898322F088828983A312444122E085087B
:1044440082850983A3A32274EE12175674FE1216F2
:10445400E68A088B09ECFEEDFF890AAC18AD191247
:104464004528700302451985188285198312453F32
:104474007003024514A31245AE880EF50FE8450FEC
:1044840070030245147414121732E0F510A3E0F51A
:1044940011E50AF50B780B12196D74191217321203
:1044A40019807810121969741B121732123302AA78
:1044B40008AB09850E82850F8312175474051216F2
:1044C400FCE9F50B705274FE650A604C850C82851C
:1044D4000D83E064027041124536FAA3E0F9EAF86C
:1044E4007402687003742969702E851082851183A3
:1044F400124427F50CE439F50D780C121969EEFC19
:10450400EFFDAA08AB0912077874021216FC8008A2
:10451400750B0E8003750B01A90B74021216FC7F38
:104524000A021828EEFAEFFB1205F28A0C8B0DEA48
:104534004B221245AE8882F583E0221231351245B2
:1045440046221206F48A828B83E58245832274F61E
:1045540012175674FE1216E6740C1217321245A97D
:10456400E8851882851983F07401121732E9F0E4A2
:10457400F508F509780812196975080278081219FE
:1045840069740412173C8808890978081219697932
:10459400FE12076074061216FC74021216FC023F27
:1045A400558E828F831245AFF922A3E0F8A3E0224F
:1045B40074F7121756EAFEEBFF89089003061244BB
:1045C4001D12106CEA5402600BA908EEFAEFFB12FC
:1045D40005E6800279017F0102182874F212175649
:1045E40074FE1216E6EAFEEBFF74016960137402AE
:1045F40069600302468D7901120976E96003024677
:104604008DEEFAEFFB120742EA4B6003120748A84B
:1046140018A9198808890978081219697508027592
:104624000900780812196975088A75098F780812C3
:1046340019697CFF7DFF7A017B001205EC74061278
:1046440016FC803B850882850983A3A3A3A3A3A3A7
:1046540012440212441DEEFAEFFB121060E4F50C52
:10466400F50D780C12196974021217321219807C34
:10467400FF7DFFAA08AB091205F874041216FC8A20
:10468400088B09E508450970BB74021216FC7F0605
:1046940002182874F41217568A088B09ECFEEDFFF1
:1046A400901627E0F460487A097B00121180EA4BE7
:1046B400603D8A828B8374B1F0A3E41246F612291A
:1046C40049A3E508F0A3E5091246F6A3EEF0A3EF2B
:1046D400F0740C1217321245A98A828B83A3A3A308
:1046E400A3A3A3A3123AD9901627E0F912118C02BE
:1046F4002A9EF08A828B83A3A3A3A322C082C083B1
:104704009061907404F0A37448125D1790618074F2
:1047140040F09061BC7407F09061877469F0906117
:10472400B67416F07900120A907902120A9690274C
:1047340084E493F46006E493F9120A6C7905120D8B
:10474400A2024CD4C082C083E9540FF9906185E081
:10475400696012E5C654B84441F5C6E59E54476401
:104764004170F8E9F053C6B8E59E544770FA024C1C
:10477400D474F7121756AEA853A87E120A78C2BA98
:10478400539AFEC289759B00C2C2120A7E75A91192
:1047940075B905120A84D2BA439A0174805E42A89C
:1047A400024F37C082C083906181E4F0A3024CCBF6
:1047B40075E90075910075BF00020132C082C083A3
:1047C400906181E4F0A374C0F0A3E4024CCDC082F4
:1047D400C08374F81216E6900378126059700302CD
:1047E400487B900378E0544060177908AA18AB1905
:1047F400120B92AA18AB191207DE900378E054BF8B
:10480400F0E054806010790C7A477B05120B92908B
:104814000378E0547FF0E0A2E05008790012488366
:1048240054FEF0E054026008790112488354FDF00C
:10483400E054046008790012488E54FBF0E05408F8
:104844006008790112488E54F7F0E054106008793A
:104854000212488E54EFF0E05420600879031248A5
:104864008E54DFF0A3E05401600D120AA21207F087
:10487400900379E054FEF074081216FC024CD41232
:104884000A901207E4900378E022120A961207EACB
:10489400900378E022C082C083E9600514602A8016
:1048A4004F90619A7433F0A37455F09061A0743AF8
:1048B400F0900521E064017009C29190037A746755
:1048C400802D90037A7461802690619A743FF0A3DE
:1048D400745AF09061A0747FF0900521E064017037
:1048E40009D29190037A7471800590037A746AF006
:1048F400024CD4C082C083E9600B14600D146017AD
:1049040014600C802090278880159027898010904F
:104914000521E06401700590278A800390278BE4C9
:1049240093906186F0024CD474EC12175674F4120E
:1049340016E6908EF2AC18AD1974041215F990278E
:104944008893F46003024A4F907808E0C3940250BD
:1049540003024A33908EBD740412174C7408121566
:10496400F97F00750CFF750DFF750EFF7E00EFFCDF
:1049740025E0F8E433F97404121732E58228F5824D
:10498400E58339F583E0F512A3E0F513800F74088D
:104994006E605B74096E6056740A6E6051EEF508C1
:1049A400750900740278081216D3124A5912159226
:1049B400A909E50AC9F510741878081214BBE510A2
:1049C4004508F8C3E51298E51399400AE512C3981F
:1049D400F8E513998008E8C39512F8E99513F9C32B
:1049E400E8950CE9950D5006880C890D8E0E0EEE97
:1049F400C39413409974FF650C700474FF650D60D3
:104A040024E50EF508740278081216D3124A5912D6
:104A14001592851882851983E5822CF582E4358305
:104A2400F583E508F00FEFC394045003024967755A
:104A340008017509007808121969740212174C7A72
:104A4400E27B091210B474021216FC740C1216FCE8
:104A54007F0C02182874482508F58274783509F506
:104A640083780822C082C083906186E0F890278B07
:104A7400E49368700990278AE493906186F09061CA
:104A8400AE7468F0A3746AF090624574FBF0A304FA
:104A9400F053F4FD43FE029005217401F09061A0EF
:104AA400E0643A7004790080027901120A90024CA1
:104AB400D4C082C0839004D3E06401700A9004D807
:104AC400E06004790C80027900024CD4C082C08377
:104AD40075E1F19004D6E060541460091460581430
:104AE4006050147057120AB49004C5E0F97AC67B7A
:104AF40004120D24908EFA1215B0120D5A908F36AE
:104B04001215B0120D309004D7E0F9120D3C790162
:104B1400120D969004C3124E2F241AF582E438F530
:104B24008374CCF0A3740AF07900024CD4120ABA4C
:104B340080B6120AC080B1120AC680AC791280EA2B
:104B440074F412175675D90D9004CCE0A2E0E43346
:104B54001313F8124BE9484401F5D97800124C5B61
:104B640040FB7800E8FA74CD1255473404124C65C2
:104B740040F275E1959004CCE0F97ACD7B04120DF6
:104B84002A90164B7442F0A3740A124C70124CBA59
:104B9400124CB1124DF79004D6E064019004C37036
:104BA4000B124BF3121592908EFE8009124BF312E6
:104BB4001592908F027808121506908F0A780812C1
:104BC400156C9004C3124E2F124CA878081215A12C
:104BD4009004C3124E2F124C9F7413F090037674FA
:104BE40002F0025C6F9004C5E0C4333354C0221257
:104BF4005B8AA3A3780822C082C083124DB38AD9EA
:104C04007800E8FC74C62C124C6040F67800800DE5
:104C1400E8FC74DD2CF582E43404124E86E8C39972
:104C240040EE124DA5124C5B40FB780080081255F3
:104C3400433404124E86E8C39940F375E195901607
:104C44004B744EF0A3740A124C70124C7A7412F026
:104C540090037674018072E8FA74C62AF582E4340B
:104C640004F583E0F5D908E8C3940622124DE074F4
:104C740048F0A3740A22124CBA124CB1124DFB90A4
:104C840004C3E0F8A3E0C8124CA874FF12553B908B
:104C940004C3E0F8A3E0C8124C9F222414F582E474
:104CA40038F58322240EF582E438F58322F0A374C8
:104CB40060F0A3740A22124CBE22124CC222F0A34A
:104CC40074FEF0A3740B22F0A3F08004A2E092AF70
:104CD400D083D082020132C082C083124D20124B95
:104CE400E94402F5D97800124C5B40FB7800800C53
:104CF400E8FA74DD1255473404124E86E8C399402D
:104D0400EF75E19590164B124D2BF0A3124D2B121B
:104D14004C7D7414F0900376740480AD9004DCE050
:104D2400F9740729F5D922745A124D38124D38F006
:104D3400A3740A22F0A3740AF0A3745A22C082C096
:104D440083124DB374064AF5D97800E8FC74C62C76
:104D5400124C6040F67800800DE8FC74DD2CF5827E
:104D6400E43404124E86E8C39940EE124DA5124C69
:104D74005B40FB780080081255433404124E86E8E9
:104D8400C39940F375E19590164B7454F0A3740ADB
:104D9400124DD6124C7A7415F09003767403024CBB
:104DA400CD9004FC124D2374044AF5D978002212E4
:104DB4004D209004C5E0C4333354C0FA22F582E494
:104DC40039F583E0F5D90AEAC322EE28F8E43FF97D
:104DD400E822124DE074FEF0A3740B22124DE4227B
:104DE400124DF174FEF0A3740B124DF122124CC259
:104DF400F0A322124DFB22F090165974FEF0A37416
:104E04000B124DE474FEF0A3740B124CBEF022C0DE
:104E140082C0839004C3124E2F2406F582E438F531
:104E240083E4024CCB851882851983E0F8A3E0C89B
:104E34002274F71217569003A4125C7474A628F80F
:104E4400740339F9E82405FAE439125F05A3A3A32E
:104E5400A3A3A3A3A3A3126003A3A3A3A3A3A3A392
:104E6400E024FFF8A3E034FFF98A828B83125C0DFF
:104E7400024F377F06021828E8FA74272AF582E4DD
:104E84003405F583E0F5D90822EAFEEBFF12512B35
:104E940022EAF8EE28F8E43BF9E822124DC1940422
:104EA4002274F7121756EAFEEBFF9061D0E07064AB
:104EB40075D90E75D90375D9047A00124E95248DCF
:104EC400124F2B40F67A00124E952485124E9F40C5
:104ED400F675E1957908EE248D124F242485124F3E
:104EE4001C7C00ECF8C3E498FA95E0FBEE2AFAEF98
:104EF4003BFBEA248C125DFCC0E0124DCE24ACF5E1
:104F040082E439F583D0E0F00CECC3940840D41269
:104F1400504680027900801BFAE43FFB120B862284
:104F2400124F1C7904EE22124DC1940822A2E09281
:104F3400AF79007F01021828C082C08375D9027539
:104F4400D90375D90575E195EA246FF582E43B121E
:104F54004FB6EA2471F582E43B125059024CD474E2
:104F6400F6121756EAFEEBFF9005277406124FD18E
:104F74001219697C017903125FBA1216FC75D906FD
:104F840075D9037800124FBC40FB75E19590037608
:104F9400E064087016EE246FF582E43F124FB6EE1B
:104FA4002471F582E43FF583125C0D7901025234D9
:104FB4008882F583125BE422E8FA74272AF582E4F6
:104FC4003405F583E0F5D908E8C3940522F07508A3
:104FD4002775090578082274F6121756EAFEEBFFC6
:104FE4009061D0E0704F7801900527740BF0900326
:104FF40076E0640770177508277509057808121993
:10500400697C017903125FBA1216FC7805740128D1
:10501400F5D975D9037900800FE9FA742712554739
:105024003405F583E0F5D909E9C39840EC75E195B9
:105034001250468002790002523475E195790412C7
:105044000D60EE246FF582E43FF583125BE4EE24F9
:1050540071F582E43FF583E8F0A3E9F07901227465
:10506400F7121756EAFEEBFF75D90375D90375D904
:105074000DEA24DF125083F5D912503E024F37F562
:1050840082E43FF583E0227F0302182874F51217A7
:10509400561251136004780F8002780BEAC39812F9
:1050A40052C54041750A099005277409F079081220
:1050B40050F96014750827750905780812196912E2
:1050C4005FB21216FC750A0D1250ED8003124E7C6D
:1050D400E8C3950A40F775E1957904120D60125200
:1050E40039790180027900809E7401250AF5D97509
:1050F400D903780022EE24E4FCE43FFD7A287B0502
:1051040012510822120B80850882850983E022123D
:105114005127FAEE2484F8E43F8808F5098882F5DB
:1051240083E022EAFEEBFF9061D0E0F87480C3983C
:105134002274F21217561251A160047A0C80027A7A
:10514400081252C24052750A06900527740CF0905A
:105154000393E0900528F079027C947D037A297BFF
:1051640005120B8079027C967D0312510860167536
:10517400082775090578081219697C06125FB412AC
:1051840016FC750A0A1250ED8003124E7CE8C39592
:105194000A40F712503E80027900024E77125127DE
:1051A400F8EA2484F508E43FF509850882F583E0EC
:1051B4002274F6121756124E8DFAEE2484F8E43F48
:1051C400F98882F583E060047C0880027C04EAC3E9
:1051D4009C1252C540587A02900527EAF0EE24F654
:1051E400F582E43F1252476019750827750905785E
:1051F400081219697C027903EEFA125FBA1216FCDE
:105204007A0674012AF5D975D90378008008E8FC78
:1052140074272C124E81E8C39A40F375E19512521B
:10522400397904120D60EE240D1250498002790080
:105234007F02021828EE241DF582E43FF583E4F092
:10524400A3F022F583E0900528F088828983E02288
:1052540074F6121756124E91FCEA2484F8E43BF9D2
:105264008882F583E060047E0880027E04ECC39E9D
:105274001252C540447C029005277407F0EA24F7D3
:10528400F582E43B125247601575082775090578C5
:10529400081219697903125FBA1216FC7C067401AC
:1052A4002CF5D975D90378008003124E7CE8C39C91
:1052B40040F875E195790180027900025234E8C31F
:1052C4009A95E0C365D0332274F71217568908A261
:1052D400AFE433FFC2AF7E00EA246EF8E43BF9800A
:1052E400010E88828983E0FCEEC39C5018EEFCEA30
:1052F4002CFCE43BFDEC246AF582E43DF583E06597
:105304000870DE8010EA2CFAE43BFB125387E508B0
:1053140012524D04F0EFA2E092AF024F37C082C0A8
:1053240083A2AFE433FDC2AF125DF914F07C00EC4C
:10533400F8EA124E98246BF582E439F583E0C0E074
:10534400E8246AF582E439F583D0E0F00CECC394E8
:105354000340DCEA246DF582E43BF58374FF1253C9
:1053640091ED024CD0C082C083A2AFE433F8C2AF47
:10537400125387E9125391125DF970037401F0E836
:10538400024CD0EA246AF582E43BF58322F0EA2455
:1053940069F582E43BF583E4F02274F01217568C2D
:1053A400828D83A3A3A3A3E0541FF0EA2436125DE5
:1053B4009A8882F583E4F0750C00E50CF50AEC2577
:1053C4000AF8E43D8808F5098882F583E0C0E0EA3C
:1053D400250AF8E43BF9E8245DF582E439F583D045
:1053E400E0F0750A00850882850983E0F50E750FE3
:1053F40000E50A780E1216B4E50EA2E05027E50C7B
:1054040033333354F8250AC0E08E828F83E0F8EA00
:10541400124E982438F582E439F583D0E0F08E8278
:105424008F83E004F0050AE50AC3940840B7050C2D
:10543400E50CC3940540837F08021828C082C0830A
:105444009003A2E06401700302553378009003A82E
:10545400E06003025533125D15A3F090040804F0D4
:1054640090040DF09003AB12553A9003B504F090FC
:1054740003DBE4F09003BE12554CA3F0900426F035
:1054840090041AF0900429F090040E7480125D17B1
:10549400900414F090049212555C90049BF09004D4
:1054A4002AF090047A12555CA3F0A3F0900486F0DD
:1054B400900488F0900484F090049E12555C90044B
:1054C400B1F09004AB12554C74FF9004107904F0C1
:1054D400A3D9FCE8FA74B61255473404F583E0C046
:1054E400E074031255473404F583D0E0F008E8C3B0
:1054F400940540DF7800E8FA748A1255473403F5BE
:1055040083E0C0E0748A1255473404F583D0E0F098
:1055140008E8C3940840DF9003A2E004F06401703B
:10552400089003AAE09003A4F07AA67B0380047A8F
:10553400007B00024CD4E4F0A3F0A3F0A3F022E833
:10554400FA74FD2AF582E42212555022F0A3F0A346
:10555400F0A3F0A3F0A3F022125550A3F0A3F0227D
:10556400C082C083EA2403125DFC6008E4F0900367
:10557400A3E014F09003A2E014F070069003A47466
:10558400FFF08A828B83A3A3E4F09004BBE0700D48
:105594009003A3E0640170057900120D42024CD41B
:1055A400C082C0839003A9E4F09003A8F09003A202
:1055B400F0A3F0A374FFF075E1F1024CD474E81287
:1055C400175674E41216E6851882851983125C173F
:1055D400F5838882124FB88882F583A3A31215BC81
:1055E40074121217321215C888828983A3A3A3A345
:1055F400A3A3124FB87416121732125C22240B1292
:105604005EF57410121732125C22240D125EF574CA
:105614000E121732125C222407125EF5740412175C
:1056240032125C0D743412173212197C741612176C
:10563400321215B01224CE74041216FCE96003026F
:105644005B18125BC112197C74381217321215B030
:1056540012252A74041216FC8A088B098C0A8D0BF5
:10566400851882851983E02405125EF5740A1217E1
:1056740032125C0D740A121732125C02851882858C
:105684001983E02474125EF57408121732125C0D4B
:105694007408121732125BA6F8851882851983E004
:1056A400242EFCA3E03400FD7402121732ECF0A3A4
:1056B400EDF0E870030259CA851882851983E0F970
:1056C400A3E0C92475F582E439F583E0C39AF50CA7
:1056D400A3E09BF50D851882851983E0240EFAA3B7
:1056E400E03401FB740C121732EAF0A3EBF07402FD
:1056F400687004740C80027402121732125BB7854E
:105704000C14850D15751600751700E4F512F513C4
:10571400781479101213CC741812173278141215E5
:10572400A1125BC1781012159274181217327810F6
:10573400121506781012196574381217321215B042
:105744001224CE74041216FCE9700302599C8518C5
:1057540082851983E0247A125EF5740612173212D8
:105764005C0D7406121732125BB7E4F512F513746C
:10577400181217327808121540780879101214F3A9
:10578400908F3E7808121506851014851115851220
:10579400168513177808791412144C850814850992
:1057A40015850A16850B17781479101213CCE50C9D
:1057B4002508FEE50D3509FF740A121732125BAF96
:1057C4003FF97404121732125C0A7418121732C0AB
:1057D40082C083124E292478F582E438F583E0F5FB
:1057E4000CA3E0F50DE4F50EF50FD083D082780C10
:1057F400121506780C79141214F374081217321265
:105804005BA664016003025A0C851882851983E043
:105814002477F510A3E03400F511AC10FD8518824F
:10582400851983125DA9120B56851882851983E0A8
:10583400247CF508A3E03400F509850882F5831279
:105844005DA9124E292420F582E438F583125C17F1
:10585400C8241CF582E438F583E4125C13F8A3E051
:10586400C8241DF582E438F583E4F0A3F07404122F
:105874001732125C02740E121732125BA62AFAA3B4
:10588400E03BFB7410121732125B86EAF0A3EB12B2
:105894005C13247EF516A3E03400F517851682F513
:1058A40083E0F514A3E0F5157406121732125BA613
:1058B400FCA3E0FD851882851983E02430F512A34A
:1058C400E03400F513851882851983E02432F50A43
:1058D400A3E03400F50B7402121732125BA66C704D
:1058E40003A3E06D701D850A82850B83E065147047
:1058F40004A3E06515700C125B76E0687003A3E006
:10590400696032740478141216C478141219698503
:105914000882850983121980EDC313FDEC13FC740E
:1059240004121732125B97A3A3E0FA7B0012084417
:1059340074041216FC7402121732125C02740C12F4
:105944001732125B9D851082851183E0C0E0124EF0
:1059540029242BF582E438F583D0E0F0740612177D
:1059640032125C027402121732125B9D125B7612C1
:105974005C0D851682851783124FB8850A82850BC4
:1059840083125C22FAA3E0FB120B5C740812173238
:10599400125B867402F080707402121732125BEA92
:1059A4001214F3908F3E780812150685120E851393
:1059B4000F7808790C12144CAE08AF09740A121748
:1059C40032125BAF80287402121732125BEA12148F
:1059D400F3908F3E780812150685120E85130F7802
:1059E40008790C12144CAE08AF09EA2EF8EB3FF913
:1059F4007404121732125C0A8E0C8F0DE4F50EF546
:105A04000F780C79101213CC125BD7E8FAE988826C
:105A1400F583A3A3A3A3A3A3A3A3850C08850D09BE
:105A2400850E0A850F0B78081215067412121732A8
:105A340078081215A18A828983E064407070124E3E
:105A4400292418F582E438F583780C1215A18518F9
:105A540082851983E02412F508A3E03400F509785F
:105A6400081219697402121732124E2F2410F5828B
:105A7400E438F583121980EE24FFF50AEF34FFF5BC
:105A84000B780A1219697408121732125BA6F50A08
:105A9400A3E0AA0AFBE4FCFD12266A74061216FCB3
:105AA400AC08AD0974121217441225A880097416A3
:105AB400121732E4F0A3F0125BD78882F583A3A314
:105AC400E82408FCE439FD74061215F9741212175F
:105AD40032C082C083851882851983125BA6240292
:105AE400FCA3E03400FDD083D08274061215F912B1
:105AF4004E292435F582E438F583E0C0E0124E29BE
:105B04002434F582E438F583D0E0125C13FAA3E080
:105B1400FB121B487410121732125B86C082C083BA
:105B24007404121732125BDDD083D082E0C398FA7A
:105B3400A3E099FB851882851983E0240CF8A3E07F
