:020000040000FA
:06000000020107021FC00F
:03002B00022408A4
:030033000224287C
:0300530002203652
:03007B000223C598
:10008300021E6FE5C754F84401F5C7790122000049
:100093000080FB120086B900030200F1E479437883
:1000A3000DB800028004F709D8FCE479507802B84F
:1000B30000028004F709D8FCE490028178F47908FF
:1000C3008002F0A3D8FCD9FA7A747B0A90013778BE
:1000D3007A79038015E493A3AD82AE838A828B83FE
:1000E300F0A3AA82AB838D828E83D8E9D9E7758288
:1000F300A675837F7400120119758291758300744C
:100103000012011975D00075815F75418175420236
:10011300759F00020096C09FF59FE473D09F22D085
:1001230083D082C09FE493C0E0740193C0E0740263
:1001330093F59F22FF0000B4000028002800283018
:1001430075A000A000A000A00000080008E001F0D6
:10015300001000100010001000100010005000509C
:1001630000500010001000D0070000000000000F36
:100173000001000500307507001000010081FF0039
:10018300000000FFAE05CC05B405FF020202080221
:100193005000A0000000E80302F08F010000E98F87
:1001A30002F48F010000CB0A02FA8F010000B302B0
:1001B30002F48F010000CC0A02FC8F010000C90287
:1001C30002F48F010000CD0A021690010000CB0259
:1001D30002F48F010000CE0A020090080000CC0256
:1001E30002F48F010000CF0A020290010000D00A3E
:1001F300FF0100FF2002F08F010000E38F02F48F64
:10020300010000340B020490000000000002F88F8C
:100213000300001903D20BD20BD20BD20BD20BD299
:100223000BD20BD20BD20BD20BD20BD20BD20BA80D
:100233000EC00EA20E020202020202020202010D0F
:10024300000000100102F08F010000E08F02F48F24
:10025300010000750B021090010000400702F48FAB
:10026300010000760B020C90010000438F02F48F13
:10027300010000770B020A90010000358F02F48F12
:10028300010000780B020890010000918E02F48FA8
:10029300010000790B020690010000A38E02F48F87
:1002A3000100007A0B0218900100007F8E02F48F88
:1002B3000100007B0B02FE8F010000B58E02F48F5C
:1002C3000100007C0B020E90010000278F02F48FC7
:1002D3000100007D0B0214900100007E0B01E80376
:1002E300053F100A0C5541525420525800105541F5
:1002F30052542054580002F08F010000E68F02F49C
:100303008F010000240C10078F020000700802F612
:100313008F010000250C02F48F0100002D0C101733
:100323008F000000840802F88F030000980802F68B
:100333008F0100002E0CFFFFFF0001307503020147
:1003430006000000000000000000000000000000A4
:1003530000000000000000000000000000FFFF0696
:1003630000800CE8030E095645534320424C4520B8
:1003730055415254051208001000020A00020106FA
:1003830011069ECADC240EE5A9E093F3A3B5010090
:10039300406E5645534320424C452055415254002C
:1003A30000000000000000D4120000DA1212012243
:1003B30000800312012217800312012248800312D6
:1003C3000122838003120122AD8003120122D78010
:1003D30003120122EE80031201220581031201227E
:1003E3001C81031201224581031201225881031249
:1003F30001226E8103120122818103120122A8814D
:10040300031201227DF50112012281F6011201225C
:10041300B9F601120122DCF601120122E7F60112FC
:1004230001220AF70112012219F801120122EEF842
:100433000112012269F901120122F1F901120122CB
:100443002CFA0112012263FA01120122F1FA0112BC
:100453000122CAFB011201222AFC0112012235FCEE
:1004630001120122B4FC01120122B7FC0112012284
:10047300BAFC0112012249FD011201224CFD0112B5
:1004830001227CFD01120122A6FD0112012294FE2C
:100493000112012246FF0112012260D00212012241
:1004A30088D002120122B6D002120122EDD002122C
:1004B30001224BD10212012296D102120122E1D173
:1004C3000212012221D20212012267D20212012258
:1004D30095D20212012252D3021201225CD30212DC
:1004E300012269D3021201229CD30212012268D491
:1004F3000212012274D4021201228CD402120122AC
:1005030096D40212012228FF0212012236FF0212A0
:1005130001224EFF0212012266FF02120122E7AFFF
:100523000112012293B0011201220EB10112012224
:100533002FB2011201226BB20112012214B3011274
:100543000122FBB3011201225FB501120122B6B5EC
:100553000112012237B60112012227B7011201222B
:1005630074B701120122FAB7011201222CB8011249
:10057300012240BA0112012282BA01120122A0BA59
:100583000112012223BB01120122F7BB0112012236
:10059300BFBC0112012204BA02120122D7BA02120D
:1005A300012280BB02120122D3BB0212012283BCAF
:1005B300021201220FBD02120122FBBD021201220F
:1005C3002ABE021201223DBF0212012285BF02127E
:1005D30001225AC00212012296C002120122B2C0A5
:1005E30002120122C88D0312012203E20212012228
:1005F30019E2021201223FE2021201225BE302121C
:10060300012265E3021201229AE40212012292E519
:100613000212012276C602120122A6C70212012289
:10062300D9C70212012223C802120122EAC9021207
:1006330001221B9001120122859001120122E491F3
:1006430001120122F49101120122219201120122CD
:10065300789201120122219301120122289401129E
:100663000122F2940112012252960112012295965F
:10067300011201223A9701120122879701120122E6
:10068300AD9701120122BB9901120122C0990112F7
:100693000122C59B01120122129C01120122859C99
:1006A30001120122B89C011201225A9D011201225A
:1006B300039E011201223B9E011201223E9E011262
:1006C3000122869E01120122C69E011201221D9F54
:1006D30001120122ABF202120122C3F20212012221
:1006E3000BF30212012221F30212012268F3021218
:1006F30001227CF40212012209F50212012254F5AF
:1007030002120122DC2400120122E8240012012239
:100713002325001201226825001201222826001237
:100723000122AE26001201221327001201223F27C5
:1007330000120122782700120122B6290012012299
:100743009A2B00120122802D00120122C32E0012C7
:1007530001221131001201222332001201226E33D1
:10076300001201227E34001201229B340012012266
:10077300D63400120122F834001201225B35001234
:1007830001221C3A00120122B13A00120122023B5B
:1007930000120122293B001201227B3B001201229D
:1007A300993B00120122F33B00120122DC3C0012B0
:1007B3000122523E00120122D63E001201221DD513
:1007C3000212012227D5021201226AD50212012246
:1007D30085D50212012215D6021201223DD602123C
:1007E30001227AD602120122B1D602120122DAD6EE
:1007F300021201224FD70212012264D702120122F0
:1008030079D702120122AAD702120122BED70212FD
:100813000122E3D7021201221DD80212012249D874
:1008230002120122CCD80212012215D9021201228E
:100833003FD9021201226AD9021201220688031249
:100843000122AAE801120122D8E80112012226EAB4
:100853000112012206EB0112012225EB01120122F2
:10086300A2EB01120122E5EB011201223BED011281
:100873000122FCED0112012283F00112012224F175
:10088300011201221AF20112012217F301120122AD
:1008930071F401120122FCF401120122AB8603124E
:1008A30001221487031201226887031201228F8712
:1008B30003120122C0870312012292D902120122DC
:1008C300FFD90212012246DA021201225EDB021272
:1008D30001225ADC021201223DDD0212012221AA69
:1008E3000212012263AA0212012235AB0212012273
:1008F3000EAC0212012208AD02120122EAAD02126D
:10090300012253AE0212012209AF021201227DAF6E
:1009130002120122E9AF0212012212B002120122D5
:100923008CB00212012225B1021201228AB10212F5
:1009330001229FB102120122E5B102120122FEB18E
:100943000212012263B20212012266B202120122D2
:10095300B2EF02120122DAEF0212012218F00212A0
:100963000122D6F0021201223DF10212012259F1B5
:100973000212012281F102120122B1F102120122BB
:10098300C0F1021201223DF20212012263F20212AD
:1009930001220AA001120122A8A101120122C3A36C
:1009A30001120122FFA3011201222CA40112012230
:1009B30011A50112012258A5011201229CA50112C1
:1009C3000122AEA501120122EEA5011201221BA6EE
:1009D3000112012266A601120122A6A6011201221A
:1009E300D4A60112012226A701120122B6A70112E1
:1009F300012254AA011201226AAC01120122A8ACFD
:100A03000112012239AE011201227EAE011201222E
:100A1300F5AE011201223FAF01120122A8A002127A
:100A2300012227A102120122E9A602120122F8A73C
:100A33000212012260A902120122F7A90212012265
:100A43003D3F00120122863F00120122B33F0012F4
:100A53000122E63F00120122F33F00120122FF3F71
:100A630000120122114000120122F840001201225B
:100A73005641001201228B4100120122CE42001284
:100A830001221B43001201223F4300120122AC4307
:100A9300001201226A44001201222345001201229E
:100AA30090450012012242460012012252460012D2
:100AB3000122D94600120122984700120122C5479C
:100AC300001201223E48001201229B48001201221B
:100AD300E548001201227B4900120122464A001216
:100AE3000122FB4A00120122704B00120122D14B5A
:100AF300001201223B4C00120122744C001201220D
:100B0300164D00120122264E00120122664E0012DB
:100B13000122834E00120122A24E00120122E94E4D
:100B2300001201220E4F001201223B4F001201223C
:100B3300B54F00120122F64F001201221A51001282
:100B43000122CA51001201222152001201228B52AA
:100B530000120122A45200120122DE960212012287
:100B63003197021201223D970212012212980212BA
:100B73000122399802120122749802120122E0988C
:100B8300021201221C99021201225599021201221A
:100B93006D9902120122C29902120122DB990212FB
:100BA3000122249A02120122379A02120122519A37
:100BB30002120122679A021201229A9B0212012257
:100BC300E19C02120122E39D02120122DD9E021228
:100BD3000122F97F0012012273DB01120122A3DB40
:100BE300011201226BDF01120122C2E00112012274
:100BF3008BE1011201220BE301120122DCE301125A
:100C0300012219E4011201223CE4011201227AE4D7
:100C13000112012283E401120122CDE40112012217
:100C2300D7E40112012281E5011201225AE60112E1
:100C33000122AEE60112012210E70112012263E74D
:100C43000112012292E701120122CFE701120122D0
:100C5300626600120122C96900120122CF690012E3
:100C63000122516F00120122CA7300120122A077E0
:100C73000012012234E902120122AAE9021201221E
:100C8300C0E90212012201EA021201223BEA021226
:100C93000122B4EA02120122EFEA0212012262EBFC
:100CA30002120122A0EB02120122A9EB021201227D
:100CB300B5EB02120122D1EB02120122FCEB02126C
:100CC300012212EC0212012256EC021201229DCBE8
:100CD30002120122B0CB02120122CACB021201225C
:100CE300F3CB0212012236CC0212012275CC02127E
:100CF3000122B3CC0212012218CD021201222DCD02
:100D03000212012238CD0212012245CD0212012224
:100D13005CCD021201226ACD0212012275CD0212AC
:100D2300012281CD0212012294CD021201229FCD14
:100D330002120122C2CD0212012269CE0212012245
:100D430079CE0212012293CE02120122B0CE0212F8
:100D53000122CCCE02120122F1CE02120122FCCEDC
:100D63000212012211CF0212012225CF0212012207
:100D730086CF021201228CCF0212012292CF0212DD
:100D8300012298CF02120122B0CF02120122E3CF37
:100D93000212012249CD01120122CDCD01120122FD
:100DA3007CCE01120122DBCF01120122FCD1011200
:100DB3000122E8D2011201221DD3011201223FD3E5
:100DC30001120122EED301120122E6D50112012202
:100DD3000FD601120122A1D601120122D3D601128C
:100DE3000122E0D60112012237D7011201225DD779
:100DF30001120122CAD901120122CDDA0112012204
:100E030025DB01120122D8BE01120122E2BF011229
:100E13000122C9C001120122D3C001120122F5C06F
:100E23000112012201C1011201229AC201120122FF
:100E3300C9C201120122E5C3011201223EC40112FB
:100E43000122A4C50112012283C601120122DFC6B9
:100E5300011201224CC70112012287C7011201228C
:100E6300C6C7011201227FCA0112012299CA0112C7
:100E7300012225CB0112012233CB011201228CCB9B
:100E8300011201229ACB011201220DCC011201227F
:100E930071CC01120122BBCC01120122B08B0212D0
:100EA3000122D28B02120122F88D021201220D912E
:100EB30002120122259202120122D8920212012269
:100EC300BA9302120122648303120122898303125B
:100ED3000122FB83031201228AB20212012293B27E
:100EE300021201229CB20212012273B302120122E6
:100EF30024B5021201225AB50212012294B502123C
:100F03000122CAB50212012204B60212012238B626
:100F13000212012264B602120122ADB602120122AC
:100F2300E7B60212012230B70212012288B7021279
:100F33000122BDB70212012218B80212012252B8CF
:100F430002120122A3B802120122D9B8021201220D
:100F530013B90212012241B90212012264B9021229
:100F63000122EE8B031201221A8C03120122758CCB
:100F7300031201227F8C031201228F8C03120122A0
:100F830049F8021201226EF802120122138F031292
:100F93000122D65200120122235500120122D356F8
:100FA30000120122CB5700120122525800120122D3
:100FB300E15800120122065900120122375C001287
:100FC3000122AB5C001201229A5D00120122D05D66
:100FD30000120122135E00120122905F001201220F
:100FE300D25F001201221B600012012284600012F2
:100FF3000122A66000120122C06000120122DE61FC
:1010030000120122EE6100120122FE62001201228F
:10101300136300120122496300120122CA64001201
:1010230001220765001201222C6600120122B78FEC
:1010330003120122B7FF01120122F6FF011201225E
:10104300A48F03120122388D03120122488D03124B
:1010530001225D8D03120122C58D031201221F8916
:1010630003120122A28903120122088A0312012218
:10107300998C031201229C8C03120122D58C03123A
:101083000122258D031201229CE502120122B0E503
:101093000212012229E602120122FDE602120122B6
:1010A300CFE8021201227EF502120122BCF50212E0
:1010B3000122D9F50212012241F602120122A1F600
:1010C3000212012243F702120122178B031201229B
:1010D3003A8B03120122638B03120122A58B0312A5
:1010E300012227C10212012231C10212012271C160
:1010F30002120122BAC102120122F2C1021201221A
:1011030048C20212012265C2021201226EC20212F9
:101113000122B3C202120122DCC202120122E6C280
:101123000212012257C302120122E4C30212012256
:1011330049C40212012272C402120122EEC4021235
:10114300012229C5021201225EC50212012270C5C5
:10115300021201228FC50212012298C50212012236
:101163004AC6021201220985031201225A8503127B
:101173000122E385031201224D8603120122F1FAB3
:101183000212012219FB02120122E0FB02120122C8
:10119300BBFC02120122218A031201222CFD02123E
:1011A300012262FD0212012295FD02120122EEFECE
:1011B300021201224C8E03120122628E03120122BB
:1011C3006C8E03120122EF7700120122A97800121C
:1011D3000122E478001201221579001201227579A7
:1011E30000120122BF7900120122147A0012012297
:1011F3009F7A00120122987B001201220E7D0012B9
:1012030001229E7D00120122047E00120122177E1C
:1012130000120122FC7E00120122467F00120122ED
:10122300FFDD0212012215DE02120122B9DE0212D3
:101233000122F8DE0212012215DF0212012246DF2B
:101243000212012293DF02120122C6DF02120122DF
:1012530001E002120122F6E102120122B48E03120E
:1012630001220080021201223883021201228F839D
:1012730002120122AE83021201222C8402120122E5
:10128300B08502120122838602120122368A0212DB
:1012930001221A8B02120122BA8103120122EA816E
:1012A300031201222382031201225082031201221C
:1012B3009C8203120122F082031201221083031283
:1012C3000122D1240012012286EC021201223FEEF8
:1012D300021201221BEF0212012261EF021201220C
:1012E3009BEF021201225A8F03120122868F0312EF
:1012F300010002020000205104AA160900010203A2
:1013030001090243000201008019090400000102DF
:101313000201000524001001042402020524060032
:10132300010524010001070582034000400904016F
:1013330000020A00000007058402400001070504BB
:10134300024000010D13000030130000E06670102E
:1013530008A3E066700A08A3E066700408A3E066C9
:1013630022C3E7960809E7960809E7960809E7966E
:1013730022C3E09608A3E09608A3E09608A3E096AC
:1013830022C021C3E096F52108A3E096422108A3D9
:10139300E096422108A3E09645217001D3D0212293
:1013A300080808EAC0E0EBC0E086F0E7A4FA1809F1
:1013B30086F0E7A42AFA180986F0E7A42AFA18099E
:1013C30086F0E7A42AFA1986F0E7A4FBE5F02AFAE7
:1013D300190886F0E7A42BFBE5F03AFA190886F022
:1013E300E7A42BFBE5F03AFA18180986F0E7A4C541
:1013F300F02BFBE43AFA1908E7C5F0C6A426F6E594
:10140300F03BFBE43AFA1886F0E7A4F6E5F0082689
:10141300F6E43B08F6E43A08F6D0E0FBD0E0FA2223
:10142300E4CFC0E0E4CEC0E0E4CDC0E0E4CCC0E073
:1014330075F020E626F608E633F608E633F608E606
:1014430033F6181818EC33FCED33FDEE33FEEF33AF
:10145300FFC3EC9709ED9709EE9709EF971919194F
:10146300400FFFEC97FC09ED97FD09EE97FE191964
:1014730006D5F0BFECF709EDF709EEF709EFF71919
:101483001919D0E0FCD0E0FDD0E0FED0E0FF2260EF
:1014930016080808C6C313C618C613C618C613C64B
:1014A30018C613C6D5E0EA22700908080822601698
:1014B300181818C6C333C608C633C608C633C608C9
:1014C300C633C6D5E0EA22E627F60809E637F6086A
:1014D30009E637F60809E637F622E026F608A3E020
:1014E30036F608A3E036F608A3E036F622E026F047
:1014F30008A3E036F008A3E036F008A3E036F022B4
:10150300C3E697F60809E697F60809E697F6080989
:10151300E697F622C3E096F008A3E096F008A3E06E
:1015230096F008A3E096F022E056F608A3E056F6FC
:1015330008A3E056F608A3E056F622E056F008A307
:10154300E056F008A3E056F008A3E056F022E0F6D8
:1015530008A3E0F608A3E0F608A3E0F622E6F00805
:10156300A3E6F008A3E6F008A3E6F022E0FAA3E07E
:10157300FBA3E0FCA3E0FD22EAF0A3EBF0A3ECF075
:10158300A3EDF022E0F8A3E0F9A3E0FAA3E0FB2245
:10159300E8F0A3E9F0A3EAF0A3EBF022CAC0E0E687
:1015A300F0A308DAFAD0E0FA22CAC0E0E0A3C582C9
:1015B300CCC582C583CDC583F0A3C582CCC582C506
:1015C30083CDC583DAE6D0E0CA22C3E498F8E49970
:1015D300F912160E8026C3E49AFAE49BFBE920E78E
:1015E300E912160EE498F8E499F922C3E498F8E4B2
:1015F30099F912160EE498F8E499F9C3E49AFAE417
:101603009BFB22EB20E7CFE920E7E0B90010BB000A
:1016130008E88AF084F8AAF022E4FBC8FA22EB7007
:10162300227B10C833C8C933C9335007C39AC3DBFD
:10163300F280069A50012ADBEAC833F4C8C933F4AE
:10164300C9FA2275F008E4C833C8C933C933C99A43
:10165300C99B5004C92AC93BD5F0ECFBC833F4C875
:10166300E4C9FA22600D08C6A2E713C618C613C65A
:10167300D5E0F322600C08C6C313C618C613C6D53B
:10168300E0F422700422600D18C6C333C608C633C3
:10169300C6D5E0F41822254110AF08F541400C15DA
:1016A300428008F54140021542D2AF2200C0D02546
:1016B3004110AF08F541500C05428008F541500236
:1016C3000542D2AFD0D0222541F58210AF08F541B3
:1016D300400C15428008F54140021542D2AF8542C5
:1016E30083222541F582E43542F583222541F8E43E
:1016F3003542F9222541FAE43542FB222541FCE437
:101703003542FD22E4732541C582C0E0E54234FF42
:10171300C583C0E0E541C3958224F810AF088583F3
:10172300428582418008858342858241D2AFCEF0D3
:10173300A3E520F0A37821E608F0A3DEFAEFF0A3F7
:10174300E58124FAF8E608F0A3E608F0A3E608F03A
:10175300A30808E608F0A3E608F0A315811581D0D5
:10176300E0FED0E0F8158115811581E8C0E0EEC0F8
:10177300E0222541C582C0E0E54234FFC583C0E0D5
:10178300E541C3958224F910AF08858342858241E0
:101793008008858342858241D2AFCEF0A3E520F055
:1017A300A37821E608F0A3DEFAEFF0A3E58124FB9A
:1017B300F8E608F0A3E608F0A30808E608F0A3E6B5
:1017C30008F0A315811581D0E0FED0E0F81581154E
:1017D30081E8C0E0EEC0E022854283854182E0A338
:1017E300FEE0A3F5207821E0A3F608DFFAE0A3FFEB
:1017F300E0A3C0E0E0A3C0E0E0A3C0E0E0A3C0E05A
:10180300E0A3C0E010AF088582418583428008854C
:101813008241858342D2AFD083D08202011F8542A9
:1018230083854182E0A3FEE0A3F5207821E0A3F6BF
:1018330008DFFAE0A3FFE0A3C0E0E0A3C0E0E0A379
:10184300C0E0E0A3C0E010AF0885824185834280F9
:1018530008858241858342D2AFD083D08222C0D013
:101863002541C582C0E0E54234FFC583C0E0E541C0
:10187300C3958224F310AF08858342858241800893
:10188300858342858241D2AFC8F0A3E9F0A3EAF091
:10189300A3EBF0A37921E709F0A3D8FAECF0A3EDC9
:1018A300F0A3EEF0A3EFF0A3D0E0F0A3D0E0F0A319
:1018B300D0E0F0A3E520F0A3E5F0F0A32285428376
:1018C300854182E0C0E0A3E0F9A3E0FAA3E0FBA333
:1018D3007821E0F608A3DFFAE0FCA3E0FDA3E0FE35
:1018E300A3E0FFA3E0C0E0A3E0C0E0A3E0F5D0A342
:1018F300E0F520A3E0A3F5F010AF088583428582CD
:10190300418008858342858241D2AFD082D083D083
:10191300E0F8D0E03274048006740280027401C0DF
:10192300E0F4041216CAD0E012159F227404800456
:1019330074028000CCC0E0EDC0E0E541C39CCCADB7
:101943004250011D10AF068C418D4280068C418DA3
:1019530042D2AF1215ACD0E0FDD0E0FC22D083D050
:1019630082E9C0E0E493A3C386F0C5F095F0F908DB
:10197300E493A386F0C5F095F0700BE493A3C399A9
:101983004005E9048002A3E475F002A42582F582F0
:10199300E5F03583F583D0E0F9E493A3C0E0E49365
:1019A300C0E022D083D082ECC0E0EDC0E0E493A39A
:1019B300FCE493A3FDED4C600D1219F2EC24FFFC43
:1019C300ED34FFFD80EFE493A3FCE493A3FDED4C22
:1019D300600D121A31EC24FFFCED34FFFD80EFD0D3
:1019E300E0FDD0E0FCE493A3C0E0E493C0E022C0B8
:1019F300E0C3E49396087401939618400FE493664A
:101A0300700808740193661870007019A3A3C3E4E7
:101A13009396087401939618A3A3400DD0E0D0E0E9
:101A2300D0E00219E2A3A3A3A3A3A3D0E022C0E0C2
:101A3300C0F088F0E4936670080874019366187028
:101A430000A8F0A3A3700BD0F0D0E0D0E0D0E00268
:101A530019E2A3A3D0F0D0E02274F5121775EAFEC1
:101A6300EBFFEE2434F8EF3400F988218922EE24C9
:101A730035121B88F8EE2437121B88F523EC8523D7
:101A8300F0A4FCAAF08523F0EDA42AFDE82CF8E4E9
:101A93003DF97A257B0012160EEA85218285228381
:101AA300F074075AF87401B800028004C333D8FCF9
:101AB300FBEA131313541FF8EE28F8EF3400F9E888
:101AC300245DF582E9121B8B5B6003EA801CEE2424
:101AD30036121B88F5F0EA84A8F0EE28F8EF3400FC
:101AE300F9E82438F582E9121B8BF97F04021821E7
:101AF30074F5121775EAFEEBFFEE2434121B88C04F
:101B0300E0EE2435F582EF3400F583D0E0F08E82E9
:101B13008F83A3A3A3A3A3E0FAA3E0FB8E828F8307
:101B2300A3A3A3A3A3A3A3E0FCA3E0FDECC39AF5A3
:101B330023ED9BF524EE247FF521EF3400F5228578
:101B43002182F583E06401702BEE2480F582EF346B
:101B530000F583121933121B9174021216AFE96058
:101B6300137CDC7D04EEFAEFFB120AFA85218285F1
:101B73002283E4F0AC23AD24EEFAEFFB121A5C12DD
:101B830023B7021AEEF582EF3400F583E022C08218
:101B9300C083854182854283E0F8A3E0F9C3EA9CD0
:101BA300EB9D5010C3EC98ED99401BC3EA98EB9959
:101BB3005014800EC3EA98EB994007C3EC98ED9953
:101BC3004004790180027900D083D08222EAC39C49
:101BD300FAEB9DFB2274ED1217759003A2E06408E3
:101BE3006005E06407702C9061C8E060269003D024
:101BF300E0F874FF68601CE875F003A4C8AAF02A33
:101C0300F974D228FE740339FF8E828F83A3A3A3B2
:101C1300E070057900021D78EE2468F529EF3400A1
:101C2300F52A906060E0852982852A83F075234533
:101C3300752405752100752200E5D914F527E5D92A
:101C43005403F528601CEE2482F525EF3400F526B5
:101C5300740365286058E5276013EE2467121B8818
:101C6300700B793DEEFAEFFB120B1E80A690054038
:101C7300E064016026852582852683E0600478047C
:101C830080027800852721E521C398FA95E0FB12AD
:101C930009A48A218B22EA45227006120D76021CC2
:101CA30016852582852683E070048A238B24780099
:101CB3008016E5D9C0E0882BE523252BF582E524A2
:101CC3003400F583D0E0F008E8C3952740E4852588
:101CD30082852683E0602874FC2527F52778231264
:101CE300191CAC27A928EEFAEFFB120BCC740212D5
:101CF30016AFE9700AAA21AB2212116C021C65749B
:101D03000365286058852725752600782512191C38
:101D1300AC23AD24AA21AB22120B9074021216AF8E
:101D2300852982852A83E0F8748068700575257F8C
:101D330080028825E525F5237823121920E528F567
:101D4300237823121920A927AC21AD229003D0E0D8
:101D5300FA7B0012083C74021216AF80139003A2A0
:101D6300E06408600BAC23AD24EEFAEFFB120C62C7
:101D7300120D8279017F0C02182174F31217757406
:101D8300FC121699EAFEEBFF8921A2AFE433F52298
:101D9300C2AFEE2463F523EF3400F5248010AA23A9
:101DA300AB24120B4812116C9004E3E004F085237A
:101DB30082852483E0F8A3E0F9E849602FE8240250
:101DC300FAE93400FBEA2402F525EB3400F5267822
:101DD3002512191C8A828B83E0FCA3E0F9EEFAEF4B
:101DE300FB120B3C74021216AFE960B29004E3E0FD
:101DF30060579004E4E0F89004E3E0C398500C7457
:101E030002652170449004E5E0603E8E828F83A3D7
:101E1300A3A3A3E0854182854283121E5C74021250
:101E230016E5E8121E5C9004E2E028F07402121634
:101E3300E5AC82AD83854182854283AA82AB8379F7
:101E4300011208489004E3E4F0E522A2E092AF74A3
:101E5300041216AF7F06021821F0A3E4F09004E306
:101E6300E0F82200008543878544C622C0E074EF72
:101E7300121861A2AFE433FEC2AF759B009061827A
:101E8300E0A2E05012E591A2E0500C7591FE7401BE
:101E930065437003121BD8E0A2E55051E591A2E51A
:101EA300504B7591DF9003A2E064076005E064087E
:101EB300702374016543703579019003D0E0FA759E
:101EC300F003A4CAA8F028FB74D22AFA74033BFBDC
:101ED300121D7D8018E0640D70139003C4E004F0BC
:101EE30064287002E4F07A00E0F9120D88906182B0
:101EF300E0A2E64003021F96E591A2E64003021F1B
:101F0300967591BF9003A2E064057008120CA412A9
:101F13000CB08003120CAA754300120D16E990034E
:101F2300A3F07900120D0A120A647A017B00900370
:101F3300A1E0F912113C907803E0644270559005DA
:101F430044E014F0704DC2AF121F4E007851D0E040
:101F5300F618D0E0F6E59F540770057522FF80035D
:101F630075227FC4C0E07850E6F52108E65522F5D6
:101F730022740B7821121677D0E02521F890627035
:101F8300E0A2E740F8E8C333906272F0906270E039
:101F9300D2E0F0906181E0A2E35009E5E9A2E350C9
:101FA3000375E9F7A3E0A2E75009E591A2E750031F
:101FB30075917FEEA2E092AF7F040218C0C0E0C02B
:101FC300D0C082C083906183E0A2E05009E5BFA244
:101FD300E0500375BFFEE0A2E15009E5BFA2E15066
:101FE3000375BFFDE0A2E25009E5BFA2E25003750D
:101FF300BFFBE0A2E35009E5BFA2E3500375BFF7BF
:10200300E0A2E45009E5BFA2E4500375BFEFE0A2EC
:10201300E55009E5BFA2E5500375BFDFE0A2E65036
:1020230009E5BFA2E6500375BFBFD083D082D0D0ED
:10203300D0E032C0E074F2121861E5A7A2E4500FB9
:10204300E5A1A2E4500953A7EF75A1EF12208AE599
:10205300A7A2E5500CE5A1A2E5500653A7DF75A1A1
:10206300DFE5A7A2E15009E5A1A2E1500375A1FDB7
:10207300E5A7A2E2500CE5A1A2E2500653A7FB7527
:10208300A1FB7F010218C074F81217757543019004
:1020930003A2E0640670077A007B00120C8CA2AFE7
:1020A300E433FED2AF9003A8E0640170187A207B7A
:1020B300009003A1E0F91212447A207B009003A15F
:1020C300E0F9121142906182E0D2E6F0900541E01E
:1020D300602185C64480169003A7E064017008E57B
:1020E300C654F84405F5C653BEFC121E6874016558
:1020F3004360E4EEA2E092AF7F010218218E458F88
:102103004685824A858349854182854283E0CEA301
:10211300E0CF854A82854983EBC9EAC8EDCBECCA97
:1021230075F010C3E833C8E933C9EA33CAEB33CBDC
:10213300C3EA9EF548EB9FF547B35004AB47AA4863
:10214300EC33CCED33CDD5F0DAAE45AF462274F1A6
:102153001217758A218B228C238D24908FCC7821A2
:1021630012152B740F1216E57825121551908FCC8A
:10217300782512152B78217925121364908F8050BE
:1021830010782179251215037821121384401480C5
:102193000E782579211215037825121384500479BA
:1021A30001800279007F0802182174ED1217758AE5
:1021B300218B228C238D24908FCC782112152B74A4
:1021C300131216E57825121551908FCC7825121528
:1021D3002B78257921121364401178217925121562
:1021E30003AA21AB22AC23AD248022752900752AD2
:1021F30000752B00752C0178297925121503782990
:1022030079211214CAAA29AB2AAC2BAD2C7F0C025C
:102213001821908FCC78211215518A828B837821D3
:1022230012153E7F0402182174F51217758C828DE6
:102233008378211215518A828B8378211215171204
:10224300227FC3E098F0A3E099122271401E908F81
:10225300A478211215518A828B8378211214F08E6F
:10226300828F83E02420F0A3E0344EF080A4F08E2C
:10227300828F83C3E09420A3E0944E22EA2404F8DF
:10228300EB3400F9E8FEE9FF8C828D83A3A3A3A3BB
:10229300E0F8A3E0F98E828F832274F5121775E9B3
:1022A300FE9004F7E0FAA3E0FBEEC333F8E433F95E
:1022B30074E728F582748E39F583E02AF521A3E0CB
:1022C3003BF522782112191C908FB812156F122139
:1022D3000074021216AF8A218B228C238D24741072
:1022E3007821121492AA21AB227F0402182174F1DF
:1022F3001217758A258B268C278D28740F1216E5E5
:10230300E0FAA3E0FB74111216E5E0F521A3E0F572
:1023130022782112191CEA2401F521EB3400F5225D
:10232300E4F523F524782579211213A3908F8C7873
:1023330021121551782579211213A3AA25AB26ACB6
:1023430027AD2812210074021216AF8B22EA452210
:1023530060047A0180027A00EC2AFCED3400FD74FB
:10236300131216E5E0F8A3E0F9E8FEE9FFECF8ED57
:10237300F97A717B0212160E88218922E4F523F57E
:10238300248E828F837821121560ECF8EDF97A712F
:102393007B0212160E8A218B22740578211216866F
:1023A3008E828F83A3A3A3A3E521F0A3E522F07F6D
:1023B30008021821C082C083E9906000F0D083D066
:1023C3008222C0E074F2121861A2AFE433FED2AFEE
:1023D300E58AA2E2500790082FE0D2E0F0E58AA256
:1023E300E3500790082FE0D2E1F0758A00C2EB7A40
:1023F300107B0090082BE0F912113CEEA2E092AFA3
:102403007F010218C0C0E0C0D0E8C0E0A8A8D2AFE6
:10241300C2C7E8A2E792AFD0E0F8D0D0D0E032C292
:10242300AF02000022C0E074F1121861E59DA2E63C
:1024330050FA906206E0F9A2E25034AA4EEA9062A2
:102443000BF0F521854F2274047821121677E521CC
:10245300906207F08A21854F22740978211216773A
:10246300E521543E906209F0906201E0D2E0F0E988
:10247300784B46F6906202E0F521752200740478E9
:1024830021121686784BE52146F608E52246F6909A
:102493006204E0F52175220074097821121686780A
:1024A3004CE52246F6E9A2E05003754D0174065946
:1024B3006003754D00E58BA2E55006758BDF754D06
:1024C300001212C2758B00C2E87F020218C002011B
:1024D3001FFFFFFFFFFFFFFFFFC082C083E9900BD9
:1024E30033F002276B74F7121709E99002E1F07CCD
:1024F300197D037AFF7BFF1207949002E274FFF0C9
:10250300A3F0A3E4F0A3F0790512071C9002E1E025
:10251300F912063E7AB27B071209567F010217DBD6
:1025230074F41217098A218B22EB548060309002D5
:10253300E1E0F91211248A238B24AE23AF24EE4F5A
:1025430060138E828F83E064B07003120734EEFA57
:10255300EFFB121112AA21E5226480FB80047A00AA
:102563007B0002273A74F212170974FC121699EAD7
:10257300FEEBFFEE4F603874021216E5EEF0A3EFA8
:1025830012299FECF0A3ED12299FAA82AB831206B6
:1025930038E9F521707374121216E5123553E523E9
:1025A300452460658E828F83122616EE4F70057563
:1025B300210280557A067B001211A88A258B26A852
:1025C30025A926E8497005752113803D88828983F2
:1025D300E4122620A3A3EEF0A3EF1239ECE523F0D7
:1025E300A3E524F09002E71226A89002E76017E023
:1025F300FCA3E08003EAFCEBFD8C828D831226A80A
:1026030070F38C828D83123478A92174041216AF6F
:10261300023BEEA3A3A3A3E0FEA3E0FF22F0A3F0FB
:10262300888289832274F21217098923E975F017C6
:10263300A4FEAFF09002E6E4F09002E41226A86054
:102643000A1211AE9002E4E4F0A3F0EEFAEFFB12EB
:1026530011A88A218B22EA4522602FEEFCEFFD7937
:10266300001211009002E4E521F0A3E522F07B00C3
:102673008008122692E4F0A3F00BEBC3952340F2FB
:10268300E5239002E6F0790080027913023BEEEB3A
:1026930075F017A4F8A9F09002E4E028FAA3E03952
:1026A3008A82F5832212320EEA4B2274F41217093E
:1026B300752100752200740C1216E51239C0FEE96B
:1026C300FF800CE5212401F521E5223400F522C326
:1026D300E5219CE5229D5032852123852224740324
:1026E3007823121686EA2523F8EB3524F9888289A4
:1026F30083A3A3A3A3A3A3123553EE65237003EF10
:10270300652470BFE8FAE9FB80047A007B00802728
:1027130074F41217097900EAA2E0501B75216A7557
:10272300228F782112191C7C047D007A357B0B12D1
:10273300071674021216AF7F040217DBC082C08330
:102743009002E7122772601C88828983A3A3E06A40
:102753007003A3E06B8882898370E8A3A3A3A31209
:10276300320A80047A007B00D083D08202011F12D8
:102773003CC1E8492274EE12170974FC121699EA57
:10278300FEEBFF854182854283E4F0A3F0EE240251
:1027930012345CEE240512298DEE2404F527EF1282
:1027A3002D72E024FE603924FC604624FE6052242E
:1027B300FE605E24FE700302289224FE7003022949
:1027C3000A24FE700302291924FE70030229282417
:1027D300FC700302293724FE700302294602298371
:1027E3009003007417F0A3E41229A71203B6022979
:1027F30083854182854283AC82AD8312073A0229E5
:1028030053854182854283AC82AD831207400229FE
:102813005385252185262274021216E5AC82AD83E9
:1028230085218285228312320A12065C8A258B2631
:10283300AC25AD26EC4D6042E4F525F5267825124E
:10284300191C752500752603782512191C75250199
:10285300752603782512191C74081216E51219330C
:10286300791612320412077C74081216AFE9F525A3
:10287300700B1232001203CE800F75250185218261
:1028830085228312299512347885252102295674CD
:10289300021216E5AC82AD8385258285268312322A
:1028A3000A12065C8A298B2AAC29AD2AEC4D6043B7
:1028B300852582852683A3A3121933752900752ADA
:1028C30003782912191C752901752A03782912190D
:1028D3001C74081216E51219337916123204120702
:1028E3007C74081216AFE9F522700B123200120342
:1028F300D4800F752201852582852683122995129E
:102903003478852221804C854182854283AC82AD17
:1029130083120746803A854182854283AC82AD8328
:1029230012074C802B854182854283AC82AD831292
:102933000752801C854182854283AC82AD83120796
:1029430058800D854182854283AC82AD8312075E38
:10295300E9F521E52160298E828F83A3E064146069
:102963001F852782852883E090030012299F123C4C
:10297300BD900301123478E521A31229A71203B0F5
:10298300EEFAEFFB1206DA023364F525EF3400F5B5
:102993002622123CC185418285428322F0854182F1
:1029A30085428322F07C007D038523828524831264
:1029B300320E2274EE12170974FC1216998A238BB5
:1029C300248C278D28EA2405F521EB3400F5227C9D
:1029D300157D0079007A007B03121100E5212402A2
:1029E300F525E52212299085418285428385822936
:1029F30085832A782912191C852182852283A3A322
:102A0300A3A3122EBA12191CE5212405F529E522E8
:102A13003400F52A782912191C852582852683120C
:102A2300321412065674061216AF8A298B2AAE295F
:102A3300AF2AE5232402F523E52412345FEE4F7019
:102A430003022B7C801774021216E512320A888265
:102A53008983EAF0A3EBF0900300E004F090030015
:102A6300E0C394054003022B7CE4F529F52A782979
:102A730012191C7529E9752A02782912191C75295E
:102A8300EA752A02782912191C74061216E512191E
:102A9300337910EEFCEFFD12320412077C74081236
:102AA30016AFE9705E852182852283A3A3A3A3A326
:102AB300A3A3E0F89002E9E0687048122EBA121955
:102AC3001C7CEA7D02E5212408FAE5223400FB128E
:102AD30010FA74021216AFE960298E828F83A3A3C2
:102AE300A3A312320A900300E0F529740278291295
:102AF300168674012529F5827403352AF583EAF0D5
:102B0300A3EBF074021216E585822985832A7829BE
:102B130012191C74021216E51219338525828526B3
:102B230083123CD212066274041216AF8A298B2ACE
:102B3300AE29AF2A900300E0F529752A00740278C4
:102B43002912168674002529F87403352AF9888218
:102B53008983A31226A87003022A40E82403F8E914
:102B63003400F9EE4F6003022A498882898374FF97
:102B7300F0A3F0900300E004F0900300E0600A1279
:102B830032001203C27900800B85218285228312D1
:102B9300346F790A02336474EA12170974FE121649
:102BA300998C2B8D2CEA2405F525EB123E3C12263D
:102BB3001A752100752200EA2402F529EB3400F589
:102BC3002A85418285428385822385832478231243
:102BD300191C852582852683A3A3A3A3122D7C120A
:102BE300191CE5252405F523E52612345F78231205
:102BF300191C852582852683123CD012065674063D
:102C03001216AF8A238B24EA45247003022D2DEA82
:102C13002404F527EB122D7212261A8A828B83A3C2
:102C2300A3A3E0F9852982852A8312320A12064476
:102C3300E9F5226003022D2DE4F52DF52E782D12F2
:102C4300191C752DE9752E02782D12191C752DEAA4
:102C5300752E02782D12191C74061216E5121933FB
:102C63007913AC23AD24852982852A8312320A1273
:102C7300077C74081216AFE9F5226003022D2D902C
:102C830002E9E0F8E5217009E02402900301F080F5
:102C930017900301E0FCE82402FAE43400FBEA6C39
:102CA3007001EB6003022D31852182AA82122EB1BD
:102CB3009414122EA95073852782852883E0C0E0DF
:102CC30074022A122D69D0E0F00521852782852818
:102CD30083A3E0C0E085212374022523122D69D04C
:102CE300E0F005219002E9122D7C12191C7CEA7D8B
:102CF3000285212374022523FA74033400FB121086
:102D0300E874021216AF9002E9E02521F52174FF61
:102D13006E700374FF6F6012EE24010EEF3400FF38
:102D2300E521C394145003022BC4E5216013123030
:102D3300F5852982852A8312320A1203C879008015
:102D430014E522700375220A852B82852C83EEF00D
:102D5300A3EFF0A92274021216AF7F0E0217DB85D0
:102D6300212574022525F58274033400F58322346A
:102D730000F528852782F583221239FF2274EE128B
:102D8300170974FE1216998C278D28EA2405F52558
:102D9300EB122990752400900300E4F0F523EA2454
:102DA30002F521EB3400F5228049900300E0FA900C
:102DB30002E9E0F8122EB19417122EA9400D9003E8
:102DC30000E0F87416C3989002E9F0122EBA1219B3
:102DD3001C7CEA7D0274012AFA74033400FB12108E
:102DE300E874021216AF9002E9E0F8900300E028BD
:102DF300F00523E5252416F582E526122D6DE0F86E
:102E0300E523C3984003022E92900300E0C3941677
:102E1300507DE523C333F8E433F9E52528FEE526A1
:102E230039FF854182854283AC82AD838E828F8355
:102E330012320A12065C8A298B2AAC29AD2AEC4D80
:102E430070057524018043E4F529F52A78291219C0
:102E53001C7529E9752A02782912191C7529EA7546
:102E63002A02782912191C74061216E512193379ED
:102E73001685218285228312320A12077C74081276
:102E830016AFE9F5247003022DAD12346B80107C6C
:102E9300007D0385218285228312320A1203DAA977
:102EA300247402023366E99400C365D03322EA280E
:102EB300F8E43400F9E822E0F529752A007829229C
:102EC30074EA12170974FC1216998A258B268C2B27
:102ED3008D2CEA2405F523EB12345F75210075224E
:102EE30000E5232402F529E5243400F52A740212AF
:102EF30016E5858227858328782712191C85238266
:102F0300852483A3A3A3A31239AB12191CE523249D
:102F130005F527E5243400F528782712191C85299F
:102F230082852A83123465123204120656740612FD
:102F330016AF8A278B28AE27AF28E5252402F5276D
:102F4300E5263400F52880408882898374FFF005E4
:102F530021122D6274FFF005219002E9E0F5257539
:102F63002600782512191C7CEA7D0285212574022E
:102F73002525FA74033400FB1210E874021216AF0D
:102F83009002E9E02521F521EE4F60718E828F8357
:102F9300A3A3A3E0F985278285288312320A1206A8
:102FA30044E9F522EE240412298DE97044E4F52D59
:102FB300F52E782D12191C752DE9752E02782D1218
:102FC300191C752DEA752E02782D12191C7408121E
:102FD30016E51219337911EEFCEFFD85278285285A
:102FE3008312320A12077C74081216AFE9F52260C5
:102FF300278525828526831230EB123478E52170EC
:10300300030230D11230F585278285288312320AD4
:103013001203E079000230E6852182AA82EA900257
:10302300E97009E02404900301F08022E0F89003A2
:1030330001E0F52DE82404FCE43400FDEC652D707B
:1030430001ED70C0122EB19412122EA950B685252F
:1030530082852683E0C0E074022A122D69D0E0F055
:103063000521852582852683A3E0C0E0122D62D049
:10307300E0123107858225858326782512191C7471
:10308300041216E5121933852982852A83123CD24C
:1030930012066274041216AF8A258B26AE25AF265C
:1030A30085212574022525F874033400F9EE4F7049
:1030B30003022F4B854182854283E08882898312F4
:1030C3003107A3E0C0E0122D62D0E0022F59E522C0
:1030D300700375220A8523828524831230EB123410
:1030E30078A9227404022D5A123CC1852B82852CA7
:1030F3008322900301E0F5F0E52184900300F07C46
:10310300007D0322F005218541828542832274ECF0
:1031130012170974FE1216998A218B228C278D2887
:10312300EA2405FEEB3400FF854182854283AC82AD
:10313300AD838E828F8312320A12065C8A238B241C
:10314300EE241812298DEA452470030231DB123371
:103153004D503285418285428312320A1207708AAA
:10316300298B2AEA452A606B7912AC23AD24852189
:103173008285228312320A852982852A83121707C0
:10318300E9F5237058E4F523F524782312191C8EEE
:10319300828F83A3A3E0F523782312191CEE240363
:1031A30012345C782312191C8E828F83123214120C
:1031B300078274061216AFE9F523702185258285EF
:1031C3002683E0701F85218285228312320A12032F
:1031D300E6801175230E80097523018004E52360C1
:1031E3000312346B852582852683E0600479008091
:1031F30002A92374021216AF7F0C0217DB7C007D39
:103203000385238285248312320E22E0FAA3E0FB96
:1032130022E0FCA3E0FD85218285228312320E2267
:1032230074EE12170974FE1216998A218B228C25CB
:103233008D26EA2405FEEB3400FF752700854182C5
:10324300854283AC82AD838E828F8312320A12064B
:103253005C8A238B24EA4524700302333912334DED
:10326300503585418285428312320A1207708A27BC
:103273008B28EA4528605E7912AC23AD2485218230
:1032830085228312320A852782852883121707E94C
:10329300F527600302333C8521828522831235534F
:1032A300AA23FB1207648A298B2AA829A92AE84999
:1032B300701E7AFF7BFF1207648A298B2AA829A92B
:1032C3002AE849606C88828983E523F0A3E524F02A
:1032D300752300800775270E805F05239002E6E0C3
:1032E300FAE523C39A504AE52375F017A4FAABF025
:1032F30088828983A3A3E02AFAA3E03BFB8A828B1B
:1033030083123465EC4D70D275231775240078232E
:1033130012191CEEFCEFFD1210E874021216AFEE48
:10332300FCEFFD85218285228312320A1203EC8091
:10333300147527098003752701123CB985258285F9
:103343002683123478A927022EA4E5212402F5212D
:10335300E5223400F5228A828B83A3A3A3E0A2E5AE
:103363002274041216AF7F0A0217DB74EC121709DA
:103373008C298D2AEA2405F525EB1229907528005E
:10338300EA2402F523EB12345F852382F58312329C
:103393000A1207648A218B22EA4522700302345100
:1033A3007527008071852582852683E06401704F2F
:1033B3008E828F83A3A31219338E828F83A3A3A339
:1033C300A3E0F52B752C00782B12191CEE2405F5C0
:1033D3002BEF3400F52C782B12191C123204120730
:1033E3008274061216AFE9F52860148525828526B6
:1033F30083E4F0123CB9852982852A831234787CD0
:10340300177D007900EEFAEFFB1211008E828F8395
:10341300E4F0A3F005279002E6E0F8E527C398500F
:103423001EE52775F017A4F8A9F08521828522836C
:10343300A3A3123E46123465EC4D60030233A88504
:10344300218285228374FFF0A3F0E52870061232EF
:10345300041203F2A9280231FBF523EF3400F5240B
:1034630022A3E0FCA3E0FD228E828F83123CC18560
:103473002782852883E8F0A3E9F022C082C08390E5
:1034830002E2E06A7003A3E06B70067AE27B0280DB
:10349300047A007B0002276BC082C08378008C8291
:1034A3008D83E06A7003A3E06B7010E875F003A4EA
:1034B300F8A9F0EC28FAED39FB8015088C828D838E
:1034C300A3A3A3E06A7003A3E06B60DF7A007B0031
:1034D30002276B74F612170912072E8A828B83E573
:1034E30082458370067A007B008007A3A3A3A312FF
:1034F300320A023B6A74F2121709E9FE740E1216BD
:10350300E512355374101216E51239CB8C828D8374
:10351300E064027036A3123CC7F525A3E0F9A825A1
:103523007402687003742969702175250275260079
:10353300782512191C782112191C782312191CEEF4
:10354300F91207A674061216AF80027901023BEE48
:10355300E0F523A3E0F5242274E812170974FB12A3
:103563001699E9854182854283F08A2F8B30ECFEE0
:10357300EDFF752900741D1216E5123CBD741D1272
:1035830016E51234788E828F83A3A3A3E0A2E450BE
:103593002D741D1216E512320A1207708A828B836C
:1035A300E5824583700302399C790AEEFCEFFDAA9C
:1035B3002FAB30121707E9F529600302399F741FF7
:1035C3001216E51239CB74211216E5123553742302
:1035D3001216E5E0F527A3E0F5288E828F83E064D9
:1035E30002600302394AA3123CBD852182852283EE
:1035F300A385822B85832CEE240612298D8882894C
:1036030083E0FAA3E0F9EA2400F52DE439F52E78F6
:103613002D1219A60100002801283F3607000228B1
:1036230004370328713600293B38012966380229FB
:10363300073803293B380429E5384A39E527452863
:1036430060030239458525828526831239C0FAE94C
:10365300FB8A828B83E08523828524831239F612C9
:10366300191C8A828B83A3E0FCA3E00238CFE527F1
:10367300452860030239458523828524837401F03C
:103683001239D3852182852283F07C007D008E82CE
:103693008F83A3A3A3A3E02401FAA3E03400FB12C6
:1036A300065CEA4B60418A828B83E02402F885231F
:1036B30082852483E028F0EA2404F8EB3400F988B7
:1036C300828983E0852B82852C83123A081239F68E
:1036D30012191C8A828B83123464E5212403FAE5D0
:1036E300223400FB0238D4852382852483E024041A
:1036F300F07C047D007900AA2BAB2C121100023957
:103703009FE527452860030239451239D3FEA3E01C
:10371300FF8523828524837404F0EE85218285222C
:1037230083F0EF852B82852C83F074031216E5ACAE
:1037330082AD83EEFAEFFB12065C8A258B26EA45FF
:103743002670030237E88A828B83A3A3122616749A
:10375300011216E5858227858328782712191C74A0
:10376300051216E51219337CFF7DFF1206627404FD
:103773001216AF8B28EA4528703385258285268368
:103783001239AB12191C852582852683A31219339E
:103793007C027D007AF27B8F12048E74041216AFC2
:1037A300E9700A74011216E574FFF0A3F08E828F9C
:1037B30083E0640270397525027526007825121995
:1037C3001C8E828F83123464E5212404FAE52234AB
:1037D30000FB1210E874021216AF8523828524833E
:1037E300E02402800974011216E5EEF0A3EFF074F1
:1037F300011216E51239BCF074011216E5A3123951
:10380300B402393FE52745286003023945852582FF
:10381300852683123465AA2FAB3012079A8523823B
:103823008524837402F0EA852182852283F0852B27
:1038330082852C83EB023942E52745286003023950
:10384300451239D3F8A3E0F98523828524837402D2
:10385300F0E8852182852283F0E9852B82852C83FC
:1038630002394285258285268312320A1210E2EA42
:10387300FC8C82A882C39527E49528405FE86527DE
:103883007002E52870047C00802285418285428392
:10389300E0FAE5272AFAE5283400FBC3EA98EB941B
:1038A300005003E08005E527CCC39CFCEC85238214
:1038B300852483F08C23752400782312191C852515
:1038C30082852683E02527FCA3E03528FDAA21ABCA
:1038D300221210E874021216AF02399F75290702EB
:1038E300399FE5274528705A852582852683123C12
:1038F300BD85238285248374071226221239B412CC
:103903002622A3E0852B82852C83F0E82402FAE9A2
:103913003400FB8A828B831239B41239E31239BC27
:10392300A31239EC1239C5F0E82405F8E93400F99B
:10393300888289831239C5A3123A08A3A3A3A3F0EB
:10394300805A75290B8055741D1216E512320A121E
:10395300072E8A828B83E5824583603D123CBD88B6
:10396300258926E845266031782712191C78231209
:10397300191C782112191C74061216E5E0F9EEFCE5
:10398300EFFDAA2FAB308525828526831217077496
:10399300061216AFE9F529800375290EA9297405C6
:1039A3001216AF7F100217DBE0F527752800782782
:1039B30022E085218285228322123A1222123CC1FF
:1039C300E822123A12A3A322E0F521A3E0F5222272
:1039D300852582852683E0F8A3E0F5838882E022AB
:1039E300A3A3F08A828B83A322F088828983A3A373
:1039F300A3A322F08A828B831239FF22E0F5237579
:103A03002400782322F088828983A3123A1222E0C9
:103A1300852182852283A3A32274EE12170974FEE3
:103A23001216998A238B24ECFAEDFB74141216E513
:103A3300E0F529A3E0F52A74161216E5E0FE7418E2
:103A43001216E5E0F527A3E0F52885418285428338
:103A5300AC82AD8312065C8A258B26EA4526604933
:103A630085418285428312320A12072E8A828B8312
:103A7300E5824583602FA3A31239CBE5214522605C
:103A830024782712191C782912191CEEF9AC25ADDC
:103A930026AA23AB24852182852283121707740467
:103AA3001216AF8006790E80027901022EA474F6F5
:103AB30012170974FE121699740C1216E51239C006
:103AC300854182854283F074011216E5E9F0E4F53D
:103AD30021F522782112191C752102782112191C53
:103AE30074041216E5858221858322782112191C1C
:103AF30012078274061216AF74021216AF8068742E
:103B0300F7121709EAFEEBFF89217C197D031207DF
:103B13009AEA5402600BA921EEFAEFFB12065080D9
:103B230002790102251E74F612170974FF6A7003E5
:103B330074FF6B70168C828D83123B6FE4F08C8262
:103B43008D83A3A3A3123B6FA3801812076A8A2154
:103B53008B22A821A922E849600D8882898374FFFA
:103B6300122620A3A3E4F07F020217DB74FFF0A365
:103B7300F08C828D83A3A32274F612170912076AAD
:103B83008A828B83E58245836006A3A3E0FA8002E1
:103B93007A007B0080D174F21217098A218B22EC00
:103BA300FEEDFF740E1216E5E0F52312076A8A256F
:103BB3008B26A825A926E8497026EEFCEFFD7AFF9F
:103BC3007BFF12076A8A258B26A825A926E8497058
:103BD300047911801688828983E521F0A3E522F018
:103BE30088828983A3A3E523F079007F060217DB8C
:103BF30074EE121709EAFEEBFF8C218D22892574DE
:103C0300141216E5123CBD74161216E512320A752B
:103C13002600E8496003023CB17402652560030293
:103C23003CAC74121216E5123CC7FCA3E0F9EC2479
:103C330000F527E439F528EAF4F8EBF4F9EC58F841
:103C4300E52859F9E849705CE5212406F8ED3400CC
:103C5300F9882389248882F583123CD212079A8A31
:103C6300298B2AE52765297004E528652A604278AF
:103C73002712191C852382852483123CD21207A0A4
:103C830074021216AFE9F5267027782712191C85DE
:103C93002182852283A3A3123CD01207B874021297
:103CA30016AF800D752680800875260D8003752656
:103CB3000BA9260233698E828F83123CC122E0F85E
:103CC300A3E0F922123CC188828983E022A3A3E006
:103CD300FCA3E0FDEEFAEFFB2274E812170974E788
:103CE300121699854182854283EAF0A3EBF08C2F6B
:103CF3008D30892775210075220074311216E5E095
:103D0300F52BA3E0F52C74331216E5E0F52DA3E0B3
:103D1300F52E74351216E5E0F528E52275F003A4B7
:103D2300F8A9F0854182854283123E46E0F4700390
:103D3300A3E0F47003023E29EE2402F525EF123EC0
:103D43003CE07003023E29852F238530247823121B
:103D5300191CAC2DAD2EAA2BAB2C12072274021208
:103D630016AF8A238B24EA45247003023E29E4F527
:103D730029F52A782912191C74061216E585822959
:103D830085832A782912191C74091216E58582295C
:103D930085832A782912191C852B82852C83A3A35A
:103DA300A3A31219337914AC23AD248E828F83120B
:103DB300320A12077C74081216AFE97069852382F0
:103DC300852483A3A3A3A3123CBD74021216E51298
:103DD3003478852582852683E0A2E05018A92774CC
:103DE300021216E5AC82AD838E828F8312320A12E1
:103DF3000674E94221852582852683E0A2E15026C7
:103E0300E528F5237823121920A92774031216E550
:103E1300AC82AD838E828F8312320A12066E7401D6
:103E23001216AFE942210522E522C3940250030290
:103E33003D1DA92174190239A33400F52685258275
:103E4300F58322E028FEA3E039FF8E828F8322745C
:103E5300F2121709EAFEEBFF892474016524600E50
:103E630074026524706A7901120974E97062EEFACA
:103E7300EFFB1207648A218B22EA452260477523F0
:103E830000800B7C177D007900121100052390023E
:103E9300E6E0F8E523C3985021E52375F017A4F86D
:103EA300A9F0852182852283A3A3E028FAA3E03920
:103EB300FB8A828B8312277270C9852182852283B4
:103EC30074FFF0A3F07C197D03EEFAEFFB12079465
:103ED300023BEE74F21217098A218B22ECFEEDFFEE
:103EE300740E1216E5123553900B33E0F4603D7AED
:103EF300097B0012110CEA4B60328A828B8374B106
:103F0300F0A3E41239E5A31239E3A3E521F0A3E515
:103F130022123F32EEF0A3EF123F32A3A3E523F0C8
:103F2300A3E524F0900B33E0F9121118023BEEF0F5
:103F33008A828B83A3A3A3A3A322C082C08390619D
:103F4300907404F0A37448F0A3E4F090618074408B
:103F5300F09061BC7407F09061877469F09061B66A
:103F63007416F07900120A6A7902120A709024D446
:103F7300E493F46006E493F9120A467905120D6A94
:103F8300024338C082C083E9540FF9906185E06928
:103F93006012E5C654804449F5C6E59E547F6449E2
:103FA30070F8E9F053C680E59E547F70FA024338F7
:103FB30074F7121709E5A8FE53A87E120A52C2BA73
:103FC300539AFEC289759B00C2C2120A5875A91181
:103FD30075B905120A5ED2BA439A0174805E42A88B
:103FE3000248CFC082C083906181E4F0A3024335CD
:103FF30075E90075910075BF0002011FC082C0837F
:10400300906181E4F0A374C0F0A3E4024337C0825B
:10401300C08374F81216999003A4125268700302B5
:1040230040F09003A4E054406023790885418285E1
:104033004283AA82AB83120B66854182854283AA9F
:1040430082AB831208249003A4E054BFF0E05480B1
:104053006010790C7A657B05120B669003A4E0541B
:104063007FF0E0A2E0500F7900120A6A12082A904A
:1040730003A4E054FEF0E05402600F7901120A6ACF
:1040830012082A9003A4E054FDF0E05404600F7971
:1040930000120A701208309003A4E054FBF0E054BD
:1040A30008600F7901120A701208309003A4E054DB
:1040B300F7F0E05410600F7902120A701208309082
:1040C30003A4E054EFF0E05420600F7903120A7068
:1040D3001208309003A4E054DFF0A3E05401600D14
:1040E300120A7C1208369003A5E054FEF0740812FD
:1040F30016AF024338C082C083E9600514602A808A
:104103004F90619A7433F0A37455F09061A0743AA0
:10411300F090053FE064017009C2919003A67467B3
:10412300802D9003A67461802690619A743FF0A35A
:10413300745AF09061A0747FF090053FE0640170C1
:1041430009D2919003A6747180059003A6746AF056
:10415300024338C082C083E9600B14600D146017FA
:1041630014600C80209024D880159024D98010905E
:10417300053FE0640170059024DA80039024DBE4BA
:1041830093906186F002433874EE12170974F412A7
:104193001699854182854283AC82AD8375838F7581
:1041A300827C74041215AC9024D893F46003024209
:1041B300B5907808E0C39402500302429574041248
:1041C30016E5AC82AD8375838F758256740812151C
:1041D300ACFC7EFF7FFF8E257D008C82858227804D
:1041E3000F74086D606D74096D6068740A6D6063A7
:1041F3008D21752200740278211216861242BF1295
:104203001551A922E523C9F88829741878211214B5
:1042130092E5294521FAE9FBE527C333F8E433F9AD
:1042230074041216E5E58228F582E583391247BF47
:10423300C3E89AE99B4008E8C39AF8E99B8006EA39
:10424300C398F8EB99F9C3E89EE99F5006E8FEE9A5
:10425300FF8D250DEDC39413408774FF6E700374B7
:10426300FF6F60248525217402782112168612427D
:10427300BF121551854182854283E5822527F58248
:10428300E583124C5EE521F00CECC3940450030269
:1042930041D5752101752200782112191C7402126F
:1042A30016E5AC82AD837A367B0912106474021270
:1042B30016AF740C1216AF7F0A0217DB7448252160
:1042C300F58274783522F583782122C082C08390E9
:1042D3006186E0F89024DBE4936870099024DAE4C3
:1042E30093906186F09061AE7468F0A3746AF09065
:1042F300624574FBF0A304F053F4FD43FE02900502
:104303003F7401F09061A0E0643A70047900800288
:104313007901120A6A024338C082C0839004F1E033
:104323006401700A9004F6E06004790C800279005D
:104333008003F0A3F0D083D08202011FC082C08328
:1043430075E1F19004F4E0604D14600914605114B8
:104353006049147050120A8E9004EAE0F97AEB7BFC
:1043630004120CEC908F9812156F120D22908F94FB
:1043730012156F120CF89004F5E0F9120D0479018F
:10438300120D5E12445B2416124C5B74A6F0A374E8
:104393000AF07900809F120A9480BD120A9A80B8AD
:1043A300120AA080B3791280EB74F412170975D93D
:1043B3000D9004D5E0A2E0E4331313F812445148FE
:1043C3004401F5D978001244BE40FB78008821747B
:1043D300D61251BE74041244C840F275E19590049C
:1043E300D5E0F97AD67B04120CF2900B55741CF0CD
:1043F300A3740A1244CE124512124509124626909E
:1044030004F4E064019004E8700B12446412155143
:10441300908FC88009124464121551908FC478217B
:104423001214DD908FCC782112152B12445B240ECD
:10443300124C5B782112156012445B2414124C5BFE
:104443007413F09003A27402F07F040217DB90044C
:10445300EAE0C4333354C0229004E8E0F8A3E0C890
:10446300221250F678212274F61217091245F78AA0
:10447300D978001244BE40FB7800800612456F12C3
:1044830046ACE8C39940F51245E91244BE40FB78B7
:104493000080081251BA74051246ACE8C39940F380
:1044A30075E195900B557428F0A3740A1244CE124B
:1044B30044D87412F09003A2024893882174EB2528
:1044C30021F582740412482994062212460F74229D
:1044D300F0A3740A2212451212450912462A9004C7
:1044E300E8E0F8A3E0C8240E12450174FF124F332D
:1044F3009004E8E0F8A3E0C8241412450122F582F1
:10450300E83400F58322F0A3743AF0A3740A22126C
:1045130045162212451A22F0A374D2F0A3740B227B
:1045230074F61217091245641244514402F5D978FE
:10453300001244BE40FB7800800612456F1246AC61
:10454300E8C39940F575E195900B5512457AF0A3B0
:1045530012457A1244DB7414F09003A274040248E7
:10456300959004FAE0F9740729F5D922882174FBA0
:104573002521F5827404227434124587124587F08D
:10458300A3740A22F0A3740AF0A374342274F612FB
:1045930017091245F774064AF5D978001244BE404C
:1045A300FB7800800612456F1246ACE8C39940F5CC
:1045B3001245E91244BE40FB780080081251BA74D8
:1045C300051246ACE8C39940F375E195900B557419
:1045D3002EF0A3740A1246051244D87415F0900302
:1045E300A2740302489590051A12456774044AF5AC
:1045F300D97800221245649004EAE0C4333354C0EE
:10460300FA2212460F74D2F0A3740B22124613221D
:1046130012462074D2F0A3740B1246202212451ABC
:10462300F0A32212462A22F0900B6374D2F0A374F3
:104633000B12461374D2F0A3740B124516F022C06A
:1046430082C08312445B2406124C5BE4024335743C
:10465300F71217099003D0E0F875F003A4C8AAF085
:104663002AF974D228F8740339F9E82405FAE9120F
:104673005109A3A3A3A3A3A3A3A3A312520AA3A36E
:10468300A3A3A3A3A3E024FFF8A3E034FFF98A8242
:104693008B83E8F0A3E9F00248CF7F060217DB889B
:1046A3002174452521F5827405124C35F5D908226C
:1046B300EAFEEBFF9061D0E0F87480C398FAEE2431
:1046C30082221246CB940422F582E93400F583E07A
:1046D300F5D90AEAC32274F6121709EAFEEBFF9032
:1046E30061D0E0600302476D75D90E75D90375D9A2
:1046F300047A008A21EE25211251C3248B124772BA
:1047030040F17A008A21EE25211251C324831246F7
:10471300C540F175E1957908EE248BFAEF3400FB7F
:10472300120B5A7904EE2483FAEF3400FB120B5A6E
:104733007C008C82AA82C3E49AF895E0F9EE28F80B
:10474300EF39F9E8248AF582E9124C31C0E0EE2A08
:104753001251C324AAF582E9124C5ED0E0F00CECAE
:10476300C3940840CD12477B800279000248961219
:1047730046CB94082275E195EE246FF582EF12453E
:1047830004125285EE2471F582EF124504E8F0A37A
:10479300E9F0790122C082C08375D90275D9037506
:1047A300D90575E195EA246FF582EB1247BDEA243A
:1047B30071F582EB12478D0243383400F5831252B0
:1047C300852274F6121709EAFEEBFF90054574067D
:1047D30012483412191C7C017903120BC67402129D
:1047E30016AF75D90675D903780012481940FB75C1
:1047F300E1959003A2E064087017EE246FF582EF51
:104803001247BDEE2471F582EF124C5EE8F0A3E986
:10481300F07901024896882174452521F5827405B3
:104823001248299405223400F583E0F5D908E8C33A
:1048330022F075214575220578212274F612170995
:10484300EAFEEBFF9061D0E0704279019005457478
:104853000BF09003A2E064077019752145752205DA
:10486300782112191C7C010909120BC67402121655
:10487300AF7905740129F5D975D90378008003123E
:1048830046A2E8C39940F812477880027900800372
:104893007401F07F020217DB74F7121709EAFEEBCB
:1048A300FF75D90375D90375D90DEE24DD1248C000
:1048B30075E1957904120D2812477B800FF582EF7D
:1048C300124C35F5D922A2E092AF79007F0102178D
:1048D300DB7F030217DB74012523F5D975D9037830
:1048E300002274F5121709124965600478048002E6
:1048F3007800E8240BF8EAC398405575230990051E
:10490300457409F07908124958120B5485218285A0
:104913002283E0601E752145752205782112191C3A
:104923007C097903EEFAEFFB120BC674021216AF81
:1049330075230D1248D980031246A2E8C39523407C
:10494300F775E1957904120D28124AD8790180028E
:1049530079000248D4EE24E2FCEF3400FD7A467B72
:1049630005221246B3F8EF12496E223400F988216A
:1049730089228882F583E02274F31217098A218B36
:1049830022124AE4FAE5212482F523EB124A3B6022
:1049930004780480027800E82408F8EAC3985003F6
:1049A300024A34752506900545740CF09003BFE068
:1049B300900546F07402C0E0F97CC07D037A477B22
:1049C30005120B54D0E0F97CC27D03120B548523EE
:1049D30082852483E0601E752345752405782312A0
:1049E300191C7C067903AA21AB22120BC67402128E
:1049F30016AF75250A74012525F5D975D9037800F5
:104A030080098823744525231246A8E8C3952540C9
:104A1300F175E1957904120D28E521246FF582E5FE
:104A2300221247BDE5212471F582E52212478D80CC
:104A33000279007F050217DB3400F524852382F514
:104A430083E02274F6121709EAFEEBFF124AE4FC34
:104A5300EE2482F8EF124B6760047A0480027A0036
:104A6300EA2404FAECC39A40607A02900545EAF01E
:104A7300EE24F4F582EF124AEE601B752145752290
:104A830005782112191C7C027903EEFA120BC67405
:104A9300021216AF7A0674012AF5D975D903780084
:104AA30080031246A2E8C39A40F875E195EE247399
:104AB300124AD1EE247F124AD1124AD87904120D38
:104AC30028EE240D12477E80027900024896F58273
:104AD300EF124C6D22EE241DF582EF124C6DA3F004
:104AE300229061D0E0F87480C39822124C3590056F
:104AF30046F088828983E02274F6121709124AE489
:104B0300FEEA2482F8EB124B6760047C0480027C8B
:104B130000EC2404FCEEC39C40457C0290054574E4
:104B230007F0EA24F5F582EB124AEE60177521458A
:104B3300752205782112191C7903120BC67402120F
:104B430016AF7C0674012CF5D975D9037800800360
:104B53001246A2E8C39C40F875E195790180027979
:104B6300000248963400F988828983E02274F512A2
:104B73001709E9FEA2AFE433F523C2AF7F00EA24AD
:104B83006EF8EB3400F980010F88828983E0F52108
:104B9300EFC3952150188F21EA2521FCEB3400FD4A
:104BA300EC246AF582ED124C316E70DC8017EA2535
:104BB30021FAEB3400FBEA246AF582EB124C5EEE39
:104BC300124AF404F0E523A2E092AF0248D474F64B
:104BD300121709A2AFE433FFC2AFEA246EF8EB1257
:104BE3004F9BE014F07E0080218E21EA2521F8EB13
:104BF3001251C5246BF582E9124C31C0E0E8246AF6
:104C0300F582E9124C5ED0E0F00E8C828D83E0F8E1
:104C1300EEC39840D4EA246DF582EB124C5E74FF28
:104C2300124C62EFA2E092AF024896F582EB124C6F
:104C330035223400F583E022C082C083E5A8F8C2A0
:104C4300AFEA246AF582EB124C5EE9124C62E8A2E9
:104C5300E7A2E792AF024338F582E812450422F057
:104C6300EA2469F582EB124C6D223400F583E4F0FB
:104C73002274F21217098C828D83A3A3A3A3E05499
:104C83001FF0EA2436124F918E828F83E4F0F525CC
:104C9300852582858223EC2523F8ED12496EC0E039
:104CA300EA2523F8EB124D09D0E0F07526008521A3
:104CB30082852283E0F523752400E52678231216E6
:104CC30067E523A2E0502AE52533333354F825263C
:104CD300C0E08E828F83E0F8EA28F8EB1251C524F6
:104CE30038F582E9124C5ED0E0F08E828F83E004C7
:104CF300F00526E526C3940840B40525E525C394AD
:104D030005408D02469D3400F9E8245DF582E912E1
:104D130045042274F61217099003CEE06401700370
:104D2300024E177A009003D4E06003024E17740119
:104D3300F0A3E4F0A3F090043404F0900439F0906D
:104D430003D7124F2E9003E104F0900407E4F09090
:104D530003EA124F2FA3F0A3F0A3F0900451F090B5
:104D63000445F090043A7480F0A3E4F0900440F01A
:104D73009004BC124E1E9004C5F0900454F09004AD
:104D8300A4124E1EA3F0A3F09004B0F09004B2F06E
:104D93009004AEF09004C8124E1E8A21743C125146
:104DA300BE7404124C5E74FFF00AEAC3940440EA32
:104DB3007A008A82A88274DC28F5827404124C314A
:104DC300C0E0742F28F5827404124C5ED0E0F00A20
:104DD300EAC3940540DC7A008A82A88274B628F577
:104DE300827403124C31C0E074B428F58274041247
:104DF3004C5ED0E0F00AEAC3940840DC9003CEE0B6
:104E030004F0640170089003D6E09003D0F07AD2E6
:104E13007B0380047A007B00024896124F33A3126F
:104E23004F3322C082C083EA2403124C2E6008E46D
:104E3300F09003CFE014F09003CEE014F0700690EE
:104E430003D074FFF08A828B83A3A3E4F09004E180
:104E5300E0700D9003CFE0640170057900120D0A34
:104E6300024338C082C0839003D5E4F09003D4F0AA
:104E73009003CEF0A3F0A374FFF075E1F102433881
:104E8300C082C083780079009003D5E0600478D2B3
:104E9300790388828983A3A3A3A3E0F90243387427
:104EA300F6121709EAFEEBFFEE2463F521EF340057
:104EB300F5228016AA21AB22120B4812116C900422
:104EC300E2E004F09004E3E004F08521828522838C
:104ED30012526870DFEEFAEFFB120B06EEFAEFFBED
:104EE300120BFC02489674F7121709EAFEEBFF8EC9
:104EF300828F83A3A3A3A3E0FA7B00120878EEFAC0
:104F0300EFFB120B18120BDE0248CF74F6121709CF
:104F13007800882174B61251BE7403124AD408E88B
:104F2300C3940840ED9003B6024893E4124F332232
:104F3300F0A3F0A3F0A3F02274F6121709EA240DEC
:104F4300124F91EC2403F8ED3400F988218922EC07
:104F53002407F8ED124F9B1247C1852182852283D6
:104F6300E0FAA3E0FB12160E8E828F83E8F0A3E92A
:104F730012527C852182852283E0FAA3E0FB12167C
:104F83000E8B22EA45226003124FA7024896F8EBE4
:104F93003400F9E8FEE9FF223400F9E8FCE9FD8C6E
:104FA300828D83228E828F83E02401F0A3E034007C
:104FB300F02274F6121709EA242E124C2EFCA3E0F9
:104FC300FDEA246F124F91780079FAECFAEDFB12A7
:104FD300160E8E828F83E8F0A3E9F0780079FAEC5D
:104FE300FAEDFB12160E8B22EA45226003124FA73D
:104FF30002489674F0121709EAFEEBFF74101216BA
:10500300E57821121551120CBC8A258B268C278D2D
:1050130028908FC078251214DD908FCC7825121537
:105023002B78251219188E828F831250F212156F66
:1050330012215174041216AFE960030250E28E820A
:105043008F83E02402F8A3E01251C5FAE9FB8A82B8
:105053008B8378211214F0908FCC78211215518A0A
:10506300828B83782112153EEE240BF582EF124CCE
:105073005EC082C0838E828F83A3A3A3A3A3E024F5
:1050830001F8A3E03400F9D083D082E0687003A371
:10509300E069700479018049EE2407F8EF3400F9E0
:1050A30088828983124FABEE24731250E97014EE99
:1050B30024741251017003A3E06D70078A828B83FD
:1050C300124FABEE247F1250E97014EE248012517C
:1050D300017003A3E06D70078A828B83124FAB7953
:1050E300007F080217DBF582EF124C3564012212B0
:1050F30050F622E0F8A3E0F5838882A3A322FAEF17
:10510300125109E06C223400FB8A828B83E0FCA3FA
:10511300E0FD888289832274F3121709E9FEECFF0C
:10512300EA2462F582EB1250EC60030251B5906100
:10513300D0E0F521EA2482124C2EF5256004780490
:10514300800278007480C39521FC95E0FDEF28F878
:10515300E41251C52402F8E93400F9EC98ED99A260
:10516300D265D0334048740D1216E5E0F523A3E071
:10517300F524E5256015782312191CEFFCEEF912CE
:105183000BC674021216AF74042FFF74012FF5D9E6
:105193008ED97800800C8821E5231251BEE52412B4
:1051A30046ACE8C39F40EF75E19579008006790727
:1051B300800279FF024A368821741B2521F5822259
:1051C300F8EF3400F9E82274F7121709A2AFE433B9
:1051D300F521C2AFEA2402F8EB3400F98A828B830B
:1051E300E0FEA3E0FFEE4F600E88828983E0FAA31E
:1051F300E0F5838A8280048A828B8312520A1252D8
:1052030014F0E5210248C9ECF0A3EDF0888289830C
:1052130022ECF0A3EDF08C828D83E4F0A32274F7EB
:10522300121709EAFCEBFD7A007B00A2AFE433FE20
:10523300C2AF8C828D831252686022E8FAE9FB8A3E
:10524300828B831247C112526EE4F0A312527CE8A0
:1052530049700A8C828D83A3A3E4F0A3F0EEA2E04D
:1052630092AF0248CF125285E849228C828D83E89F
:10527300F0A3E9F08A828B8322F08C828D83125211
:105283008522E0F8A3E0F922C082C0838003125292
:10529300B9E9F874FF28190470F4ECFAEDFB024342
:1052A30038C082C08380031252B9E9F874FF281909
:1052B3000470F40243388C828D83E08A828B83F0FE
:1052C3008C828D83A3AC82AD838A828B83A3AA82D3
:1052D300AB832274F012170974FA121699ECFEEDDF
:1052E300FF7521008A238B24782312196000041090
:1052F300E854175334534E53655382539953B95358
:10530300D053E3530C5483549354A954C354E854D3
:10531300E854225474016960030254E38C828D8340
:10532300E0F8C3940340030254E3E8900C1D0254D5
:10533300C074026960030254E38C828D83125CA6FD
:10534300F9900C1EE8F0A3E90254C07401696003EC
:105353000254E312551440030254E3E89007490250
:1053630054C074016960030254E38C828D83E0F8B6
:10537300C3940540030254E3E890074A0254C074FF
:10538300016960030254E312551440030254E3E835
:1053930090074B0254C074106960030254E37523F1
:1053A30010752400782312191C7A4C7B071264C4ED
:1053B3001216AF02550874016960030254E31255D3
:1053C3001440030254E3E890075C0254C07401697B
:1053D30060030254E38C828D83E0900C210254C05D
:1053E30074046960030254E38C828D83782512155B
:1053F30051908FB8782512138450030254E3900719
:105403005E7825121560025508E960030254E31221
:1054130005FCE97005120FF280519007F1805D746D
:10542300076960030254E375230675240078231289
:10543300191C8C828D83A3AC82AD8374021216F780
:105443001210EE74021216AF7C007D00AA41AB422B
:105453008E828F831258DAFEC3940A4003025505E5
:105463001205FCE9700CEEF9120FF8795012121ABA
:10547300806974F22EF582E43407F5837401803D6C
:10548300740169705B1255145056E890075D802DC6
:10549300740169704B8C828D83E0F8C3940A504089
:1054A300E8900C20801774016970358C828D83E03D
:1054B300F874F928C3940A5027E8900C22F0804529
:1054C300740169701B9007F0E0F88C828D83E09083
:1054D30007F0F0E8702FE06401702A120FE68025D0
:1054E3007521188020C3EA9427EB940050147402AA
:1054F30069700F8C828D83125F8A12049AE9F521F9
:105503008003752102A92174061216AF7F080217C2
:10551300DB8C828D83E0F8C3940222A92102584DCB
:1055230074F012170974B11216998C238D24908F7D
:105533007074201216FF74061215AC74201216FF35
:10554300120F9EE9FF745F1216E5E0F522E9C3949A
:105553000A400302569E75F006E9A4F52174411230
:1055630016FF7A0E74202521125D947009744D1272
:1055730016E5E0FE80027E00900C1DE064027005DB
:10558300752701800375270074086522700474224F
:10559300800274212521F5267C1B7D007900742669
:1055A3001216F712110074261216FF7A1BA926127F
:1055B3005D95702D74401216E5E024F9C3940A50EA
:1055C30020E527F526782612192074271216FFEEF8
:1055D300A2E0E433F9AA23AB2412053C74011216AA
:1055E300AF7C147D007900740C1216F7121100744D
:1055F3000C1216FF7A1074242521125D9470337CEB
:105603001079FF740C1216F71261D27025741C12F4
:1056130016E5AC82AD837A0474252521F9121214A0
:10562300740C1216FFEEA2E0E433F9AA23AB2412A2
:105633000524AC41AD427A0C74702F125D94704A0C
:10564300AA41AB42120FCE7F00EF75F003A4F8A975
:10565300F0854182854283E58228F8E58339F9881C
:1056630082125F82601D88828983A3A3E0F5277578
:105673002800782712191CAA23AB24120788740266
:105683001216AF0FEFC3940440BFEEA2E1500C908B
:105693000748E0F9AA23AB2412078E74046522702D
:1056A30028900C1DE0640270207A0090075CE06093
:1056B300027A01900749E06004780480027800E8E8
:1056C3004AF9AA23AB241205E47900744F02550C5E
:1056D30074F012170974F0121699EAFEEBFF8C218D
:1056E3008D2275230AE9600C146009146039146073
:1056F3007B0257C4120FE0E9F523C3940A40030267
:1057030057C4E521452270030257C4752506752643
:1057130000782512191CEEFCEFFDAA21AB221264BE
:10572300C41216AF0257C4752500752706752800E5
:10573300782712191CEEFCEFFDE52575F00EA4F891
:10574300A9F0746A28FA740739FB1210FA7402126A
:1057530016AFE9700B0525E525C3940A506380CA8B
:10576300852523E523C3940A50578046752500AC4D
:1057730041AD427A1075F006E525A42423125D9409
:10578300701B7C1079FFAA41AB421261D2700EEEFE
:10579300FCEFFDAA41AB42120506E9600B0525E5C6
:1057A30025C3940A501B80C7852523E523C3940A88
:1057B300500FE52145226009AA21AB22A923120F2C
:1057C300DAA923741002550C74F41217098922758F
:1057D300211574FF6A700374FF6B70277E00AC227F
:1057E3007A027B00EEF9120FBCE960037521000E0B
:1057F300EEC3940A40E8E52260487A0A7B10120956
:1058030086803F1209688A238B24AE23AF24EA4F94
:10581300602D7C007D00EA2405FAE43FFB8E828F35
:10582300831258CE500CAC227A027B00120FBC7547
:105833002100E522600CEEFAEFFB12100A800375DB
:10584300211402551E740E1216AF7F040217DB7467
:10585300F2121709ECFEEDFF752115740E1216E511
:10586300E0F523A3E0F52474FF6A700374FF6B7003
:1058730021752200AC23AD24EEFAEFFBA922120F0F
:10588300C2E960037521000522E522C3940A50345E
:1058930080E21209688A828B83E582458360227CD9
:1058A300007D00E5822405FAE43583FB1258CE50CF
:1058B30013AC23AD24EEFAEFFB120FC27521008067
:1058C30003752114A9217F060217DBA3A3A3A31247
:1058D30058DAF9C3940A22E0F9120F9EE922C08232
:1058E300C083900762EAF0A3EBF0900748E0FC7DE9
:1058F300007A267B0012049A900748E0F912070405
:1059030002634274EE12170974EC121699EAFEEB65
:10591300FFEA240CF529E43FF52A8A828B83A385C9
:105923008225858326EA2405F527E43FF528EA2422
:1059330009F523E43FF524EA2403F521E43FF522A6
:105943008A828B83A3A3E024FA7003025BCA24FD3B
:105953007003025ADD1470030259E714601024FD2A
:105963007003025AC0147003025B11025C1F1266BB
:10597300216049E0F5838882125CA68825F526E834
:1059830045266038852982852A83E0F52778271202
:105993001920EA240BF582E43FF583E0F98523829D
:1059A300852483125F8A0A0A0AAB2285258285260B
:1059B3008312170774011216AF025C1F85238285B9
:1059C300248312193390075E12156F120536740281
:1059D3001216AFE97003025C1F79018523828524C7
:1059E30083025B89852582852683E06003025AA3AF
:1059F300852782852883E0A2E04003025AA390070B
:105A0300FC1266246003025AA37C0E7D007900AA6F
:105A130041AB42121100852982852A8312665CEA12
:105A23004B6010752306752400782312191CEA2491
:105A330010802185218285228312665C120968EA1F
:105A43004B7003025C1F752306752400782312191B
:105A53001CEA2405FCE43BFD74021216F71264C42D
:105A63001216AF852782852883E0A2E25004D2F084
:105A73008002C2F0A2F0E433F8740C1216E5E04899
:105A8300F0EEFCEFFDAA41AB42120FD4E970117A9C
:105A9300027B00900748E0F912113C7900025C2177
:105AA3001266217003025C1F125C2B7003025C1FE1
:105AB300852582852683E0FC7901025BB812662185
:105AC3007003025C1F125C2B7003025C1F8525822E
:105AD300852683E0FC7902025BB87C007D00EA2422
:105AE30004FAE43FFB8521828522831258DAF8C346
:105AF300940A4003025C1FEE240AFCE43FFD7A048F
:105B030075F006E9A42425F912120E025C1F852103
:105B13008285228312665C90075DE06007900C200B
:105B2300E0F98065900C1DE070047905805B120933
:105B3300688B26A926EA2404F525E439F5268E8206
