:020000040000FA
:060000000201070220D0FE
:03001B000225E1DA
:03002B0002251893
:030033000225386B
:0300530002214641
:03007B000224D587
:10008300021F7FE5C754F84401F5C7790122000038
:100093000080FB120086B900030200F1E4792178A5
:1000A3000FB800028004F709D8FCE479307802B86D
:1000B30000028004F709D8FCE49002817848790AA9
:1000C3008002F0A3D8FCD9FA7AC87B0B9001377869
:1000D3009879038015E493A3AD82AE838A828B83E0
:1000E300F0A3AA82AB838D828E83D8E9D9E7758288
:1000F300B275839E7403120119758291758300741E
:100103000012011975D00075815F75188175190288
:10011300759F00020096C09FF59FE473D09F22D085
:1001230083D082C09FE493C0E0740193C0E0740263
:1001330093F59F22FF0000B4000028002800283018
:1001430075A000A000A000A00000080008E001F0D6
:10015300001000100010001000100010005000509C
:1001630000500010001000D0070000000000000F36
:100173000001000500307507001000010081FF0039
:10018300000000FFCC05EA05D205FF0202020802C7
:100193005000A0000000E803025A900100003C90C8
:1001A3000248900100001F0C024E90010000B302B0
:1001B300024890010000200C025090010000C90287
:1001C300024890010000210C025290010000CB0272
:1001D300024890010000220C025490080000CC0257
:1001E300024890010000230C025690010000240CE9
:1001F300FF0100FF20025A90010000459002489041
:10020300010000880C0258900000000000024C908E
:100213000300001903F00BF00BF00BF00BF00BF0E5
:100223000BF00BF00BF00BF00BF00BF00BF00BC61D
:100233000EDE0EC00E020202020202020202010DD3
:100243000000001001025A90010000429002489001
:10025300010000C90C0270900100004007024890A1
:10026300010000CA0C026E90010000998F024890B1
:10027300010000CB0C026A900100006F8F024890CE
:10028300010000CC0C026890010000C78E02489068
:10029300010000CD0C026690010000D98E02489047
:1002A300010000CE0C026490010000FD8E02489014
:1002B300010000CF0C027290010000EB8E02489007
:1002C300010000D00C0262900100007D8F02489073
:1002D300010000D10C026090010000D20C01E80380
:1002E300053F100A0C5541525420525800105541F5
:1002F300525420545800025A900100003F90024883
:1003030090010000780D100F8F0200007908024A57
:1003130090010000790D024890010000810D103F0B
:100323008F0000008D08024C90030000A108024AD0
:1003330090010000820DFFFFFF00013075030201F1
:1003430006000000000000000000000000000000A4
:1003530000000000000000000000000000FFFF0696
:1003630000800CE803000330003100320033003416
:1003730000350036003700380039003000310032D4
:10038300003300340035003600370038003900CA26
:10039300131F141F141F141F142714020106110620
:1003A3009ECADC240EE5A9E093F3A3B50100406ED9
:1003B3005645534320424C452055415254000000BA
:1003C3000000000000941300009A131201220A8F08
:1003D30003120122218F03120122528F03120122E1
:1003E3008D8F03120122B78F03120122E18F0312B3
:1003F3000122F88F031201220F900312012226908B
:10040300031201224F900312012262900312012270
:100413007890031201228B9003120122B2900312EF
:100423000122DE9602120122E297021201221A9899
:10043300021201223D98021201224898021201225F
:100443006B98021201227A99021201224F9A021228
:100453000122CA9A02120122529B021201228D9B8F
:1004630002120122C49B02120122529C0212012297
:100473002B9D021201228B9D02120122969D0212D4
:100483000122159E02120122189E021201221B9EB6
:1004930002120122AA9E02120122AD9E0212012221
:1004A300DD9E02120122079F02120122F59F021212
:1004B3000122A7A00212012256DA021201227EDAD9
:1004C30002120122ACDA02120122E3DA0212012241
:1004D30041DB021201228CDB02120122D7DB021262
:1004E300012217DC021201225DDC021201228BDCE5
:1004F3000212012248DD0212012252DD0212012200
:100503005FDD0212012292DD021201225EDE02127F
:1005130001226ADE0212012282DE021201228CDE35
:1005230002120122B29903120122C099031201227D
:10053300D89903120122F0990312012241B001124A
:100543000122EDB00112012268B10112012289B228
:1005530001120122C5B2011201226EB3011201225E
:1005630055B401120122B9B50112012210B60112CC
:10057300012291B60112012281B701120122CEB7E5
:100583000112012254B80112012286B8011201227C
:100593009ABA01120122DCBA01120122FABA01123B
:1005A30001227DBB0112012251BC0112012219BD9E
:1005B300011201222BC202120122FEC202120122E7
:1005C300A7C302120122FAC302120122AAC4021211
:1005D300012236C50212012222C60212012251C68D
:1005E3000212012264C702120122ACC702120122C5
:1005F30081C802120122BDC802120122D9C8021207
:100603000122449D03120122F9EB021201220FEC95
:100613000212012235EC0212012251ED02120122D3
:100623005BED0212012290EE0212012288EF021208
:1006330001226CD0021201229CD102120122CFD1DD
:100643000212012219D202120122E0D30212012264
:10065300759001120122DF90011201223E920112D4
:1006630001224E92011201227B9201120122D292A7
:10067300011201227B9301120122829401120122B1
:100683004C9501120122AC9601120122EF96011240
:100693000122949701120122E19701120122079886
:1006A30001120122159A011201221A9A0112012242
:1006B3001F9C011201226C9C01120122DF9C01127A
:1006C3000122129D01120122B49D011201225D9E9D
:1006D30001120122959E01120122989E011201220C
:1006E300E09E01120122209F01120122779F011235
:1006F300012217FD021201222FFD0212012277FDB2
:10070300021201228DFD02120122D4FD02120122E6
:10071300E8FE0212012275FF02120122C0FF02123B
:1007230001224026001201224C26001201228726B4
:1007330000120122CC26001201228C270012012272
:10074300122800120122772800120122A328001286
:100753000122DC28001201221A2B00120122FE2C96
:1007630000120122E42E001201222730001201227E
:10077300753200120122873300120122D234001293
:100783000122E23500120122FF35001201223A361E
:10079300001201225C3600120122BF360012012230
:1007A300803B00120122153C00120122663C00121C
:1007B30001228D3C00120122DF3C00120122FD3C8C
:1007C30000120122573D00120122403E0012012275
:1007D300B63F001201223A400012012213DF021237
:1007E30001221DDF0212012260DF021201227BDFE0
:1007F300021201220BE00212012233E00212012253
:1008030070E002120122A7E002120122D0E00212DC
:10081300012245E1021201225AE1021201226FE193
:1008230002120122A0E102120122B4E1021201220A
:10083300D9E10212012213E2021201223FE2021263
:100843000122C2E2021201220BE30212012235E36A
:100853000212012260E302120122C1950312012256
:1008630004E90112012232E90112012280EA011294
:10087300012260EB011201227FEB01120122FCEB4A
:10088300011201223FEC0112012295ED0112012216
:1008930056EE01120122DDF0011201227EF1011256
:1008A300012274F20112012271F301120122CBF42D
:1008B3000112012256F501120122A27E0012012229
:1008C3000B7F001201225F7F00120122867F00123C
:1008D3000122B77F0012012288E302120122F5E30D
:1008E300021201223CE40212012254E50212012207
:1008F30050E60212012233E70212012291AA0212E8
:100903000122D3AA02120122A5AB021201227EAC5C
:100913000212012278AD021201225AAE0212012202
:10092300C3AE0212012279AF02120122EDAF02120D
:10093300012259B00212012282B002120122FCB03C
:100943000212012295B102120122FAB1021201220E
:100953000FB20212012255B2021201226EB202122A
:100963000122D3B202120122D6B202120122008066
:10097300031201222880031201226680031201223E
:100983002481031201228B8103120122A781031206
:100993000122CF8103120122FF81031201220E8261
:1009A300031201228B8203120122B182031201225C
:1009B30064A00112012202A2011201221DA401124C
:1009C300012259A40112012286A4011201226BA55E
:1009D30001120122B2A501120122F6A50112012280
:1009E30008A60112012248A60112012275A60112CE
:1009F3000122C0A60112012200A7011201222EA783
:100A03000112012280A70112012210A80112012262
:100A1300AEAA01120122C4AC0112012202AD0112DD
:100A2300012293AE01120122D8AE011201224FAF6F
:100A33000112012299AF0112012218A1021201220F
:100A430097A10212012259A70212012268A80212D9
:100A53000122D0A90212012267AA02120122A14097
:100A630000120122EA400012012217410012012262
:100A73004A41001201225741001201226341001230
:100A830001227541001201225C4200120122BA4286
:100A930000120122EF42001201223244001201220D
:100AA3007F4400120122A3440012012210450012C8
:100AB3000122CE4500120122874600120122F4468C
:100AC30000120122A64700120122B647001201229A
:100AD3003D4800120122FC4800120122294900125C
:100AE3000122A24900120122FF4900120122494AB0
:100AF30000120122DF4A00120122AA4B0012012236
:100B03005F4C00120122D44C00120122354D001219
:100B130001229F4D00120122D84D001201227A4E6C
:100B2300001201228A4F00120122CA4F0012012231
:100B3300E74F001201220650001201224D5000120D
:100B430001227250001201229F50001201221951FA
:100B5300001201225A51001201227E520012012278
:100B63002E5300120122855300120122EF5300126B
:100B73000122085400120122D7F5011201222AF69C
:100B83000112012236F6011201220BF70112012292
:100B930032F7011201226DF701120122D9F7011276
:100BA300012215F8011201224EF80112012266F802
:100BB30001120122BBF801120122D4F80112012211
:100BC3001DF90112012230F9011201224AF9011221
:100BD300012260F90112012293FA01120122DAFBC8
:100BE30001120122DCFC01120122D6FD01120122B5
:100BF300FD7F00120122CDDB01120122FDDB011278
:100C03000122C5DF011201221CE101120122E5E1EB
:100C13000112012265E30112012236E401120122CD
:100C230073E40112012296E401120122D4E40112B9
:100C33000122DDE40112012227E50112012231E53F
:100C430001120122DBE501120122B4E601120122A5
:100C530008E7011201226AE701120122BDE701122E
:100C63000122ECE70112012229E801120122C667E1
:100C7300001201222D6B00120122336B001201229C
:100C8300B570001201222E750012012204790012A0
:100C93000122A8F6021201221EF70212012234F7E2
:100CA3000212012275F702120122AFF7021201228A
:100CB30028F80212012263F802120122D6F8021266
:100CC300012214F9021201221DF90212012229F94B
:100CD3000212012245F90212012270F902120122C5
:100CE30086F902120122CAF90212012293D50212D5
:100CF3000122A6D502120122C0D502120122E9D592
:100D0300021201222CD6021201226BD602120122F8
:100D1300A9D6021201220ED70212012223D70212F0
:100D230001222ED7021201223BD70212012252D7EF
:100D33000212012260D7021201226BD70212012292
:100D430077D7021201228AD70212012295D7021203
:100D53000122B8D7021201225FD8021201226FD8F2
:100D63000212012289D802120122A6D802120122FC
:100D7300C2D802120122E7D802120122F2D80212CB
:100D8300012207D9021201221BD9021201227CD9A6
:100D93000212012282D90212012288D902120122EF
:100DA3008ED902120122A6D902120122D9D9021226
:100DB3000122A3CD0112012227CE01120122D6CE98
:100DC3000112012235D00112012256D20112012251
:100DD30042D30112012277D30112012299D30112C6
:100DE300012248D40112012240D60112012269D600
:100DF30001120122FBD6011201222DD70112012279
:100E03003AD70112012291D701120122B7D7011259
:100E1300012224DA0112012227DB011201227FDBE6
:100E23000112012232BF011201223CC00112012230
:100E330023C1011201222DC1011201224FC101124E
:100E430001225BC101120122F4C20112012223C358
:100E5300011201223FC40112012298C4011201228E
:100E6300FEC501120122DDC60112012239C701129A
:100E73000122A6C701120122E1C70112012220C8E3
:100E830001120122D9CA01120122F3CA011201225D
:100E93007FCB011201228DCB01120122E6CB01127D
:100EA3000122F4CB0112012267CC01120122CBCC27
:100EB3000112012215CD01120122B08B021201226F
:100EC300D28B02120122F88D021201220D9102121D
:100ED3000122259202120122D89202120122BA9310
:100EE300021201227A92031201229F92031201221B
:100EF300119303120122B1BA02120122BABA0212E9
:100F03000122C3BA021201229ABB021201224BBD73
:100F13000212012281BD02120122BBBD0212012273
:100F2300F1BD021201222BBE021201225FBE021288
:100F330001228BBE02120122D4BE021201220EBF75
:100F43000212012257BF02120122AFBF0212012275
:100F5300E4BF021201223FC00212012279C0021231
:100F63000122CAC00212012200C1021201223AC1A7
:100F73000212012268C1021201228BC10212012254
:100F8300609B031201228C9B03120122E79B031235
:100F93000122F19B03120122019C03120122C48549
:100FA30003120122E98503120122999F03120122F0
:100FB3003A540012012287560012012237580012B8
:100FC30001222F5900120122B65900120122455A5B
:100FD300001201226A5A001201229B5D00120122B3
:100FE3000F5E00120122FE5E00120122345F001226
:100FF3000122775F00120122F460001201223661A0
:10100300001201227F6100120122E8610012012215
:101013000A620012012224620012012242630012BA
:1010230001225263001201226264001201227764DA
:1010330000120122AD64001201222E660012012269
:101043006B66001201229067001201222AA003128C
:101053000122509F031201228F9F03120122EAFFF4
:1010630002120122AA9C03120122BA9C031201223A
:10107300D29C031201223A9D03120122DA96031233
:1010830001225D9703120122C397031201220B9CD5
:10109300031201220E9C03120122479C0312012218
:1010A300979C0312012292EF02120122A6EF021271
:1010B30001221FF002120122F3F002120122C5F2F3
:1010C30002120122C490031201227791031201221A
:1010D300369203120122659203120122F98203124E
:1010E3000122378303120122548303120122BC839A
:1010F300031201221C8403120122BE840312012263
:10110300899A03120122AC9A03120122D59A03127F
:101113000122179B031201225379001201225D79E8
:10112300001201229D7900120122E67900120122A8
:101133001E7A00120122747A00120122917A00129F
:1011430001229A7A00120122DF7A00120122087B1F
:1011530000120122127B00120122837B0012012262
:10116300107C00120122757C001201229E7C001269
:1011730001221A7D00120122557D001201228A7D6F
:10118300001201229C7D00120122BB7D001201226C
:10119300C47D00120122767E001201221F940312E5
:1011A3000122709403120122F99403120122639520
:1011B30003120122D38A03120122FB8A03120122A2
:1011C300C28B031201229D8C03120122DC970312AE
:1011D30001220E8D03120122448D03120122778D09
:1011E30003120122D08E031201224A9E031201220E
:1011F300609E031201226A9E03120122FAB20212B6
:101203000122B4B302120122EFB30212012220B46D
:101213000212012280B402120122CAB40212012274
:101223001FB502120122AAB502120122A3B60212AD
:10123300012219B802120122A9B8021201220FB920
:101243000212012222B90212012207BA021201225A
:1012530051BA02120122F5E7021201220BE802122F
:101263000122AFE802120122EEE8021201220BE989
:10127300021201223CE90212012289E9021201222F
:10128300BCE902120122F7E902120122ECEB02127D
:101293000122A1FF011201220080021201223883E0
:1012A300021201228F8302120122AE830212012253
:1012B3002C8402120122B0850212012283860212BB
:1012C3000122368A021201221A8B02120122C89DC0
:1012D30003120122F89D031201222D9E0312012203
:1012E3002F9E03120122319E03120122429E0312FA
:1012F3000122449E03120122479E03120122738896
:1013030003120122E4880312012206890312012237
:101313003E8903120122748903120122FAF902128F
:10132300012241FA0212012264FA021201229CFCF8
:1013330002120122B6FC02120122E1FC0212012276
:10134300059F031201224EC90212012227CA02126B
:10135300012216CB0212012227CB0212012238CB23
:101363000212012282CB021201223BCD0212012280
:1013730099CE02120122C9CE0212012293CF021288
:101383000122F3CF021201222AF30212012260F595
:101393000212012216F60212012261F60212012242
:1013A3009AF602120122D298031201220C99031217
:1013B30001222F9903120122569903120122E09F61
:1013C300031201220CA003120100020200002051AB
:1013D30004AA1609000102030109024300020100E5
:1013E3008019090400000102020100052400100114
:1013F3000424020205240600010524010001070557
:10140300820340004009040100020A0000000705AE
:10141300840240000107050402400001E5130000B7
:1014230008140000E066701008A3E066700A08A3C1
:10143300E066700408A3E06622C3E7960809E7960E
:101443000809E7960809E79622C3E09608A3E09601
:1014530008A3E09608A3E09622C008C3E096F50827
:1014630008A3E096420808A3E096420808A3E09682
:1014730045087001D3D00822BB0102E722C082C015
:101483008389828A83BB0003E08002E493D083D004
:101493008222BB000EC082C0838A838982F0D083FC
:1014A300D08222BB0101F722080808EAC0E0EBC0A2
:1014B300E086F0E7A4FA180986F0E7A42AFA1809E7
:1014C30086F0E7A42AFA180986F0E7A42AFA19860F
:1014D300F0E7A4FBE5F02AFA190886F0E7A42BFB52
:1014E300E5F03AFA190886F0E7A42BFBE5F03AFA9F
:1014F30018180986F0E7A4C5F02BFBE43AFA19089B
:10150300E7C5F0C6A426F6E5F03BFBE43AFA1886F5
:10151300F0E7A4F6E5F00826F6E43B08F6E43A081B
:10152300F6D0E0FBD0E0FA22E4CFC0E0E4CEC0E0A6
:10153300E4CDC0E0E4CCC0E075F020E626F608E692
:1015430033F608E633F608E633F6181818EC33FCDE
:10155300ED33FDEE33FEEF33FFC3EC9709ED97094F
:10156300EE9709EF97191919400FFFEC97FC09ED56
:1015730097FD09EE97FE191906D5F0BFECF709EDB3
:10158300F709EEF709EFF7191919D0E0FCD0E0FDE0
:10159300D0E0FED0E0FF226016080808C6C313C6D9
:1015A30018C613C618C613C618C613C6D5E0EA2252
:1015B3007009080808226016181818C6C333C6082D
:1015C300C633C608C633C608C633C6D5E0EA22E624
:1015D30027F60809E637F60809E637F60809E63775
:1015E300F622E026F608A3E036F608A3E036F6086E
:1015F300A3E036F622E026F008A3E036F008A3E0E5
:1016030036F008A3E036F022C3E697F60809E6971A
:10161300F60809E697F60809E697F622C3E096F07E
:1016230008A3E096F008A3E096F008A3E096F02262
:10163300E056F608A3E056F608A3E056F608A3E042
:1016430056F622E056F008A3E056F008A3E056F061
:1016530008A3E056F022E0F608A3E0F608A3E0F6BC
:1016630008A3E0F622E6F008A3E6F008A3E6F008F4
:10167300A3E6F022E0FAA3E0FBA3E0FCA3E0FD2253
:10168300EAF0A3EBF0A3ECF0A3EDF022E0F8A3E083
:10169300F9A3E0FAA3E0FB22E8F0A3E9F0A3EAF060
:1016A300A3EBF022CAC0E0E6F0A308DAFAD0E0FA2E
:1016B30022CAC0E0E0A3C582CCC582C583CDC58361
:1016C300F0A3C582CCC582C583CDC583DAE6D0E05D
:1016D300CA22C3E498F8E499F91217168026C3E4E2
:1016E3009AFAE49BFBE920E7E9121716E498F8E479
:1016F30099F922C3E498F8E499F9121716E498F8D3
:10170300E499F9C3E49AFAE49BFB22EB20E7CFE9DF
:1017130020E7E0B90010BB0008E88AF084F8AAF0DB
:1017230022E4FBC8FA22EB70227B10C833C8C9330A
:10173300C9335007C39AC3DBF280069A50012ADBF0
:10174300EAC833F4C8C933F4C9FA2275F008E4C807
:1017530033C8C933C933C99AC99B5004C92AC93B81
:10176300D5F0ECFBC833F4C8E4C9FA22600D08C60F
:10177300A2E713C618C613C6D5E0F322600C08C649
:10178300C313C618C613C6D5E0F422700422600D35
:1017930018C6C333C608C633C6D5E0F418222518C5
:1017A30010AF08F518400C15198008F518400215FC
:1017B30019D2AF2200C0D0251810AF08F518500C6D
:1017C30005198008F51850020519D2AFD0D022258B
:1017D30018F58210AF08F518400C15198008F51894
:1017E30040021519D2AF851983222518F582E435F5
:1017F30019F583222518F8E43519F9222518FAE496
:101803003519FB222518FCE43519FD22E47325184C
:10181300C582C0E0E51934FFC583C0E0E518C39570
:101823008224F810AF088583198582188008858380
:1018330019858218D2AFCEF0A3E520F0A37808E68D
:1018430008F0A3DEFAEFF0A3E58124FAF8E608F046
:10185300A3E608F0A3E608F0A30808E608F0A3E669
:1018630008F0A315811581D0E0FED0E0F8158115AD
:10187300811581E8C0E0EEC0E0222518C582C0E0F2
:10188300E51934FFC583C0E0E518C3958224F91038
:10189300AF08858319858218800885831985821886
:1018A300D2AFCEF0A3E520F0A37808E608F0A3DEDC
:1018B300FAEFF0A3E58124FBF8E608F0A3E608F0CD
:1018C300A30808E608F0A3E608F0A315811581D064
:1018D300E0FED0E0F815811581E8C0E0EEC0E0221B
:1018E300851983851882E0A3FEE0A3F5207808E03C
:1018F300A3F608DFFAE0A3FFE0A3C0E0E0A3C0E0A3
:10190300E0A3C0E0E0A3C0E0E0A3C0E010AF08851F
:1019130082188583198008858218858319D2AFD0F0
:1019230083D08202011F851983851882E0A3FEE01C
:10193300A3F5207808E0A3F608DFFAE0A3FFE0A30D
:10194300C0E0E0A3C0E0E0A3C0E0E0A3C0E010AFCC
:10195300088582188583198008858218858319D2A2
:10196300AFD083D08222C0D02518C582C0E0E5194C
:1019730034FFC583C0E0E518C3958224F310AF0894
:101983008583198582188008858319858218D2AFCB
:10199300C8F0A3E9F0A3EAF0A3EBF0A37908E70901
:1019A300F0A3D8FAECF0A3EDF0A3EEF0A3EFF0A3CD
:1019B300D0E0F0A3D0E0F0A3D0E0F0A3E520F0A3C3
:1019C300E5F0F0A322851983851882E0C0E0A3E047
:1019D300F9A3E0FAA3E0FBA37808E0F608A3DFFA93
:1019E300E0FCA3E0FDA3E0FEA3E0FFA3E0C0E0A3CF
:1019F300E0C0E0A3E0F5D0A3E0F520A3E0A3F5F079
:101A030010AF08858319858218800885831985821C
:101A130018D2AFD082D083D0E0F8D0E03274048003
:101A23000A74038006740280027401C0E0F4041295
:101A330017D2D0E01216A72274048008740380041E
:101A430074028000CCC0E0EDC0E0E518C39CCCADCF
:101A53001950011D10AF068C188D1980068C188D36
:101A630019D2AF1216B4D0E0FDD0E0FC22D083D05F
:101A730082E9C0E0E493A3C386F0C5F095F0F908CA
:101A8300E493A386F0C5F095F0700BE493A3C39998
:101A93004005E9048002A3E475F002A42582F582DF
:101AA300E5F03583F583D0E0F9E493A3C0E0E49354
:101AB300C0E022D083D082ECC0E0EDC0E0E493A389
:101AC300FCE493A3FDED4C600D121B02EC24FFFC20
:101AD300ED34FFFD80EFE493A3FCE493A3FDED4C11
:101AE300600D121B41EC24FFFCED34FFFD80EFD0B1
:101AF300E0FDD0E0FCE493A3C0E0E493C0E022C0A7
:101B0300E0C3E49396087401939618400FE4936638
:101B1300700808740193661870007019A3A3C3E4D6
:101B23009396087401939618A3A3400DD0E0D0E0D8
:101B3300D0E0021AF2A3A3A3A3A3A3D0E022C0E0A0
:101B4300C0F088F0E4936670080874019366187017
:101B530000A8F0A3A3700BD0F0D0E0D0E0D0E00257
:101B63001AF2A3A3D0F0D0E02274F512187DEAFE96
:101B7300EBFFEE2434F8EF3400F988088909EE24EA
:101B830035121C98F8EE2437121C98F50AEC850AD6
:101B9300F0A4FCAAF0850AF0EDA42AFDE82CF8E4F1
:101BA3003DF97A257B00121716EA85088285098399
:101BB300F074075AF87401B800028004C333D8FCE8
:101BC300FBEA131313541FF8EE28F8EF3400F9E877
:101BD300245DF582E9121C9B5B6003EA801CEE2402
:101BE30036121C98F5F0EA84A8F0EE28F8EF3400DA
:101BF300F9E82438F582E9121C9BF97F04021929BC
:101C030074F512187DEAFEEBFFEE2434121C98C023
:101C1300E0EE2435F582EF3400F583D0E0F08E82D8
:101C23008F83A3A3A3A3A3E0FAA3E0FB8E828F83F6
:101C3300A3A3A3A3A3A3A3E0FCA3E0FDECC39AF592
:101C43000AED9BF50BEE247FF508EF3400F50985CB
:101C53000882F583E06401702BEE2480F582EF3473
:101C630000F583121A43121CA174021217B7E9601C
:101C7300137CDC7D04EEFAEFFB120B1885088285DA
:101C83000983E4F0AC0AAD0BEEFAEFFB121B6C1206
:101C930024C7021BFEF582EF3400F583E022C082E5
:101CA300C083851882851983E0F8A3E0F9C3EA9C11
:101CB300EB9D5010C3EC98ED99401BC3EA98EB9948
:101CC3005014800EC3EA98EB994007C3EC98ED9942
:101CD3004004790180027900D083D08222EAC39C38
:101CE300FAEB9DFB2274ED12187D9003A2E06408C9
:101CF3006005E06407702C9061C8E060269003D013
:101D0300E0F874FF68601CE875F003A4C8AAF02A21
:101D1300F974D228FE740339FF8E828F83A3A3A3A1
:101D2300E070057900021E88EE2468F510EF340098
:101D3300F511906060E0851082851183F0750A4586
:101D4300750B05750800750900E5D914F50EE5D97D
:101D53005403F50F601CEE2482F50CEF3400F50DEF
:101D63007403650F6058E50E6013EE2467121C9828
:101D7300700B793DEEFAEFFB120B3C80A690054009
:101D8300E064016026850C82850D83E0600478049D
:101D930080027800850E08E508C398FA95E0FB12E7
:101DA30009C28A088B09EA45097006120D94021DBF
:101DB30026850C82850D83E070048A0A8B0B7800DC
:101DC3008016E5D9C0E08812E50A2512F582E50BF5
:101DD3003400F583D0E0F008E8C3950E40E4850CA9
:101DE30082850D83E0602874FC250EF50E780A12B7
:101DF3001A28AC0EA90FEEFAEFFB120BEA740212CB
:101E030017B7E9700AAA08AB091211A2021D75746B
:101E130003650F6058850E0C750D00780C121A2897
:101E2300AC0AAD0BAA08AB09120BAE74021217B7BA
:101E3300851082851183E0F87480687005750C7FC6
:101E43008002880CE50CF50A780A121A2CE50FF5C6
:101E53000A780A121A2CA90EAC08AD099003D0E037
:101E6300FA7B0012085A74021217B780139003A268
:101E7300E06408600BAC0AAD0BEEFAEFFB120C80CA
:101E8300120DA079017F0C02192974F312187D74C5
:101E9300FC1217A1EAFEEBFF8908A2AFE433F509B0
:101EA300C2AFEE2463F50AEF3400F50B8010AA0AE3
:101EB300AB0B120B661211A29004E3E004F0850A47
:101EC30082850B83E0F8A3E0F9E849602FE8240258
:101ED300FAE93400FBEA2402F50CEB3400F50D7843
:101EE3000C121A288A828B83E0FCA3E0F9EEFAEF46
:101EF300FB120B5A74021217B7E960B29004E3E0C5
:101F030060579004E4E0F89004E3E0C398500C7445
:101F130002650870449004E5E0603E8E828F83A3DF
:101F2300A3A3A3E0851882851983121F6C74021280
:101F330017EDE8121F6C9004E2E028F07402121708
:101F4300EDAC82AD83851882851983AA82AB837930
:101F5300011208669004E3E4F0E509A2E092AF748D
:101F6300041217B77F06021929F0A3E4F09004E3E3
:101F7300E0F82200008521878522C622C0E074EFA5
:101F8300121969A2AFE433FEC2AF759B0090618260
:101F9300E0A2E05012E591A2E0500C7591FE7401AD
:101FA30065217003121CE8E0A2E55051E591A2E51A
:101FB300504B7591DF9003A2E064076005E064086D
:101FC300702374016521703579019003D0E0FA75AF
:101FD300F003A4CAA8F028FB74D22AFA74033BFBCB
:101FE300121E8D8018E0640D70139003C4E004F09A
:101FF30064287002E4F07A00E0F9120DA690618281
:10200300E0A2E640030220A6E591A2E640030220F7
:10201300A67591BF9003A2E064057008120CC2126A
:102023000CCE8003120CC8752100120D34E9900305
:10203300A3F07900120D28120A827A017B00900323
:10204300A1E0F9121172907803E064427055900593
:1020530044E014F0704DC2AF12205E007831D0E03E
:10206300F618D0E0F6E59F540770057509FF800365
:1020730075097FC4C0E07830E6F50808E65509F530
:1020830009740B780812177FD0E02508F890627066
:10209300E0A2E740F8E8C333906272F0906270E028
:1020A300D2E0F0906181E0A2E35009E5E9A2E350B8
:1020B3000375E9F7A3E0A2E75009E591A2E750030E
:1020C30075917FEEA2E092AF7F040219C8C0E0C011
:1020D300D0C082C083906183E0A2E05009E5BFA233
:1020E300E0500375BFFEE0A2E15009E5BFA2E15055
:1020F3000375BFFDE0A2E25009E5BFA2E2500375FC
:10210300BFFBE0A2E35009E5BFA2E3500375BFF7AD
:10211300E0A2E45009E5BFA2E4500375BFEFE0A2DB
:10212300E55009E5BFA2E5500375BFDFE0A2E65025
:1021330009E5BFA2E6500375BFBFD083D082D0D0DC
:10214300D0E032C0E074F2121969E5A7A2E4500F9F
:10215300E5A1A2E4500953A7EF75A1EF12219AE577
:10216300A7A2E5500CE5A1A2E5500653A7DF75A190
:10217300DFE5A7A2E15009E5A1A2E1500375A1FDA6
:10218300E5A7A2E2500CE5A1A2E2500653A7FB7516
:10219300A1FB7F010219C874F812187D7521019003
:1021A30003A2E0640670077A007B00120CAAA2AFB8
:1021B300E433FED2AF9003A8E0640170187A207B69
:1021C300009003A1E0F912127A7A207B009003A118
:1021D300E0F9121178906182E0D2E6F0900541E0D7
:1021E300602185C62280169003A7E064017008E58C
:1021F300C654F84405F5C653BEFC121F7874016536
:102203002160E4EEA2E092AF7F010219298E238FB1
:1022130024858228858327851882851983E0CEA3A8
:10222300E0CF852882852783EBC9EAC8EDCBECCACA
:1022330075F010C3E833C8E933C9EA33CAEB33CBCB
:10224300C3EA9EF526EB9FF525B35004AB25AA26DA
:10225300EC33CCED33CDD5F0DAAE23AF242274F1D9
:1022630012187D8A088B098C0A8D0B9090247808AC
:10227300121633740F1217ED780C1216599090241E
:10228300780C1216337808790C12143C908FD850BE
:10229300107808790C12160B780812145C4014801D
:1022A3000E780C790812160B780C12145C50047912
:1022B30001800279007F0802192974ED12187D8AC2
:1022C300088B098C0A8D0B909024780812163374AE
:1022D300131217ED780C121659909024780C1216DD
:1022E30033780C790812143C40117808790C1216D3
:1022F3000BAA08AB09AC0AAD0B802275100075114F
:10230300007512007513017810790C12160B7810F2
:1023130079081215D2AA10AB11AC12AD137F0C02BF
:10232300192990902478081216598A828B83780889
:102333001216467F0402192974F512187D8C828DBA
:102343008378081216598A828B83780812161F1213
:10235300238FC3E098F0A3E099122381401E908F4E
:10236300FC78081216598A828B8378081215F88E26
:10237300828F83E02420F0A3E0344EF080A4F08E1B
:10238300828F83C3E09420A3E0944E22EA2404F8CE
:10239300EB3400F9E8FEE9FF8C828D83A3A3A3A3AA
:1023A300E0F8A3E0F98E828F832274F512187DE999
:1023B300FE9004F7E0FAA3E0FBEEC333F8E433F94D
:1023C300742F28F582748F39F583E02AF508A3E08A
:1023D3003BF5097808121A289090141216771222E6
:1023E3001074021217B78A088B098C0A8D0B7410AC
:1023F300780812159AAA08AB097F0402192974F107
:1024030012187D8A0C8B0D8C0E8D0F740F1217ED25
:10241300E0FAA3E0FB74111217EDE0F508A3E0F571
:10242300097808121A28EA2401F508EB3400F509A3
:10243300E4F50AF50B780C79081214AB908FDC786D
:1024430008121659780C79081214ABAA0CAB0DAC10
:102453000EAD0F12221074021217B78B09EA450949
:1024630060047A0180027A00EC2AFCED3400FD74EA
:10247300131217EDE0F8A3E0F9E8FEE9FFECF8ED3D
:10248300F97A717B0212171688088909E4F50AF5AF
:102493000B8E828F837808121668ECF8EDF97A7147
:1024A3007B021217168A088B097405780812178E97
:1024B3008E828F83A3A3A3A3E508F0A3E509F07F8E
:1024C30008021929C082C083E9906000F0D083D04C
:1024D3008222C0E074F2121969A2AFE433FED2AFD4
:1024E300E58AA2E2500790082FE0D2E0F0E58AA245
:1024F300E3500790082FE0D2E1F0758A00C2EB7A2F
:10250300107B0090082BE0F9121172EEA2E092AF5B
:102513007F010219C8C0E0C0D0E8C0E0A8A8D2AFCC
:10252300C2C7E8A2E792AFD0E0F8D0D0D0E032C281
:10253300AF02000022C0E074F1121969E59DA2E622
:1025430050FA906206E0F9A2E25034AA2EEA9062B1
:102553000BF0F508852F097404780812177FE50836
:10256300906207F08A08852F097409780812177F8B
:10257300E508543E906209F0906201E0D2E0F0E990
:10258300782B46F6906202E0F5087509007404782A
:102593000812178E782BE50846F608E50946F690EB
:1025A3006204E0F5087509007409780812178E783B
:1025B3002CE50946F6E9A2E05003752D017406598E
:1025C3006003752D00E58BA2E55006758BDF752D35
:1025D300001212F8758B00C2E87F020219C8C0E02E
:1025E30074F2121969C28FACF9900BC4E07900241C
:1025F30001F85001097A007B0112170EEAF8900BDB
:10260300C5E068602A900BC4E0FA74C42AF582E43A
:10261300340AF583ECF0E8900BC4F0900BC6E0F8B5
:10262300A3E0F9E8496008E0F583888212180F7F78
:04263300010219C8BF
:10263800FFFFFFFFFFFFFFFFC082C083E9900C8709
:10264800F00228CF74F7121811E99002E1F07C1912
:102658007D037AFF7BFF1207B29002E274FFF0A3BA
:10266800F0A3E4F0A3F0790512073A9002E1E0F94B
:1026780012065C7AD07B071209747F010218E37492
:10268800F41218118A088B09EB548060309002E12B
:10269800E0F912115A8A0A8B0BAE0AAF0BEE4F60A3
:1026A800138E828F83E064B07003120752EEFAEF44
:1026B800FB121148AA08E5096480FB80047A007BB4
:1026C8000002289E74F212181174FC1217A1EAFE77
:1026D800EBFFEE4F603874021217EDEEF0A3EF1225
:1026E8002B03ECF0A3ED122B03AA82AB8312065640
:1026F800E9F508707374121217ED1236B7E50A453A
:102708000B60658E828F8312277AEE4F70057508ED
:102718000280557A067B001211DE8A0C8B0DA80CFC
:10272800A90DE8497005750813803D88828983E4FE
:10273800122784A3A3EEF0A3EF123B50E50AF0A3FF
:10274800E50BF09002E712280C9002E76017E0FC16
:10275800A3E08003EAFCEBFD8C828D8312280C70C9
:10276800F38C828D831235DCA90874041217B70222
:102778003D52A3A3A3A3E0FEA3E0FF22F0A3F088A9
:102788008289832274F2121811890AE975F017A454
:10279800FEAFF09002E6E4F09002E412280C600A22
:1027A8001211E49002E4E4F0A3F0EEFAEFFB121148
:1027B800DE8A088B09EA4509602FEEFCEFFD7900F7
:1027C8001211369002E4E508F0A3E509F07B0080D9
:1027D800081227F6E4F0A3F00BEBC3950A40F2E5E4
:1027E8000A9002E6F0790080027913023D52EB75F7
:1027F800F017A4F8A9F09002E4E028FAA3E0398AD7
:1028080082F58322123372EA4B2274F4121811757E
:102818000800750900740C1217ED123B24FEE9FF3D
:10282800800CE5082401F508E5093400F509C3E53D
:10283800089CE5099D503285080A85090B740378C0
:102848000A12178EEA250AF8EB350BF98882898374
:10285800A3A3A3A3A3A31236B7EE650A7003EF657B
:102868000B70BFE8FAE9FB80047A007B00802774CC
:10287800F41218117900EAA2E0501B7508C875090E
:102888008F7808121A287C047D007A897B0C12073D
:102898003474021217B77F040218E3C082C0839011
:1028A80002E71228D6601C88828983A3A3E06A7095
:1028B80003A3E06B8882898370E8A3A3A3A31233E0
:1028C8006E80047A007B00D083D08202011F123E02
:1028D80025E8492274EE12181174FC1217A1EAFEB9
:1028E800EBFF851882851983E4F0A3F0EE24021229
:1028F80035C0EE2405122AF1EE2404F50EEF122E4F
:10290800D6E024FE603924FC604624FE605224FE92
:10291800605E24FE70030229F624FE7003022A6E0C
:1029280024FE7003022A7D24FE7003022A8C24FCF4
:102938007003022A9B24FE7003022AAA022AE79047
:1029480003007417F0A3E4122B0B1203D4022AE736
:10295800851882851983AC82AD83120758022AB77D
:10296800851882851983AC82AD8312075E022AB767
:10297800850C08850D0974021217EDAC82AD8385AC
:10298800088285098312336E12067A8A0C8B0DAC85
:102998000CAD0DEC4D6042E4F50CF50D780C121AF7
:1029A80028750C00750D03780C121A28750C017522
:1029B8000D03780C121A2874081217ED121A4379AD
:1029C8001612336812079A74081217B7E9F50C70D3
:1029D8000B1233641203EC800F750C018508828595
:1029E8000983122AF91235DC850C08022ABA740206
:1029F8001217EDAC82AD83850C82850D8312336E80
:102A080012067A8A108B11AC10AD11EC4D6043851B
:102A18000C82850D83A3A3121A4375100075110348
:102A28007810121A287510017511037810121A28D7
:102A380074081217ED121A43791612336812079A9E
:102A480074081217B7E9F509700B1233641203F210
:102A5800800F750901850C82850D83122AF91235BC
:102A6800DC850908804C851882851983AC82AD8382
:102A7800120764803A851882851983AC82AD831267
:102A8800076A802B851882851983AC82AD8312076B
:102A980070801C851882851983AC82AD83120776F5
:102AA800800D851882851983AC82AD8312077CE975
:102AB800F508E50860298E828F83A3E06414601FFF
:102AC800850E82850F83E0900300122B03123E21AE
:102AD8009003011235DCE508A3122B0B1203CEEE8E
:102AE800FAEFFB1206F80234C8F50CEF3400F50DC6
:102AF80022123E2585188285198322F08518828541
:102B0800198322F07C007D03850A82850B831233AA
:102B1800722274EE12181174FC1217A18A0A8B0B18
:102B28008C0E8D0FEA2405F508EB3400F5097C15A9
:102B38007D0079007A007B03121136E5082402F53E
:102B48000CE509122AF48518828519838582108577
:102B580083117810121A28850882850983A3A3A3F4
:102B6800A312301E121A28E5082405F510E50934C9
:102B780000F5117810121A28850C82850D831233FE
:102B88007812067474061217B78A108B11AE10AF3C
:102B980011E50A2402F50AE50B1235C3EE4F70035E
:102BA800022CE0801774021217ED12336E888289A6
:102BB80083EAF0A3EBF0900300E004F0900300E058
:102BC800C394054003022CE0E4F510F511781012C7
:102BD8001A287510E97511027810121A287510EA6A
:102BE8007511027810121A2874061217ED121A437A
:102BF8007910EEFCEFFD12336812079A7408121769
:102C0800B7E9705E850882850983A3A3A3A3A3A35C
:102C1800A3E0F89002E9E068704812301E121A2802
:102C28007CEA7D02E5082408FAE5093400FB121164
:102C38003074021217B7E960298E828F83A3A3A389
:102C4800A312336E900300E0F51074027810121787
:102C58008E74012510F58274033511F583EAF0A30B
:102C6800EBF074021217ED8582108583117810122B
:102C78001A2874021217ED121A43850C82850D83E7
:102C8800123E3612068074041217B78A108B11AEE2
:102C980010AF11900300E0F5107511007402781060
:102CA80012178E74002510F874033511F98882897B
:102CB80083A312280C7003022BA4E82403F8E93438
:102CC80000F9EE4F6003022BAD8882898374FFF010
:102CD800A3F0900300E004F0900300E0600A1233D0
:102CE800641203E07900800B850882850983123518
:102CF800D3790A0234C874EA12181174FE1217A1A3
:102D08008C128D13EA2405F50CEB123FA012277ED6
:102D1800750800750900EA2402F510EB3400F51176
:102D280085188285198385820A85830B780A121A89
:102D380028850C82850D83A3A3A3A3122EE0121A63
:102D480028E50C2405F50AE50D1235C3780A121A90
:102D580028850C82850D83123E341206747406127F
:102D680017B78A0A8B0BEA450B7003022E91EA24E7
:102D780004F50EEB122ED612277E8A828B83A3A32C
:102D8800A3E0F985108285118312336E120662E979
:102D9800F5096003022E91E4F514F5157814121A5A
:102DA800287514E97515027814121A287514EA752D
:102DB80015027814121A2874061217ED121A43799C
:102DC80013AC0AAD0B85108285118312336E12077E
:102DD8009A74081217B7E9F5096003022E91900258
:102DE800E9E0F8E5087009E02402900301F0801793
:102DF800900301E0FCE82402FAE43400FBEA6C707A
:102E080001EB6003022E95850882AA821230159480
:102E18001412300D5073850E82850F83E0C0E07464
:102E2800022A122ECDD0E0F00508850E82850F8388
:102E3800A3E0C0E085080A7402250A122ECDD0E06E
:102E4800F005089002E9122EE0121A287CEA7D02A9
:102E580085080A7402250AFA74033400FB12111E4D
:102E680074021217B79002E9E02508F50874FF6E9E
:102E7800700374FF6F6012EE24010EEF3400FFE55B
:102E880008C394145003022D28E508601312325920
:102E980085108285118312336E1203E6790080143F
:102EA800E509700375090A851282851383EEF0A37C
:102EB800EFF0A90974021217B77F0E0218E385080C
:102EC8000C7402250CF58274033400F58322340057
:102ED800F50F850E82F58322123B632274EE1218D9
:102EE8001174FE1217A18C0E8D0FEA2405F50CEB58
:102EF800122AF4750B00900300E4F0F50AEA2402A4
:102F0800F508EB3400F5098049900300E0FA9002D7
:102F1800E9E0F8123015941712300D400D900300B7
:102F2800E0F87416C3989002E9F012301E121A28BD
:102F38007CEA7D0274012AFA74033400FB12111E24
:102F480074021217B79002E9E0F8900300E028F045
:102F5800050AE50C2416F582E50D122ED1E0F8E5F8
:102F68000AC3984003022FF6900300E0C39416505A
:102F78007DE50AC333F8E433F9E50C28FEE50D399D
:102F8800FF851882851983AC82AD838E828F831268
:102F9800336E12067A8A108B11AC10AD11EC4D709D
:102FA80005750B018043E4F510F5117810121A2805
:102FB8007510E97511027810121A287510EA751142
:102FC800027810121A2874061217ED121A4379168D
:102FD80085088285098312336E12079A74081217BE
:102FE800B7E9F50B7003022F111235CF80107C0062
:102FF8007D0385088285098312336E1203F8A90BB5
:1030080074020234CAE99400C365D03322EA28F86E
:10301800E43400F9E822E0F5107511007810227404
:10302800EA12181174FC1217A18A0C8B0D8C128DE0
:1030380013EA2405F50AEB1235C375080075090073
:10304800E50A2402F510E50B3400F5117402121795
:10305800ED85820E85830F780E121A28850A8285DF
:103068000B83A3A3A3A3123B0F121A28E50A240576
:10307800F50EE50B3400F50F780E121A288510822C
:103088008511831235C91233681206747406121733
:10309800B78A0E8B0FAE0EAF0FE50C2402F50EE5C6
:1030A8000D3400F50F80408882898374FFF005088D
:1030B800122EC674FFF005089002E9E0F50C750DB4
:1030C80000780C121A287CEA7D0285080C74022507
:1030D8000CFA74033400FB12111E74021217B79015
:1030E80002E9E02508F508EE4F60718E828F83A310
:1030F800A3A3E0F9850E82850F8312336E12066250
:10310800E9F509EE2404122AF1E97044E4F514F50E
:10311800157814121A287514E97515027814121AFC
:10312800287514EA7515027814121A2874081217EB
:10313800ED121A437911EEFCEFFD850E82850F839F
:1031480012336E12079A74081217B7E9F509602747
:10315800850C82850D8312324F1235DCE508700329
:10316800023235123259850E82850F8312336E1260
:1031780003FE790002324A850882AA82EA9002E9AF
:103188007009E02404900301F08022E0F890030124
:10319800E0F514E82404FCE43400FDEC6514700147
:1031A800ED70C0123015941212300D50B6850C8295
:1031B800850D83E0C0E074022A122ECDD0E0F00520
:1031C80008850C82850D83A3E0C0E0122EC6D0E0EE
:1031D80012326B85820C85830D780C121A287404C0
:1031E8001217ED121A43851082851183123E36128A
:1031F800068074041217B78A0C8B0DAE0CAF0D85C0
:10320800080C7402250CF874033400F9EE4F7003AF
:103218000230AF851882851983E08882898312324B
:103228006BA3E0C0E0122EC6D0E00230BDE5097005
:103238000375090A850A82850B8312324F1235DC21
:10324800A9097404022EBE123E25851282851383B5
:1032580022900301E0F5F0E50884900300F07C007B
:103268007D0322F005088518828519832274EC12E3
:10327800181174FE1217A18A088B098C0E8D0FEA9B
:103288002405FEEB3400FF851882851983AC82ADD6
:10329800838E828F8312336E12067A8A0A8B0BEE24
:1032A8002418122AF1EA450B700302333F1234B195
:1032B800503285188285198312336E12078E8A1050
:1032C8008B11EA4511606B7912AC0AAD0B85088247
:1032D80085098312336E85108285118312180FE9D0
:1032E800F50A7058E4F50AF50B780A121A288E8246
:1032F8008F83A3A3E0F50A780A121A28EE24031292
:1033080035C0780A121A288E828F831233781207F2
:10331800A074061217B7E9F50A7021850C82850D8D
:1033280083E0701F85088285098312336E120404B6
:103338008011750A0E8009750A018004E50A600388
:103348001235CF850C82850D83E0600479008002F8
:10335800A90A74021217B77F0C0218E37C007D03D8
:10336800850A82850B8312337222E0FAA3E0FB22DE
:10337800E0FCA3E0FD85088285098312337222747C
:10338800EE12181174FE1217A18A088B098C0C8D85
:103398000DEA2405FEEB3400FF750E0085188285C2
:1033A8001983AC82AD838E828F8312336E12067AB4
:1033B8008A0A8B0BEA450B700302349D1234B15014
:1033C8003585188285198312336E12078E8A0E8B03
:1033D8000FEA450F605E7912AC0AAD0B850882854D
:1033E800098312336E850E82850F8312180FE9F553
:1033F8000E60030234A08508828509831236B7AAB5
:103408000AFB1207828A108B11A810A911E84970CB
:103418001E7AFF7BFF1207828A108B11A810A91150
:10342800E849606C88828983E50AF0A3E50BF075AA
:103438000A008007750E0E805F050A9002E6E0FA22
:10344800E50AC39A504AE50A75F017A4FAABF08862
:10345800828983A3A3E02AFAA3E03BFB8A828B83B9
:103468001235C9EC4D70D2750A17750B00780A121F
:103478001A28EEFCEFFD12111E74021217B7EEFCAB
:10348800EFFD85088285098312336E12040A8014C1
:10349800750E098003750E01123E1D850C82850D7F
:1034A800831235DCA90E023008E5082402F508E588
:1034B800093400F5098A828B83A3A3A3E0A2E5223D
:1034C80074041217B77F0A0218E374EC1218118CEF
:1034D800108D11EA2405F50CEB122AF4750F00EA99
:1034E8002402F50AEB1235C3850A82F58312336E7E
:1034F8001207828A088B09EA450970030235B575F7
:103508000E008071850C82850D83E06401704F8EFA
:10351800828F83A3A3121A438E828F83A3A3A3A3AC
:10352800E0F5127513007812121A28EE2405F51228
:10353800EF3400F5137812121A281233681207A014
:1035480074061217B7E9F50F6014850C82850D8390
:10355800E4F0123E1D8510828511831235DC7C173C
:103568007D007900EEFAEFFB1211368E828F83E42C
:10357800F0A3F0050E9002E6E0F8E50EC398501EA1
:10358800E50E75F017A4F8A9F0850882850983A3CC
:10359800A3123FAA1235C9EC4D600302350C850809
:1035A8008285098374FFF0A3F0E50F700612336873
:1035B800120410A90F02335FF50AEF3400F50B224D
:1035C800A3E0FCA3E0FD228E828F83123E25850EA8
:1035D80082850F83E8F0A3E9F022C082C0839002BD
:1035E800E2E06A7003A3E06B70067AE27B02800473
:1035F8007A007B000228CFC082C08378008C828D3D
:1036080083E06A7003A3E06B7010E875F003A4F818
:10361800A9F0EC28FAED39FB8015088C828D83A37C
:10362800A3A3E06A7003A3E06B60DF7A007B00026B
:1036380028CF74F612181112074C8A828B83E58200
:10364800458370067A007B008007A3A3A3A31233E7
:103658006E023CCE74F2121811E9FE740E1217EDC8
:103668001236B774101217ED123B2F8C828D83E03F
:1036780064027036A3123E2BF50CA3E0F9A80C7473
:10368800026870037429697021750C02750D007841
:103698000C121A287808121A28780A121A28EEF931
:1036A8001207C474061217B780027901023D52E06E
:1036B800F50AA3E0F50B2274E812181174FB12172F
:1036C800A1E9851882851983F08A168B17ECFEED1F
:1036D800FF751000741D1217ED123E21741D12178C
:1036E800ED1235DC8E828F83A3A3A3E0A2E4502DD4
:1036F800741D1217ED12336E12078E8A828B83E5C2
:103708008245837003023B00790AEEFCEFFDAA169E
:10371800AB1712180FE9F5106003023B03741F1270
:1037280017ED123B2F74211217ED1236B7742312BE
:1037380017EDE0F50EA3E0F50F8E828F83E06402AB
:103748006003023AAEA3123E21850882850983A34D
:10375800858212858313EE2406122AF188828983D2
:10376800E0FAA3E0F9EA2400F514E439F515781431
:10377800121AB6010000280128A33707000228689A
:10378800380328D53700299F390129CA3902296BFE
:103798003903299F390429493AAE3AE50E450F60A5
:1037A80003023AA9850C82850D83123B24FAE9FBB2
:1037B8008A828B83E0850A82850B83123B5A121A10
:1037C800288A828B83A3E0FCA3E0023A33E50E4506
:1037D8000F6003023AA9850A82850B837401F012EF
:1037E8003B37850882850983F07C007D008E828FB7
:1037F80083A3A3A3A3E02401FAA3E03400FB1206E9
:103808007AEA4B60418A828B83E02402F8850A8237
:10381800850B83E028F0EA2404F8EB3400F9888269
:103828008983E0851282851383123B6C123B5A12FE
:103838001A288A828B831235C8E5082403FAE50919
:103848003400FB023A38850A82850B83E02404F0B1
:103858007C047D007900AA12AB13121136023B03D7
:10386800E50E450F6003023AA9123B37FEA3E0FFBD
:10387800850A82850B837404F0EE850882850983A6
:10388800F0EF851282851383F074031217EDAC8272
:10389800AD83EEFAEFFB12067A8A0C8B0DEA450D22
:1038A800700302394C8A828B83A3A312277A74018E
:1038B8001217ED85820E85830F780E121A2874056B
:1038C8001217ED121A437CFF7DFF12068074041252
:1038D80017B78B0FEA450F7033850C82850D83125D
:1038E8003B0F121A28850C82850D83A3121A437C7C
:1038F800027D007AAE7B8F1204AC74041217B7E90C
:10390800700A74011217ED74FFF0A3F08E828F8392
:10391800E064027039750C02750D00780C121A28D3
:103928008E828F831235C8E5082404FAE50934002D
:10393800FB12111E74021217B7850A82850B83E0E9
:103948002402800974011217EDEEF0A3EFF0740160
:103958001217ED123B20F074011217EDA3123B1859
:10396800023AA3E50E450F6003023AA9850C828549
:103978000D831235C9AA16AB171207B8850A8285B6
:103988000B837402F0EA850882850983F085128228
:10399800851383EB023AA6E50E450F6003023AA9A8
:1039A800123B37F8A3E0F9850A82850B837402F08D
:1039B800E8850882850983F0E985128285138302E8
:1039C8003AA6850C82850D8312336E121118EAFC13
:1039D8008C82A882C3950EE4950F405FE8650E704F
:1039E80002E50F70047C008022851882851983E027
:1039F800FAE50E2AFAE50F3400FBC3EA98EB9400C7
:103A08005003E08005E50ECCC39CFCEC850A82855A
:103A18000B83F08C0A750B00780A121A28850C8221
:103A2800850D83E0250EFCA3E0350FFDAA08AB0940
:103A380012111E74021217B7023B03751007023BDE
:103A480003E50E450F705A850C82850D83123E21C1
:103A5800850A82850B837407122786123B18122762
:103A680086A3E0851282851383F0E82402FAE934FC
:103A780000FB8A828B83123B18123B47123B20A320
:103A8800123B50123B29F0E82405F8E93400F98884
:103A9800828983123B29A3123B6CA3A3A3A3F080C2
:103AA8005A75100B8055741D1217ED12336E1207DC
:103AB8004C8A828B83E5824583603D123E21880CC7
:103AC800890DE8450D6031780E121A28780A121A05
:103AD800287808121A2874061217EDE0F9EEFCEFA0
:103AE800FDAA16AB17850C82850D8312180F740674
:103AF8001217B7E9F510800375100EA91074051296
:103B080017B77F100218E3E0F50E750F00780E2244
:103B1800E085088285098322123B7622123E25E839
:103B280022123B76A3A322E0F508A3E0F50922853B
:103B38000C82850D83E0F8A3E0F5838882E022A358
:103B4800A3F08A828B83A322F088828983A3A3A30C
:103B5800A322F08A828B83123B6322E0F50A750B5D
:103B680000780A22F088828983A3123B7622E085B6
:103B78000882850983A3A32274EE12181174FE1219
:103B880017A18A0A8B0BECFAEDFB74141217EDE0FF
:103B9800F510A3E0F51174161217EDE0FE74181273
:103BA80017EDE0F50EA3E0F50F851882851983ACB3
:103BB80082AD8312067A8A0C8B0DEA450D60498521
:103BC800188285198312336E12074C8A828B83E51B
:103BD800824583602FA3A3123B2FE5084509602483
:103BE800780E121A287810121A28EEF9AC0CAD0DBE
:103BF800AA0AAB0B85088285098312180F74041270
:103C080017B78006790E8002790102300874F6121F
:103C1800181174FE1217A1740C1217ED123B2485AB
:103C28001882851983F074011217EDE9F0E4F5089C
:103C3800F5097808121A287508027808121A2874E3
:103C4800041217ED8582088583097808121A28124C
:103C580007A074061217B774021217B7806874F7B2
:103C6800121811EAFEEBFF89087C197D031207B8C8
:103C7800EA5402600BA908EEFAEFFB12066E800206
:103C8800790102268274F612181174FF6A7003749F
:103C9800FF6B70168C828D83123CD3E4F08C828D7E
:103CA80083A3A3A3123CD3A380181207888A088B86
:103CB80009A808A909E849600D8882898374FF1258
:103CC8002784A3A3E4F07F020218E374FFF0A3F0B3
:103CD8008C828D83A3A32274F61218111207888A86
:103CE800828B83E58245836006A3A3E0FA80027A8B
:103CF800007B0080D174F21218118A088B09ECFE3F
:103D0800EDFF740E1217EDE0F50A1207888A0C8B86
:103D18000DA80CA90DE8497026EEFCEFFD7AFF7B93
:103D2800FF1207888A0C8B0DA80CA90DE8497004AE
:103D38007911801688828983E508F0A3E509F0885F
:103D4800828983A3A3E50AF079007F060218E37449
:103D5800EE121811EAFEEBFF8C088D09890C741419
:103D68001217ED123E2174161217ED12336E750DEF
:103D780000E8496003023E157402650C6003023EC8
:103D88001074121217ED123E2BFCA3E0F9EC24007C
:103D9800F50EE439F50FEAF4F8EBF4F9EC58F8E528
:103DA8000F59F9E849705CE5082406F8ED3400F984
:103DB800880A890B8882F583123E361207B88A1062
:103DC8008B11E50E65107004E50F65116042780EE1
:103DD800121A28850A82850B83123E361207BE7492
:103DE800021217B7E9F50D7027780E121A28850800
:103DF80082850983A3A3123E341207D674021217D0
:103E0800B7800D750D808008750D0D8003750D0B3D
:103E1800A90D0234CD8E828F83123E2522E0F8A3AD
:103E2800E0F922123E2588828983E022A3A3E0FCE0
:103E3800A3E0FDEEFAEFFB2274E812181174E71202
:103E480017A1851882851983EAF0A3EBF08C168DEB
:103E580017890E75080075090074311217EDE0F521
:103E680012A3E0F51374331217EDE0F514A3E0F58F
:103E78001574351217EDE0F50FE50975F003A4F890
:103E8800A9F0851882851983123FAAE0F47003A36C
:103E9800E0F47003023F8DEE2402F50CEF123FA010
:103EA800E07003023F8D85160A85170B780A121AEF
:103EB80028AC14AD15AA12AB1312074074021217DE
:103EC800B78A0A8B0BEA450B7003023F8DE4F510A5
:103ED800F5117810121A2874061217ED85821085CC
:103EE80083117810121A2874091217ED858210852B
:103EF80083117810121A28851282851383A3A3A32D
:103F0800A3121A437914AC0AAD0B8E828F83123335
:103F18006E12079A74081217B7E97069850A8285C4
:103F28000B83A3A3A3A3123E2174021217ED12352B
:103F3800DC850C82850D83E0A2E05018A90E74027E
:103F48001217EDAC82AD838E828F8312336E120608
:103F580092E94208850C82850D83E0A2E15026E5AE
:103F68000FF50A780A121A2CA90E74031217EDAC71
:103F780082AD838E828F8312336E12068C74011287
:103F880017B7E942080509E509C394025003023E40
:103F980081A9087419023B073400F50D850C82F5D8
:103FA8008322E028FEA3E039FF8E828F832274F2F9
:103FB800121811EAFEEBFF890B7401650B600E7491
:103FC80002650B706A7901120992E97062EEFAEFE4
:103FD800FB1207828A088B09EA45096047750A00BF
:103FE800800B7C177D007900121136050A9002E6D5
:103FF800E0F8E50AC3985021E50A75F017A4F8A976
:10400800F0850882850983A3A3E028FAA3E039FB99
:104018008A828B831228D670C985088285098374A1
:10402800FFF0A3F07C197D03EEFAEFFB1207B20252
:104038003D5274F21218118A088B09ECFEEDFF74D8
:104048000E1217ED1236B7900C87E0F4603D7A092E
:104058007B00121142EA4B60328A828B8374B1F082
:10406800A3E4123B49A3123B47A3E508F0A3E509E3
:10407800124096EEF0A3EF124096A3A3E50AF0A330
:10408800E50BF0900C87E0F912114E023D52F08AD0
:10409800828B83A3A3A3A3A322C082C08390619031
:1040A8007404F0A37448F0A3E4F09061807440F0C5
:1040B8009061BC7407F09061877469F09061B67480
:1040C80016F07900120A887902120A8E902638E4CE
:1040D80093F46006E493F9120A647905120D8802D4
:1040E800449CC082C083E9540FF9906185E06960FF
:1040F80012E5C654804449F5C6E59E547F6449706C
:10410800F8E9F053C680E59E547F70FA02449C7427
:10411800F7121811E5A8FE53A87E120A70C2BA5306
:104128009AFEC289759B00C2C2120A7675A91175DA
:10413800B905120A7CD2BA439A0174805E42A80279
:104148004A33C082C083906181E4F0A30244997528
:10415800E90075910075BF0002011FC082C08390FD
:104168006181E4F0A374C0F0A3E402449BC082C060
:104178008374F81217A19003A41253CC700302425F
:10418800549003A4E0544060237908851882851967
:1041980083AA82AB83120B84851882851983AA822D
:1041A800AB831208429003A4E054BFF0E05480604F
:1041B80010790C7A657B05120B849003A4E0547F78
:1041C800F0E0A2E0500F7900120A88120848900324
:1041D800A4E054FEF0E05402600F7901120A88123C
:1041E80008489003A4E054FDF0E05404600F7900FF
:1041F800120A8E12084E9003A4E054FBF0E0540813
:10420800600F7901120A8E12084E9003A4E054F749
:10421800F0E05410600F7902120A8E12084E9003D3
:10422800A4E054EFF0E05420600F7903120A8E12D4
:10423800084E9003A4E054DFF0A3E05401600D128F
:104248000A9A1208549003A5E054FEF07408121755
:10425800B702449CC082C083E9600514602A804F7D
:1042680090619A7433F0A37455F09061A0743AF099
:1042780090053FE064017009C2919003A6746780BD
:104288002D9003A67461802690619A743FF0A37400
:104298005AF09061A0747FF090053FE064017009C6
:1042A800D2919003A6747180059003A6746AF002F7
:1042B800449CC082C083E9600B14600D146017141D
:1042C800600C802090263C801590263D801090053B
:1042D8003FE06401700590263E800390263FE493FA
:1042E800906186F002449C74EE12181174F412174F
:1042F800A1851882851983AC82AD837583907582F8
:104308001C74041216B490263C93F46003024419FA
:10431800907808E0C3940250030243F9740412171A
:10432800EDAC82AD8375838F7582A674081216B4BE
:10433800FC7EFF7FFF8E0C7D008C8285820E800FB5
:1043480074086D606D74096D6068740A6D60638DC2
:10435800087509007402780812178E124423121681
:1043680059A909E50AC9F888107418780812159A25
:10437800E5104508FAE9FBE50EC333F8E433F974B0
:10438800041217EDE58228F582E58339124923C323
:10439800E89AE99B4008E8C39AF8E99B8006EAC3D3
:1043A80098F8EB99F9C3E89EE99F5006E8FEE9FF03
:1043B8008D0C0DEDC39413408774FF6E700374FF6A
:1043C8006F6024850C087402780812178E12442333
:1043D800121659851882851983E582250EF582E51E
:1043E80083124DC2E508F00CECC394045003024359
:1043F800397508017509007808121A28740212170D
:10440800EDAC82AD837A8F7B091210827402121789
:10441800B7740C1217B77F0A0218E374482508F519
:104428008274783509F583780822C082C083906148
:1044380086E0F890263FE49368700990263EE4935E
:10444800906186F09061AE7468F0A3746AF090622F
:104458004574FBF0A304F053F4FD43FE0290053FBE
:104468007401F09061A0E0643A70047900800279E8
:1044780001120A8802449CC082C0839004F1E0645F
:1044880001700A9004F6E06004790C8002790080DB
:1044980003F0A3F0D083D08202011FC082C08375CD
:1044A800E1F19004F4E0604D146009146051146067
:1044B80049147050120AAC9004EAE0F97AEB7B04D4
:1044C800120D0A908FE8121677120D40909028125C
:1044D8001677120D169004F5E0F9120D22790112E3
:1044E8000D7C1245BF2416124DBF74C4F0A3740A84
:1044F800F07900809F120AB280BD120AB880B81203
:104508000ABE80B3791280EB74F412181175D90DB4
:104518009004D5E0A2E0E4331313F81245B54844FB
:1045280001F5D9780012462240FB7800880874D635
:10453800125322740412462C40F275E1959004D56A
:10454800E0F97AD67B04120D10900CA9743AF0A306
:10455800740A12463212467612466D12478A900441
:10456800F4E064019004E8700B1245C812165990E3
:104578008FE480091245C8121659908FE078081206
:1045880015E590902478081216331245BF240E12B0
:104598004DBF78081216681245BF2414124DBF7417
:1045A80013F09003A27402F07F040218E39004EA67
:1045B800E0C4333354C0229004E8E0F8A3E0C822F2
:1045C80012525A78082274F612181112475B8AD9C7
:1045D800780012462240FB780080061246D3124823
:1045E80010E8C39940F512474D12462240FB780067
:1045F800800812531E7405124810E8C39940F375D9
:10460800E195900CA97446F0A3740A12463212463A
:104618003C7412F09003A20249F7880874EB25084D
:10462800F582740412498D9406221247737440F07F
:10463800A3740A2212467612466D12478E9004E839
:10464800E0F8A3E0C8240E12466574FF1250979054
:1046580004E8E0F8A3E0C8241412466522F582E8CD
:104668003400F58322F0A37458F0A3740A2212468A
:104678007A2212467E22F0A374F0F0A3740B2274FF
:10468800F61218111246C81245B54402F5D9780039
:1046980012462240FB780080061246D3124810E8E2
:1046A800C39940F575E195900CA91246DEF0A31266
:1046B80046DE12463F7414F09003A274040249F9CE
:1046C8009004FAE0F9740729F5D922880874FB25C3
:1046D80008F58274042274521246EB1246EBF0A3DA
:1046E800740A22F0A3740AF0A374522274F6121802
:1046F8001112475B74064AF5D9780012462240FB2E
:10470800780080061246D3124810E8C39940F51283
:10471800474D12462240FB7800800812531E74054C
:10472800124810E8C39940F375E195900CA9744CB0
:10473800F0A3740A12476912463C7415F09003A25C
:1047480074030249F990051A1246CB74044AF5D944
:104758007800221246C89004EAE0C4333354C0FA01
:104768002212477374F0F0A3740B221247772212B7
:10477800478474F0F0A3740B1247842212467EF02B
:10478800A32212478E22F0900CB774F0F0A3740B9A
:1047980012477774F0F0A3740B12467AF022C082A5
:1047A800C0831245BF2406124DBFE402449974F732
:1047B8001218119003D0E0F875F003A4C8AAF02AE3
:1047C800F974D228F8740339F9E82405FAE9125281
:1047D8006DA3A3A3A3A3A3A3A3A312536EA3A3A3ED
:1047E800A3A3A3A3E024FFF8A3E034FFF98A828BF4
:1047F80083E8F0A3E9F0024A337F060218E3880849
:1048080074452508F5827405124D99F5D90822EAF0
:10481800FEEBFF9061D0E0F87480C398FAEE248232
:104828002212482F940422F582E93400F583E0F53A
:10483800D90AEAC32274F6121811EAFEEBFF906156
:10484800D0E060030248D175D90E75D90375D90433
:104858007A008A08EE2508125327248B1248D6407E
:10486800F17A008A08EE2508125327248312482972
:1048780040F175E1957908EE248BFAEF3400FB12CC
:104888000B787904EE2483FAEF3400FB120B787C62
:10489800008C82AA82C3E49AF895E0F9EE28F8EF32
:1048A80039F9E8248AF582E9124D95C0E0EE2A121A
:1048B800532724AAF582E9124DC2D0E0F00CECC3CC
:1048C800940840CD1248DF800279000249FA124864
:1048D8002F94082275E195EE246FF582EF12466851
:1048E8001253E9EE2471F582EF124668E8F0A3E965
:1048F800F0790122C082C08375D90275D90375D9B0
:104908000575E195EA246FF582EB124921EA2471D5
:10491800F582EB1248F102449C3400F5831253E906
:104928002274F6121811EAFEEBFF90054574061280
:104938004998121A287C017903120BE474021217A1
:10494800B775D90675D903780012497D40FB75E122
:10495800959003A2E064087017EE246FF582EF12B9
:104968004921EE2471F582EF124DC2E8F0A3E9F077
:1049780079010249FA880874452508F582740512F8
:10498800498D9405223400F583E0F5D908E8C3225F
:10499800F075084575090578082274F6121811EAA9
:1049A800FEEBFF9061D0E070427901900545740BF1
:1049B800F09003A2E0640770197508457509057839
:1049C80008121A287C010909120BE474021217B79D
:1049D8007905740129F5D975D9037800800312483F
:1049E80006E8C39940F81248DC8002790080037415
:1049F80001F07F020218E374F7121811EAFEEBFFC8
:104A080075D90375D90375D90DEE24DD124A2475BD
:104A1800E1957904120D461248DF800FF582EF12F6
:104A28004D99F5D922A2E092AF79007F010218E3EF
:104A38007F030218E37401250AF5D975D9037800B4
:104A48002274F5121811124AC96004780480027899
:104A580000E8240BF8EAC3984055750A0990054503
:104A68007409F07908124ABC120B7285088285090C
:104A780083E0601E7508457509057808121A287CB8
:104A8800097903EEFAEFFB120BE474021217B775FB
:104A98000A0D124A3D8003124806E8C3950A40F7FA
:104AA80075E1957904120D46124C3C790180027922
:104AB80000024A38EE24E2FCEF3400FD7A467B051A
:104AC80022124817F8EF124AD2223400F9880889CE
:104AD800098882F583E02274F31218118A088B0979
:104AE800124C48FAE5082482F50AEB124B9F600441
:104AF800780480027800E82408F8EAC39850030292
:104B08004B98750C06900545740CF09003BFE09027
:104B18000546F07402C0E0F97CC07D037A477B0546
:104B2800120B72D0E0F97CC27D03120B72850A82E7
:104B3800850B83E0601E750A45750B05780A121A05
:104B4800287C067903AA08AB09120BE47402121731
:104B5800B7750C0A7401250CF5D975D9037800804E
:104B680009880A7445250A12480CE8C3950C40F1D7
:104B780075E1957904120D46E508246FF582E5097B
:104B8800124921E5082471F582E5091248F18002ED
:104B980079007F050218E33400F50B850A82F58356
:104BA800E02274F6121811EAFEEBFF124C48FCEEF4
:104BB8002482F8EF124CCB60047A0480027A00EA6F
:104BC8002404FAECC39A40607A02900545EAF0EEB4
:104BD80024F4F582EF124C52601B750845750905DF
:104BE8007808121A287C027903EEFA120BE4740290
:104BF8001217B77A0674012AF5D975D90378008097
:104C080003124806E8C39A40F875E195EE2473123A
:104C18004C35EE247F124C35124C3C7904120D466B
:104C2800EE240D1248E2800279000249FAF582EF7B
:104C3800124DD122EE241DF582EF124DD1A3F022A0
:104C48009061D0E0F87480C39822124D999005467F
:104C5800F088828983E02274F6121811124C48FEFB
:104C6800EA2482F8EB124CCB60047C0480027C00BE
:104C7800EC2404FCEEC39C40457C02900545740777
:104C8800F0EA24F5F582EB124C5260177508457569
:104C980009057808121A287903120BE4740212170E
:104CA800B77C0674012CF5D975D9037800800312F6
:104CB8004806E8C39C40F875E195790180027900BF
:104CC8000249FA3400F988828983E02274F51218BF
:104CD80011E9FEA2AFE433F50AC2AF7F00EA246E01
:104CE800F8EB3400F980010F88828983E0F508EF3A
:104CF800C3950850188F08EA2508FCEB3400FDEC32
:104D0800246AF582ED124D956E70DC8017EA25084D
:104D1800FAEB3400FBEA246AF582EB124DC2EE127C
:104D28004C5804F0E50AA2E092AF024A3874F61231
:104D38001811A2AFE433FFC2AFEA246EF8EB1250A9
:104D4800FFE014F07E0080218E08EA2508F8EB12B7
:104D58005329246BF582E9124D95C0E0E8246AF5E1
:104D680082E9124DC2D0E0F00E8C828D83E0F8EE1D
:104D7800C39840D4EA246DF582EB124DC274FF1239
:104D88004DC6EFA2E092AF0249FAF582EB124D99B7
:104D9800223400F583E022C082C083E5A8F8C2AFC0
:104DA800EA246AF582EB124DC2E9124DC6E8A2E781
:104DB800A2E792AF02449CF582E812466822F0EA24
:104DC8002469F582EB124DD1223400F583E4F022F8
:104DD80074F21218118C828D83A3A3A3A3E0541F2D
:104DE800F0EA24361250F58E828F83E4F0F50C85B4
:104DF8000C8285820AEC250AF8ED124AD2C0E0EA54
:104E0800250AF8EB124E6DD0E0F0750D008508828A
:104E1800850983E0F50A750B00E50D780A12176F0E
:104E2800E50AA2E0502AE50C33333354F8250DC0C7
:104E3800E08E828F83E0F8EA28F8EB1253292438B1
:104E4800F582E9124DC2D0E0F08E828F83E004F043
:104E5800050DE50DC3940840B4050CE50CC3940595
:104E6800408D0248013400F9E8245DF582E91246D4
:104E7800682274F61218119003CEE06401700302E0
:104E88004F7B7A009003D4E06003024F7B7401F0FB
:104E9800A3E4F0A3F090043404F0900439F09003F4
:104EA800D71250929003E104F0900407E4F09003C5
:104EB800EA125093A3F0A3F0A3F0900451F09004E9
:104EC80045F090043A7480F0A3E4F0900440F09028
:104ED80004BC124F829004C5F0900454F09004A4CE
:104EE800124F82A3F0A3F09004B0F09004B2F090B7
:104EF80004AEF09004C8124F828A08743C12532200
:104F08007404124DC274FFF00AEAC3940440EA7AAA
:104F1800008A82A88274DC28F5827404124D95C038
:104F2800E0742F28F5827404124DC2D0E0F00AEA2A
:104F3800C3940540DC7A008A82A88274B628F58278
:104F48007403124D95C0E074B428F5827404124DB0
:104F5800C2D0E0F00AEAC3940840DC9003CEE00433
:104F6800F0640170089003D6E09003D0F07AD27B09
:104F78000380047A007B000249FA125097A312506A
:104F88009722C082C083EA2403124D926008E4F09D
:104F98009003CFE014F09003CEE014F07006900375
:104FA800D074FFF08A828B83A3A3E4F09004E1E03D
:104FB800700D9003CFE0640170057900120D28028E
:104FC800449CC082C0839003D5E4F09003D4F09051
:104FD80003CEF0A3F0A374FFF075E1F102449CC086
:104FE80082C083780079009003D5E0600478D27994
:104FF8000388828983A3A3A3A3E0F902449C74F6DF
:10500800121811EAFEEBFFEE2463F508EF3400F501
:10501800098016AA08AB09120B661211A29004E2C5
:10502800E004F09004E3E004F08508828509831227
:1050380053CC70DFEEFAEFFB120B24EEFAEFFB1203
:105048000C1A0249FA74F7121811EAFEEBFF8E8265
:105058008F83A3A3A3A3E0FA7B00120896EEFAEFCE
:10506800FB120B36120BFC024A3374F61218117835
:1050780000880874B61253227403124C3808E8C327
:10508800940840ED9003B60249F7E412509722F0D5
:10509800A3F0A3F0A3F02274F6121811EA240D125B
:1050A80050F5EC2403F8ED3400F988088909EC245C
:1050B80007F8ED1250FF124925850882850983E01B
:1050C800FAA3E0FB1217168E828F83E8F0A3E91289
:1050D80053E0850882850983E0FAA3E0FB121716DE
:1050E8008B09EA4509600312510B0249FAF8EB34BF
:1050F80000F9E8FEE9FF223400F9E8FCE9FD8C82BA
:105108008D83228E828F83E02401F0A3E03400F0A7
:105118002274F6121811EA242E124D92FCA3E0FD17
:10512800EA246F1250F5780079FAECFAEDFB1217C1
:10513800168E828F83E8F0A3E9F0780079FAECFA0A
:10514800EDFB1217168B09EA4509600312510B0291
:1051580049FA74F0121811EAFEEBFF74101217EDF9
:105168007808121659120CDA8A0C8B0D8C0E8D0FDA
:10517800908FD4780C1215E5909024780C12163381
:10518800780C121A208E828F8312525612167712BA
:10519800226174041217B7E960030252468E828FA7
:1051A80083E02402F8A3E0125329FAE9FB8A828BF0
:1051B8008378081215F890902478081216598A8274
:1051C8008B837808121646EE240BF582EF124DC237
:1051D800C082C0838E828F83A3A3A3A3A3E02401EC
:1051E800F8A3E03400F9D083D082E0687003A3E02C
:1051F80069700479018049EE2407F8EF3400F988D2
:1052080082898312510FEE247312524D7014EE24CA
:10521800741252657003A3E06D70078A828B831243
:10522800510FEE247F12524D7014EE2480125265F5
:105238007003A3E06D70078A828B8312510F790087
:105248007F080218E3F582EF124D99640122125289
:105258005A22E0F8A3E0F5838882A3A322FAEF128A
:10526800526DE06C223400FB8A828B83E0FCA3E061
:10527800FD888289832274F3121811E9FEECFFEA93
:105288002462F582EB12525060030253199061D0E8
:10529800E0F508EA2482124D92F50C600478048047
:1052A8000278007480C39508FC95E0FDEF28F8E4C7
:1052B8001253292402F8E93400F9EC98ED99A2D2A6
:1052C80065D0334048740D1217EDE0F50AA3E0F5F8
:1052D8000BE50C6015780A121A28EFFCEEF9120B90
:1052E800E474021217B774042FFF74012FF5D98ED6
:1052F800D97800800C8808E50A125322E50B124879
:1053080010E8C39F40EF75E1957900800679078022
:105318000279FF024B9A8808741B2508F58222F847
:10532800EF3400F9E82274F7121811A2AFE433F54C
:1053380008C2AFEA2402F8EB3400F98A828B83E0D2
:10534800FEA3E0FFEE4F600E88828983E0FAA3E0B7
:10535800F5838A8280048A828B8312536E12537873
:10536800F0E508024A2DECF0A3EDF088828983224B
:10537800ECF0A3EDF08C828D83E4F0A32274F71295
:105388001811EAFCEBFD7A007B00A2AFE433FEC201
:10539800AF8C828D831253CC6022E8FAE9FB8A82B3
:1053A8008B831249251253D2E4F0A31253E0E84943
:1053B800700A8C828D83A3A3E4F0A3F0EEA2E0929E
:1053C800AF024A331253E9E849228C828D83E8F010
:1053D800A3E9F08A828B8322F08C828D831253E9B1
:1053E80022E0F8A3E0F922C082C083800312541D92
:1053F800E9F874FF28190470F4ECFAEDFB02449CF8
:10540800C082C083800312541DE9F874FF28190470
:1054180070F402449C8C828D83E08A828B83F08CAA
:10542800828D83A3AC82AD838A828B83A3AA82AB4D
:10543800832274F012181174FA1217A1ECFEEDFF12
:105448007508008A0A8B0B780A121A700004104C2F
:10545800567B549854B254C954E654FD541D5534DF
:105468005547557055E755F7550D5627564C564C28
:1054780056865574016960030256478C828D83E015
:10548800F8C394034003025647E8900D710256246E
:1054980074026960030256478C828D83125E0AF992
:1054A800900D72E8F0A3E9025624740169600302C2
:1054B80056471256784003025647E8900749025665
:1054C8002474016960030256478C828D83E0F8C317
:1054D80094054003025647E890074A02562474018F
:1054E8006960030256471256784003025647E8900F
:1054F800074B0256247410696003025647750A1058
:10550800750B00780A121A287A4C7B071266281243
:1055180017B702566C740169600302564712567831
:105528004003025647E890075C02562474016960FC
:10553800030256478C828D83E0900D7502562474C1
:10554800046960030256478C828D83780C121659C1
:10555800909014780C12145C500302564790075E22
:10556800780C12166802566CE96003025647120658
:105578001AE9700512101080519007F1805D7407C8
:10558800696003025647750A06750B00780A121AF5
:10559800288C828D83A3AC82AD8374021217FF120C
:1055A800112474021217B77C007D00AA18AB198E5B
:1055B800828F83125A3EFEC3940A40030256691230
:1055C800061AE9700CEEF912101679501212508072
:1055D8006974F22EF582E43407F5837401803D7412
:1055E8000169705B1256785056E890075D802D74FB
:1055F8000169704B8C828D83E0F8C3940A5040E8AF
:10560800900D74801774016970358C828D83E0F871
:1056180074F928C3940A5027E8900D76F0804574F1
:105628000169701B9007F0E0F88C828D83E0900789
:10563800F0F0E8702FE06401702A121004802575DC
:1056480008188020C3EA9427EB9400501474026968
:10565800700F8C828D831260EE1204B8E9F5088011
:1056680003750802A90874061217B77F080218E321
:105678008C828D83E0F8C3940222A9080259B17480
:10568800F012181174B11217A18C0A8D0B908FC2E9
:10569800742012180774061216B474201218071210
:1056A8000FBCE9FF745F1217EDE0F509E9C3940A2E
:1056B800400302580275F006E9A4F508744112186F
:1056C800077A0E74202508125EF87009744D1217B7
:1056D800EDE0FE80027E00900D71E06402700575B9
:1056E8000E018003750E0074086509700474228029
:1056F8000274212508F50D7C1B7D007900742612A3
:1057080017FF12113674261218077A1BA90D125E9C
:10571800F9702D74401217EDE024F9C3940A502053
:10572800E50EF50D780D121A2C7427121807EEA243
:10573800E0E433F9AA0AAB0B12055A74011217B741
:105748007C147D007900740C1217FF121136740C4A
:105758001218077A1074242508125EF870337C102A
:1057680079FF740C1217FF1263367025741C121718
:10577800EDAC82AD837A0474252508F912124A74B7
:105788000C121807EEA2E0E433F9AA0AAB0B1205D3
:1057980042AC18AD197A0C74702F125EF8704AAAD0
:1057A80018AB19120FEC7F00EF75F003A4F8A9F0FD
:1057B800851882851983E58228F8E58339F9888276
:1057C8001260E6601D88828983A3A3E0F50E750F39
:1057D80000780E121A28AA0AAB0B1207A674021236
:1057E80017B70FEFC3940440BFEEA2E1500C900727
:1057F80048E0F9AA0AAB0B1207AC740465097028D3
:10580800900D71E0640270207A0090075CE06002FD
:105818007A01900749E06004780480027800E84A39
:10582800F9AA0AAB0B1206027900744F025670747B
:10583800F012181174F01217A1EAFEEBFF8C088D14
:1058480009750A0AE9600C14600914603914607B50
:10585800025928120FFEE9F50AC3940A40030259B7
:1058680028E50845097003025928750C06750D00CE
:10587800780C121A28EEFCEFFDAA08AB091266286C
:105888001217B7025928750C00750E06750F0078A7
:105898000E121A28EEFCEFFDE50C75F00EA4F8A91F
:1058A800F0746A28FA740739FB121130740212175F
:1058B800B7E9700B050CE50CC3940A506380CA85E0
:1058C8000C0AE50AC3940A50578046750C00AC18B8
:1058D800AD197A1075F006E50CA42423125EF87051
:1058E8001B7C1079FFAA18AB19126336700EEEFCF8
:1058F800EFFDAA18AB19120524E9600B050CE50C9D
:10590800C3940A501B80C7850C0AE50AC3940A5041
:105918000FE50845096009AA08AB09A90A120FF89A
:10592800A90A741002567074F412181189097508BE
:105938001574FF6A700374FF6B70277E00AC097AD8
:10594800027B00EEF9120FDAE960037508000EEE2B
:10595800C3940A40E8E50960487A287B101209A434
:10596800803F1209868A0A8B0BAE0AAF0BEA4F609A
:105978002D7C007D00EA2405FAE43FFB8E828F83AC
:10598800125A32500CAC097A027B00120FDA7508F1
:1059980000E509600CEEFAEFFB1210288003750889
:1059A80014025682740E1217B77F040218E374F2B9
:1059B800121811ECFEEDFF750815740E1217EDE0C4
:1059C800F50AA3E0F50B74FF6A700374FF6B70218E
:1059D800750900AC0AAD0BEEFAEFFBA909120FE04E
:1059E800E960037508000509E509C3940A50348085
:1059F800E21209868A828B83E582458360227C00D5
:105A08007D00E5822405FAE43583FB125A325013EF
:105A1800AC0AAD0BEEFAEFFB120FE075080080033D
:105A2800750814A9087F060218E3A3A3A3A3125AB2
:105A38003EF9C3940A22E0F9120FBCE922C082C0E1
:105A480083900762EAF0A3EBF0900748E0FC7D0042
:105A58007A267B001204B8900748E0F91207220260
:105A680064A674EE12181174EC1217A1EAFEEBFF8B
:105A7800EA240CF510E43FF5118A828B83A3858212
:105A88000C85830DEA2405F50EE43FF50FEA240999
:105A9800F50AE43FF50BEA2403F508E43FF5098A23
:105AA800828B83A3A3E024FA7003025D2E24FD7089
:105AB80003025C41147003025B4B14601024FD70F8
:105AC80003025C24147003025C75025D831267850F
:105AD8006049E0F5838882125E0A880CF50DE84576
:105AE8000D6038851082851183E0F50E780E121A44
:105AF8002CEA240BF582E43FF583E0F9850A8285D8
:105B08000B831260EE0A0A0AAB09850C82850D83A5
:105B180012180F74011217B7025D83850A82850B6C
:105B280083121A4390075E121677120554740212F4
